:020000040040BA
:10000000A038002041204000F99A400079204000AB
:100010007920400079204000792040000000000055
:10002000000000000000000000000000391E400039
:100030007920400000000000E51D4000011C400048
:1000400019204000192040001920400019204000CC
:1000500019204000192040001920400019204000BC
:1000600019204000192040001920400019204000AC
:10007000192040001920400019204000192040009C
:10008000192040001920400019204000192040008C
:10009000192040001920400019204000192040007C
:1000A000192040001920400019204000192040006C
:1000B000192040001920400019204000192040005C
:1000C000192040001920400019204000192040004C
:1000D000192040001920400019204000192040003C
:1000E000192040001920400019204000192040002C
:0C00F00019204000192040001920400099
:1000FC0053B94AB9002908BF00281CBF4FF0FF3183
:10010C004FF0FF3000F06EB9ADF1080C6DE904CE84
:10011C0000F006F8DDF804E0DDE9022304B07047D6
:10012C002DE9F047089D0E4604468C46002B40F006
:10013C0081808A42174645D9B2FA82F24AB1C2F19D
:10014C00200106FA02F320FA01F1974041EA030C70
:10015C0094404FEA174E230CBCFBFEF6B9B20EFBD3
:10016C0016CC43EA0C4306FB01F0984209D9FB1864
:10017C0006F1FF3C80F01581984240F21281023E5C
:10018C003B441B1AA4B2B3FBFEF00EFB103344EA43
:10019C00034400FB01F1A14209D93C1900F1FF33E2
:1001AC0080F00181A14240F2FE8002383C44641A86
:1001BC0040EA064000211DB1D4400023C5E90043AC
:1001CC00BDE8F08702B9FFDEB2FA82F2002A4FD105
:1001DC00CB1B4FEA174E1FFA87F80121B3FBFEFC2D
:1001EC00260C0EFB1C3346EA034608FB0CF3B34209
:1001FC0007D9BE190CF1FF3002D2B34200F2EB80EA
:10020C008446F61AA3B2B6FBFEF00EFB106643EA68
:10021C00064408FB00F8A04507D93C1900F1FF3350
:10022C0002D2A04500F2D2801846A4EB080440EAA2
:10023C000C40C0E78B4208D9002D00F0AF800021A4
:10024C00C5E900060846BDE8F087B3FA83F100293A
:10025C0049D1B34202D3824200F2BB80841A66EBCE
:10026C00030301209C46002DAAD0C5E9004CA7E74A
:10027C00C2F120039740D8409140DE404FEA174E20
:10028C0008434FEA104CB6FBFEF11FFA87F80EFB41
:10029C0011664CEA064601FB08F3B34204FA02F479
:1002AC0009D9BE1901F1FF3C80F08E80B34240F2B7
:1002BC008B8002393E44F31A86B2B3FBFEF00EFB80
:1002CC00103346EA034600FB08F3B34207D9BE19C4
:1002DC0000F1FF3C74D2B34272D902383E44F31A97
:1002EC0040EA01417AE7C1F1200703FA01F422FA4E
:1002FC0007F31C4320FA07F906FA01F34FEA144CF2
:10030C00FE4049EA03094FEA1943B6FBFCFE1FFA0B
:10031C0084F80CFB1E6643EA06460EFB08FAB2454F
:10032C0002FA01F200FA01F308D9A6190EF1FF3016
:10033C0048D2B24546D9AEF1020E2644A6EB0A06C7
:10034C001FFA89F9B6FBFCF00CFB106649EA06466D
:10035C0000FB08F8B04507D9A61900F1FF3C2DD2D7
:10036C00B0452BD90238264440EA0E40A6EB0806CD
:10037C00A0FB02894E45C446CE4618D315D075B3A2
:10038C00B3EB0C0266EB0E0606FA07F722FA01F342
:10039C00CE401F43C5E90076002111E729462846C7
:1003AC000EE76646EDE6184601E74345E7D2B8EBA3
:1003BC00020C69EB04040138A646E0E76046D3E77B
:1003CC0060468CE78646B9E7614674E702383C44E0
:1003DC002BE7084647E7ACF1020C3E4411E72946EF
:1003EC00EEE600BF704700BF3A4B2DE9F7431868A3
:1003FC00394CC26823681268520244BFB3FA83F3C3
:10040C005B09002B5ED08368DB684FF48001984752
:10041C002368013303F001032360304B1B78002B5E
:10042C0055D02F4CDFF8DC80DFF8DC9000232370F4
:10043C00032625464FF47A770A23774373434246C3
:10044C004921009348463B4608F03DFA284609F0FE
:10045C00E5FB612323493246204402F0E9F82846A3
:10046C0009F0DCFB3A462049204F204402F0E0F82A
:10047C00284609F0D3FB1E490022204402F0D8F88C
:10048C003B68002B11DB284609F0C8FB68B12846F5
:10049C003F6809F0C3FB024618230193154B0093E8
:1004AC0029460023384608F0E2FE0023042E237070
:1004BC000BD1114A11491248002303B0BDE8F04397
:1004CC0007F066BF83681B699FE70426B2E703B099
:1004DC00BDE8F083D0110020D4110020181F00209B
:1004EC00181E002059E940005FE940000000002080
:1004FC0062E94000B8110020E0930400E00B0020FA
:10050C001011002040E9400044E9400010B50146BC
:10051C007346C0E91430EFF31483084C9B074CBFAF
:10052C00006140615822206808F0A0F90449054A8E
:10053C002068521ABDE8104008F098B9000000205D
:10054C0000000020609200202DE9F043574887B04E
:10055C00492108F0B8F9564806F066FF554A106074
:10056C0040B95548452108F0AEF94FF0FF3007B0BF
:10057C00BDE8F083C468836840F201621B681621F1
:10058C009847002833D1236843F4800323604B4BF6
:10059C0000261E7002211122084600F0EDFD484D88
:1005AC00B042286027DA4748452108F08CF9464BC1
:1005BC00464FDFF83C81DFF83C9130220021184691
:1005CC0009F09AFB424A426028680023CDE90033C7
:1005DC003E49642209F030F800281BDA3D484521D9
:1005EC0008F071F94521404608F06DF9ECE7CEDAD8
:1005FC0039484521B7E7394C18223146204609F0D5
:10060C007BFB2246364B42F8043B3649022009F06C
:10061C0030F8CCE70328E5DD3B78552BD4D101230A
:10062C00FA5CAA2AD8B21FD103A900220132D4B293
:10063C00844215D3012BC7D09DF80C409DF80D605A
:10064C00224633464921484608F03DF9EA2C0FD0A2
:10065C00EB2C13D024482246492108F034F9B3E797
:10066C00BC5C01F8014BE1E701330B2BD8D1ABE7B4
:10067C00003E1E4B18BF01261E70A5E72DE9FF5F3B
:10068C00EFF3088001B4EFF3098001B41A48016854
:10069C0002B4416802B4816802B4C16802B468460D
:1006AC00FFF734FF06B003BC0CB08DE769E94000DE
:1006BC007DE94000D011002083E94000181E002085
:1006CC0000000020ABE94000E00B0020191F0020C7
:1006DC00F5034000CEE9400090E94000B81100203D
:1006EC000200270FC6E940001EEA4000181F002038
:1006FC00E2E94000FCE9400000E100E00F2808B509
:10070C0006D906F0BDFE092303604FF0FF3008BD8B
:10071C00064BBFF35B8F0C2202FB00308368BFF3E8
:10072C005B8F002BEDD00020F1E700BFD81100202B
:10073C0038B505460C46FFF7E1FF0028A1BF0C2396
:10074C00044A03FB05F01318B1BF00205B6823605B
:10075C00105838BDD811002010B54FF0FF33174892
:10076C004FF0FF3207F022F8154B0024BFF35B8FDC
:10077C001A68BFF35B8F7AB10134102C03F10C03B0
:10078C00F4D106F07DFE172303604FF0FF340B48C5
:10079C0007F084F8204610BDBFF35B8F53E8001FB1
:1007AC00013143E800100028F8D1BFF35B8F0549F5
:1007BC000C236343C818CA504260E8E77006002057
:1007CC00E0110020D811002010B50C23024C584326
:1007DC00231821505A6010BDD811002030B5114A91
:1007EC000C2303FB00230833BFF35B8F1968BFF3A3
:1007FC005B8FB1B1BFF35B8F4C1E53E8005F8D4232
:10080C0004D143E8004CBCF1000FF6D1BFF35B8F71
:10081C00EAD1012905D10C23584311180023135098
:10082C004B6030BDD81100200B6801330B60014BBD
:10083C001B68184704000020014B1860704700BF6C
:10084C000400002007B50B46002102460191034825
:10085C0001A900F019F803B05DF804FB350840005D
:10086C0030B585B0CDE901010446002501A9054844
:10087C00039500F009F8DDE902309842B8BF255421
:10088C0005B030BDAD8840002DE9F04F91B08B46DE
:10089C00029092461C4600259AF8000008B928469A
:1008AC005EE325280AF1010707D0029B59469847B9
:1008BC000028C0F25583013510E2182200210AA845
:1008CC0009F01AFA9AF80130252B78D000229446B8
:1008DC00164696461046394617F8013B2B2B00F06E
:1008EC009D8000F29480202B00F09B80232B00F045
:1008FC009A8028B19DF8300040F004008DF830004B
:10090C00BEF1000F05D09DF8300040F008008DF8C6
:10091C0030002EB19DF8300040F010008DF8300002
:10092C00BCF1000F05D09DF8300040F020008DF890
:10093C0030002AB19DF8302042F040028DF8302072
:10094C009DF8302002F04400442803D16FF3861246
:10095C008DF830209DF830202A2B42F080028DF843
:10096C0030207BD19DF8312042F001024B1C8DF8D8
:10097C0031201A782E2A9DF831200CBF012100213C
:10098C0061F341028DF8312074D15A782A2A6AD049
:10099C00013300210A26184610F8012BA2F130076A
:1009AC00092F40F28E809DF830200E91C2F340004A
:1009BC0040EAD17161F341028DF830205AE00AF11E
:1009CC0002078DF833309DF83130D90740F1498159
:1009DC0054F8049BB9F1000F07DA9DF8302042F06F
:1009EC0004028DF83020C9F100095A0740F1428108
:1009FC0054F8048BB8F1000F80F241819DF831302E
:100A0C006FF341038DF831304FF0FF3837E12D2B68
:100A1C000CD0302B7FF46DAF01225CE74FF0010E50
:100A2C0059E7012657E74FF0010C54E7012052E734
:100A3C000CFB0202303A33461E4616F8010BA0F1AD
:100A4C003007092FF4D9994293D09DF830100D92AC
:100A5C00D20F62F341018DF830108AE70B46002269
:100A6C004FF00A0CE8E79DF8312042F004028DF8B3
:100A7C00312002331F4617F8012B6C2A41D025D8A0
:100A8C00682A2BD06A2A46D04C2A4CD01F4617F81D
:100A9C00012B9DF831308DF83320782A00F2D98063
:100AAC00572A4DD8412A03D0453A022A00F2D18068
:100ABC009DF83230042262F302038DF832300123A8
:100ACC009EE006FB01213039034664E7742A26D0E8
:100ADC007A2ADBD19DF8313006220DE05A78682A4B
:100AEC009DF8312006D1012161F3C6028DF8312029
:100AFC009F1CCCE71346022262F3C6038DF83130FB
:100B0C00C5E75A786C2A9DF8312001D10421EBE716
:100B1C0013460322F0E79DF831300522ECE79DF8EF
:100B2C0031300722E8E7BDF8303023F4F04323F0EE
:100B3C00020343F4804343F00203ADF83030A6E7E0
:100B4C00A2F15801202900F2848001A050F821F074
:100B5C00210C40005F0C40005F0C40005F0C40001B
:100B6C005F0C40005F0C40005F0C40005F0C4000CD
:100B7C005F0C4000BD0A40005F0C4000210C40009F
:100B8C00E10B4000BD0A4000BD0A4000BD0A400018
:100B9C005F0C4000E10B40005F0C40005F0C40001C
:100BAC005F0C40005F0C4000290C4000210C400001
:100BBC00450C40005F0C40005F0C4000450C4000B1
:100BCC005F0C4000210C40005F0C40005F0C4000AB
:100BDC00210C40009DF83210012003F0780360F3E3
:100BEC000201402B8DF8321002BF9DF8301041F0FD
:100BFC0001018DF83010632A31D1003B18BF01235D
:100C0C009DF83020C2F340010B4363F341028DF891
:100C1C003020D8E69DF832100220DEE79DF8322015
:100C2C0003F07803A3F14000032161F30202434275
:100C3C008DF832204341E3E79DF83220032113F075
:100C4C00780F61F302028DF8322014BF01230023C8
:100C5C00D6E79DF8303043F001038DF83030002397
:100C6C00CEE79DF93020002AB4BFDDF834904FF068
:100C7C00FF39BAE69B077FF5C7AEDDF838809DF8E3
:100C8C0031200023CDE90D339DF8323003F00703FA
:100C9C00012BC2F3C30236D1D31E042B20D8DFE8BC
:100CAC0003F00307071F1F0054F8040BC11704E0DF
:100CBC00073424F00704F4E80201CDE90A019DF899
:100CCC00303013F0030654D002983B465246594636
:100CDC0008F03BF90028C0F243810544BA46DBE535
:100CEC0054F8040B012A4FEAE071CDE90A0105D151
:100CFC009DF828300A9300230B93E0E7022ADED1FB
:100D0C00BDF92800D2E7022B23D1D31E042B13D814
:100D1C00DFE803F0030A0A12120020680A9000218F
:100D2C00231D0B911C46CAE7073424F00703F3E894
:100D3C000201CDE90A01F5E754F8043B0A93012AB4
:100D4C004FF000030B93D3D0022AB8D1BDF8283052
:100D5C00D0E7042B07D1073424F00704F4E8020190
:100D6C00CDE90A01ABE7032B04BF54F8043B0A930B
:100D7C00A5E79DF833007828B0D8622822D825281A
:100D8C003FF493AD5828A9D10DF126030093DDE96A
:100D9C000A0104AB0CAA08F08DF88246B8F1000FDA
:100DAC000DF126000CDB9DF83020A0EB0A036FF34D
:100DBC00861298458DF8302002D9A8EB03030D93C9
:100DCC0080463DE06338152888D801A151F820F001
:100DDC005D0E4000C10E4000E90C4000E90C4000E3
:100DEC00E90C4000E90C4000C10E4000E90C400049
:100DFC00E90C4000E90C4000E90C40001F0F4000DA
:100E0C00ED0E4000F10E4000E90C4000E90C4000F2
:100E1C00350E4000E90C4000ED0E4000E90C40009E
:100E2C00E90C4000ED0E4000B8F1000FDDF828A0F1
:100E3C000ADB4146504608F0F8FE0AEB0008002693
:100E4C00BAF1000F0CD149E7504608F0E7FEF4E781
:100E5C000A9B8DF8103000260DF111080DF1100AC7
:100E6C00A8EB0A0306B101339DF83220D0066BD5EE
:100E7C00023352060D9948BF0E9A0B4448BF9B187B
:100E8C00B9F1000F79DD9DF83020A9EB0309C2F30D
:100E9C0080030393530770D4500664D546B1029B6C
:100EAC0059463046984700285ADB039B01351E46AD
:100EBC00302359E01E0711D413F0100618BF20265A
:100ECC00DDE90A23002A73F10001BFF65DAF52423F
:100EDC0063EB4303CDE90A232D2655E72B26EFE7D9
:100EEC00002651E70A9848B30DF1260300930CAA8B
:100EFC0004AB002107F0DEFFBDF8323003F0EF0346
:100F0C0043F4F04343F010038246ADF83230002630
:100F1C0044E70A9B072A3FF6E1AEDFE802F00D0436
:100F2C00060D08080D0D1D70D8E61D80D6E6284666
:100F3C00E917C3E90001D1E61D60CFE6DFF8C480F4
:100F4C000646A8F1050A8BE7110748BF013390E765
:100F5C00184603935946029B98470028039B04DAD2
:100F6C0011B0BDE8F08F20234D444A46002AA5EB72
:100F7C00090109F1FF39EBDC0D4636B1029B5946EC
:100F8C00304698470028EBDB01359DF83230D90606
:100F9C0001D41A0706D5029B5946302098470028E1
:100FAC00DEDB01359DF83230DB0607D59DF83300CA
:100FBC00029B594698470028D2DB01350D9E2E44E2
:100FCC00731B002B16DC029843465246594607F019
:100FDC00BCFF0028C4DB0544A944A9EB0503002B86
:100FEC007FF77CAE029B5946202098470028B7DB40
:100FFC000135F2E7029B5946302098470028AFDBB9
:10100C000135DDE747EA40004FF01003EFF31181A3
:10101C0083F31188BFF36F8F1C4B4FF4A0621A60DF
:10102C00A3F5C0631A4A1A629A6ED207FCD5194A04
:10103C001A629A6ED003FCD5174A1A629A6E920302
:10104C00FCD41A6B22F0030242F001021A639A6E6E
:10105C001007FCD5114A9A629A6E9207FCD51A6B4E
:10106C0022F070021A639A6E1007FCD51A6B22F0EC
:10107C00030242F002021A639A6E1207FCD581F346
:10108C001188BFF36F8F0020704700BF000A0E401D
:10109C0009FF370009FF370101FF3701013F092024
:1010AC001F2805D8012303FA00F0074B186170477D
:1010BC003F2807D8012300F01F0003FA00F0024B71
:1010CC00C3F80001704700BF00040E4037B5069D01
:1010DC0004468BB9009309490022002303F094FCC9
:1010EC0004F174000CF016FE214605F1740003B0F7
:1010FC00BDE830400CF03BBE03B030BD75914000F4
:10110C00F7B507460E461546FFF726FB041E17DB00
:10111C003DB97B1E012B04D8022E14D0012E08BF22
:10112C000625F1B201ABAAB2B8B203F089FB061ED8
:10113C000BDA2046FFF752FB07F09EFF7642066063
:10114C004FF0FF3412E01125EBE701980023036008
:10115C00036774300CF0DEFD062D02D1019809F006
:10116C00D3FF044A01992046FFF72EFB204603B01B
:10117C00F0BD00BFDCE640002DE9F041104DDFF87A
:10118C00448004460E461746454506D33A4631463A
:10119C002046BDE8F041FFF7B3BF2B68A34200D057
:1011AC0063B96B683A4631462046984730B1AB6814
:1011BC003A4631462046BDE8F04118470C35E3E786
:1011CC008CE640008CE6400037B5054609F0D6FFAA
:1011DC00041E07DA07F050FF644204604FF0FF3042
:1011EC0003B030BDB5F88E30C3F38113022B09D197
:1011FC002B680093044900220023284603F004FCCA
:10120C00041EE7DB0020EBE7759140002DE97F43DE
:10121C00002447F230584FF00009CDE900890294C0
:10122C00234606460AF063F9051E08DA07F024FF88
:10123C006D4205604FF0FF3004B0BDE87083336839
:10124C000093054900220023304603F0DDFB051E08
:10125C00ECDB2046F0E700BF7591400037B5054642
:10126C000AF00DF8041E07DA07F006FF644204606A
:10127C004FF0FF3003B030BD05490095002200232C
:10128C0028460AF0A0F9041EEEDB0020F2E700BFAE
:10129C00D91040002DE9F04705460F461646FFF7DA
:1012AC005BFA041E40DB2B6F83F00203C3F3400890
:1012BC004FF0000AD8F100086AEB4A0905F17400F6
:1012CC0042464B4606F032FB054670B92046FFF706
:1012DC0085FA58EA090304D107F0CEFE0B2303600C
:1012EC0022E007F0C9FE1623F9E7806F51460CF097
:1012FC0005FD70B190F8393099070AD52B6F43F082
:10130C0001032B672046FFF769FA07F0B5FE35237A
:10131C00E5E7B5F88E305A0509D507F0ADFE352353
:10132C0003602046FFF75AFA4FF0FF341BE023F41A
:10133C000073A5F88E3077B16EB13268182A28BFC9
:10134C00182205F12801384608F0ABFC2B8D012B37
:10135C000CD108233360284609F0D6FE094A2946E9
:10136C002046FFF731FA2046BDE8F087022B01D169
:10137C001823EFE72046FFF731FA07F07DFE232311
:10138C00ADE700BFDCE640002DE9F04F8946590679
:10139C0089B0064692461CD4036F9A0719D4354877
:1013AC0000210CF0BFFE4FF0FF34074688464FF08B
:1013BC00FF3533680093304900220023304603F098
:1013CC0023FBB0F1000B1CDA07F056FECBF1000347
:1013DC0049E0002400252746A846EAE70293CDE918
:1013EC000045129B5246494630460AF017F919E05F
:1013FC0007F042FE372336E04FF47A70002106F0F6
:10140C0033FE129A3368002AE8D004930023019328
:10141C00139B0093CDE9024513464946524630468C
:10142C000AF050F90028834620DA10F1370F02D069
:10143C0010F10B0FC8D16B1C08BFB4F1FF3FC3D127
:10144C0007F07EF93B1A069368EB01030793DDE97D
:10145C000623012A73F10003CEDA1BF1370FC7D133
:10146C0007F00AFE0C2303604FF0FF3B584609B00F
:10147C00BDE8F08FA08601007591400010B50748BB
:10148C00074C05F0D1FF074B1860204601F0CAF855
:10149C002046FFF7D1F9002010BD00BF48EA4000FC
:1014AC00B5144000981200200A2838B5074D0446A0
:1014BC0004D1286883680D215B6898472868836885
:1014CC00E1B25B689847204638BD00BF98120020F7
:1014DC00042908B5074BA8BF04216FF010029142F4
:1014EC00ACBF591899184A7C052100F021FA00204C
:1014FC0008BD00BF80EB4000F0B5C56895F85034CE
:10150C00032BA5B0074609D095F85E44042C0CD8E3
:10151C002948452107F0D7F925B0F0BD022203A9CF
:10152C0000F036FA9DF80D40F0E7631D852BA8BF3F
:10153C007F2466B2721DD2B203A9384600F028FA95
:10154C0024AB1C44002214F8823C85F85A3414F85D
:10155C00813C85F85B34023E00232868F6B2CDE965
:10156C00002300231A46314603F04EFC044610B902
:10157C0012484521CEE70369324698680DF10E01F9
:10158C0008F08FFB20693146083008F00DFC95F807
:10159C005A3484F8473095F85B3495F85C2413443E
:1015AC0084F846302868214601F026FD0028B3DA7D
:1015BC0020460AF096F9AFE74FEA40006CEA40008B
:1015CC0038B5A1F10B030F2B05460C4607D90B4878
:1015DC000A46452107F077F96FF0150038BD082150
:1015EC0000F074F920F01F0343EA04022846D2B23B
:1015FC00082100F09DF90020F0E700BF82EA4000CE
:10160C000229F8B50A46C76804461E4606D01F488C
:10161C00452107F058F96FF02200F8BD0121204652
:10162C0000F054F900F01F001128F7D01F28F5D056
:10163C002046082108F0B5F80F21204600F046F9A5
:10164C002046192108F0ADF80F21204600F03EF994
:10165C000025327BB168C7F84054204600F0BCF935
:10166C00204608F0FAF94FF0FF324FF0FF3307F540
:10167C00876006F045FD97F85134033BDBB2042B31
:10168C0096BF034A2846D056C7E700BF9EEA4000E3
:10169C007BEB40002DE9F043C768D0F804807860FC
:1016AC008FB005460122002107F587600CF04FFC36
:1016BC000122002107F584600CF049FC6C68EE688F
:1016CC00206805F0B1FEB06068B922687848452101
:1016DC0007F0F9F87748452107F0F5F86FF00400AA
:1016EC000FB0BDE8F083A268217942F4807208F053
:1016FC0022F8B06821794FF4B82208F008F8E068B5
:10170C0005F092FEF06008B9E268DFE76269217CBF
:10171C0042F4B05208F00FF8A06905F085FE306174
:10172C0008B9A269D2E7226A217F42F4B05208F0CC
:10173C0002F8606A05F078FE706168B1E26A94F8AC
:10174C00281042F4807207F0F6FF706994F82810A4
:10175C004FF4B82207F0DBFF206B05F065FEB0619B
:10176C0030B1A26B94F8341042F4807207F0E3FFAE
:10177C006E68EC68F06B05F057FEE06138B94C48C8
:10178C00F26B452107F09FF84B484521A4E74FF435
:10179C008073A384736CE3844FF00009336CB06CDA
:1017AC002362C4F8289005F03FFEE06250B1F36C60
:1017BC0084F83430336D84F8353004F12C03C4F8DC
:1017CC003090A36228466E68EC6808F026F908226F
:1017DC000221284600F0ACF80121284600F076F8EA
:1017EC0000F01F000828F2D11C21284600F06EF8EA
:1017FC001D2184F85004284600F068F894F8503401
:10180C0084F85D04032B4BD00A2B4BD00B2B4BD104
:10181C00A2232E2284F85C340421284600F088F898
:10182C0094F850340A2B0CBF8022A0220C2128469D
:10183C0000F07EF80C220E21284600F079F873682F
:10184C001E48012202FA03F3C4E90F03A06883685F
:10185C00DB6904F1380103B1984707F14805002210
:10186C000023CDE9062300246FF00D03CDE90334EA
:10187C0007F1E001CDE90144114B00974FF4487298
:10188C00284606F0D3FC98F854300E4A142109A8C7
:10189C0007F026F809A928460CF06FFB20461FE735
:1018AC00A523B6E7A623B4E70748452114E700BFF4
:1018BC00BCEA4000E5EA400003EB40000998400018
:1018CC00A59840003DEB40001FEB400010B58EB0DA
:1018DC0000238DF80F300DF1070304AA04930123A4
:1018EC00CDE906230DF10E02CDE90A230DF10F020D
:1018FC00CDE90C23C46805930AAB61F07F01089312
:10190C000223E0698DF80710099308AB06AA04F1CD
:10191C00200108F07CF828B19DF8072003484521E8
:10192C0006F0D1FF9DF80F000EB010BD96EB4000F5
:10193C0010B58EB00DF107038DF806200A930DF14A
:10194C0006020123CDE90C230AAA04920222C468E0
:10195C0005920DF10F02CDE9062361F03F0106AAB5
:10196C00CDE90823E0698DF807100B9308AB04AAA6
:10197C0004F1200108F04BF828B19DF8072003482A
:10198C00452106F0A0FF0EB010BD00BFCBEB400010
:10199C0010B58AB02023C4688DF807300DF1070309
:1019AC0002A8CDE90612029306AA0123CDE904038D
:1019BC00CDE90823E069039308AB04AA04F12001E4
:1019CC0008F025F818B10348452106F07CFF0AB051
:1019DC0010BD00BFFDEB400010B57D2A8EB028BFB6
:1019EC007D226023CDE90C128DF80530931C08AADA
:1019FC008DF8073002920DF105030322C468089399
:101A0C00039201230DF106020DF10700CDE9042329
:101A1C0004AACDE90A03CDE90623E069099306ABD4
:101A2C0002AA04F1200107F0F2FF18B10248452187
:101A3C0006F049FF0EB010BD26EC400010B590B07A
:101A4C000DF107048DF80710C16800208DF80B000C
:101A5C000DF10B0008900120CDE90A40099008A86F
:101A6C00CDE90E23049003AC02200CABCDE90C4065
:101A7C00CDE906300590C86906AB04AA203107F001
:101A8C00C6FF18B10248452106F01DFF10B010BD6D
:101A9C004CEC4000436810B51C68C3681A7A32B924
:101AAC000E48452106F00FFF6FF0150010BD5A7A55
:101ABC008AB9C80742BF5A6842F000525A608A0776
:101ACC0042BF5A6842F080525A605A6862600122E2
:101ADC005A720020EAE74FF0FF30E7E787EC40004E
:101AEC004FF47A72504308B50C4BB3FBF1F18142C1
:101AFC00C1EB013301D883420AD20948B3FBF2F39C
:101B0C00B1FBF2F2452106F0DEFE6FF0150008BDC8
:101B1C00B0FBF1F0C0F30B00F9E700BF0020A10708
:101B2C00A8EC400038B5C5682B7A0C4633B11E487A
:101B3C00452106F0C8FE6FF00B0038BD0B6813B1E1
:101B4C006FF01500F9E760684FF40041FFF7C8FF2C
:101B5C000028F5DB237B012B1FD0022B20D0ABB947
:101B6C00A36873B12B604FF48052104B03EA00430F
:101B7C00C0F30B00034313436B6001232B72002053
:101B8C00DBE70B48452106F09EFED9E709484521C5
:101B9C0006F099FE6FF02200CFE74FF4C042E4E765
:101BAC004FF40052E1E700BFE0EC40000000FF0FF3
:101BBC0007ED40002FED40000B4B9A6819689868B0
:101BCC000A4B11F4803F10B5094901D1824205D26C
:101BDC001A680C6822441A60034A12681B680A6867
:101BEC001344181A10BD00BF10E000E00C130020C5
:101BFC000813002008B5FFF7DFFF0C4B0C4A1868E0
:101C0C0011680844106000221A600A4A116842F6F2
:101C1C00E063401AB0FBF3F003FB0013136006F013
:101C2C0023FDBDE8084000F0F9BB00BF0C130020F9
:101C3C000413002000130020094B102283F82320EA
:101C4C00084B42F6DF621A60074B00201860074B06
:101C5C005A6098601A6842F007021A60704700BF19
:101C6C0000ED00E0081300200C13002010E000E051
:101C7C0070B52B4D51B1431C0ED12A4A136823F079
:101C8C00010313604FF07F432B6070BD40F275531E
:101C9C00B0F1FF3F08BF1846441E002C27DD40F270
:101CAC0075539C42A8BF1C464FF01003EFF31186EE
:101CBC0083F31188BFF36F8FFFF77EFF1A4B1A68FF
:101CCC0010441860194B00221A60194B1B68C11A7A
:101CDC000FD54FF480632B602B68124A013B536085
:101CEC000023936086F31188BFF36F8FCDE7002438
:101CFC00DAE742F6E06202FB041404F53B54181ACE
:101D0C001F34B4FBF2F402FB0400B0F5806F04D96D
:101D1C00084B9842DFD82860DEE74FF48060FAE782
:101D2C000813002010E000E0041300200C13002026
:101D3C000013002060CCFF0010B54FF01003EFF340
:101D4C00118483F31188BFF36F8FFFF735FF074BB7
:101D5C00074A1B6812689B1A034484F31188BFF36B
:101D6C006F8F42F6E060B3FBF0F010BD041300205F
:101D7C000013002010B54FF01003EFF3118483F320
:101D8C001188BFF36F8FFFF717FF044B1B681844C4
:101D9C0084F31188BFF36F8F10BD00BF04130020B4
:101DAC000A4A0B4993680968C3F880100949D86737
:101DBC004B6843F080534B60002383F31188BFF3CF
:101DCC006F8F9368D3F88000704700BFD01D002040
:101DDC0028E9400000ED00E012498A684FF0380015
:101DEC001044EFF3098C80E8F01F102080F3118869
:101DFC00BFF36F8F0C4F4FF000664A6A8A603E60EB
:101E0C00D06F0023D36780F3118804B5104600F01F
:101E1C004DFBBDE8044002F1380090E8F01F8CF354
:101E2C0009887047D01D002004ED00E01EF0040F5F
:101E3C000CBFEFF30880EFF30980816911F8021CE5
:101E4C000229FFD001B507F04DFE01BD43B2002BB6
:101E5C0008DB012200F01F0002FA00F05B09024AC5
:101E6C0042F82300704700BF00E100E043B2002BB2
:101E7C00A8BF03F1604301F10101B8BF064B4FEA63
:101E8C000111ACBF03F5614300F00F00C9B2B4BF40
:101E9C00195483F80013704714ED00E042F8203C0D
:101EAC00009B42F81C3C0A49019B42F8183C029BDF
:101EBC0042F8143C21F001014FF0807342F8043CCD
:101ECC0042F8081C0023203A8265C367704700BFA4
:101EDC00078940000B4A0346906890B113F1160F26
:101EEC00C06E05D0A0F120029A4206D8834204D2DB
:101EFC0081422CBF0021012100E00021002908BFF4
:101F0C0000207047D01D002008B504460E4615462B
:101F1C0000F0C0FA084B20469C6000F0C7FA284637
:101F2C0086F30988002163B681F31188BFF36F8FA4
:101F3C000022002306F0E1FCD01D002001491022F4
:101F4C000A60704710ED00E072B6404080F31188D3
:101F5C00BFF36F8FBFF34F8F30BF62B6BFF36F8F7E
:101F6C00704700BF37B505460C46C9B18B68009366
:101F7C00D1E900230E48452106F0A5FC63690093C6
:101F8C00D4E903230B48452106F09DFCE2690A487D
:101F9C00452106F098FCA2690848452106F093FCFF
:101FAC002146284603B0BDE8304005F07BBA00BF9F
:101FBC0073ED4000A7ED4000DBED4000EFED40007D
:101FCC0030BFFFF7FDBF00BF0E4A08B50E4B22F025
:101FDC007F029A60BFF34F8FBFF36F8FD3F88820C7
:101FEC0022F47002C3F88820EFF3148323F0040367
:101FFC0083F3148805F0A2FA06F016FA00F01CFA26
:10200C0005F0C0FA0000400000ED00E001B5EFF370
:10201C000580A0F110004FEAC0000449014409C931
:10202C009847BDE8014002490847000014E540000C
:10203C0029244000102080F311880B484FF0AA018E
:10204C004FF4026207F058FE07484FF40261401843
:10205C0080F30988EFF314800221084380F314887D
:10206C00BFF36F8FFFF7B0FF203A0020EFF308802B
:10207C00EFF3098101B5724600F018F901BD00BFFC
:10208C002DE9F0412E4C064688462E484521154632
:10209C0006F019FCA26AD70603D52B48452106F099
:1020AC0012FCA36A180703D52848452106F00BFC3F
:1020BC00234CA36A990721D46FF01507204CA26A10
:1020CC00D30703D52248452106F0FDFBA36A9806E9
:1020DC0003D52048452106F0F6FB194B9A6AD10628
:1020EC0021D49A6A92071ED40020154A936A43F0B1
:1020FC00FF03936200232B70BDE8F0811648452145
:10210C0006F0E1FB676BA36A1A06D5D513483A466D
:10211C00452106F0D8FBB8F1000FCFD0A36A23F00D
:10212C008003A362CAE75B681B05DDD531463846E0
:10213C00FFF7D0FE0028D7D080F309880220D4E71F
:10214C0000ED00E022EE40003DEE400075EE400058
:10215C00C5EE4000E9EE40008DEE4000AAEE4000D6
:10216C0070B5234C06460D462248452106F0ABFBC4
:10217C00A26AD10403D52048452106F0A4FBA36A2A
:10218C001A0503D51D48452106F09DFB184CA36A82
:10219C009B0510D51A48452106F095FBA26BA36A46
:1021AC00180408D51748452106F08DFB1EB1A36A0B
:1021BC0023F40043A3620E4CA36A590503D51248BD
:1021CC00452106F080FBA36ADA050BD50F484521A3
:1021DC0006F079FB064A936A002043F47F4393622E
:1021EC00287070BDA36A9B04F4D509484521EFE71C
:1021FC0000ED00E01DEF400038EF400075EE4000B0
:10220C004EEF40006CEF400086EF4000A6EF400020
:10221C00E9EE400010B51D4C1D48452106F053FB5E
:10222C00A26A930103D51B48452106F04CFBA36A17
:10223C00DC0103D51848452106F045FB134CA26A76
:10224C00100303D51548452106F03DFBA36A59033D
:10225C0003D51348452106F036FB0C4CA26A9203B9
:10226C0003D51048452106F02EFBA36ADB0303D5EA
:10227C000D48452106F027FB044A936A6FEA034395
:10228C006FEA13439362002010BD00BF00ED00E025
:10229C00C3EF4000E0EF4000F8EF400017F04000C3
:1022AC003AF0400064F0400083F040002DE9F04328
:1022BC004A4BD3F804908BB00F46C9F3080800259D
:1022CC0085F31188BFF36F8F02F07F43B3F17F4F1B
:1022DC0007D102F00C03082B05D14148452106F02B
:1022EC00F2FA2F4603E0120701D40746012500221B
:1022FC00A8F103068DF807201446092E5CD8DFE8F8
:10230C0006F0055054345B5B5B5B5B5835484521EC
:10231C0006F0D9FA314B8DF80740DC6A14F0020450
:10232C0005D03148452106F0CEFA002420E0DB6AC6
:10233C005B001DD52D48452106F0C5FA2C4B1B78AA
:10234C0033B10DF1070201213846FFF799FE0EE07B
:10235C00284B1B782BB10DF107010120FFF700FF73
:10236C0005E0254B1B889BB213B1FFF753FF0446C6
:10237C009DF8073093B92022394602A807F091FC4A
:10238C00099B35B3C3F3080222B96FEA53236FEAF2
:10239C004323099302A92046FFF7E4FD0BB0BDE8E7
:1023AC00F0830DF107020021CEE70DF107010020AB
:1023BC00D4E712484521B6E71149124A124819F4DC
:1023CC00F87F08BF0A46A8F11003452106F07BFAF6
:1023DC00ABE723F4FF7323F00103DAE700ED00E031
:1023EC00E1F0400011F140002DF1400053F14000AC
:1023FC0028ED00E029ED00E02AED00E077F1400047
:10240C00B3F04000C8F04000B2F14000024A5369FA
:10241C0043F010035361704700ED00E0044B9968E2
:10242C00586A884203D003494FF080520A607047C3
:10243C00D01D002004ED00E0044800231021C21838
:10244C0001332F2B82F80013F9D1704700E100E023
:10245C0008B50E4B9B68834207D1EFF3058393B10C
:10246C000B4A536843F08053536005F04FFC4FF018
:10247C001003EFF3118083F31188BFF36F8FBDE866
:10248C0008400BF092BC05F049FF00BFD01D0020A6
:10249C0000ED00E0024B034A0348032100F0A2B810
:1024AC00000002200000002080E74000C26E054BB7
:1024BC00203A1A60044A2021C3E90112184601216E
:1024CC0000F09AB81013002000000B15F8B5224F3D
:1024DC00154600228A420EDA4468002C39D093B19A
:1024EC0004F1FF3C14EA0C0F07D01C48452106F000
:1024FC00EAF96FF015052846F8BD1F2CF5D90668CA
:10250C001CEA060FF1D1202C0668D0F808C0EDB2F9
:10251C0010D9B4F1004F0FD8013CB4FA84F4C4F1D3
:10252C001F046400072D4CEA040407D90C482A4602
:10253C004521DCE70824F5E73E24F3E726F01F06E7
:10254C002E4346F0100644F00104BD60FE600135D8
:10255C003C6101320C30BDE790ED00E0CEF1400063
:10256C00F6F14000034B05225A60BFF34F8FBFF3C7
:10257C006F8F704790ED00E0BFF35F8F014B00222F
:10258C005A60704790ED00E013490868082810B5B0
:10259C001ED8FFF7F1FF114C49680022904201F15F
:1025AC000C0105D10E4B1870FFF7DCFF002010BD9D
:1025BC00A26051F80C3C23F01F03134343F01003AB
:1025CC00E36051F8043C43F0010323610132E5E779
:1025DC004FF0FF30EBE700BFA4E7400090ED00E0C8
:1025EC007D1F002010B5034C01232278FFF76EFFEE
:1025FC00207010BD7D1F002008B5084A00231278FA
:10260C00FFF764FF10F1160F03D0054B00220728CB
:10261C0000DD08BD98601A610130F8E77D1F0020CD
:10262C0090ED00E0014B1860704700BF38000020AF
:10263C000EB40FB505AB6FF0004153F8042B0290AC
:10264C0003910648019302A9FEF71EF9029B002292
:10265C001A7004B05DF804EB03B07047519D400054
:10266C008379054A282101FB03235B6AC01A034BBB
:10267C00C0105843704700BFE4060020ABAAAAAABA
:10268C0010B50A4A8379282404FB03230A681B6AC1
:10269C005C6823689A4294BF0A600B60FFF7E0FF06
:1026AC00D4E9002302FB003010BD00BFE40600207B
:1026BC002DE9F347054601911046194616461F466B
:1026CC000BF030FD804689464FF01003EFF3118A72
:1026DC0083F31188BFF36F8F6B8B002B54D02A8B35
:1026EC009A423DD900220023284605F01FF90446E2
:1026FC00002835D08AF31188BFF36F8F019B002B14
:10270C0052D056EA070310D07B1C08BFB6F1FF3F2E
:10271C000BD006F015F8B8EB000669EB0107002E9C
:10272C0077F10003BCBF00260027A379DFF8908067
:10273C00282202FB038301A91B6A1B6832461D6811
:10274C0020463B46A8470546206170BBA07900EBAC
:10275C008000214608EBC0000BF014FB2C461FE058
:10276C00688B431E6B838AF31188BFF36F8F2C8B9E
:10277C00241A686A182303FB04041148114B2D1A00
:10278C00ED105D43A571B9E78AF31188BFF36F8F24
:10279C0032463B46284605F0C9F804460028ADD120
:1027AC00204602B0BDE8F08723610023012223609C
:1027BC00A280A381019A2369E281A360F0E700BFA4
:1027CC00E4060020CDCCCCCC2DE9F041174D0446CD
:1027DC00002628270CB9BDE8F0812379D4F80080B5
:1027EC00013BDBB22371002BF5D1216959B163791F
:1027FC009B0707D4A37907FB035320461B6A1B686E
:10280C009B6898472661A079A66007FB0053266059
:10281C00DB691BB1204698474446DBE700EB8000A0
:10282C00214605EBC0000BF0ADFAF5E7E4060020FD
:10283C0003681B682DE9F041D3F8088007460C4665
:10284C00B8F1000F6AD091F83B30C3F34203022B6E
:10285C0067D10B6B23B9344B0B63062381F83430EF
:10286C004FF47A720023204602F0A6F9054620B9EF
:10287C006FF00B052846BDE8F08194F83B20866884
:10288C00C2F34202022A36D123699B681B7EFF2BBE
:10289C0031D12649304607F004FA2369996804229D
:1028AC002431B01C07F0FDF90622B018A16A07F01C
:1028BC00F8F96FF0790333736FF0220373730E2101
:1028CC0005F1080007F070FA2946204609F043F894
:1028DC00204609F0DAF83A68D8F818301068214622
:1028EC0098470546206955B10368236100230360AE
:1028FC0008F0F3FFBEE7216B06223046D2E7034611
:10290C0043B902682261036008F0E7FF204608F033
:10291C00E8FFAFE79A891B681544F1E76FF00105F2
:10292C00A8E76FF02205A5E738F240003EF2400020
:10293C002DE9F04F036889B09B68029391F83B3006
:10294C000190C3F34203022B0D4604D06FF0150027
:10295C0009B0BDE8F08F0B699968183107F06DFD6F
:10296C0001218046284609F043FB0028F0DB2C6946
:10297C0000222346002B51D142440392A2680592B7
:10298C0081B204948DF81C0022469089126803448D
:10299C00002AFAD12E4E8DF81D200B44ADF81830BC
:1029AC00ADF81A20B281934606F1080AB1464146A9
:1029BC00504607F0F9F9039B7D2B33D90122494688
:1029CC0004A800F047F8049C029843464A4605F1D7
:1029DC00300107F048FD0028B8D0019B1B6818682F
:1029EC008368002B2BD05B689847030727D5019B86
:1029FC001B681868836843B39B692A461F460221EB
:102A0C004B46B8470028A3D1B389B0819B44002C16
:102A1C00CDD1284608F065FF584699E799891B687F
:102A2C000A44A7E7B389B068A289A168184407F0E3
:102A3C0038F9A189504607F0B7F92468C4E7019822
:102A4C004A46294607F0C7FDDCE76FF001007FE737
:102A5C003C0000202DE9F74F90F80DA0404F01925B
:102A6C0004460E46BAF1000F02D13B8801333B807D
:102A7C00B4F808B0B58996F80C9006F10808BAF1CC
:102A8C00000F40D10421404607F08EF9B368C021F5
:102A9C0003F80910B3683A8813F809C0CBF3022184
:102AAC0003EB090041EA0C0103F8091080F801B0AE
:102ABC00B0686BB2991CCDB250FA81F14FEA122C6E
:102ACC0000F805C04A70BAF1000F04D00433B268A4
:102ADC00DBB202F803A0337BB57B627BED1A638912
:102AEC0005F0F8052B44638122B9019B93B1227B3D
:102AFC00AD1AEDB20DB1236873B96389DB0863734A
:102B0C0003B0BDE8F08F0521404607F04DF9B368DE
:102B1C00E021BDE70135ECE79F686168B089CA1B0D
:102B2C001F7BB368BF1AFFB2AF4228BF2F463A468D
:102B3C00184407F0B6F83946404607F035F9D4E9A1
:102B4C00002390689189181A091A8F4206D11368CC
:102B5C0023600BB19B686360ED1BCAE73B44FAE74B
:102B6C00101E00202DE9F04F054693B068B3D0F845
:102B7C0010A0BAF1000F28D0DAF808301F7807F04F
:102B8C00F802BF2A40F23681C02A20D1BAF80C20B4
:102B9C00032A1AD95A789B4C93F8038094F838106E
:102BAC003F0207F4F85742EA07069A7800203746A6
:102BBC0048EA0228286181B1A38EB34203D1E38E87
:102BCC00434500F08280C5F810A002200FE1E02AF6
:102BDC00E0D1BAF80C20042ADBE74FF001093022CF
:102BEC002563A686A4F8368084F83890204607F032
:102BFC0083F8854B636085484CF2503200232146A4
:102C0C0005F0C6FBDAF80830206B1B7803F0F803EC
:102C1C00C02B5CD10369CAF80030C0F810A0236B3C
:102C2C0019694FF0000B8A46BAF1000F53D18A682C
:102C3C000192101D88601846009302F0D1FB009B96
:102C4C00019A1B699A606FF000439842A38E18BFDB
:102C5C0000EB0B0A53454FF0000340F0C180226B90
:102C6C00116929611361D5F810904A46002A42D1A6
:102C7C00B9F1000F7BD1A38EBB420ED1E38E43453D
:102C8C000BD1206B08B108F02CFE0023C4E90C33E7
:102C9C005C4884F838300BF0DAF9284602F02AF94F
:102CAC00002892D0284608F0F0FE282708AB02A98D
:102CBC0028460293039709F0B4F80446002872D111
:102CCC00284608F0E2FE012091E081469AE7514641
:102CDC0008F0F5FEA3E7DAF80820127802F0F80203
:102CEC00C02ABAF80C20DAF800A014BF0520042082
:102CFC00121A934498E7D2F800A093B39868D2F8CC
:102D0C0008C0017801F0F801C02918BF01799CF8BE
:102D1C00000000F0F80014BFC9000021C02816BF45
:102D2C009CF804000020C00088421AD349464FF09A
:102D3C00000CA9B18B4213D0D1F808B09BF800E07D
:102D4C000EF0F80EBEF1C00F0ED09BF804E0B0EB05
:102D5C00CE0F09D2BCF1000F01D0CCF800201160CD
:102D6C001A461346524681E78C460968E1E7D9F8C2
:102D7C000800B9F80C20037803F0F803C02B14BF3B
:102D8C004FF0050A4FF0040AA2EB0A0200EB0A010D
:102D9C0006F070FFB9F80C30A3EB0A03A9F80C305D
:102DAC00D9F8009064E7283E76BA85F8387002A905
:102DBC008680284609F056F8A379112B80D104ABF4
:102DCC00069306A908232846079309F02AF8002839
:102DDC003FF476AF868006A9284609F043F86FE7E2
:102DEC00B9F1000F0CD1284608F07BFD484613B012
:102DFC00BDE8F08F02F07EF800283FF4E6AE62E703
:102E0C001846F4E7100C002033A5400010110020E8
:102E1C002DE9F8430368D3F80890D9F82C3006460E
:102E2C000D469046002B3DD0CB6893F90130002B1A
:102E3C0038DA09F130074FF0FF324FF0FF333846E4
:102E4C0005F05EF9AC68D9F82C302278617883F8FB
:102E5C00158042EA01225A812A68527802F0C00297
:102E6C00802A12D102221A75A278E17842EA012254
:102E7C009A8100230C481A46314601F09DFB3846D6
:102E8C0005F018F90020BDE8F88308221A7504F142
:102E9C0009020C33013412F8011903F8011BA24288
:102EAC00F9D1E6E70220EEE7010054D12DE9F34118
:102EBC0098460B689D68174695F8562054070E46A1
:102ECC0000F18A80474A904209D0B8F1020F04D031
:102EDC006FF0150002B0BDE8F081002FF8D0424928
:102EEC003C8888421FD1AA88A24201D10020F1E778
:102EFC004FF6FF729442EBD018688768002FE7D02A
:102F0C007B689847410607D42146304607F017FBEB
:102F1C000028DFD1AC80DDE73268BB6A10689847C7
:102F2C008442F1D9D4E73149884208D16B88A34255
:102F3C00DCD06C802146304607F00AFBD6E7904285
:102F4C0021D1B8F1080FC3D1223542463946284663
:102F5C0006F080FE0028C9D042463946284606F0C5
:102F6C00A0FE336818688468002CBFD0636898474B
:102F7C004207BBD530682469019501AB00220121C1
:102F8C000068A047B2E71A4A904212D12A8CA2429A
:102F9C00ACD018682C848568002DA7D06B68984736
:102FAC004307A3D5ADF8044030682C6901AB01226E
:102FBC00E5E7104A904299D1B5F9522024B2A242C9
:102FCC0094D01868836853B15B69214698470028F0
:102FDC0080D1A5F852407DE76FF00F007AE76FF0D3
:102FEC00010077E70C005451080054510A00545169
:102FFC000E0054511100545138B505460C4679B3A6
:10300C0070B30B697BB39A686AB39B895BB3036833
:10301C00BFF35B8FDB68BFF35B8FDB0726D591F8C3
:10302C00393043F0010381F83930084608F02DFDA2
:10303C002B6825625B7D84F82D302B6894F840005A
:10304C005B7D84F8353008F02AFF0A4B0025C0B2AE
:10305C00C4E901352560214601F0FCFE284638BD47
:10306C006FF01500FBE76FF04D00F8E76FF03D00D7
:10307C00F5E700BF75A740000146014805F088B987
:10308C0010110020174B196830B451B10B68002B8C
:10309C0038BF00234FF0FF324FF47A7529B9531C17
:1030AC0018D130BC10480AF0D2BFCC69098C241A54
:1030BC0005FB014100290CDD8A4228BF0A4633B1C9
:1030CC001C68002C38BF002419462346E6E71C4632
:1030DC00FAE700220A2330BC0348A2FB0323FFF7C4
:1030EC00CBBF00BF34130020E00C00202DE9F14FC2
:1030FC0007F054FC204B1B680746CBB3B3F1140A02
:10310C0036D01C6804B1143CDFF86C904FF0FF36DD
:10311C004FF002080AF1140B3946584607F02AFE04
:10312C000546A8B959468AF82D80484607F0C9FBD0
:10313C002A462946584607F0E1FD74B114F11403F0
:10314C0002D0636903B1143B3CB1A2461C46E1E7D3
:10315C00864228BF0646A245EFD1731C08D007480B
:10316C000A22A6FB022301B0BDE8F04FFFF784BF93
:10317C0001B0BDE8F08F00BF1C130020500C0020E4
:10318C002DE9F74F0546019200283FD0061D00207F
:10319C0007464FF0300E48F2FE0A0EFB0754244A45
:1031AC00E36A23F07D4303F0FF2393422CD136F8DE
:1031BC00043C022B28D1A388534525D001F1FF39BB
:1031CC0006F1FF3B002319F8018F1BF8014FA045B6
:1031DC0003F1080C1FD15FFA8CF3802BF3D1019A09
:1031EC0014789C4210D80EFB075494F82F406207B9
:1031FC0007D53F2B05D80C78FF2C05D14C78032C28
:10320C0002D1019A30461370303617B103B0BDE8C5
:10321C00F08F0127C1E788EA04045FFA8CFC2206D0
:10322C00DDD40133DBB264009C45E4B2F7D1D6E7C0
:10323C000001000210B5002381F82D300368BFF3A4
:10324C005B8FDB68BFF35B8FDB070C461AD5012362
:10325C0081F82E3009F0E2FEA0B907F09FFB04F1D3
:10326C002401A062084807F022FB08480AF01AFF64
:10327C00092807D8BDE8104005484FF47A7200239E
:10328C00FFF7FABE10BD00BF24130020900C0020E5
:10329C00800C00202DE9F84F244D07F07FFB2C68A3
:1032AC00804624B94046BDE8F84FFFF7EBBE2668D0
:1032BC00DFF87CB0002E4FF0000738BF00264FF42B
:1032CC007A7AB946E369A3EB0802238C0AFB032341
:1032DC00002B214619DCA388022B06D1A1691023EF
:1032EC0004F10802584601F067F92368BFB96A680F
:1032FC002B60A24200D16B6094F82230C4F800908D
:10330C0069F3000384F822303946002ECAD03368A2
:10331C00002B38BF002334460F461E46D2E73B60D5
:10332C006B68A34208BF6F60E6E700BF3413002050
:10333C000A0060E0002808DD431E054800EBC300CE
:10334C00044B984228BF002070470020704700BFF4
:10335C00340700203C07002010B591F840000C46C3
:10336C0001F080FD054A0023C4E9012323602146B6
:10337C00C0B2BDE8104001F059BD00BFB1404000E3
:10338C000346064A0648904201D300207047016864
:10339C0009688B42FAD00830F5E700BF3C070020E3
:1033AC0034070020024B0348984208BF00207047A6
:1033BC003C07002034070020426803465AB109B983
:1033CC00002070470A60FBE75A60C2F810310029F0
:1033DC00F6D00A607047044AD2F810010028F3D0E6
:1033EC006FF00200704700BF4413002010B5446812
:1033FC00C4B109F023FFA8B907F0D0FA04F5827123
:10340C00C4F80801084807F052FA08480AF04AFEC6
:10341C00092807D8BDE81040054842F21072002375
:10342C00FFF72ABE10BD00BF3C130020200D00206A
:10343C00100D00202DE9F041274D07F0AFFA2A6856
:10344C000646002A46D0B2F5827343D014680CB1FC
:10345C00A4F58274DFF88C800027D3F80811891B3F
:10346C0001F57A72002A24DC6968D3F8040128601B
:10347C0003F58272914293F80C2108BF6860013207
:10348C00D2B21648C3F8047183F80C2140450BD313
:10349C0004B314F5827204D0D4F804210AB1A2F555
:1034AC00827223461446D8E7416899420DD0083001
:1034BC00ECE711F57A7F08BF00220A23BDE8F04142
:1034CC000748A2FB0323FFF7D7BD022AE0D8FFF77A
:1034DC008DFFDDE7BDE8F0813C13002034070020B0
:1034EC00100D00203C070020416821B1024801F575
:1034FC00827107F0E6B970473C1300202DE9F041CA
:10350C00184DDFF8648006460F46454501D3002070
:10351C0023E06C680CB90835F7E794F82F309A075C
:10352C0008D52388022B05D18022211D304607F0B7
:10353C0008FAA0B994F85F309B07ECD5238E022BC8
:10354C00E9D1802204F13401304607F0FAF9002861
:10355C00E1D0302007B13D602044BDE8F08100206F
:10356C00F8E700BF340700203C0700202DE9F347A3
:10357C00254E07F013FA336893B3B3F124052FD01B
:10358C001C6804B1243CDFF88890C0F164074FF04C
:10359C000008AB6A3B44002B25DC2B46716853F8C2
:1035AC00242FC5F82480994205F1040A4FF0010339
:1035BC0085F82D3001A9504608BF72603260CDF8F5
:1035CC000480FFF79BFF854209D1019948461023DF
:1035DC00524600F0F1FF0198514602F087FA4CB9BF
:1035EC0002B0BDE8F0870A2283FB02230748FFF7ED
:1035FC0043FDF5E714F1240302D0636A03B1243BC5
:10360C0025461C46C5E700BF24130020800C002073
:10361C000D0060E070B5012300F1140480F82D302A
:10362C000D460948214607F042F907F0B7F929463B
:10363C000246204607F062FBBDE8704003480022BA
:10364C000023FFF719BD00BF1C130020500C0020F5
:10365C002DE9F04F8BB00C4601A9054691469846D2
:10366C00FFF7AAFE002803DA00200BB0BDE8F08FAC
:10367C006E6896F82F309F0700F1A68096F85F30A1
:10368C00980700F1AA80DDF804C09CF82F30990748
:10369C00C3F3400600F1B180302000FB06F70CEBC1
:1036AC00070E22469EF82F3043F002038EF82F307F
:1036BC0002AC02232CF8073002F1100A8EF82C9081
:1036CC00234610685168A146A9E803000832524508
:1036DC004C46F6D11A460EF104040DF118091346A6
:1036EC0003CB4B45206061601A4604F10804F6D107
:1036FC00302303FB06C393F82F20B8F1000F00F022
:10370C0083806FF3000283F82F2041467046FFF749
:10371C0081FF284607F008F910F0080B07F1040A9E
:10372C0048D12846DDF8048007F0FEF8C3070446AC
:10373C003BD540F2FF23ADF81830ADF81AB0ADF818
:10374C001CB0ADF81EB0ADF820B0ADF822B0ADF89D
:10375C0024B04FF4807BADF826B04946284602F0E1
:10376C0043FE14F0020440F2FF231ED10693ADF881
:10377C001C40ADF81E40ADF82040FF238DF82430DE
:10378C00302303FB0686ADF822B0D044737C98F846
:10379C000F208DF8253098F80E3043EA0223ADF84F
:1037AC0026304946284602F01FFE01992846394426
:1037BC00FFF740FD019A174810235244294600F0A8
:1037CC00FBFE0198384450E7311D204607F0DEF827
:1037DC0000283FF453AF002108E006F134012046E5
:1037EC0007F0D4F800283FF44EAF0121302000FB45
:1037FC00016000287FF439AF45E79CF85F309A07E9
:10380C003FF532AF012647E742F0010283F82F2043
:10381C007FE700BF010060E02DE9F74F4768814664
:10382C0088464FB300264FF0180B07F164030BFBCF
:10383C0006F57A1902F1700A92F87420D20718D59D
:10384C001D4441462846019307F0A0F8019B04460D
:10385C0078B19AF8043009486FF300038AF8043001
:10386C002A461023494600F0A7FE204603B0BDE8C7
:10387C00F08F0136032EDAD10024F6E7040060E065
:10388C002DE9F043446885B007460D46002C60D006
:10389C0094F82F30980707D494F85F309A070CD41B
:1038AC00002005B0BDE8F08304F10408404607F0A1
:1038BC006DF80028F0D0002608E004F13408294601
:1038CC00404607F063F80028EAD001263021714306
:1038DC00631893F82F30DB070CD4DFF88490143185
:1038EC002144484606F0EDFFD9F8003013B91A48C8
:1038FC000AF0ADFB302000FB064494F82F306FF338
:10390C00410384F82F3040F2FF2300930023ADF8DD
:10391C000430ADF80630ADF808304FF48073ADF8D4
:10392C000A30FF238DF80C306B7BEA7B8DF80D3061
:10393C00AB7B43EA0223ADF80E3069463846FFF7FD
:10394C006BFF064810234246394600F035FE012035
:10395C00A7E72046A5E700BF500C0020020060E05E
:10396C001C13002037B50D46019001A92846FFF71E
:10397C00C5FD044670B100F12401074806F0A1FF13
:10398C00019906481023221D00F016FE01982946C5
:10399C00FFF776FF03B030BD241300200E0060E06B
:1039AC002DE9F74306F0FAFF234B1C680746002C61
:1039BC003DD02568DFF88880002D38BF00254FF0FA
:1039CC00FF363946204607F0D5F918BB94F8253058
:1039DC0060F3410384F82530206A01A9FFF7ECFC61
:1039EC0000280EDB04F1100994F824300199206AA8
:1039FC004A4607F087F8216A10234A46404600F0F1
:103A0C00DBFDBDB12B68002B38BF00232C4635B134
:103A1C001D46D6E7864228BF0646AC42F1D1731C40
:103A2C0005D00A220548A6FB0223FFF725FB03B0AD
:103A3C00BDE8F0832B46E9E72C130020B00C0020E6
:103A4C00060060E02DE9F84F1B4D1C4B82460E46DC
:103A5C004FF0180B9D4201D3002024E02EB13268A8
:103A6C001AB1AA4201D00835F4E76C68002CFAD0E0
:103A7C0004F1640800270BFB07F904EB090292F828
:103A8C007420D20711D538F8042C022A0DD18022CB
:103A9C004146504606F055FF084B30B106B1356033
:103AAC0009F160002044BDE8F88F0137032F08F1BD
:103ABC001808E0D1D7E700BF340700203C070020EE
:103ACC007FB50D4603A90190FFF776FC002802DABA
:103ADC00002004B070BD2B78FF2BF9D101A928462A
:103AEC00FFF7B0FF0028F3D1039890F8743013F06F
:103AFC00010308D090F88C30DA0723D590F8A43065
:103B0C00DB07E5D4022318245C43031904F1640693
:103B1C0093F8742042F0010283F874200222A3F877
:103B2C00602029461022304406F0BBF8039A064860
:103B3C0001991023324400F03FFD039804F1600317
:103B4C001844C6E70123DEE7030060E0F8B50D4B2F
:103B5C001B6805460E4617469BB11C68002C38BFE7
:103B6C0000245A68AA4204D19B683A46314628463A
:103B7C00984734B12268002A38BF002223461446E5
:103B8C00EFE7F8BD601400202DE9F04786B00D4634
:103B9C0001A9074691469846FFF70EFC002803DA68
:103BAC00002006B0BDE8F0877C68002C52D1019B48
:103BBC00002BF5D093F8CD209107C2F3400604D525
:103BCC0093F8F5209207EBD401262822724399181A
:103BDC000DF1080C91F8CD0081F8CC9040F002006A
:103BEC0002F1A80481F8CD00C1F8C87005F1100AE3
:103BFC00E64628686968E146A9E80300083555459A
:103C0C00CC46F6D11D1910350DF11809F446BCE857
:103C1C000300CC4528606960E64605F10805F5D13E
:103C2C00282101FB063608F10103D3F1000848EB0B
:103C3C00030896F8CD300199184868F30003B832A0
:103C4C0086F8CD300A441023394600F0B5FC0198B3
:103C5C002044A6E794F82F309E0709D504F1B8014B
:103C6C00284606F093FE18B194F8CC304B4513D08F
:103C7C0094F85F3098079AD504F1E001284606F0D5
:103C8C0085FE002893D094F8F4304B458FD1282032
:103C9C00A830201885D18AE70020F9E7050060E0FC
:103CAC002DE9F041184DDFF8648006460F46454576
:103CBC0001D3002023E01EB133680BB1AB4211D10C
:103CCC006C687CB194F8CD309A070DD494F8F5302B
:103CDC009B0707D594F8F420394604F1E00006F070
:103CEC0030FE50B90835E2E794F8CC20394604F19F
:103CFC00B80006F026FE0028E8D016B90120BDE871
:103D0C00F0813560FAE700BF340700203C07002043
:103D1C004B1C70B504460D4614D001460A4806F0FB
:103D2C00D0FD094806F0C3FD06F038FE29460246D0
:103D3C00204606F0E3FFBDE8704004480022002353
:103D4C00FFF79AB970BD00BF2C130020B00C0020F7
:103D5C0090F825309B0710B504460AD50146054856
:103D6C0006F0AFFD002220461146BDE8104006F0DB
:103D7C00C5BF10BD2C1300202DE9F843446806463E
:103D8C008946174614B90020BDE8F88394F8CD3065
:103D9C009A0709D504F1B808404606F0F7FD18B1AA
:103DAC0094F8CC30BB422CD094F8F5309B07EAD574
:103DBC0004F1E0084946404606F0E8FD0028E2D050
:103DCC0094F8F430BB42DED101252820A8302044E1
:103DDC00FFF7BEFF282303FB05454A4695F8CD3077
:103DEC006FF3410385F8CD3021463B46304606F053
:103DFC0089FE054810234246314600F0DDFB0120C8
:103E0C00C2E700252846E1E7060060E010B50A4C41
:103E1C0094F82230DB070AD5A388022B07D1A369BB
:103E2C00984204D104F1080006F0B0FD08B9002056
:103E3C0010BD2046FCE700BF6814002002460A486B
:103E4C0090F82230C3F3400113F0010330B585889C
:103E5C00846907D031B1022D04D112B1A24218BF2E
:103E6C00002030BD0020FCE76814002070B51A4C0F
:103E7C0094F822300E46D90705462AD40221A061B7
:103E8C00A18043F00103E2B123F006030B4384F855
:103E9C002230228406F082FD2146E0610F4806F0B4
:103EAC0006FDE069FFF7EEF8102231460C4805F0EC
:103EBC00F8FE0C480A4A1023294600F07DFB064800
:103ECC0070BD23F0060343F00403228484F82230EF
:103EDC00EAE70020F4E700BF681400203413002048
:103EEC0070140020090060E010B5044690F8220020
:103EFC0010F0010019D0A388022B06D1A1690B4840
:103F0C00102304F1080200F057FB0948214606F083
:103F1C00D8FC18B106F042FDFFF7B4F894F8223043
:103F2C006FF3000384F82230012010BD0A0060E01A
:103F3C0034130020F0B51A4A1A4E044648F2FE0516
:103F4C00B24201D3002028E019B10B680BB19342A7
:103F5C0024D1536813B393F82F0087070BD593F92B
:103F6C002D00A04207D11888022804D19F88AF42A7
:103F7C0003F104000FD193F85F0080070ED593F97D
:103F8C005D00A0420AD1188E022807D103F134003B
:103F9C009B8EAB4202D001B10A60F0BD0832CFE774
:103FAC00340700203C07002073B500230A888DF8E5
:103FBC00073048F2FE039A4204461DD00B78FF2BC3
:103FCC0002D14B78032B17D19CB160680DF107021D
:103FDC00FFF7D6F804460AE068680DF10702FFF710
:103FEC00CFF80835002818BF0446B542F4D3ACB955
:103FFC0011E00D4D0D4EF8E79CB10121204606F065
:10400C00E8FDE7E70121284606F0E3FD044628B960
:10401C000835B542F6D300F0BBF90446204602B091
:10402C0070BD014D014EF4E7340700203C07002021
:10403C0013B501460020FFF7B7FF044600F0A8F9BE
:10404C00844206D10748084B984208BF002002B0B2
:10405C0010BD01A92046FFF751FA0028F2D00198B3
:10406C00F5E700BF340700203C070020F8B50C4BE7
:10407C001B6805460E46174683B11C68002C38BFDA
:10408C0000245B683A4631462846984734B122688A
:10409C00002A38BF002223461446F2E7F8BD00BFC1
:1040AC0058140020F0B5002387B0CDE90133204B24
:1040BC00066A1B680446ABB1016B90F8342089B1D9
:1040CC00082A0FD80DF10E0528468DF80D2005F0A5
:1040DC00E8FD9DF80D308DF8083094F835300195D9
:1040EC008DF809303368E769BFF35B8FDB68BFF38A
:1040FC005B8FDB0719D5304606F007FC2146436879
:10410C0030469847051E02DA204607F0EAFB1FB13D
:10411C002946384606F0FEFB019B23B12A4601A92D
:10412C003046FFF7A3FF07B0F0BD6FF03D05EBE79E
:10413C005814002008B5034606F0E7FB054A8242F6
:10414C0005D118460121BDE8084006F02FBC01201E
:10415C0008BD00BF5807002008B5034606F0D5FB84
:10416C00054A824205D118460221BDE8084006F0F6
:10417C001DBC012008BD00BF58070020064B98420B
:10418C0006D3064A904203D2C01AC01001307047C1
:10419C004FF0FF30704700BF340700203C07002071
:1041AC00F8B5064C064F05460E46BC4200D3F8BD8A
:1041BC0020463146A8470834F7E700BF34070020F3
:1041CC003C07002010B50368BFF35B8FDB68BFF3BF
:1041DC005B8FDA07044621D406F097FB00BB2368FB
:1041EC00BFF35B8F0C3353E8002F42F0010243E81E
:1041FC0000210029F7D1BFF35B8F204606F094FB1A
:10420C00030705D4204606F006FC2046FFF7EEF81F
:10421C00002308481A46214600F0CEF9002007E09A
:10422C008368002BDBD00121204698470028D6DA82
:10423C0010BD00BF020001D070B500F01BFE214C78
:10424C00214D2646AC4233D3204B214A9B1BDB0825
:10425C00954238BF002353B31E491F481F4D06F02B
:10426C004BFB1F4B1F4920480024C3E9004406F0B8
:10427C0043FB1E4B1E491F48C3E9004406F03CFBA0
:10428C001D491E4806F038FB402385F80D3147F2D6
:10429C003053C5F8F830284606F0CAFC1849C5F862
:1042AC00FC00184806F028FB174BC3E9004470BD0E
:1042BC0023681B689A681AB112680AB120469047A5
:1042CC000834BFE7340700203C07002043070020D8
:1042DC002D07002079354000800C0020441300206D
:1042EC002413002041344000100D00203C1300200A
:1042FC00F9304000500C0020AD394000B00C0020CB
:10430C00A1324000E00C00203413002038B5094CD9
:10431C00094DAC4200D338BD2368BFF35B8FDB681B
:10432C00BFF35B8F1B0702D42046FFF74BFF08340B
:10433C00EFE700BF340700203C0700200239C9B268
:10434C0006292DE9F04116469ABF104A525C062206
:10435C0005468718DCB230464FF03A085CB115F8C8
:10436C00011B0123412206F05CFD033CBD4200F819
:10437C00018BE4B2F2D1B0424FF0000216BF00F84C
:10438C00012C10463046BDE8F08100BF44F24000DD
:10439C0000487047D0E740002DE9F74FDFF8509107
:1043AC004E484FF0FF324FF0FF3306F095FE4FF0C2
:1043BC00FF334B484FF0FF3206F08EFE494BB3F9FA
:1043CC000060002E25DB3022724359F8022002B324
:1043DC004549B1F90000721C12B2B0421A8014D1D6
:1043EC004FF6FF720A801A80404D2C68DCB93023DE
:1043FC005E4309EB060200233948536049F8063046
:10440C0006F06CFE03F0E2FDCAE7022AECD10022B2
:10441C00E9E74FF0FF320021304809F098FD3048B1
:10442C0006F05CFEBCE727684FF0300806FB089AE4
:10443C00002F4FF0000238BF00270AF1080A08FBD2
:10444C0006989346D8F80010206981EA000C81EA9E
:10445C000003CCF3017CC3F30A435CEA030327D1CA
:10446C008BB22BB183B21BB101EA00039BB2FBB13F
:10447C00D8F82C302BB3C4F808A00001E360D8F8AE
:10448C0004C0636825D5986908B1604510D12161D5
:10449C002068C3F818C0B2B9696828608C4200D192
:1044AC006860C4F800B01846019206F017FE019A35
:1044BC00002F9CD03B68002B38BF00233C461F4686
:1044CC00C0E7A360D9E7106069688C4208BF6A60D6
:1044DC00E7E76246204698472246E9E7B406002003
:1044EC009C060020141E0020121E00208C1400209C
:1044FC009414002010B54FF0FF3204464FF0FF33F8
:10450C00094806F0E9FD094B1A6822605A681C60DC
:10451C0002B95C60064A2369116803480B43BDE885
:10452C001040136006F0DABD9C0600208C140020AD
:10453C00F414002010B54FF0FF324FF0FF33044657
:10454C001A4806F0C9FD1A4B1A68002152B1944260
:10455C0022D12268D1B959681A608C4200D15A60B4
:10456C000022226013481C6800220260C4B121683A
:10457C00914238BF114613462269134379B10A6838
:10458C00002A38BF00220C461146F5E70A605A682B
:10459C00944208BF5960E3E711461268D6E70360FE
:1045AC00BDE81040014806F099BD00BF9C060020F4
:1045BC008C140020F41400202DE9F84F1F46324BC8
:1045CC001C68050F030C25EA147523EA1443C3F386
:1045DC000A0305F0030520EA04041D43A4B255EABE
:1045EC0004030646884691464CD1284D28484FF086
:1045FC00FF324FF0FF3306F06FFD2C88013424B2EC
:10460C00022C08BF0024B9F1000F30D07FB3242F47
:10461C0025D8DFF880B04FF0300A04FB0AB00AFB53
:10462C0004BA3A464946083005F03BFBCAF82C70F0
:10463C001848302202FB04F3C118C650C1F804809C
:10464C001549B1F900309C4218D1631C9BB2022B66
:10465C0008BF00235A43825802B10B802C800C48AF
:10466C0006F03CFDBDE8F84F0C4806F037BD094A92
:10467C00302303FB04230022DA62D9E7002BB8BFF6
:10468C000C80EBE7BDE8F88FF4140020121E00201C
:10469C009C06002094140020141E0020B406002058
:1046AC00164B174A174830B50024C3E90044164B83
:1046BC001C604FF6FF731380144A89B01380214697
:1046CC00602205F019FB124D1249049400220023BC
:1046DC00CDE906234FF0FF33CDE90243CDE9004489
:1046EC000D4B4FF44072284603F0A0FD0B492846B1
:1046FC0009B0BDE8304009F040BC00BF8C1400206C
:10470C00121E002094140020F4140020141E00200B
:10471C00400D002080200020A54340004BF24000BB
:10472C002DE9F843124C0E46154604F5B9690746B7
:10473C0002F1040894F88E30DB0705D49434A145BB
:10474C00F8D10020BDE8F883B4F88C30BB42F5D129
:10475C00E38BB342F2D12B88022BEFD1206A1022CB
:10476C00414605F077FA0028E8D16FF01000E9E730
:10477C00F8140020F8B5094F05460E4602F03EFC31
:10478C0040EA070464BAA4B295F88C00324621467C
:10479C00FFF7C6FF1130F1D02046F8BD0080FFFFB7
:1047AC002DE9F743254C98460D461746002394F8FF
:1047BC008E20D20702D5226C904212D001330A2BE4
:1047CC0004F19404F3D14FF0FF324FF0FF33082083
:1047DC0006F098FC286AFFF7D1FC002383F8903090
:1047EC00FFDE04F108064FF0FF334FF0FF32304686
:1047FC0006F088FC286AFFF7C1FC636C84F8900013
:10480C00EC6133B9304606F07BFC022003B0BDE806
:10481C00F08304F1580003F04DFC304606F070FCB8
:10482C0000260A9B01932046D4F8449000964346F8
:10483C003A462946C8473046E8E700BFF81400203E
:10484C002DE9F74F0128054688469246009300F063
:10485C00A380042800F0A080032906D0C31E012BDE
:10486C0040F2A080012900F09D80BAF1060F00F003
:10487C009C806B1E032B00F2928008F1FF33022BFD
:10488C0000F29080B8F1030F03D0BAF1110F40F091
:10489C008C80009B002B00F08B80474C47484FF0DE
:1048AC00FF324FF0FF3303F02BFC4FF0000BA1460F
:1048BC00942294F88E1011F0010102FB0BF70FD02B
:1048CC000BF1010BBBF10A0F04F19404F1D16FF061
:1048DC0001043A4803F0EEFB204603B0BDE8F08F2C
:1048EC00942209EB07062046019105F005FAFEF724
:1048FC0059FD0199A6F88E10FF2286F890200436F7
:10490C000122BFF35B8F56E8000F46E80023002B13
:10491C00F9D1BFF35B8FEA00D2B242EA8818B4F83F
:10492C008E20A4F88CA048EA020807F1280007F1B1
:10493C001C061822A4F88E8048444E44019105F0C0
:10494C00DBF901990C22304605F0D6F9022D19D06D
:10495C0007F158004FF0FF320121484409F0F7FAF3
:10496C0007F10800484409F05DF9942202FB0B9909
:10497C00B9F88E3043F00103A9F88E30009B1C600F
:10498C000024A6E731462046FFF7F4FE708000288D
:10499C00DED16FF02F049CE76FF02D049CE76FF0D5
:1049AC002E0499E76FF0280496E76FF02A0493E73A
:1049BC006FF0150490E700BFF8140020C01A002017
:1049CC0070B50446D8B10F4B984218D303F5B963B0
:1049DC00984214D200F108064FF0FF324FF0FF332B
:1049EC000025304606F08EFBC4E91155E5642046DF
:1049FC0006F098FB304606F083FB284670BD6FF03E
:104A0C001500FBE7F81400202DE9F0431F4690F841
:104A1C008E30DB0791B004468946164640F18A80F9
:104A2C0000F108084FF0FF334FF0FF32404606F01C
:104A3C0069FBB4F88C30112B79D1182200210AA80B
:104A4C0005F05AF9B4F88E30206CC3F3C203ADF8FC
:104A5C00283018B101F0F4FE00232364204606F040
:104A6C00E8FB0546002842D1B4F88E30C3F3C203EC
:104A7C00022B5AD1236A8BB106AD03F1100E2A46D4
:104A8C0018685968AC46ACE80300083373456546B2
:104A9C00F6D10FCA0BAD85E80F000AABE58BADF86C
:104AAC002A50B4F82AC0B4F88E201899C4F844904F
:104ABC006DBAADB201954FEA0C2504F1400E45EAF2
:104ACC001C25C2F3C209CDF810E012F48072DFF895
:104ADC006CE00391ADB20095B4F88C00CDF808E011
:104AEC0018BF04F12802494601F0CEFD0546002D01
:104AFC0014DB56EA070311D000232366404606F068
:104B0C00FFFA32463B4604F1580003F0F9FA4FF035
:104B1C00FF324FF0FF33404606F0F4FA404606F001
:104B2C00EFFA284611B0BDE8F0830346B9E76FF001
:104B3C002805F3E76FF00805F3E700BFAD47400029
:104B4C0038B50D46D0B10F4B984217D303F5B96366
:104B5C00984213D200F10804013D4FF0FF324FF0A0
:104B6C00FF33204606F0CEFA042D20468CBF0025DC
:104B7C006FF0220506F0C4FA284638BD6FF0150513
:104B8C00FAE700BFF814002002484FF0FF32012171
:104B9C0009F0DDB9C01A002002460B46014806F0A8
:104BAC006DBE00BFE406002002460B46014806F02D
:104BBC0065BE00BF0C07002070B51C46C3691546C6
:104BCC0043B15B6D33B198472A462346BDE870402C
:104BDC0006F054BEC268064B9A422846214603D1C1
:104BEC00BDE87040FFF7D8BFBDE87040FFF7DCBFF1
:104BFC003806002073B5044616461D4609F0B7F971
:104C0C0008B1002635462B46324601A9204602F053
:104C1C006FFD0546D8B94C220146019805F06CF899
:104C2C000198FF2280F845200A4AC460012394426F
:104C3C00436206D180F8403006F027FF019802B09D
:104C4C0070BD054B9C4208BF80F84050F4E7002033
:104C5C00F5E700BF54060020380600202DE9F74F79
:104C6C00DDE90C4580468B4620462946164609F060
:104C7C0059FA81468A46BBF1000F07D136B998F82C
:104C8C003B3013F00E0FC3F3420061D009F06FF903
:104C9C0008B100240025D8F8100000210746002F89
:104CAC0059D106F044FD98F83BC08842CCF3420C35
:104CBC005BD11FFA8CF3BCF1000F56D0022B0CBF4A
:104CCC0028220022112E4AD10832D8F820309344E1
:104CDC00002B4CD01A68BCF1020F138B4CD1B3F5DE
:104CEC00A06F38BF4FF4A063461A1E44D8F81C308E
:104CFC005E4528BF5E46002B44D1D8F80C103E4AC6
:104D0C003E483F4B91420CBF83469B4654EA0503F9
:104D1C0010D0691C08BFB4F1FF3F0BD003F010FD9D
:104D2C00B9EB00046AEB0105002C75F10003BCBF64
:104D3C00002400252046294609F0F4F98A468146CC
:104D4C0000213EBB87B34046394606F0B8FE002032
:104D5C0003B0BDE8F08FFB893F6819449FE7012E33
:104D6C0001D03A2EB1D10432AFE73A46ADE7BCF1EF
:104D7C00020FB4D05B46B7E75668224A9642F9D187
:104D8C000E33B1E75B6D002BB7D0984783460028F4
:104D9C00BCD1B2E72B4622465846019104F0E2FF03
:104DAC000199034618B91FBB6FF00B00D0E707B988
:104DBC00E1B10B60DA89B24288BFDE81DA89B61ABA
:104DCC0054EA050210D06A1C08BFB4F1FF3F0BD0A7
:104DDC00019303F0B5FCB9EB00046AEB0105012C5F
:104DEC0075F10003019BADDB1946AAE70746E1E725
:104DFC003846FDF7E9FCD7E7540600200C070020E5
:104E0C00E40600205807002030B585B0DDE90845E0
:104E1C000093CDE9024513460A460146024806F0C6
:104E2C005FFE05B030BD00BF5406002008B5BFF3CF
:104E3C005B8F8B68BFF35B8FDB0707D4044BA82217
:104E4C0000FB023007F013F8012008BD0020FCE73E
:104E5C00700E0020024BA82200FB023007F007B8AE
:104E6C00C80D0020024B072888BF0020185C704733
:104E7C0054F24000034904484FF0FF334FF498625A
:104E8C0003F060BAA0230020700E002003490448F0
:104E9C004FF0FF334FF4BC6203F054BA802800206B
:104EAC00C80D0020030A03F0E003602B18D10E4A52
:104EBC00C0F3C1234105D35C0C4958BF013310F436
:104ECC00407F08BF01330206C0F3021200F00F004E
:104EDC008A5C0749085C48BF01331044184470478A
:104EEC004FF0FF30704700BF71F2400069F2400094
:104EFC005CF240002DE9F84F0669B468237803F0A2
:104F0C00E002602A814640F061822288170247EA5B
:104F1C001227BFB23846FFF7C5FF002802DA00207F
:104F2C00BDE8F88F17F4806B00F1020373D11C46B7
:104F3C00C3F12805DA46B389A342F0DB06F1080079
:104F4C0004F048FFA842D9F810007BD380462946CC
:104F5C00083004F029FFD8F80810B8F80C204E19C6
:104F6C00521B304604F086FE17F0800206F1020553
:104F7C00D5D1D8F8084060232370282389F838301D
:104F8C0007F4C053B3F5805F00F0A18075D8002BF7
:104F9C0078D0B3F5006F00F08C80BBF1000F02D11C
:104FAC0015F8013BA37107F44073B3F5007F00F0D3
:104FBC00A98000F29B80002B00F09E80B3F5807FCF
:104FCC0000F09E8017F0400607F0300100F09C8046
:104FDC00002940F0F281102204F1080004F08CFE4C
:104FEC003B0707F0040640F17781002E40F0E58185
:104FFC0007F00307022F00F03581032F00F04F81DB
:10500C00012F00F0C5802946102204F1180004F08D
:10501C0031FE1035D4E014F803A00AF0F802F02A9F
:10502C007FF47DAFD74C0AF003011AF0040F655CD6
:10503C0014BF0022022215440330C3F12F0344197C
:10504C005D1B78E786684FF47A7200234846FFF7B9
:10505C00B3FD804600283FF462AFD9F8100021461A
:10506C00083004F0A7FEBAF1000F14BF302128213C
:10507C0008F1080004F098FE76E7B3F5C05F8CD118
:10508C00627030E0B278930043EA92132278D9B27E
:10509C00C3F3031313432370F37803F00F0343EAB2
:1050AC00011302226370311DA01804F0E3FDB51D3D
:1050BC0073E7B3789A0903F00F0343EA0213022251
:1050CC006370F11CA01804F0D5FD751D65E7B3786D
:1050DC002078990041EA9313C1F3031101431B019A
:1050EC00F51C21706370A270E27056E7B3F5407F37
:1050FC007FF468AFFF2301E015F8013BE37161E732
:10510C000123FBE74023F9E7202928D015D8F1B17A
:10511C0010297FF465AF2946082204F1100004F031
:10512C00A9FDFE23237280230835A672E67226732E
:10513C006673A673E673637252E730297FF450AF3F
:10514C0009F1280104F1080006F00AFF48E7294696
:10515C00102204F1080004F08DFD103540E7022206
:10516C00294604F1160004F085FD8022FE236272AC
:10517C00FF2202356675A672E67226736673A673F5
:10518C00E67326746674A6742372E274237527E79B
:10519C002946052211F8013B637604F1230004F043
:1051AC0069FDFF2306352376A676E67626776677A5
:1051BC00A677E67784F8226084F8206084F8216072
:1051CC00BBF1000F00F0F3801123A371D8F8087025
:1051DC000AF00302022A07F1280605F1010100F08A
:1051EC00C580032A00F0D080012A30464FF002021D
:1051FC0000F0B38004F03EFDE91C022207F12A0006
:10520C0004F038FD691D1AF0040F04D1022207F1D5
:10521C002E0004F02FFDD9F81030984503D04146EC
:10522C00484606F098FBD9F810200023002A40F0DD
:10523C00C080A179283B5BBA1129A3800DD166B13E
:10524C001AF0040FB38008D0484605F0C8FE4FF69C
:10525C00FF73002808BF1846F080484606F015FC7E
:10526C0001205DE62946032211F8013B637604F127
:10527C00250004F0FFFCFF2304352376A676E676A2
:10528C0026776677A677E67784F8206084F8216025
:10529C0084F8226084F8236084F8246090E715F881
:1052AC00013B84F82730FF23237684F82660A6760A
:1052BC00E67626776677A677E67784F8206084F81A
:1052CC00216084F8226084F8236084F8246084F8D8
:1052DC0025600223637673E7002E6ED107F003027C
:1052EC00022A15D0032A31D0012A7FF48CAE29462C
:1052FC00082204F1200004F0BDFCFE2323760835BF
:10530C00A676E67626776677A677E6778023E1E7BA
:10531C00294604F1260004F0ADFC8022FE236276BF
:10532C00FF220235A676E67626776677A677E677AD
:10533C0084F8206084F8216084F8226084F8256069
:10534C00237684F8232084F8243039E709F13001DE
:10535C0004F1180006F004FE32E704F08BFCEB7845
:10536C001B0243F0F0037B85291D4CE76B781B0275
:10537C0043F0F0033B85A91C07F12A0004F07AFCEA
:10538C00F2E700BF75F240006B781B091B0243F477
:10539C00304343F0F0033B856B781B0203F47063DE
:1053AC0043F4304343F0F0037B85A91C2BE75E46A6
:1053BC0031E7918912680B4438E7D9F810309845D9
:1053CC003FF4ADAD404606F088FAA8E5412B7FF4DA
:1053DC0047AF012106F1080004F0ECFC3DE700BFEB
:1053EC0038B503699D682B78412B28D003F0E00376
:1053FC00602B27D12B881C0244EA1324A4B220462C
:10540C00FFF750FD00281FDB630500F1020002D4FA
:10541C00C0F1280038BD2B5C03F0F802F02A13D140
:10542C0013F0040F0A4903F0030318BF0022CB5CEE
:10543C0008BF0222C0F12F001344C01AEAE74FF054
:10544C00FF30E7E70020E5E76FF00040E2E700BF40
:10545C0075F24000034B1A6802605A68186002B972
:10546C0058607047D81A002073B5002204230E46EA
:10547C006946CDE90023054606F0D3FC044610B975
:10548C00022002B070BD3A21284605F0A8FD002884
:10549C00F6D10199284606F063FB0C4B1B68002BD8
:1054AC0038BF0023002BEBD0197A227891420BD114
:1054BC005A7A6178914205D15B682246314628467A
:1054CC009847DEE7002AF7D01B68EBE7D81A0020D4
:1054DC000148FFF7BFBF00BF540000202DE9F04783
:1054EC004378FF2B05460F4614464BD1DFF8A0A09E
:1054FC004FF0FF364FF00009D046721C9AF80A3074
:10550C0015D1002B3CD0227920680AF1020104F05D
:10551C00A1FB70B90B2303FB098898F80A300133FF
:10552C0088F80A3085F80190AF60BDE8F087002B51
:10553C00E9D109F10109B9F1080F0AF10B0ADCD123
:10554C00731C22D00B20704308EB00039A7A0132B3
:10555C009A726E702168227931B1082A04D802300F
:10556C005A70404404F09DFB0B235E4308EB06038A
:10557C0022795A70637908F806300020AF60D4E7BE
:10558C004E46D6E76FF04400CFE76FF00100CCE752
:10559C00FB1F002038B504464078FF2812D00B4B77
:1055AC000B2202FB0035A97A0139C9B2A97221B9C3
:1055BC0028460822023004F09FFBFF230020637072
:1055CC00A06038BD6FF04400FBE700BFFB1F00205C
:1055DC0000EB800300EB4300014B1844704700BF05
:1055EC00FB1F00202DE9F04F28238BB00026CDE9BE
:1055FC00046306AB089308230993036A00930369B9
:10560C00044688463BB904A9204606F00AFC054628
:10561C0028B9022094E09A891B681644F2E7838823
:10562C001F0247EA1327BFB22837B742F1DC03DA6F
:10563C003946204606F01CFBAB6833B9EB6823B93E
:10564C002B6913B96B69002BE3D02B7AFF2BE0D0BD
:10565C00297EFF2905F1180602D16B7E002BD8D0CC
:10566C00B8F1000F1ED1304607F053F80028D0D106
:10567C0005F1080007F04DF80028CAD1FF2902D126
:10568C006B7E012BC5D0FEF783FE0146304607F03A
:10569C0051F838B12B7EFF2B04D16B7E052BB8D083
:1056AC00082BB6D0AB7984F84530282384F83830F1
:1056BC0000212369E1879B68DB7984F83D3094F8FD
:1056CC003B30022262F3430384F83B302B7EFF2BEA
:1056DC0014D16B7E012B4AD0022B05D17E4930466A
:1056EC0007F028F8002842D169463046FEF7AAF99F
:1056FC0000288ED0037D9B0739D48AE73046FDF70E
:10570C00FDFE002830D1206A02AB01AA314607F019
:10571C0034FF0546B8B1019B53B1DB6823623BB142
:10572C001A68527D84F82D201B685B7D84F8353017
:10573C000299204607F043FF0028ACBF002002204E
:10574C000BB0BDE8F08F0390314603A8FEF7A8FA22
:10575C0000283FF45EAF0399204607F077FF00283E
:10576C00FFF657AF2846EBE72B7EFF2BB1D0059900
:10577C00204606F0F5F94FF00009AE79C846BFB2E5
:10578C003A2E03D0112E01D0062E0CD1112EA4F8D6
:10579C003E9000F08B803A2E7FF43BAF294620469A
:1057AC00FFF762FECCE7012201A9204606F0EEF9D4
:1057BC0000287FF42EAF3B2E3FF42BAF3C2E4AD06B
:1057CC00002E40F0838018F0010F7FF422AFAB79EC
:1057DC00002B7BD148F001080023012203A92046AD
:1057EC008DF80C3006F0D2F900287FF412AF9DF83A
:1057FC000C300133B7EBC30F4FEAC30AFFF409AF08
:10580C000226AAF1040B012202A9204606F0BEF9D9
:10581C0000287FF4FEAE9DF808303BBB9DF80820B5
:10582C0062B3012A9DF80C1032D059453FF7F1AE06
:10583C0002F0C002802A32D0C02A2CD0002A7FF479
:10584C00E8AE204606F08CF900287FF4E2AE9DF815
:10585C000C301E441DE018F0400F37D118F0020F29
:10586C0014BF48F0400848F00208B5E7012203A92C
:10587C00204606F08BF90028D0D0CAE60136B6B225
:10588C00B245C0D8D1449DF804601FFA89F977E776
:10589C000E440236F3E72B7EFF2B3FF4BAAE3346B1
:1058AC0002220421204606F037FEB2E608A9204663
:1058BC0007F047FF029000283FF4ABAE02AB324634
:1058CC0003A92046039500F0EDFF39E7204606F0CA
:1058DC00E0F90122431EE4E700E840002DE9F04125
:1058EC000E4C05460E4600272378A0464BB90137CF
:1058FC00082F04F15404F7D14FF000084046BDE8DE
:10590C00F08115B1A3689D42F1D1E06810223146B7
:10591C00043004F09FF90028E9D1EFE7780000206B
:10592C007FB5074A417818230230FEF707FD054A78
:10593C0003461821684602F0D3FF07B05DF804FB5C
:10594C005320002079F24000F8B5C36893F830205A
:10595C008A4204460DD0052A0BD0022983F8301058
:10596C0007D117490A68901C0D4603D0501C0860DB
:10597C009A63F8BD4FF0FF324FF0FF331148124ECF
:10598C0002F0BEFB00232B601A461946542707FB76
:10599C0001F0805D48B1E06838B190F830C0BCF1DE
:1059AC00020F02BF82630123013201310829EED1BB
:1059BC0003B12A600348BDE8F84002F07BBB00BF8E
:1059CC00F81A0020E01A0020780000202DE9F041A0
:1059DC0014461D46064650B1C76808F0A1FB0023CB
:1059EC000A22FAF785FBF368C7E906011C62114825
:1059FC0008F058FB092807D90A230021B0FBF3F063
:105A0C00844275EB010312DA002C75F100034FF0A0
:105A1C000A01B8BF0024A4FB0123B8BF002501FB79
:105A2C00053305480549BDE8F04102F0B1BCBDE8BD
:105A3C00F08100BF280F002010110020180F00204B
:105A4C002DE9F74F08F06CFB00230A22FAF750FB04
:105A5C004FF47A74231A4FF0000A204D01936AEB2D
:105A6C00010B4FF000084FF000092B78E3B1EC6804
:105A7C00D4B1D4E90A0150EA010315D0019B1E18D8
:105A8C004BEB0107012E77F1000317DB144808F0EC
:105A9C0009FB092808D80A21A6FB012301FB0733BF
:105AAC001048114902F074FC0AF1010ABAF1080F0E
:105ABC0005F15405D9D103B0BDE8F08F2068C4E9D5
:105ACC000A890028F0D005F00CFF206805F009FFCA
