:020000040040BA
:10000000A054002041714000F75541007971400033
:100010007971400079714000797140000000000062
:10002000000000000000000000000000016F400020
:100030007971400000000000A96E4000C56C4000CE
:100040001971400019714000197140001971400088
:100050001971400019714000197140001971400078
:100060001971400019714000197140001971400068
:100070001971400019714000197140001971400058
:100080001971400019714000197140001971400048
:100090001971400019714000197140001971400038
:1000A0001971400019714000197140001971400028
:1000B0001971400019714000197140001971400018
:1000C0001971400019714000197140001971400008
:1000D00019714000197140001971400019714000F8
:1000E00019714000197140001971400019714000E8
:0C00F000197140001971400019714000A6
:0400FC00FFFFFFFF04
:1001000001F0FF01102A2BDB10F0070F08D010F8C8
:10011000013B013A8B422DD010F0070F42B3F6D1CC
:10012000F0B441EA012141EA014122F007047FF0E5
:1001300000070023F0E80256083C85EA010586EA3C
:10014000010685FA47F5A3FA87F586FA47F6A5FA78
:1001500087F68EB9EED1F0BC01F0FF0102F0070284
:1001600032B110F8013B013A83EA010313B1F8D12F
:100170000020704701387047002D06BF3546033810
:10018000073815F0010F07D1013015F4807F02BF49
:10019000013015F4C03F0130F0BC0138704700BF9A
:1001A00053B94AB9002908BF00281CBF4FF0FF31DE
:1001B0004FF0FF3000F06EB9ADF1080C6DE904CEE0
:1001C00000F006F8DDF804E0DDE9022304B0704732
:1001D0002DE9F047089D0E4604468C46002B40F062
:1001E00081808A42174645D9B2FA82F24AB1C2F1F9
:1001F000200106FA02F320FA01F1974041EA030CCC
:1002000094404FEA174E230CBCFBFEF6B9B20EFB2E
:1002100016CC43EA0C4306FB01F0984209D9FB18BF
:1002200006F1FF3C80F01581984240F21281023EB7
:100230003B441B1AA4B2B3FBFEF00EFB103344EA9E
:10024000034400FB01F1A14209D93C1900F1FF333D
:1002500080F00181A14240F2FE8002383C44641AE1
:1002600040EA064000211DB1D4400023C5E9004307
:10027000BDE8F08702B9FFDEB2FA82F2002A4FD160
:10028000CB1B4FEA174E1FFA87F80121B3FBFEFC88
:10029000260C0EFB1C3346EA034608FB0CF3B34264
:1002A00007D9BE190CF1FF3002D2B34200F2EB8045
:1002B0008446F61AA3B2B6FBFEF00EFB106643EAC4
:1002C000064408FB00F8A04507D93C1900F1FF33AC
:1002D00002D2A04500F2D2801846A4EB080440EAFE
:1002E0000C40C0E78B4208D9002D00F0AF80002100
:1002F000C5E900060846BDE8F087B3FA83F1002996
:1003000049D1B34202D3824200F2BB80841A66EB29
:10031000030301209C46002DAAD0C5E9004CA7E7A5
:10032000C2F120039740D8409140DE404FEA174E7B
:1003300008434FEA104CB6FBFEF11FFA87F80EFB9C
:1003400011664CEA064601FB08F3B34204FA02F4D4
:1003500009D9BE1901F1FF3C80F08E80B34240F212
:100360008B8002393E44F31A86B2B3FBFEF00EFBDB
:10037000103346EA034600FB08F3B34207D9BE191F
:1003800000F1FF3C74D2B34272D902383E44F31AF2
:1003900040EA01417AE7C1F1200703FA01F422FAA9
:1003A00007F31C4320FA07F906FA01F34FEA144C4D
:1003B000FE4049EA03094FEA1943B6FBFCFE1FFA67
:1003C00084F80CFB1E6643EA06460EFB08FAB245AB
:1003D00002FA01F200FA01F308D9A6190EF1FF3072
:1003E00048D2B24546D9AEF1020E2644A6EB0A0623
:1003F0001FFA89F9B6FBFCF00CFB106649EA0646C9
:1004000000FB08F8B04507D9A61900F1FF3C2DD232
:10041000B0452BD90238264440EA0E40A6EB080628
:10042000A0FB02894E45C446CE4618D315D075B3FD
:10043000B3EB0C0266EB0E0606FA07F722FA01F39D
:10044000CE401F43C5E90076002111E72946284622
:100450000EE76646EDE6184601E74345E7D2B8EBFE
:10046000020C69EB04040138A646E0E76046D3E7D6
:1004700060468CE78646B9E7614674E702383C443B
:100480002BE7084647E7ACF1020C3E4411E729464A
:10049000EEE600BF704700BF10F8012B11F8013BDA
:1004A000012A28BF9A42F7D0D01A7047034613F8A2
:1004B000012B002AFBD1181A0138704700000000F8
:1004C0002DE9F04F8BB000230E46042408A9CDE996
:1004D000083405460BF006F9834618B9FE200BB028
:1004E000BDE8F08F2146284616F03FFF07A92846B1
:1004F00016F05AFF04460028F0D106F0A3FC079B33
:10050000C01A254B0790D3F800A0B3881F0247EA12
:100510001327EB8FC3F1FF2303F57F03FC3306F1B1
:100520000801022013FA87F70AF0CCFA06F1180145
:10053000804602200AF0C6FA1849BBF802B081468C
:10054000079813A3D3E90023A0FB0101FFF728FEBE
:10055000134BB0FBF3F095F846300493F379039313
:100560004FEA0B2343EA1B239BB2CDE9019305908D
:100570000C4ACDF800803B462146504612F0E1FE81
:10058000094810F067FB284616F0B4FD2046A6E7A0
:10059000000E2707000000002027002000CA9A3B19
:1005A00040420F00A9DF4100A00B0020104B1B6848
:1005B00010B403F004036AB9BBB10E4A0E4B0F49E5
:1005C00010BC9B1ADB089B01024643F004030C4855
:1005D00012F08ABA4BB1074C074B1B1BDB089B017F
:1005E00010BC43F0040312F0BFBA10BC704700BF48
:1005F000400A00208C9B4100D49B410012B2410074
:1006000038AE41002DE9F04F524A534CDFF870816B
:10061000ADF50F7DA41AE40803AE4FF01809D8F821
:100620000000C6F8009008AD0196009500234FF435
:1006300080720EA914F095FBB0F1000A15DA474B51
:100640001B685D0709D014F0E0FFA40144F0010429
:1006500001684348224612F033FA14F0D6FF0068CE
:1006600040420DF50F7DBDE8F08F4FF48072002100
:100670004EA8376818F0F6FF102300930EA94EAB72
:100680001FFA8AF204A813F0CFFC011E0ADA334BDA
:100690001B685807C3D0A201324842F0010212F091
:1006A0000FFABCE704A813F050FD2F49824603223D
:1006B00004A813F04EFF834648BBBAF1030F11D1D3
:1006C00051462A482A4614F001F8014600283BD139
:1006D000224B1B685A0705D0A101254841F00101B2
:1006E00012F0E1F910232349CDE900574EAA0DEB92
:1006F000030013F094FD011E91DA184B1B6813F0F0
:10070000060F8CD0A2011C4842F00202C7E7BAF1E2
:10071000020F84D1406A18F026FF584613F062FF9A
:100720007DE7C36963B928304369002BF9D10B4BCE
:100730001B685B07D6D0A101104841F00101CFE74B
:10074000994203D01B68EDE70A48EDE713F0A5FFD7
:1007500065E700BF8C9B4100D49B4100400A00200C
:1007600052AE410066AE4100081A002090190020E8
:1007700082AE4100C0000020BDAE410096AE4100F7
:10078000901A002073B504460D461646016882880B
:100790001248FFF70BFF124B21681868A28800234C
:1007A000CDE9005614F0F8F8002815DA0D4B1B6857
:1007B0005B070DD00C4A0D4CA41AE40814F025FF79
:1007C000A40144F0010401680948224612F078F9B6
:1007D00014F01BFF0068404202B070BDDFAE410064
:1007E000901A0020400A00208C9B4100D49B4100BD
:1007F000E8AE41002DE9F04F0846ADB00C46CDE91A
:100800000A2313F0BBFC0790204613F09EFC07461A
:10081000204613F0E6FC0CA90646204613F09CFC8B
:10082000042309901CAA0F21204613F056FCB0F1B6
:100830000009C0F2B780DFF890815D4CD8F8003035
:100840005C4903F00703641A022B4FEAD4041FD952
:10085000A50145F003055848294612F024F9D8F8B7
:10086000003003F00703022B12D93346079A53488E
:10087000ADF80050394612F050F9D8F8003003F0C6
:100880000703022B04D94E482A46494612F018F9AC
:10089000DFF834B10DF1700A4FF00008DBF80030DA
:1008A000C14503F0070308930FD09AF802506B1C60
:1008B000102B5BDD089B022B07D9A301414843F0B5
:1008C00003031022294612F00FF93F4B1B6803F077
:1008D0000703022B05D9A101374841F0030112F0AB
:1008E000E2F811F085FA054600285ED0452303930F
:1008F0000CAB0293099B01930223009301460496DB
:1009000001234FF480720EA813F0EDFA041E26DBCB
:1009100000220C210EA813F027FB041E1FDB0EA8DB
:1009200013F06DFB041E1ADB079B0093274A019608
:100930003B46282112A811F03EFC041E0FDB12A832
:10094000FFF7B4FD12A982B20EA813F062FB041ED9
:1009500005DBDDE90A120EA8FFF714FF044628465E
:1009600018F001FE20462DB0BDE8F08F10232A4676
:100970000AF1030112A818F048FE2CAB1D44002315
:1009800005F8683C089B022B08F1010807D9A30170
:100990000F4843F0030312AA414612F0A5F80AF1EA
:1009A000100A7BE76FF01504DCE76FF00B04D9E762
:1009B000D49B41008C9B4100CAAF4100FAAE41007C
:1009C00011AF410021AF4100400A00205DAF41005E
:1009D0004FAF41002DE9F04F91B008460D469846C3
:1009E000079213F0CBFB8246284613F0AEFB074676
:1009F000284613F0F6FBDFF804910DF1280B0646AC
:100A00005946284613F0A8FBD9F80030069003F0A9
:100A10000703022B22D9334B334C3448E41AE40841
:100A2000A40144F00304214612F03DF8D9F8003047
:100A300003F00703022B11D933462D48ADF80040CF
:100A40005246394612F069F8D9F8003003F007032E
:100A5000022B03D92548214612F025F80DF1260175
:100A6000284613F0C6FB014620B1BDF826202148D8
:100A7000FFF79CFD002F0CBF0224012411F0B8F9F0
:100A8000054660B34123CDE902B3069B0496CDE948
:100A90000043014601234FF480720CA813F023FA9F
:100AA000041E15DB144E56F8044B34B90799424620
:100AB0000CA8FFF767FE04460AE02046FFF7F6FCA5
:100AC000224683B208210CA804F0F4FC041EEADAE2
:100AD000284618F048FD204611B0BDE8F08F6FF0B1
:100AE0000B04F8E78C9B4100D49B4100CAAF410046
:100AF000FAAE410078AF4100B09D4100400A0020AD
:100B00002DE9F04F08468FB00C469846174613F073
:100B100035FB8246204613F018FB0646204613F0AC
:100B200060FBDFF8E8900DF1200B054659462046A2
:100B300013F012FBD9F80030079003F00703022BE3
:100B400022D92D4B2D4C2E48E41AE408A40144F080
:100B50000304214611F0A7FFD9F8003003F0070382
:100B6000022B11D92B462748ADF80040524631469A
:100B700011F0D3FFD9F8003003F00703022B03D99B
:100B80001F48214611F08FFF002E0CBF02240124C4
:100B900011F02EF9064660B34123CDE902B3079B5D
:100BA0000495CDE90043014601234FF480720AA861
:100BB00013F099F9041E15DB134D55F8044B34B9A5
:100BC000424639460AA8FFF7DDFD04460AE0204602
:100BD000FFF76CFC224683B214210AA804F06AFCD9
:100BE000041EEADA304618F0BEFC20460FB0BDE81D
:100BF000F08F6FF00B04F8E78C9B4100D49B410011
:100C0000CAAF4100FAAE4100C09D4100400A002039
:100C10002DE9F04F584D98462B689FB00C4617466B
:100C20002BB94FF400620221284613F075FB52499C
:100C3000204613F0D0FB002805DA6FF0150420469B
:100C40001FB0BDE8F08F204613F098FA07902046B9
:100C500013F07BFA8246204613F0C3FADFF82C919A
:100C60000DF1200B06465946204613F075FAD9F8C7
:100C70000030069003F00703022B22D93F4B404C73
:100C80004048E41AE408A40144F00304214611F0AA
:100C90000AFFD9F8003003F00703022B11D93346BD
:100CA000079A3948ADF80040514611F036FFD9F89F
:100CB000003003F00703022B03D93248214611F01C
:100CC000F2FE11F095F88146002852D04523CDE977
:100CD00002B3069B0193022300930146049601236D
:100CE0004FF480720AA813F0FEF80028A5DB00225A
:100CF0000C210AA813F038F9041E36DB1E490AA895
:100D000013F031FB041E30DB0AA813F078F9041E3F
:100D10002BDB2B7A0124043304FA03F3D5E90041D9
:100D20009AB2641AA24234BF1446A4B240239C4231
:100D300022464FF0410128BF1A460EA818F09AFC2F
:100D400022460EA90AA813F064F9041E0DDB0A4915
:100D50000AA813F095FB10B9C5E90000A860424647
:100D600039460AA8FFF70EFD0446484618F0FBFB7B
:100D700065E76FF00B0462E7681900208C9B410067
:100D8000D49B4100CAAF4100FAAE4100400A0020A6
:100D90002DE9F04F0C4691B01B212046174698468E
:100DA00013F000FB021E05DA6FF01504204611B0A7
:100DB000BDE8F08F02F0080B121103D16548022143
:100DC00013F0AAFA6349644D204613F004FB00288F
:100DD0000DDA2B685907E7D06049614B6148C91AA1
:100DE000C908890141F0010111F05DFEDCE70DF158
:100DF0002601204613F0FDF92B68BBF1000F0BD044
:100E000050B95A07D0D05549554B5748C91AC90847
:100E1000890141F00101E7E703F00703022B25D91F
:100E20004F4B4E4E5148F61AF608B60146F00306EF
:100E3000314611F038FE2B6803F00703022B15D959
:100E400044494B480A7AADF80060131D01229A40CC
:100E500092B20B68496811F060FE2B6803F007033B
:100E6000022B03D94148314611F01DFE204613F0F4
:100E700085F90790204613F068F98146204613F063
:100E8000B0F90DF1280A06465146204613F064F9E0
:100E90002B68069003F00703022B20D9304B2F4C10
:100EA0003448E41AE408A40144F00304214611F094
:100EB000FAFD2B6803F00703022B10D93346079A7B
:100EC0002D48ADF80040494611F027FE2B6803F08D
:100ED0000703022B03D92748214611F0E4FDBBF19B
:100EE000000F14BF5F24442410F082FF814670B3CA
:100EF000069B01930223CDE9034600930146CDF8FA
:100F000008A001234FF480720CA812F0ECFF041E1D
:100F100012DB10490CA813F005FA041E10DA2B6836
:100F20005B0709D00D490E4B1448C91AC90889013D
:100F300041F0010111F0B7FD484618F014FB35E708
:100F4000424639460CA8FFF71DFC0446F4E76FF053
:100F50000B042BE774190020400A0020D49B4100A9
:100F60008C9B410085AF4100ACAF4100C3AF410055
:100F7000D2AF4100CAAF4100FAAE410001B041001A
:100F80002DE9F04F0C4691B01B212046174698469C
:100F900013F008FA021E05DA6FF01504204611B0AE
:100FA000BDE8F08F02F0080B121103D15048012167
:100FB00013F0B2F94E494F4D204613F00CFA0028B9
:100FC0000DDA2B685907E7D04B494C4B4C48C91AEE
:100FD000C908890141F0010111F065FDDCE70DF15F
:100FE0002601204613F005F9BBF1000F0CD058B1D3
:100FF0002B685A07D0D04049404B4248C91AC9080B
:10100000890141F00101E7E7204613F0B7F80790A6
:10101000204613F09AF88146204613F0E2F80DF1CD
:10102000280A06465146204613F096F82B6806908B
:1010300003F00703022B20D9304B2F4C3248E41A1F
:10104000E408A40144F00304214611F02CFD2B68B0
:1010500003F00703022B10D93346079A2B48ADF84B
:101060000040494611F059FD2B6803F00703022B9D
:1010700003D92548214611F016FDBBF1000F14BF1E
:101080005F24412410F0B4FE814670B3069B0193A7
:101090000223CDE9034600930146CDF808A00123C1
:1010A0004FF480720CA812F01EFF041E12DB1049D0
:1010B0000CA813F037F9041E10DA2B685B0709D06F
:1010C0000D490E4B1248C91AC908890141F00101A6
:1010D00011F0E9FC484618F046FA5FE74246394607
:1010E0000CA8FFF74FFB0446F4E76FF00B0455E73D
:1010F00080190020400A0020D49B41008C9B4100B5
:1011000085AF4100ACAF4100CAAF4100FAAE41002B
:1011100001B041002DE9F04F91B008460D469846C8
:10112000079213F02BF88246284613F00EF8074674
:10113000284613F056F8DFF8E0900DF1280B06462C
:101140005946284613F008F8D9F80030069003F005
:101150000703022B22D92B4B2B4C2C48E41AE40812
:10116000A40144F00304214611F09DFCD9F800309D
:1011700003F00703022B11D933462548ADF8004090
:101180005246394611F0C9FCD9F8003003F0070384
:10119000022B03D91D48214611F085FC0DF12601D3
:1011A000284613F026F8014620B1BDF8262019483C
:1011B000FFF7FCF9002F0CBF0224012410F018FEE9
:1011C0000546E0B14423CDE902B3069B0496CDE980
:1011D0000043014601234FF480720CA812F083FEF5
:1011E000041E05DB079942460CA8FFF7CBFA04461C
:1011F000284618F0B8F9204611B0BDE8F08F6FF01E
:101200000B04F8E78C9B4100D49B4100CAAF41001E
:10121000FAAE410029B04100400A00202DE9F04F0C
:10122000084699B00C469946904612F0A7FF06462C
:10123000204612F08AFF0746204612F0D2FFDFF860
:1012400014A10DF1200B05465946204612F084FFEB
:10125000DAF80030079003F00703022B22D9384B4D
:10126000384C3948E41AE408A40144F00304214648
:1012700011F019FCDAF8003003F00703022B11D942
:101280002B463248ADF800403246394611F045FC55
:10129000DAF8003003F00703022B03D92A4821466D
:1012A00011F001FC002F0CBF0227012710F0A0FD58
:1012B0000446002841D04523CDE902B3079B04959D
:1012C000CDE90073014601234FF480720AA812F0A1
:1012D0000AFEB0F1000A29DB00220C210AA812F054
:1012E00043FEB0F1000A21DB0AA812F088FEB0F13B
:1012F000000A1BDBCDE90065154A3B4628210EA8F4
:1013000010F059FFB0F1000A10DB0EA8FFF7CEF87D
:101310000EA982B20AA812F07CFEB0F1000A05DB29
:101320004A4641460AA8FFF72DFA8246204618F0A1
:101330001AF9504619B0BDE8F08F6FF00B0AF8E7C4
:101340008C9B4100D49B4100CAAF4100FAAE4100E2
:101350005DAF4100400A00202DE9F04F08468FB0F4
:101360000C469846174612F009FF8246204612F0B6
:10137000ECFE0646204612F034FFDFF8C4900DF173
:10138000200B05465946204612F0E6FED9F80030FB
:10139000079003F00703022B22D9254B254C264842
:1013A000E41AE408A40144F00304214611F07BFB95
:1013B000D9F8003003F00703022B11D92B461F4840
:1013C000ADF800405246314611F0A7FBD9F8003085
:1013D00003F00703022B03D91748214611F063FBE2
:1013E000002E0CBF0224012410F002FD0646E0B1DD
:1013F0004223CDE902B3079B0495CDE900430146A2
:1014000001234FF480720AA812F06DFD041E05DB63
:10141000424639460AA8FFF7B5F90446304618F0A7
:10142000A2F820460FB0BDE8F08F6FF00B04F8E78C
:101430008C9B4100D49B4100CAAF4100FAAE4100F1
:10144000400A00202DE9F04F084699B00C46994615
:10145000904612F093FE8246204612F076FE054634
:10146000204612F0BEFEDFF848B108AE074631460E
:10147000204612F071FEDBF80030079003F00703FE
:10148000022B22D9454B464C4648E41AE408A401F5
:1014900044F00304214611F006FBDBF8003003F0B2
:1014A0000703022B11D93B463F48ADF80040524696
:1014B000294611F032FBDBF8003003F00703022B62
:1014C00003D93848214611F0EEFA022D60D010F011
:1014D0008FFC044600285DD0079B01934FF0000B62
:1014E0000223009301460123CDE9026B04974FF4D8
:1014F00080720AA812F0F7FC031E40DB4A46414600
:101500000AA8FFF73FF9031E39DB4523B5EB0B05AE
:10151000CDE90263079B049718BF0125CDE900536D
:101520004FF48072012321460AA812F0DCFC031E4E
:1015300025DB5A460C210AA812F016FD031E1EDBFD
:101540000AA812F05CFD031E19DB2B46CDE900A7AB
:10155000164A28210EA810F02EFE031E0FDB0EA83F
:10156000FEF7A4FF0EA982B20AA812F052FD031ED4
:1015700005DB4A4641460AA8FFF704F90346204620
:10158000079317F0F0FF079B184619B0BDE8F08FDE
:101590000023F9E76FF00B03F6E700BF8C9B4100D7
:1015A000D49B4100CAAF4100FAAE41005DAF41009B
:1015B000400A00202DE9F04308468DB00C4616463F
:1015C0001F4612F00EFE0DF11809494680462046CE
:1015D00012F0C2FD044610F00BFC054660B3452333
:1015E000CDE90293022300930146CDF810800194C7
:1015F00001234FF4807208A812F075FC002808DA65
:101600006FF01504284617F0AEFF20460DB0BDE878
:10161000F08308A812F0F3FC0028F1DB08490D2242
:1016200008A812F0F6FC0028EADB3A46314608A882
:10163000FFF7A8F80446E5E76FF00B04E5E700BF05
:1016400023B24100094A1368013310B51360084BF7
:10165000186808B112F0CAFFBDE8104005490648F5
:101660004CF2503200230FF013BD00BF8C19002044
:101670008C1A002020110020901800202DE9F04342
:101680008FB007469DF86050884691461C46002D55
:101690007FD0022510F0ACFB0646002876D045230B
:1016A0000393169B02939DF85C300494CDE900539C
:1016B000014601234FF480720AA812F014FC041EA4
:1016C00009DBB9F1010F0AD800220C210AA812F097
:1016D0004BFC041E0BDA304617F045FF4CE04A463F
:1016E00006210AA812F040FC041EEDDAF3E70AA86E
:1016F00012F085FC041EEEDB284B294A1B680E21E4
:1017000006A810F058FD041EE5DB06A8FEF7CEFE85
:1017100006A982B20AA812F07CFC041EDBDBE5B944
:101720002048032112F0EAFE044648B304233A4657
:101730000AA912F0BDFE002825DB204612F034FF76
:101740001848032112F017FF38B1C269164917482B
:101750000A23A2FB03230FF09BFC154913484CF20C
:10176000503200230FF094FC424639460AA8FFF796
:1017700009F80446002DAED120460FB0BDE8F08335
:101780006FF00B04A7E76FF01504A4E76FF00B04EC
:10179000F2E703F03DFF04467CE700BF8C19002010
:1017A00035B04100081A0020501100209018002088
:1017B000201100202DE9F04F8BB0064608460C465C
:1017C0001746069312F02AFF054680B131480321DF
:1017D00012F09FFE8046002858D03A46214612F06B
:1017E00025FF4146304612F046FF2B4B1E60204637
:1017F00012F0C4FC8346204612F0A7FC0790204656
:1018000012F0EFFCDFF8A4900DF1200A804651465B
:10181000204612F0A1FCD9F80030059003F0070330
:10182000022B22D91D4B1E4C1E48E41AE408A401C9
:1018300044F00304214611F036F9D9F8003003F0E2
:101840000703022B11D9434607991748ADF800400A
:101850005A4611F062F9D9F8003003F00703022B61
:1018600003D91048214611F01EF96DB1B28C0699CA
:1018700001230293059B3846CDE900A34346FFF7B9
:10188000FDFE0BB0BDE8F08F2A46F0E76FF00B00CD
:10189000F7E700BF901900208C1A00208C9B4100B4
:1018A000D49B4100CAAF4100FAAE4100400A00207B
:1018B00010B50E48032112F05EFE0446A0B112F0EE
:1018C00073FE38B9606A17F04EFE2046BDE810403E
:1018D00012F088BEE269064906480A23BDE81040B6
:1018E000A2FB03230FF0D4BB10BD00BF081A0020D9
:1018F000501100209018002070B5654C23685A07DD
:1019000086B00AD5634A644B64496548D21AD20846
:10191000920142F0040211F0D3F807F087FD05466A
:10192000D8B923685B0709D05A495B4B5D48C91A8F
:10193000C908890141F0010111F0B5F823685B077E
:1019400009D05449544B5848C91AC908890141F073
:10195000010111F0A8F806B070BD544A54490220A4
:1019600014F0CEFE00280DDA23685E070AD0494A3B
:10197000494B4F494F48D21AD208920142F0010216
:1019800011F09EF8494900230322284607F0B8FECB
:1019900058B923685D07D1D03E493F4B4648C91A24
:1019A000C908890141F00101C6E7012380F82D3003
:1019B000424928460BF0A0FF061E16DA2368580796
:1019C000BCD0354B334D3D490220ED1A09F07AF871
:1019D00000F05AFFED08AD0145F0010501462B4628
:1019E0003748324611F080F8A8E71422002101A8F8
:1019F00017F038FE334B009302211122084603F002
:101A0000CBFF314A002810602BDA236859070DD02C
:101A1000214A204DAD1A13F0F8FDED08AD01016823
:101A20002A4845F001052A4611F04AF813F0EDFD69
:101A300003685B42002B81DB254B302200211846D6
:101A400017F010FE234B244A426000213022184632
:101A500017F008FE214A4260FEF7D4FD0028FBDAA9
:101A60006CE71822694612F070FF0028E4DA236858
:101A70005A07DBD0084A074DAD1AED0813F0C5FD33
:101A8000AD0145F00105016815482A46CCE700BFC5
:101A9000400A0020D49B41008C9B41001EB24100B3
:101AA00042B041005FB0410037B14100B0000020BA
:101AB00083B041008FB04100A7B041009C000020DE
:101AC000D2B0410002001633901A0020FBB0410052
:101AD0005011002020110020B11840004516400090
:101AE0001AB141000B0706D5034BC35C03F0030397
:101AF000012B08BF2030704746F24100032808B58B
:101B000006D913F082FD092303604FF0FF3008BDB2
:101B1000064BBFF35B8F0C2202FB00308368BFF3E0
:101B20005B8F002BEDD00020F1E700BF941A00205E
:101B300038B505460C46FFF7E1FF0028A1BF0C238E
:101B4000044A03FB05F01318B1BF00205B68236053
:101B5000105838BD941A002010B54FF0FF331748C5
:101B60004FF0FF320EF0EEFB154B0024BFF35B8FFE
:101B70001A68BFF35B8F7AB10134042C03F10C03B4
:101B8000F4D113F042FD172303604FF0FF340B48EC
:101B90000EF050FC204610BDBFF35B8F53E8001FD2
:101BA000013143E800100028F8D1BFF35B8F0549ED
:101BB0000C236343C818CA504260E8E7040B0020B6
:101BC0009C1A0020941A002010B50C23024C584394
:101BD000231821505A6010BD941A002030B5114AC4
:101BE0000C2303FB00230833BFF35B8F1968BFF39B
:101BF0005B8FB1B1BFF35B8F4C1E53E8005F8D422A
:101C000004D143E8004CBCF1000FF6D1BFF35B8F69
:101C1000EAD1012905D10C23584311180023135090
:101C20004B6030BD941A00200B6801330B60014BF0
:101C30001B68184718030020014B1860704700BF4D
:101C40001803002007B50B46002102460191034806
:101C500001A900F07FF803B05DF804FB291C4000E7
:101C600030B585B0CDE901010446002501A905483C
:101C7000039500F06FF8DDE902309842B8BF2554B3
:101C800005B030BD77214100F0B5094E016802462C
:101C90000A2700200C46013123789D5D6D0701D491
:101CA0001460F0BD07FB0033A3F13000F2E700BF82
:101CB00046F241002DE9F74F14469946D378244A5D
:101CC00013F802A06F2B0AF0030206460F4601929A
:101CD0002DD028D8582B14BF0A251025DDF83080C8
:101CE000AA464FF0000B52465B4630463946FEF797
:101CF00057FA092AD3B21FD830335F45DBB208BF89
:101D0000564508F8013D01D3C84512D823789B06F3
:101D100005D5082D16D1A37843F00803A3704046DB
:101D200003B0BDE8F08F03F0F703702BD3E708256D
:101D3000D4E706460F46D6E7019A012A0CBF37338F
:101D40005733DAE7102DEAD1A37843F01003E5E723
:101D500046F241002DE9F04F824693B08B46914602
:101D60001C46002599F8000008B928463AE309F115
:101D700001032528029306D05946D0470028C0F217
:101D800031830135F1E1182200210CA817F06AFC1B
:101D900099F80130252B59D0029A164612F8013BCA
:101DA0002B2B00F08B8079D8202B00F08C80232BFC
:101DB00000F08E809DF8383003F04402442A03D1AD
:101DC0006FF386138DF838309DF83830059643F060
:101DD00080038DF8383033782A2B7ED19DF8393046
:101DE00043F001038DF83930731C05931A782E2ABD
:101DF0009DF839200CBF0121002161F341028DF8CB
:101E000039200BD15A1C05925A782A2A7BD19DF889
:101E1000392042F004028DF839200233194611F8B6
:101E2000010B6C2800F0B6807DD8682800F0848013
:101E30006A2800F0B9804C2800F0BD809DF8392058
:101E40006FF3C6028DF83920194680E009F10202CD
:101E500002928DF83B309DF83930D90740F1498125
:101E600054F8048BB8F1000F07DA9DF8382042F0DF
:101E700004028DF83820C8F100085A0740F1428169
:101E800054F8047B002F80F241819DF839306FF3C4
:101E900041038DF839304FF0FF3737E12D2B06D055
:101EA000302B87D19DF8383043F0400303E09DF894
:101EB000383043F004038DF838306EE79DF8383041
:101EC00043F00803F7E79DF8383043F01003F2E7DA
:101ED0009DF8383043F02003EDE705A8FFF7D4FE66
:101EE000059BB34281D09DF838100F90C1F340029A
:101EF00042EAD072520062F07F0201F07D010A4393
:101F00008DF8382071E705A8FFF7BEFE9DF8383040
:101F10001090C3F3400242EAD07060F341038DF8A1
:101F20003830059B7AE774289DF8392040D07A280C
:101F300084D11346062228E05A78682A9DF8392071
:101F400021D1012161F3C6028DF83920991C0B467D
:101F500013F8012B0293782A9DF839308DF83B2035
:101F600000F2BF80572A33D8412A03D0453A022ACB
:101F700000F2B7809DF83A30042262F302038DF834
:101F80003A30012384E01346022262F3C6038DF83F
:101F90003930DCE75A786C2A9DF8392001D10421C8
:101FA000D0E713460322F0E79DF839300522ECE72D
:101FB00013460722E9E7BDF8383023F4F04323F055
:101FC000020343F4804343F00203ADF83830BEE728
:101FD000A2F15801202900F2848001A050F821F0DC
:101FE000A5204000E3204000E3204000E320400023
:101FF000E3204000E3204000E3204000E3204000D5
:10200000E3204000751F4000E3204000A520400071
:1020100065204000751F4000751F4000751F40007F
:10202000E320400065204000E3204000E320400022
:10203000E3204000E3204000AD204000A520400008
:10204000C9204000E3204000E3204000C9204000B8
:10205000E3204000A5204000E3204000E3204000B2
:10206000A52040009DF83A10012003F0780360F3AA
:102070000201402B8DF83A1002BF9DF8381041F054
:1020800001018DF83810632A31D1003B18BF0123BC
:102090009DF83820C2F340010B4363F341028DF8F1
:1020A0003820D8E69DF83A100220DEE79DF83A2065
:1020B00003F07803A3F14000032161F302024342DD
:1020C0008DF83A204341E3E79DF83A20032113F0CD
:1020D000780F61F302028DF83A2014BF0123002328
:1020E000D6E79DF8383043F001038DF838300023EF
:1020F000CEE79DF93820002AB4BFDDF83C804FF0D0
:10210000FF38BAE69F077FF5C6AE109F9DF83910DD
:102110000023CDE90F339DF83A3003F00703012B7C
:10212000C1F3C30137D1CB1E042B21D8DFE803F064
:1021300003070720200054F8042BD31704E00734CA
:1021400024F00704F4E80223CDE90C239DF838308D
:1021500013F0030655D0029B4A465946504610F0EC
:1021600028FB0028C0F23E810544DDF80890F9E51F
:1021700054F8042B01294FEAE273CDE90C2305D171
:102180009DF830300C9300230D93DFE70229DDD159
:10219000BDF93020D1E7022B23D1CB1E042B13D85D
:1021A000DFE803F0030A0A12120022680C920023EF
:1021B000201D0D930446C9E7073424F00700F0E81A
:1021C0000223CDE90C23F5E754F8043B0C930129D5
:1021D0004FF000030D93D3D00229B7D1BDF83030B2
:1021E000D0E7042B07D1073424F00704F4E80223D6
:1021F000CDE90C23AAE7032B04BF54F8043B0C934E
:10220000A4E79DF83B007828AFD8622820D825287D
:102210003FF4B2AD5828A8D10DF12E030093DDE9AB
:102220000C0106AB0EAAFFF745FD8146002F0DF10C
:102230002E000BDB9DF83820A0EB09036FF386120C
:102240009F428DF8382001D9FF1A0F9707463CE0CE
:102250006338152889D801A252F820F0DB2240000B
:102260003D2340006B2140006B2140006B2140006A
:102270006B2140003D2340006B2140006B2140005A
:102280006B2140006B2140009B23400069234000EC
:102290006D2340006B2140006B214000B5224000BF
:1022A0006B214000692340006B2140006B214000FE
:1022B00069234000002FDDF830900ADB394648469C
:1022C00017F01BFA09EB00070026B9F1000F0CD13B
:1022D0004BE74846FEF7EAF8F4E70C9B8DF8183018
:1022E00000260DF119070DF11809A7EB090306B136
:1022F00001339DF83A20D00669D5023352060F9972
:1023000048BF109A0B4448BF9B18B8F1000F76DD08
:102310009DF83820A8EB0308C2F38003039353070A
:102320006DD4500661D53EB159463046D04700289D
:1023300058DB039B01351E46302357E01E0711D49E
:1023400013F0100618BF2026DDE90C23002A73F1D4
:102350000001BFF661AF524263EB4303CDE90C23AA
:102360002D2659E72B26EFE7002655E70C9848B3B2
:102370000DF12E0300930EAA06AB0021FFF79AFC85
:10238000BDF83A3003F0EF0343F4F04343F0100399
:102390008146ADF83A30002648E70C9B07293FF606
:1023A000E4AEDFE801F00D04060D08080D0D1D7008
:1023B000DBE61D80D9E62846E917C3E90001D4E62B
:1023C0001D60D2E62E4F0646A7F105098DE71107DD
:1023D00048BF013392E7184659460393D047002877
:1023E000039B04DA13B0BDE8F08F20234544424636
:1023F000002AA5EB080108F1FF38ECDC0D462EB1F0
:1024000059463046D0470028ECDB01359DF83A307C
:10241000D90601D41A0705D559463020D0470028DF
:10242000E0DB01359DF83A30DB0606D59DF83B0030
:102430005946D0470028D5DB01350F9E2E44731B2B
:10244000002B15DC3B464A465946504610F0B1F980
:102450000028C7DB0544A844A8EB0503002B7FF741
:1024600084AE59462020D0470028BBDB0135F3E776
:1024700059463020D0470028B4DB0135DFE700BFE4
:1024800035B241004FF01003EFF3118183F311884F
:10249000BFF36F8F1C4B4FF4A0621A60A3F5C063AB
:1024A0001A4A1A629A6ED207FCD5194A1A629A6EB3
:1024B000D003FCD5174A1A629A6E9203FCD41A6BA9
:1024C00022F0030242F001021A639A6E1007FCD553
:1024D000114A9A629A6E9207FCD51A6B22F070022A
:1024E0001A639A6E1007FCD51A6B22F0030242F0B1
:1024F00002021A639A6E1207FCD581F31188BFF3AA
:102500006F8F0020704700BF000A0E4009FF3700A0
:1025100009FF370101FF3701013F09201F2805D8B6
:10252000012303FA00F0074B186170473F2807D8D2
:10253000012300F01F0003FA00F0024BC3F8000172
:10254000704700BF00040E4030B51049104889B0F4
:10255000002216F06BFE0F4D0F4900220023CDE93B
:10256000062300240E23CDE90334CDE901440B4BAF
:1025700000944FF4407228460EF0D4FC08492846D7
:102580000EF020FC204609B030BD00BFA52540005C
:1025900080110020B811002060330020792B40000A
:1025A0009DB5410001480EF055BB00BF580B0020FF
:1025B000F0B505460F4E002003460246012715F8E8
:1025C000014B0CB18B4200D3F0BD252C02D182F01F
:1025D0000102F4E7002AF2D014F806C01CF0030F41
:1025E000EDD0732C04BF07FA03F21043013300222D
:1025F000E5E700BF46F2410038B500F01FFB134885
:10260000134C10F022FA134913480423342216F015
:1026100006FB124B124A1A604FF47A7000F058FD14
:102620001048114B1B1ADB0800210430994200D1DD
:1026300038BD10F83120256802F0070225F00705A3
:102640002A4344F8042B0131F0E700BFD01A0020E0
:102650001C0A002060620020D81A00201C03002001
:10266000892A41008C9B4100C49C4100F8B50F4B66
:10267000BFF35B8F002553E8007F43E80052002A38
:10268000F9D1BFF35B8F0A4C0A4E361B3611B542A7
:1026900000DBF8BD63685B792BB12368DB6813B19D
:1026A00039462046984701351034F0E7C81A002013
:1026B000C49C4100D49C4100064BBFF35B8F53E8A0
:1026C000002F013243E800210029F8D1BFF35B8FCE
:1026D000704700BFC81A0020044A054B9B1AB1EB93
:1026E000D30F34BF52F83100002070478C9B41005B
:1026F000C49C41002DE9F047894616469846044699
:10270000B0B9214B214FFF1A3F1105469A46BC42F2
:1027100002DB2846BDE8F0870AEB04104346324648
:102720004946FFF7E7FF854238BF05460134EEE72B
:10273000174B184903EBC2031D7943681A79072325
:1027400002EB420203FA02F0454551F8263028BF59
:10275000454623EA000305F0070000FA02F213439E
:102760000020032223FA02F404F00704A04202F13D
:10277000030238BF20461E2AF4D123F00703034387
:1027800041F82630C5E700BFC49C4100D49C4100FD
:102790008C9B41001C0A0020F8B5094C094BE41A37
:1027A00006460F46E4080025A54200D1F8BD0021E9
:1027B0002A463B463046FFF79DFF0135F4E700BF50
:1027C000C49C41008C9B41000C4BC31A70B51B117B
:1027D0004668044601330D4633711146FFF7DCFFAE
:1027E0006368074C1D6001225A71227812B90548AE
:1027F0000EF030FA0123237070BD00BFC49C41006D
:10280000FC2F0020580B002070B5114BBFF35B8FDD
:1028100053E8005F6A1C43E800210029F8D1BFF3A8
:102820005B8F2DB90B4C0C4E361B3611B54200DBBD
:1028300070BD237B43B123685B6903B198470422D1
:1028400000212046FFF7C0FF01351034EEE700BF3E
:10285000CC1A0020C49C4100D49C410053B1436871
:102860000749187900EB400351F82200D84000F0E6
:1028700007007047034B03EBC2021079704700BF9B
:102880001C0A00208C9B4100174B984273B50446EC
:1028900002D3164B984221D315480022002301A9E8
:1028A0000DF03EFC0546E0B90122019BBFF35B8FB2
:1028B00053E8001F43E800200028F9D1BFF35B8FE5
:1028C000019E331D2D221846214616F003FF7E225D
:1028D000034686F8312086F832501C46204602B066
:1028E00070BD044BF9E700BF649941007CF34100DF
:1028F000D81A002036B2410048B1054B984205D3A2
:10290000D03398422CBF0020012070470020704730
:10291000606200202DE9F04F564B1B7885B00546CC
:1029200003B960B34FF01003EFF3118683F31188FE
:10293000BFF36F8F504810F098F8044686F3118863
:10294000BFF36F8F78B1BFF35B8F4C4B53E8002F11
:10295000013A43E800210029F8D1BFF35B8F95B11C
:10296000204610F091F925B9454B1B680BB1FFF7D4
:102970007DFE414810F077F8051E18BF0125284656
:1029800005B0BDE8F08F3F4B1B78CBB9237ADA074F
:1029900016D410F08CF98046204610F053F9014609
:1029A0004046FFF705FE384F384BDFF800B1DB1B20
:1029B000DB080393364BDB1B06464FEAD30A46B9C6
:1029C000344E354FDFF8E890BF1B3F114FF0000841
:1029D0004DE0B6FA86F1C1F11F094946204610F0D4
:1029E00034F92E4B9842014602D32D4B98421ED308
:1029F0000846FFF781FF0246C8B92A4B994216D014
:102A0000638903989909B0EB931FDBF8003088BF06
:102A100057F831205B070AD04FEA8A1343F00103CD
:102A2000ADF8003020484346494610F076F80121C1
:102A300001FA09F126EA0106C1E773685A799AB1E9
:102A400060891B79A17A800903EB430259F8203091
:102A5000D34001F0070103F00703994204D833681B
:102A600021461B683046984708F101081036B845E2
:102A7000E3DB75E7FC2F0020D01A0020C41A0020E9
:102A8000C81A0020FD2F00208C9B4100C49C4100EF
:102A9000AC9B4100C49C4100D49C4100649941001E
:102AA0007CF3410036B2410050B241002C0A0020B4
:102AB0001C0A0020294B73B51B68418104469847C6
:102AC000274DE060BFF35B8F55E8003F013345E8D9
:102AD0000032002AF8D1BFF35B8F4FF01003EFF301
:102AE000118683F31188BFF36F8F1E4821460FF0C4
:102AF000B0FF86F31188BFF36F8F1B4B1B7883B138
:102B00004FF01003EFF3118483F31188BFF36F8F3D
:102B10000020FFF7FFFE84F31188BFF36F8F02B030
:102B200070BD124A2B681268002AF8D0012B0AD116
:102B300000220023CDE900230D4842F21072002349
:102B40000EF0BEFCEBE70A2BE9D1094816F07AFB40
:102B5000084802B0BDE870400EF07CB81C030020AD
:102B6000C41A0020D01A0020FD2F0020F41A0020E3
:102B700080110020580B002010B5FFF745FE0EF025
:102B800063F80C4B186030B10B4B1B68092B02DD4E
:102B90000A480EF05FF8094C0020FFF7BBFE002842
:102BA000FAD14FF0FF324FF0FF3320460EF078F8A5
:102BB000F2E700BFF41A0020C41A0020580B0020CE
:102BC000F8B50E4F3D7875B90D4C0E4EFFF71CFE53
:102BD000361B3611B54207DB0020FFF79BFE0028AD
:102BE000FAD101233B70F8BD63685B791BB12368A0
:102BF00020461B69984701351034EBE7FD2F002074
:102C0000C49C4100D49C410007B504380190BFF337
:102C10005B8F50E8003F5A1E40E800210029F8D1A0
:102C2000BFF35B8F012B03D1034801A90DF0AAFA72
:102C300003B05DF804FB00BFD81A0020202302492E
:102C400002481A4615F0EBBF30630020F81A002046
:102C500037B50023094D01930120FFF75BFE0446C1
:102C6000FFF72AFD0022002301A928460DF058FA9B
:102C700008B1002CF0D1019803B030BDF81A002043
:102C800007B50023019307480022002301A90DF096
:102C900047FA10B1FFF7DCFF0190019803B05DF82F
:102CA00004FB00BFF81A0020F0B5037A457A85B01E
:102CB0002D090190D8071CD4DDB1002426460198C7
:102CC00031460FF0C2FF0746FFF716FE70B134B968
:102CD000019B29461869FFF76BFC044648B124FAAA
:102CE00006F3D90702D53846FFF78EFF0136AE420C
:102CF000E5D3019B1A7A920704D55B69084C0393CC
:102D0000039B2BB9064801A90DF03CFA05B0F0BDB4
:102D10001D6803A920460DF035FA0395F0E700BFC2
:102D2000F81A00200EB403B503AB014653F8042B88
:102D300004480193FFF70EF802B05DF804EB03B00E
:102D4000704700BFFB3041002DE9F04F85B011F016
:102D5000020490469DF8387006461A4601F00109B3
:102D600001F0080507D011F0440F37D13249FFF7C1
:102D7000D9FF01460C46B9F1000F0AD02F4B30495C
:102D800053F827202F4B3046002A08BF1A46FFF77A
:102D9000C9FF3DB12C4B2D4953F827203046FFF792
:102DA000C1FF0546B8F1000F43D0012303FA07F72E
:102DB000274B17F0100F274F18BF1F46BDF84010C4
:102DC0009DF83C00FFF788FC394602463046FFF785
:102DD000A9FF2844204405B0BDE8F08F1E4B1968B8
:102DE0000029C7D01D4B4FF4616E1B68B2FBF3F393
:102DF0004FF47A7CB3FBF1F4B4FBFEF20EFB124EFF
:102E000001FB14340CFB04F44FF03C0AB4FBF1FB5F
:102E100001FB1B440CFB04F4BEFBFAF3B4FBF1F121
:102E2000CDE901B10AFB13E100910D49FFF77AFFEB
:102E30009FE7084FC2E700BFA1B24100209E4100BA
:102E400024B8410093B24100349E4100C6B2410013
:102E50009DB2410098B24100141B0020181B0020B5
:102E6000AAB2410038B50C46E107054603D5084A29
:102E70000849FFF757FFE20608D4A30628464CBFCF
:102E800005490649BDE83840FFF74CBF38BD00BFD3
:102E900093B2410024B841002DB741003AB341003C
:102EA0002DE9F0471D46089B1746DA0604460E46F4
:102EB00005D499064CBF2B492B49FFF733FFDFF8A8
:102EC000B0904FF00008A8452DDBDFF8A880DFF8B0
:102ED000A890DFF89CA00025BD4232D2725D494621
:102EE0002046FFF71FFF0135102D23D11F49DFF8C2
:102EF0008080DFF88890DFF888A02046FFF712FF77
:102F00000025AF4229D9725D12F8093013F0970FEE
:102F100008BF2E2251462046FFF704FF0135102D31
:102F200014D1BDE8F08749462046FFF7FBFE08F1C3
:102F30000108C8E76A07CFD151462046FFF7F2FEE5
:102F4000CAE741462046FFF7EDFECCE76B07D8D134
:102F500041462046FFF7E6FED3E741462046FFF70D
:102F6000E1FEDBE72DB741003AB34100D2B24100A8
:102F700022E5410020E54100CCB2410046F241008B
:102F8000C0BB41002DE9F0478B7A13F007081746C4
:102F90008AB00A7A05460E4620D04989C3F3C20397
:102FA0008909D243CDE900830291F36802F001025E
:102FB0003946FFF7C9FE8146347AE44314F0010430
:102FC0000ED0294630460FF02EFFB8F1000F2BD05F
:102FD000424639462846FFF745FF25E0C146EBE764
:102FE000B8F1000F26D12746EB68069306AA3B46A8
:102FF000A96830460FF003FF069A6B681A603AB171
:10300000AB68134413F8014CA4F10A035C425C4121
:10301000284610F065F8069B1F44002BE4D11CB134
:1030200013492846FFF77EFE284610F059F80AB0EB
:10303000BDE8F08730460FF03AFE0E4902462846BA
:10304000FFF770FE4FF0100A05AA234606A9304686
:10305000CDF814A00FF0D3FE059A002AB8D04B4645
:10306000009706A92846FFF71BFF059B1C44EBE7CA
:10307000D4B2410024B8410073B542F20F738B42C1
:1030800028BF0B4605680F4A0446052168460FF025
:1030900092F863680C495B680646042228460FF0E4
:1030A000B5FE63683246694628465B680FF0AEFE9F
:1030B000636806495B68172228460FF0A7FE02B036
:1030C00070BD00BF42C641000EB34100F6B24100E0
:1030D000084A10B50123084C13600021A04204D80F
:1030E00001B11360054B186010BD40085B00012161
:1030F000F4E700BF181B002040420F00141B002003
:1031000000230428CB604B6098BF044B044A98BF4F
:1031100053F820308A600B60704700BF889E4100E2
:10312000649E41000023084A0B60CB604B608A60BC
:10313000064B074AD21AB0EB221F3EBF03EB001327
:103140009B680B60704700BFC89F4100C49C410052
:10315000D49C41002DE9F347114C124DDFF8488013
:10316000DFF84890DFF848A02D1B07462D110026F8
:10317000AE4203DB002002B0BDE8F08762685379FD
:103180001279002B14BF43464B46CDE90032002193
:10319000A3685246384610F0D4F801361034E7E7F9
:1031A000C49C4100D49C41000AD6410013B34100A5
:1031B0001CB341002DE9F74F214B224DED1A4B680E
:1031C0005B7906460F46ED081BB91F4A042110F033
:1031D000B8F81E4B1E4ADFF880A0DFF880B000214F
:1031E000304610F0AEF81B4A0021304610F0A9F826
:1031F0000024AC4203D1002003B0BDE8F08F22468A
:10320000012300213846FFF729FB002322461946F7
:1032100080463846FFF722FB214681460020FFF713
:103220005BFA5AF8292001925AF8282000920346A6
:103230005A460021304610F084F80134D9E700BF27
:103240008C9B4100C49C41003DB341004FB3410001
:103250005BB3410079B34100749E4100B6B34100B5
:1032600010B50023054ACB600C464B608A600146CE
:103270001846FFF731FA206010BD00BF649E410080
:103280002DE9F74F52F804BC184C194E009307462D
:10329000584691468A46FDF709F9361B0246361113
:1032A0004FF00008B04508DB124A5B460221384661
:1032B00010F047F86FF0070513E0A1680192584637
:1032C00016F0F6F91034054618B1019A08F1010814
:1032D000E8E70649009C4B46524601EB0811384688
:1032E000A047284603B0BDE8F08F00BFC49C410052
:1032F000D49C4100CAB3410008B5024BFFF7C0FFA0
:10330000002008BDB5314000014BFFF7B9BF00BF39
:1033100031314100014BFFF7B3BF00BF39314100EC
:10332000014BFFF7ADBF00BF25344000014BFFF755
:10333000A7BF00BFB531410010B5C369DB681C7978
:103340002CB9044A02210FF0FCFF204610BD0120D9
:10335000FCE700BFDFB341002DE9F04F2B4E1F46C5
:103360002B4BF61A151E85B04FEAD60614BF2B4616
:10337000334602934B685B79804689461BB9254AE0
:1033800004210FF0DEFFDFF898A00024029B9C428E
:1033900002DB05B0BDE8F08FB5B357F824B00023C9
:1033A0009E4207D157F824301B4A022140460FF0B5
:1033B000C8FF22E0194600200393FFF78DF9402251
:1033C000594616F075F9039BC8B91A4600210E9BA1
:1033D0004846FFF78FF90E9B834283460DD085B98F
:1033E00021462846FFF778F903465AF82B20009229
:1033F00004210A4A40460FF0A4FF0134C6E7013316
:10340000CEE757F82430F0E72246DFE7C49C4100BE
:103410008C9B410003B441002EB4410018B441001C
:10342000749E41002DE9F74FD3F804B0DFF850A0A7
:103430000646884691461D4600275AF8041B04227A
:10344000584616F035F9044670B10137052FF4D10E
:103450006B680A4A022130460FF073FF6FF00704D1
:10346000204603B0BDE8F08F009705F10803A9F1ED
:10347000020241463046FFF76FFFF1E748B44100D2
:10348000749E410013B504460DF0D8FDC0F3072328
:103490000193C0F307430093044A030E0021204622
:1034A0000FF04FFF002002B010BD00BFEFB541008C
:1034B00010B5044615F08FFE0A220023FCF770FEBB
:1034C000034A0346002120460FF03BFF002010BDB9
:1034D00008B6410010B5044603F096FC084A0346BE
:1034E000002120460FF02DFF064A204600210FF054
:1034F00028FF054821460DF015FC002010BD00BF37
:1035000017B6410036B641006D35400030B5014672
:1035100087B0044611480DF005FC114A002312F84B
:10352000011BAA2903D10133B3F5006FF7D1C3F50D
:10353000006164224A43D20A002505924FF40062DA
:10354000CDE90312CDE901232046064B064A00953A
:1035500029460FF0F6FE284607B030BD4936400038
:10356000405600202056002040B64100F0B587B0FC
:10357000D0F8A47004460D4615F051FD06460DF036
:1035800063FB224B224A002E08BF1E46214BCDE989
:103590000046844218BF1346002128461E4A0FF0F9
:1035A000D0FED4E90A23CDE9022394F90E301B4A58
:1035B00000930021237B28460FF0C3FE20460DF028
:1035C00011FC174A0346002128460FF0BAFE05A950
:1035D000204615F026FD014638B10346114A002168
:1035E00028460FF0AEFE07B0F0BD059A6423B81A66
:1035F000CDE9002043430C4AB3FBF7F32846CDE95D
:1036000002733B460FF09DFEEDE700BF86B641001A
:1036100022E5410054CA410089B6410095B64100F7
:10362000BFB64100CBB64100F8B6410010B5044624
:1036300003F008FC034A0346002120460FF081FEF8
:10364000002010BD2FB74100F0B5D0F8A47089B0AC
:1036500005460E4607A915F0E4FC044638B10346BA
:10366000104A002130460FF06CFE09B0F0BD28462C
:1036700015F0D5FC079ADFF834C0B91A002808BF46
:1036800060466423CDE90221CDE900074B43064A99
:10369000B3FBF7F32146CDE9047330462B460FF018
:1036A00050FEE2E7CBB6410045B7410086B6410087
:1036B0002DE9F0410F4A104C104E114FDFF84480B5
:1036C000002105460FF03DFEB44202D10020BDE8C6
:1036D000F08120460CF060FB50B13A4600212846AC
:1036E00023680FF02EFE4246002128460FF029FEE7
:1036F0001034E9E718B8410068090020180A0020D2
:1037000022B841002DB741002DE9F8430E4BDFF8F8
:103710003C9053F821400131064653F821800027A0
:10372000A04502D83846BDE8F88320460CF034FBAB
:10373000054630B123684A46002130460FF001FEAD
:103740002F461034ECE700BF80A0410027B84100AD
:1037500010B51F4A044600210FF0F3FD0221204658
:10376000FFF7D2FF014618B91A4A20460FF0E9FDCB
:10377000194A002120460FF0E4FD03212046FFF7FF
:10378000C3FF014618B9134A20460FF0DAFD134A69
:10379000002120460FF0D5FD00212046FFF7B4FFA1
:1037A000014618B90B4A20460FF0CBFD0C4A002108
:1037B00020460FF0C6FD01212046FFF7A5FF014678
:1037C00018B9044A20460FF0BCFD002010BD00BF10
:1037D0002DB841003BB8410043B8410051B8410009
:1037E00060B8410010B581680446083101F0BCFBA7
:1037F000A168034A20460831BDE8104001F03CBBF7
:10380000BEB8410038B58368002583F838509D86DE
:103810005D868368D3F85832DB0304460BD5084B2A
:10382000084A04210FF086FFA368D3F8582265F3F5
:103830001042C3F858222046BDE8384001F0D4B900
:10384000CCB8410024B8410037B58368D3F858227A
:10385000520604460D4608D5D3F85822C0686FF3C7
:103860008612C3F8582210F090F8E368DB6863B959
:103870009DB3A06838300FF0EAFCA36878B303F179
:10388000380103F59C7015F00BFFA268E0680DF19C
:1038900006033832294610F07BF858B9A06800F5C5
:1038A0009C71383015F0FCFEA06838300FF0CFFC6A
:1038B000ADF8060020460FF0A1FE0A4A0A496069E9
:1038C0000FF0CBFC204601F08DF8A368BDF8062070
:1038D0009A865A86204601F00FF803B030BD83F86F
:1038E0003801D2E7B8BB410024B841002DE9F04FC0
:1038F00000239FB0CDE90533836804463833039332
:103900000FF082FE20460FF041FE18B9A24960690F
:103910000FF0A3FCA06814220021083015F0A2FECD
:10392000204600F08BFFA168E0684A8E38310026FF
:1039300010F065F8204610F018FA4FF0FF38B14645
:10394000B24611AF02963546B346DDE90532012A8B
:1039500000F0DF800B2B40F2B7800699022940F07F
:10396000B7808E4B8E4A15E0039A0223394606A88B
:1039700000F03CFE7A680392069A03462AB96FF07B
:10398000070528461FB0BDE8F08F012A06D128B1EF
:10399000844A022120460FF0CDFEF0E7059B002B64
:1039A00030D081493868FCF777FD30B9EEB97F4AED
:1039B000022120460FF0BEFEE1E77D493868FCF7A2
:1039C0006BFD0028F2D0059BE3B13A6829462046FA
:1039D00001F02EFC022800F09C80032812D0059BE9
:1039E0000133059301230293AFE7A5680D960835CF
:1039F0000CAE0FCE0FC533682B602046FFF7F2FEEA
:103A00000125BEE7BAF1000F05D1396807AA58466B
:103A10000FF056FD0546043708F1FF38002D41D060
:103A2000029B4BB1EB683BB120460FF0EDFD204609
:103A300000F062FF5F4ABBE7EB68CBB1A368DDF83B
:103A40001490AE4603F1080CBEE80F00ACE80F007E
:103A5000DEF80030CCF80030AB684BB96B7CFE2B45
:103A600001BF95F8108009F1010308F1FF380593B3
:103A7000D5F804C0BCF1000F08D0AE46BEE80F0078
:103A80000CAE0FC6DEF8003033606646AB46B8F1C8
:103A9000000F03D1069B022B7FF457AF059B013328
:103AA000059352E7059B63B9A368DB690BB1DB683B
:103AB0003BB9414B0093414A119B022120460FF034
:103AC00039FE4FF0010AE2E7B8F1000F7FF44CAF86
:103AD000029B4BB1204610F06CF9A2680C233832DF
:103AE00011A905A800F082FD059DA0681EAB03EB9F
:103AF0008503002243F8342C436973B9002E3FF448
:103B00003EAFC368B3423FF478AF0D9600F10805AD
:103B10006EE7059B0B2BDBD91FE7037EA5EB0905A1
:103B2000B3B1427E4FF6FF71FF2A08BF0A469D429D
:103B300002D313449D420BD98368214A02212046B7
:103B40000FF0F8FD2046FFF74DFE6FF0150518E762
:103B5000D0F8583243F08003C0F8583200F53B707B
:103B60000FF073FBA36811AA29465B6902EB890277
:103B7000204698470546A0684FF0FF324FF0FF33CC
:103B800000F53B700FF080FBA368D3F858226FF369
:103B9000C712C3F85822F4E62DB741008FB941008F
:103BA00043E2410010B9410024B941002EB941005F
:103BB00027B941004CB941007BB94100E0E2410026
:103BC000B3B941002DE9F04F8368BFF35B8FABB011
:103BD000044603F5167353E8002F42F0080243E849
:103BE00000210029F7D1BFF35B8FA3681B79022B5B
:103BF00040F0378300230B936068036801221D693E
:103C00000DF12B010BABA8470B9B002B00F0298378
:103C10009DF92B209DF82B30002AEDDBA06841791F
:103C2000012900F08C82022900F09F82002940F0D7
:103C300016830D2BD0F858221BD00A2B19D061F314
:103C40000F22C0F85822092B56D03BD8002BD3D0D6
:103C5000082B00F0D981864A9A5C12F0970FD0F8B1
:103C6000582200F0E08142F04002C0F85822194684
:103C7000F5E012F47F4F05D0D0F85822C2F30722A6
:103C80009342E0D1D0F8582263F30F22C0F85822B3
:103C9000428E9AB9D0F8583262F38613C0F858327F
:103CA000E0680FF072FE734960690FF0D6FAA368FE
:103CB00002221A712046FFF7A5FD9DE72046FFF777
:103CC00015FEF4E71B2B14D07F2BC4D1D0F858324B
:103CD0005F0791D5D0F8583243F04003C0F858320E
:103CE000D0F858329E0600F19A8120460FF063FD0D
:103CF00082E7012343717FE7D0F858325D077FF5F3
:103D00007BAFD0F8583243F04003C0F85832438EAE
:103D1000FF2B3FF471AF828E00F1380100F59C70EB
:103D200015F065FCA268938E1344002583F8385182
:103D30001DA90C2302F59C720DA800F057FC0D99EB
:103D40000C293FF659AF2AAB03EB810343F8345CEF
:103D500051B1A3689A8E134493F83720444BD35C37
:103D6000180758D4012955D100250C950C9B2AAA77
:103D700002EB8303002653F834AC50460FF067FA89
:103D8000B04681460496374618AA3946284600F0C0
:103D9000F5FC834600284AD1012E6DD10C9B2AAA3E
:103DA00002EB830353F8340C0FF051FAA268064675
:103DB00008324146284600F0E1FC054600680FF055
:103DC00046FA864206D02968821B92B231442046C8
:103DD0000FF0EFFCA3689A8E1A4492F83810244A28
:103DE0008A5C12F008023ED1D3F85812C90735D5C3
:103DF000D3F8581262F30001C3F85812204620216C
:103E000000F0C0FEA268D2F8583243F00103C2F8B5
:103E10005832F1E6013900200EAB009301900CAB53
:103E20001DAA0FF064FB054600289FD1E4E6DBF8ED
:103E300000004A46514615F03BFC68B9DBF800002B
:103E4000FCF734FB049B834238BF03469BB2002E31
:103E500008BFB84604930136013795E72021204674
:103E600000F090FEC8E6012120460FF0A3FBC3E658
:103E700046F241002DB741007FF6BEAE0C9B2AAA48
:103E800002EB830353F834AC50460FF0E0F9A3681B
:103E90000690A3F830B0DFF878B30596CDF80C8023
:103EA000A26803990832284600F068FC039B01339E
:103EB00007460393BAF1000F53D13B68002B5AD148
:103EC000A2681386059B013B0593E9D1CA49606945
:103ED0000FF0C3F9204600F087FE0C9B2AAA02EBE4
:103EE000830308F1010953F8340C0FF0B0F941468F
:103EF00013AA0746284600F041FC8046A068D8F87F
:103F00000010FF2200F59C7015F0E4FBD8F800A02B
:103F10004FF6FF7818AA4946284609F1010B00F030
:103F20002DFC002863D0A368006803F59C73002271
:103F300013F801CB815C614505D121B101324FF607
:103F4000FF718A42F4D10FB1BA4208DB904506F105
:103F5000FF36A8BF9046012E1FFA88F847D0D946F1
:103F6000D8E700680028A8D0069A514615F0A0FBB3
:103F70000028A2D094E7584607930FF068F9049BF5
:103F8000A168C21892B258464F8D09920FF05FF99E
:103F9000079B089018460FF05AF9099A0899079B51
:103FA000A2EB0009A068B0F830C07F1A97FBF2F2CC
:103FB00092B2BCFBF2F102FB11C20CF1010E92B203
:103FC0001FFA89F9A0F830E05AB900938B4A5B4692
:103FD000072120460FF0AEFB4946204600F07CFC4E
:103FE00070E7874A072120460FF0A4FBF4E7B8F1F9
:103FF000000F3FF401AEA8EB070292B20AEB0701F3
:1040000020460FF0D6FBF7E5D0F858325B077FF576
:10401000F3ADD0F8583243F04003C0F85832204690
:104020000FF0E4FBE8E555077FF5E6AD013B162B05
:104030003FF6E2AD01A252F823F000BF2542400056
:1040400099404000A1404000EB3C40001942400034
:10405000C7404000F93B4000F93B4000F93B4000BD
:10406000F93B4000CF404000D7404000F93B4000C2
:10407000F3404000F93B4000FD404000F93B400068
:10408000F93B4000F93B4000F93B40000141400052
:10409000F93B40002D41400020460FF0BCFAABE553
:1040A00020460FF0B1FA20460FF070FA18B95249C5
:1040B00060690FF0D2F8A368D3F8582242F04002AA
:1040C000C3F85822F4E520460FF0ADFA94E52046F7
:1040D0000FF0B2FA90E560694A4A49490FF0BDF81D
:1040E0006069494A46490FF0B8F8204600F07CFD67
:1040F00082E500212046FFF7A7FB7DE50121F9E7D6
:1041000020460FF07BFAA3683D49002283F838204F
:104110009A865A86A268D2F8583243F04003C2F811
:1041200058326069394A0FF098F865E5204600F08A
:10413000ABFCA268D2F8583243F0400367E65B2B31
:1041400001D10223D6E5D0F85822500709D5622BB9
:1041500005D14FF0FF31204600F00CFC01E0662B4A
:10416000F9D0A36800225A7146E500224271A26884
:10417000D2F8581249077FF53FAD313B1B2B3FF674
:104180003BAD01A151F823F0214240002D424000F7
:104190004D42400015424000F93B4000F93B4000D1
:1041A000F93B4000F93B4000F93B4000F93B40003F
:1041B000F93B4000F93B4000F93B4000F93B40002F
:1041C000F93B4000F93B4000FD404000F340400017
:1041D000C740400099404000F93B40001942400070
:1041E000F93B400025424000F93B4000F93B4000CC
:1041F000F93B4000314240002DB74100CEB94100AB
:1042000024B84100AFBB4100B3BB4100B8BB410083
:1042100021E541000323537120460FF0F5F9EBE44B
:104220000323537120460FF0E9F9E5E403235371AA
:10423000A268D2F85832D2F8581203F0010383F082
:10424000010363F30001C2F85812D5E4032353714C
:10425000A368D3F858325B077FF5CEAC45E5002361
:1042600048E5A368BFF35B8F03F5167353E8002F8F
:1042700022F0080243E800210029F7D1BFF35B8F49
:104280002BB0BDE8F08F00BF2DE9F041044688B0A7
:104290000F464FF44172002180681E4615F0E2F986
:1042A000A3682268E0681A600FF014FCA06800F5AB
:1042B0003B7014F0E9FC4FF427784FF41775A068B1
:1042C000284415F033F9A068002243190121404425
:1042D000103515F00EF9B5F5277F08F11408EED169
:1042E000A36900221A60A268D2F85832106843F01D
:1042F0001003C2F85832D2F8583243F00403C2F81F
:104300005832D2F8583243F02003C2F858321B4BCF
:1043100093620EF09CFFA36883F82C00A268D2F889
:10432000583243F00203C2F858326068144A0368F6
:1043300039461D682346A8470546D0B9A36801221F
:104340001A71D4E90A0100220023CDE906230E23C5
:1043500003930E9B0495CDE901630094094B4FF440
:1043600000620CF0DFFDA368616AC3F800030CF083
:1043700029FD284608B0BDE8F08100BF18005000B4
:1043800075324100D943400010B504468068037976
:10439000012B1CD14FF0FF324FF0FF3300F53B7083
:1043A0000EF072FF0021204600F024FB09496069ED
:1043B0000EF053FFA36802221A712046FFF722FA7B
:1043C000A06800F53B700EF040FF002010BD6FF0BC
:1043D0008500FBE72CB741002DE9F0410446406819
:1043E00003680E469B6800211546984700284CD16B
:1043F00026B1E0692A4621460FF01AFC2046FFF755
:10440000C3FF002841D1DFF89480214F214EA068DE
:1044100000F527704FF0FF324FF0FF3303210DF00E
:10442000ABF80546A0684FF0FF324FF0FF3300F5C0
:104430003B7075B10EF028FF20462B46164A02212C
:104440000FF078F9A068BDE8F04100F53B700EF080
:10445000FCBE0EF019FF606803685B6903B1984702
:104460004246204602210EF0C0FE3A462046002178
:104470000EF0BBFE2046324601210EF0B6FEA068CB
:1044800000F53B700EF0E1FEC1E7BDE8F08100BF32
:10449000C53B40008D324100D4B941001532410086
:1044A00010B50D4A044600210EF04BFF20460B4A82
:1044B00000210EF046FF2046094A00210EF041FF80
:1044C0002046084A00210EF03CFF2046064A002103
:1044D00000F0D2FC002010BDEBB9410029BA410028
:1044E00088BA4100DCBA410076BB41002DE9F047B3
:1044F00016461F462B4ADFF8B880DFF8B890DFF881
:10450000B8A00B46002104460EF01BFF0025AF4269
:1045100034D9735D4A46002120460EF012FF013562
:10452000102D23D1204ADFF89080DFF89090DFF83B
:1045300090A0002120460EF004FF0025AF422BD9A9
:10454000735D13F8092012F0970F08BF2E2352460F
:10455000002120460EF0F5FE0135102D14D1204625
:10456000124ABDE8F04700210EF0EBBE15F007013E
:10457000CDD1524620460EF0E4FEC8E74246002167
:1045800020460EF0DEFECAE715F00701D6D14246FE
:1045900020460EF0D6FED1E74246002120460EF01E
:1045A000D0FED9E78CBB4100D2B2410093BB4100A1
:1045B00020E54100CCB2410022E5410046F2410035
:1045C000C0BB410010B5044613460A4601460648E2
:1045D000FDF7C0FB23691B7923B12046BDE81040DD
:1045E0000EF0E9BE10BD00BFCF3341002DE9F74FFB
:1045F0001F46DFF88481002305460E4614460360FB
:104600009A4699462378002B00F0B18013F80830C1
:1046100013F0080302D004F8019BF3E729684A1C51
:10462000BA422A6046F8214000F0A1809A4694F8E8
:1046300000B0BBF1000FE5D0BAF1000F40F083806D
:10464000BBF1270F06D0BBF15C0F00F08480BBF1FB
:10465000220F71D120460EF0D6FE611C0246204684
:1046600014F0E6FFDA46E2E720460EF0CCFE611CCD
:104670000246204614F0DCFF4FF0000AD7E730294D
:1046800026D14FF0000B0223E15CA1F130005FFA6C
:1046900080FCBCF1070FDAB218D8013340EACB0B2B
:1046A000052B5FFA8BFBEFD11A46511E21442046A1
:1046B000019200910EF0A7FE019A0230821A204664
:1046C000009914F0B5FF04F801BBB0E7022AECD161
:1046D000782936D14FF0000B0223E25CA2F13001C1
:1046E0005FFA81FCBCF1090FD8B213D841EA0B1272
:1046F000032B5FFA82FB0BD10423591E2144204671
:10470000019300910EF07FFE019B821CD21AD6E726
:104710000323E2E7A2F16101052903D8573A42EAEF
:104720000B12E5E7A2F14101052901D8373AF6E776
:10473000022806D00323E0E718F80B301B073FF5EB
:1047400061AF013473E7D3458ED0BBF15C0FF8D174
:1047500061788A4593D120460EF055FE04F1010B95
:1047600002465946204614F063FF5C465FE7504618
:1047700003B0BDE8F08F00BF46F2410010B50B4614
:10478000144650B90E490F4A521AB3EBD20F0FD24A
:1047900001EBC3014C68204610BD816841B14A68F5
:1047A000097839B11846214690472368002BF2D189
:1047B0000024F0E714204343D418D358F6E700BF91
:1047C000049D4100549D41002DE9F84306460EF03A
:1047D0001AFE054656BBBDE8F8834CB16A1C9BB275
:1047E0000130D21A304414F023FF2D1BADB24C46D9
:1047F0000137BBB26A1E93421846ECDA325C12F8FB
:1048000008201207F4D501339BB29AB29542EFD932
:10481000F25C18F8022012F0080906EB030103F11C
:10482000010CDAD00134A4B26346EEE70027DFF8CA
:1048300008803C46DDE700BF46F24100F8B58468D9
:1048400094F83830054653B9AB685A8E9A86F8BD4D
:10485000013A92B2628632B984F83820F4E71149FD
:1048600004F138000E46628E831813F8013C5B5C3D
:1048700013F00803ECD183549FB210FA83F110F8BF
:1048800007C016F80CC01CF0080F03F10103F3D1A8
:10489000002FD9D0668E731CDA1BF61B14F0C8FEED
:1048A0006686D1E746F24100014A02490EF04DBE4C
:1048B000C3BB410024B8410059B1002981EAE1722B
:1048C000A2EBE17240690349CCBF412342230EF0C1
:1048D0003CBE7047BCBB410059B1002981EAE1727E
:1048E000A2EBE17240690349CCBF432344230EF09D
:1048F0002CBE7047BCBB410010B504460EF046FE0E
:1049000028B160690549BDE810400EF01EBE04F1F3
:1049100008000EF027FE0028F3D110BD2DB741008E
:104920002DE9F0410646054656F8084F04F12000EF
:10493000628EA18E0EF087FD3046B4F82480E78C9D
:104940000EF010FE18B10A4968690EF0FEFDB84578
:1049500007D1218C638C2846C91ABDE8F041FFF7C6
:10496000BBBFE18CA38C2846C91AFFF7A5FFF0E76F
:104970002DB741002DE9F8430C1E06462EDA64429D
:1049800024B24FF0FF35DFF85880AFB21CE0B368B7
:104990009A8EB3F832E003F1380C00201346991ACE
:1049A00009B213B9B5F1FF3F0BD09E4501D1012DDE
:1049B00007D01CF8039019F8089019F0070F09D1D7
:1049C00048B130460EF0F6FD013C24B2631CDED146
:1049D000BDE8F88301203B449BB2E0E70125D2E724
:1049E00046F2410082680249406938320EF0ADBD9E
:1049F00024B8410007B5836893F82E208A4212D06C
:104A000083F82E10406989B1094B009333238DF848
:104A100004302F316D238DF80510ADF806306A464D
:104A200004490EF092FD03B05DF804FB024AF7E77B
:104A30001B5B313B24B84100CDBB410037B50D466F
:104A400009780446FFF7D6FF6B78CBB1A26892F8DD
:104A50002F10994214D045F61B31ADF800103421C7
:104A60008DF8021003F12F0182F82F308DF803101A
:104A70006D21ADF80410606902496A460EF065FDCB
:104A800003B030BD24B84100F8B583685A8E05469E
:104A9000002A46D0988E002843D03730184403F1BE
:104AA00038060346C41AB342A4B219460DD311F80E
:104AB0000179202F33D01946013B0878202804D0F3
:104AC00001349E42A4B21946F5D9631C4E1C121B38
:104AD0001944304614F0ACFDA9684A8E121B92B2FC
:104AE0004A860A440027614282F83870284609B293
:104AF0000EF060FD68690B4A0B490EF026FD394641
:104B0000094A334628460EF015FE6869FFF7CCFEC9
:104B10006869064A0449BDE8F8400EF016BD0B4628
:104B2000C0E7F8BDC7BB410024B84100CABB410083
:104B300070B504460D46164612B14069FFF7B4FE43
:104B4000A268938E3833134420460C4A00210EF09D
:104B5000F1FD204650F8083F5A8E9A860EF002FD6D
:104B600028B106B11DB1064960690EF0EEFC69423C
:104B7000204609B2BDE870400EF01CBD24B84100CB
:104B80002DB7410013B583688DF80710D3F858226C
:104B9000D20704461DD5998E5A8E8A4219D0481CD8
:104BA00098860B449DF8072083F83820A368D3F833
:104BB00058325B070BD5606909490EF0C6FC2046E8
:104BC0000EF0E4FC18B1074960690EF0BEFC02B0BB
:104BD00010BD01220DF1070120460EF0B8FDF6E7E9
:104BE000C0BB41002DB7410083680A4A1B6810B55D
:104BF000044603210EF09EFDA368D3F858325B07EC
:104C000007D52046FFF7EEFE2046BDE81040FFF72F
:104C100087BE10BD24B8410038B5154642680C4621
:104C200011688B60A368C1E9004523B19B6C13B187
:104C3000044920469847A3689B6A0BB120469847D1
:104C4000002038BD794C400007B509480BF0BAF890
:104C5000014650B104230093012306481A46FFF78A
:104C600013FB002003B05DF804FB6FF01200F9E7BE
:104C7000D1BB4100D49C41002DE9F34782460D464B
:104C800083685B6C03B19847DAF808305B6B002BE4
:104C900031D05046984770B3364E374BDFF8E0902E
:104CA000F61AF608B6014FF0000846F00206E8686A
:104CB00001A902690DF096FD074600283DD0DAF8FB
:104CC00008309C6924B1024601995046A047044629
:104CD000002CE868214618BF4FF001080DF09EFD3A
:104CE0000CB1A742E3D0B8F1000F04D02B6800202C
:104CF000D3E901219047DAF808305B6AD3B1504616
:104D00009847B8B1A86801A902690DF0B3FD04463F
:104D100050B3DAF808305B6923B301990246504674
:104D200098470146A8680DF0C1FD2B680120D3E922
:104D30000121904702B0BDE8F087D9F8003013F0A8
:104D4000060F03D00D4831460DF0ADFEDAF80830FD
:104D50009C69002CC7D001220DF103015046A047E9
:104D60000446BDE71946DDE750460EF050FD2B68BE
:104D7000DC60DAE7AC9C41008C9B4100D8BB410071
:104D8000AC0A00202DE9F84F044690460E46002953
:104D90006BD0374B00259946725DD25C120720D448
:104DA000DFF8D0A03046FBF781FBA3685A8D80B2B4
:104DB000401BA2EB0803984206EB050B13D959469A
:104DC000002711F8010B19F800C01CF0080F02D0E1
:104DD0000A2831D03B4608EB070082422BD9013725
:104DE000EFE70135D8E75B460027B84217D013F844
:104DF000012B0A2A05EB07091BD160690EF0DBFACB
:104E00003A46594620460EF03BFC1A4960690EF0BE
:104E100056FD4146204609F10105FFF75DFD606939
:104E200071190EF04CFD60691249BDE8F84F0EF0A3
:104E300046BD0137D9E71F4660690EF0BCFA3A4615
:104E4000594620460EF01CFC3D44735D19F80330B2
:104E50001B0708D4606951460EF031FD41462046DB
:104E6000FFF73AFD9EE70135EFE7BDE8F88F00BF99
:104E700046F241002DB741002DE9F04F0F460021C9
:104E80008DB0044616460D4607AA384601F10108C2
:104E9000FFF774FC0146A0B985B11EB13246204629
:104EA0000EF048FCDFF8B880DFF8B8B000214B1CEA
:104EB00007AA38460393FFF761FC60B90DB0BDE85F
:104EC000F08F086810B1FBF7F1FA80B2854238BF65
:104ED00005464146D8E7D0E900A94046FBF7E6FA87
:104EE0000490BAF1000F20D05046FBF7DFFA2022E1
:104EF0002E1A8DF81B204346174ACDF800A000213A
:104F000020460EF017FCB6B200239AB2B2420ED37E
:104F100043465A46002120460EF00CFCB9F1000F22
:104F20000FD10E4960690EF0CAFC0399BFE7012258
:104F30000DF11B01204605930EF0A2FB059B0133EA
:104F4000E3E7049B6A1C02EB430292B24946204607
:104F5000FFF718FFE9E700BFCFB941002DB74100C7
:104F600022BC41001ABC4100F7B5064608680D4650
:104F7000B8B1FBF79BFA84B20B4F3846FBF796FAB1
:104F80002B680A4A00970444002130460EF0D2FBF9
:104F9000A4B269682246304603B0BDE8F040FFF78E
:104FA000F1BE0446E8E700BF1EBC4100CFB9410096
:104FB00038B5074D074A0446294640690EF0C6FC3D
:104FC0006069054A29460EF0C1FC002038BD00BFCB
:104FD00024B8410067C041006BC0410010B50446D1
:104FE000044A054940690EF0B1FCA368034A9A627D
:104FF000002010BD70C0410024B8410018005000CE
:1050000008B58369034A1B6800210EF09AF9002055
:1050100008BD00BF25BC4100F0B5104F85B0044667
:105020000025A268E0680DF10E0302F59C720121D3
:105030000EF0AEFCBDF80E00A36858B103F59C73EA
:1050400000936E1C2B463A46002120460EF079F95B
:105050003546E6E783F8380105B0F0BD34BC4100C1
:10506000022907B50CD1536801930D4B00931368C7
:105070000C4A0EF066F96FF0150003B05DF804FB02
:105080008368094AD3F8583213F0040F4FF0000137
:10509000064B18BF1346064A0EF053F90020ECE702
:1050A0004BBC410042BC410005B841003EBC410040
:1050B00060BC4100F0B5012985B005460DD05368AC
:1050C0000193534B00931368524A02210EF039F9B1
:1050D0006FF01504204605B0F0BD4F4A4F494069B6
:1050E0000EF034FC6FF0F9012846FFF7E5FBFA21DA
:1050F0002846FFF7F1FBA86800244FF48072214690
:1051000000F59C708DF80B4014F0ACFA44496869C6
:105110000EF01CFC68690EF04EF94FF47A76686860
:10512000036801221F690DF10B0103ABB847039B14
:1051300053B9013E4FF47A70B6B20BF00DFE002E5B
:10514000EDD16FF0850431E09DF80B30AA681B2B80
:1051500053D092F838111B29E1D1522B4DD1144470
:10516000002384F8383192F839115B294DD102F5CA
:105170009D701F46022610F8011B01363B29B6B26E
:1051800026D1B6F5807FDCD006F59C701044002354
:1051900010F8014B34BBFA2B28BFFA23FA2F5385A2
:1051A0003B4628BFFA2382F8384113851D4A1B4924
:1051B00068690EF0CBFB002C8CD0AB681A4A9A625F
:1051C00004211A4A28460EF0BCF86FF0070481E764
:1051D00007EB870301EB4303303BB6F5807F9FB2BB
:1051E000C9D1AEE703EB8303013604EB4304B6B247
:1051F000303CFF2EA3B2CBD9A3E711190134A4B2DE
:10520000092C81F838318AD9002382F8383198E79F
:105210004BBC410042BC410061C0410024B8410088
:1052200076C0410064C041001800500071BC4100CC
:105230002DE9F04F074689B01546894621B9032468
:10524000204609B0BDE8F08F10460EF07AFD002828
:10525000F5D04FF000084146022424E05C463CE0D3
:1052600029460AF59C7014F069FA064600284ED0CB
:10527000FBF71CF982B2601C01323146304414F055
:10528000D7F922465946304614F0B1F94FF02003C1
:105290003355BAF8360004440134AAF8364008F110
:1052A0000108002401994B1C03AA48460193FFF70B
:1052B00065FA0646F8B13168002228460CF004FF72
:1052C0000028EFD1D6F800B0D7F808A0BBF1000F46
:1052D000C4D05846FBF7EAF884B2BAF83620013257
:1052E0002244B2F5807FBBDD0A4A2B4604213846B2
:1052F0000EF020FA0124B8F1000FA1D0B8682A46B8
:1053000000F1360100F59C700EF0B3F898E7022426
:10531000F1E700BF7BC041002DE9F0475C1A86B081
:10532000002CDDE90EA7DDF84080814615461E46BB
:1053300015DD01F1010C1FFA8CFC445CA2F800C0E1
:10534000B3EB0C0100F1A780B7F800C0FF2C0CF103
:10535000010CA7F800C005D1002940F0A0806FF033
:10536000150198E04FEA141E04F00F04ADF814E0A4
:10537000ADF81640002944D1BEF10C0FEFD8BDF8AE
:1053800016300C2B16D90DF1120202920DF11602F5
:10539000CDE90032298833462A4648460EF03AFDC8
:1053A000011EDCDB3B88BDF8122013449AB2934205
:1053B0003B80D4D1BAF80040BDF814301C44A3B2ED
:1053C000E31A18BF0123AAF80040002BC7D13A887E
:1053D000BDF81640224490B2824218BF01239BB20E
:1053E0003A80002BBBD141BB002CB8D1B8F1000FE3
:1053F00039D129880C44A1B28C422980AFD1711ACD
:1054000049E0BEF10C0FBAD90DF11201029105A9C4
:10541000CDE900E111880EF0FDFC011E9FDB03D1F8
:10542000BDF816300C2B9AD83B88BDF812201344D7
:105430009AB293423B80A2D091E7B8F1000FD8D046
:105440000C2C10D9174B1B685B0788D0164A174BDA
:1054500017489B1ADB089B0143F001030C222146ED
:105460000DF042FB7BE7BAF80030A8F8003088F86E
:1054700002402F88F31B9C4208F103003FF76FAFF7
:1054800009EB0701224614F0B2F8E11989B229802C
:10549000711A3FF564AF084606B0BDE8F0870021F9
:1054A000F9E700BF3C0A00208C9B4100CC9B4100E7
:1054B000CDC041002DE9F84F0F4692461C460646E6
:1054C00018B96FF01500BDE8F88F0BB1002AF8D0BD
:1054D000B189B9420ED9464B1B685807F1D0454BEC
:1054E00045494648C91AC908890141F001010DF032
:1054F000DAFAE6E773891BB1B94234D07F1ABFB23A
:105500000C2F32D84FF0000BFBB2D9460C2C42D8EE
:105510000025E1B2A84641EA0311C9B230460EF0B7
:1055200055FC0028CDD0B9F1010F46D15FFA8BF1BF
:1055300030460EF04BFC0028C3D0B8F1010F44D127
:10554000E9B230460EF042FC0028BAD0002C44D11B
:1055500001347389B1894C4444441C440F44748120
:10556000B7810020AFE70027CCE7B7F5867F0FFAB9
:1055700087FB07D8ABF10D0B1FFA8BFB0D234FF008
:105580000109C3E76FF486718B441FFA8BFB0E236E
:105590004FF00209BAE7B4F5867F25B205D80D3D74
:1055A000ADB20D214FF00108B5E76FF486721544D6
:1055B000ADB20E214FF00208ADE7B9F1020FBCD138
:1055C000594630460EF011FCB5E7B8F1020FBDD1D7
:1055D000294630460EF009FCB6E7BAF1000FB7D005
:1055E0002246514630460EF06BFC0028B0D168E7E9
:1055F0003C0A00208C9B4100CC9B4100F6C041003E
:1056000008B50AF0A9F9014B188008BDF42F002055
:10561000024B1888421C1A80704700BFF42F0020EC
:105620002DE9F04F91B00E46BDF868A014461F4614
:10563000054620B96FF0150011B0BDE8F08F0029C4
:10564000F8D0002AF6D0002BF4D0BAF1000FF1D038
:1056500008460EF0C6FD0DF1280B5946814630462E
:105660000EF07AFD012380460CAA30460F210EF081
:1056700034FD061EC0F210814523CDE902B302239A
:105680000093CDF81090CDF804800123524639469E
:1056900020460EF028FC0028CEDB28220C212046D4
:1056A0000EF062FC0028C5DB20460EF0A8FC0028A6
:1056B000C0DBF3B2DFF8E491DFF8E4A10793E86B15
:1056C00028350028B8D04846AE69FAF7EFFE079BA8
:1056D0000746002B46D0002EF1D03668002EEED0C3
:1056E0009DF8323000F10108434577DD0DF13303B9
:1056F00002464946184613F0DBFF0DF1330300283C
:105700006CD19DF83260013EF61B6F69B6B2002F76
:10571000D5D0012ED3D903EB080B13F808302F2B6B
:10572000CDD138680028CAD0FAF7C0FE0028C6D00C
:105730000BF101024FF00108464540DD3B4635E0E4
:10574000CDE90823FAF7B2FE089A099B9446002790
:10575000B84208EB070117DC01F1FF3CC44523D137
:10576000B84223D1D5E90578002F3FF463AF504606
:10577000FAF79CFE514682B220460EF0EBFF00285D
:105780004DD16FF00B0057E71CF801EBBEF12A0F6B
:1057900003D1ACEB0B018E42E4D053F8041CC95D7D
:1057A000714503D10137D3E7B142D9D018681F46FC
:1057B00004330028C4D108F101080132BCE7D1D17B
:1057C0003B68002BCED17AE7FAF770FE9DF83220C5
:1057D00083B29A4207D0002E3FF471AF56F8040B03
:1057E0000028F1D16BE782B256F8041C0DF13300AA
:1057F00013F05EFF0028F1D1B4E73046FAF756FE09
:10580000314682B220460EF0A5FF0028B9D057F8E5
:10581000043F23B12F2120460EF08DFFAFE73E68F5
:10582000002EEAD13E2120460EF085FF0028A8D0A8
:10583000B8F1000F0FD115F1280F3FF440AFEB6B1B
:10584000002B3FF43CAF2C2120460EF074FF0028C3
:105850007FF435AF95E7D8F80060002E38BF0026FA
:10586000002EE8D0043E56F8043F002BE3D03B2145
:1058700020460EF060FF002883D037683846FAF7DC
:1058800015FE82B2002F3FF47CAF394620460EF061
:1058900061FF0028E7D174E73046CDE624C141001E
:1058A00029C1410038B50546FCF742F9044680B9E4
:1058B000094B1B685B070CD0084A094B09489B1A27
:1058C000DB08094A9B01926843F0010329460DF069
:1058D0000BF9204638BD00BF900A00208C9B410088
:1058E000749C410092C14100A827002037B5069D55
:1058F00004468BB9009309490022002305F090FC6F
:1059000004F16C0013F038FA214605F16C0003B085
:10591000BDE8304013F05DBA03B030BD67484100C8
:10592000F7B507460E461546FCF716F9041E17DBB9
:105930003DB97B1E012B04D8022E14D0012E08BFC6
:105940000625F1B201ABAAB2B8B205F0F5FA061E0F
:105950000BDA2046FCF742F90FF057FE764206605C
:105960004FF0FF3412E01125EBE7019800230360AC
:1059700083666C3013F000FA062D02D1019811F005
:1059800041F8044A01992046FCF71EF9204603B06D
:10599000F0BD00BF60A341002DE9F041104DDFF8DC
:1059A000448004460E461746454506D33A463146DE
:1059B0002046BDE8F041FFF7B3BF2B68A34200D0FB
:1059C00063B96B683A4631462046984730B1AB68B8
:1059D0003A4631462046BDE8F04118470C35E3E72A
:1059E0008C9B41008C9B410037B5054605F088FB38
:1059F000041E07DA0FF009FE644204604FF0FF3026
:105A000003B030BDB5F88630C3F38113022B09D142
:105A10002B680093044900220023284605F000FC6F
:105A2000041EE7DB0020EBE7674841002DE97F43D8
:105A3000002447F230584FF00009CDE90089029464
:105A40002346064611F053F9051E08DA0FF0DDFD76
:105A50006D4205604FF0FF3004B0BDE870833368DD
:105A60000093054900220023304605F0D9FB051EAE
:105A7000ECDB2046F0E700BF6748410037B505463C
:105A800011F027F8041E07DA0FF0BFFD644204602E
:105A90004FF0FF3003B030BD0549009500220023D0
:105AA000284611F095F9041EEEDB0020F2E700BF56
:105AB000ED5840002DE9F04705460F461646FCF725
:105AC0004BF8041E40DBAB6E83F00203C3F34008C7
