:10000000C82000204D27000057C600007D270000B3
:100010007D2700007D2700007D27000000000000F4
:100020000000000000000000000000004D2500005E
:100030007D270000000000000525000049BE0000EB
:100040000D2700000D2700000D2700000D270000E0
:100050000D2700000D2700000D2700000D270000D0
:100060000D2700000D2700000D2700000D270000C0
:100070000D2700000D2700000D2700000D270000B0
:100080000D2700000D2700000D2700000D270000A0
:100090000D2700000D2700000D2700000D27000090
:1000A0000D2700000D2700000D2700000D27000080
:1000B0000D2700000D2700000D2700000D27000070
:1000C0000D2700000D2700000D2700000D27000060
:1000D0000D2700000D2700000D2700000D27000050
:1000E0000D2700000D2700000D2700000D27000040
:1000F0000D2700000D2700000D2700000D27000030
:1001000053B94AB9002908BF00281CBF4FF0FF317E
:100110004FF0FF3000F06EB9ADF1080C6DE904CE80
:1001200000F006F8DDF804E0DDE9022304B07047D2
:100130002DE9F047089D0E4604468C46002B40F002
:1001400081808A42174645D9B2FA82F24AB1C2F199
:10015000200106FA02F320FA01F1974041EA030C6C
:1001600094404FEA174E230CBCFBFEF6B9B20EFBCF
:1001700016CC43EA0C4306FB01F0984209D9FB1860
:1001800006F1FF3C80F01581984240F21281023E58
:100190003B441B1AA4B2B3FBFEF00EFB103344EA3F
:1001A000034400FB01F1A14209D93C1900F1FF33DE
:1001B00080F00181A14240F2FE8002383C44641A82
:1001C00040EA064000211DB1D4400023C5E90043A8
:1001D000BDE8F08702B9FFDEB2FA82F2002A4FD101
:1001E000CB1B4FEA174E1FFA87F80121B3FBFEFC29
:1001F000260C0EFB1C3346EA034608FB0CF3B34205
:1002000007D9BE190CF1FF3002D2B34200F2EB80E5
:100210008446F61AA3B2B6FBFEF00EFB106643EA64
:10022000064408FB00F8A04507D93C1900F1FF334C
:1002300002D2A04500F2D2801846A4EB080440EA9E
:100240000C40C0E78B4208D9002D00F0AF800021A0
:10025000C5E900060846BDE8F087B3FA83F1002936
:1002600049D1B34202D3824200F2BB80841A66EBCA
:10027000030301209C46002DAAD0C5E9004CA7E746
:10028000C2F120039740D8409140DE404FEA174E1C
:1002900008434FEA104CB6FBFEF11FFA87F80EFB3D
:1002A00011664CEA064601FB08F3B34204FA02F475
:1002B00009D9BE1901F1FF3C80F08E80B34240F2B3
:1002C0008B8002393E44F31A86B2B3FBFEF00EFB7C
:1002D000103346EA034600FB08F3B34207D9BE19C0
:1002E00000F1FF3C74D2B34272D902383E44F31A93
:1002F00040EA01417AE7C1F1200703FA01F422FA4A
:1003000007F31C4320FA07F906FA01F34FEA144CED
:10031000FE4049EA03094FEA1943B6FBFCFE1FFA07
:1003200084F80CFB1E6643EA06460EFB08FAB2454B
:1003300002FA01F200FA01F308D9A6190EF1FF3012
:1003400048D2B24546D9AEF1020E2644A6EB0A06C3
:100350001FFA89F9B6FBFCF00CFB106649EA064669
:1003600000FB08F8B04507D9A61900F1FF3C2DD2D3
:10037000B0452BD90238264440EA0E40A6EB0806C9
:10038000A0FB02894E45C446CE4618D315D075B39E
:10039000B3EB0C0266EB0E0606FA07F722FA01F33E
:1003A000CE401F43C5E90076002111E729462846C3
:1003B0000EE76646EDE6184601E74345E7D2B8EB9F
:1003C000020C69EB04040138A646E0E76046D3E777
:1003D00060468CE78646B9E7614674E702383C44DC
:1003E0002BE7084647E7ACF1020C3E4411E72946EB
:1003F000EEE600BF704700BF01480AF0A9BD00BF8C
:1004000020F5000011B103480AF0A2BD02480AF02D
:100410009FBD00BF3EF500005EF5000070B52023D3
:100420008CB00024CDE90443284B0693012104AB92
:1004300003A8039302F0B8FC25480AF089FD204682
:1004400004F0E2FE064628B1014622480AF080FD8B
:100450000CB070BD0BF0D7FB1F492048204D0D227A
:1004600001F0E6F91F492048142201F0E1F91F4983
:100470001F480E2201F0DCF91E491F48102201F02E
:10048000D7F91E491E48102201F0D2F91D491E4815
:10049000102201F0CDF91D480AF05AFD1C4805F064
:1004A00011FC0FCD07AC0FC42B68236019490096CF
:1004B0003346022207A80CF07EFB014608B116481D
:1004C000C4E716480AF044FDC2E700BF00000B165F
:1004D00069F5000092F50000B2F50000BFF50000DC
:1004E000D0ED0000CCF50000E0F50000EDF50000D7
:1004F000FBF5000009F6000019F6000023F60000E5
:1005000033F600003DF600004DF6000057F60000FF
:100510001839002028EE00006EF6000094F6000066
:100520002DE9F04F85B09B460E9CDFF89090012C92
:10053000B8BF0124012B0CBF3023202315460646EB
:100540008A46029301274FF00A080022B5FBF9F30F
:1005500001930AB9A9451FD8019B514603F1300008
:10056000B04701370122019B08F1FF38B8F1010FB4
:1005700009FB13554FF00A03B9FBF3F9E6D15146D5
:1005800005F13000B047BBF1030F02D1E41B002C92
:100590000EDC05B0BDE8F08F4445E4DBBBF1020F93
:1005A000E1D8029803925146B0470137039ADAE73F
:1005B00051462020B047013CE9E700BF00CA9A3B02
:1005C000014B1860704700BF2C3900202DE9F04F17
:1005D0008DB01C460027531E05468B4603934FF0F3
:1005E000FF39B846002605E06EB9252800F0718174
:1005F0005946A847039B13F8010F03930028F3D132
:100600000DB0BDE8F08F7A280AD8622810D83028BB
:1006100054D045D8252800F05A812D2800F05F815C
:1006200059462520A847039B18785946A847D9E77B
:10063000A0F16303172BF3D801A252F823F000BFF7
:10064000C70800000B07000021060000210600007B
:1006500021060000ED0600000B0700002106000047
:1006600021060000ED060000210600002106000022
:1006700021060000AD070000210600002106000051
:1006800097080000210600007B07000021060000FB
:1006900021060000A906000021060000ED0600006A
:1006A00039281AD95828BBD1039B1B78702B40F0EE
:1006B000888054F8043B0693002290E0B9F1000FC3
:1006C0000EDAB8F1000F00F00D81A0F13009B8F199
:1006D000000F08BF4FF002088CE7B9F1000FF4DB00
:1006E0000A2303FB0909A9F13009F0E7682803D1BF
:1006F000682F06D148277DE76C2802D16C2F00F0C7
:10070000F480002F8CD1074674E77A2F02D154F879
:10071000046B21E06C2FFAD04C2FF8D1073424F071
:100720000704F4E80223CDE90423049B13F10041FC
:10073000059B089143F100010991DDE9082300219F
:100740004FF0FF30994208BF904204D259462846E4
:100750000AF0DDFB46E7049E002E05DA59462D20FF
:10076000A847764209F1FF39CDF80090434632465A
:1007700059462846FFF7D4FE34E77A2F02D154F8C1
:10078000042B0FE06C2FFAD04C2FF8D1073424F053
:100790000704F4E8022300214FF0FF30994208BF1C
:1007A0009042D3D3CDF800904346E1E7594630203C
:1007B000A84759467820A8474FF008094FF001088C
:1007C00072E76C2F3FF475AF4C2F7FF472AFE31DCF
:1007D00023F007031C4654F8082B06925A680021A0
:1007E0001023049107914FF0400AAAF1040A0699D8
:1007F000CAF1200EAAF1200C21FA0AF002FA0EFE2C
:1008000040EA0E0022FA0CFC40EA0C0010F00F0047
:1008100007D1079911B9BAF1000F25D14FF0300C6B
:1008200005E009288CBF4FF0570C4FF0300C6044A6
:10083000594640B20A920793A847049B0A9A01338B
:100840000493079BBAF1000F23D1B8F1030F7FF493
:10085000C9AE049BC3EB4906002E7FF7C3AE5946D1
:100860002020A847013EF7E7591E99450A9107DB6A
:10087000B8F1010F06D10B9259463020A8470B9AC8
:100880000A9BB2E7B8F1020FFAD10B925946202029
:10089000F4E70796A9E754F8046BB24653461AF8F2
:1008A000010B68B9B8F1030F21D19E1BA9EB060615
:1008B000002E7FF797AE59462020A847013EF7E764
:1008C0005946A847EAE754F8040B5946AEE659469C
:1008D000ACE63746B0464FF0FF3901268AE64FF0C6
:1008E000030887E64FF0010884E64C2782E60646B7
:1008F00080E600BF30B585B0CDE901010446002592
:100900000548039501A9FFF761FEDDE90230984231
:10091000B8BF255405B030BD2BAF000030B510492D
:10092000104889B000220DF01DFF0F4D0F49002225
:100930000023CDE9062300240E23CDE90334CDE9BD
:1009400001440B4B00944FF44072284609F046FFD7
:10095000084928460DF00FFE204609B030BD00BF03
:100960007909000000000020A0010020300F0020C5
:10097000910D0000B6F60000014809F0A1BE00BFCD
:10098000DC3C002008B500F065FA09480AF07DFD5E
:1009900004232822074908480DF09EFB074B084A0C
:1009A0001A604FF40040BDE8084000F097BC00BF5B
:1009B0007C010020082E0020840100203039002016
:1009C000C9B40000F8B50F4BBFF35B8F002553E8A7
:1009D000007F43E80052002AF9D1BFF35B8F0A4C35
:1009E0000A4E361B3611B54200DBF8BD63685B79F1
:1009F0002BB12368DB6813B139462046984701358F
:100A00001034F0E774010020ACED0000CCED0000E4
:100A1000064BBFF35B8F53E8002F013243E8002100
:100A20000029F8D1BFF35B8F704700BF740100202D
:100A3000044A054B9B1AB1EBD30F34BF52F8310077
:100A40000020704714ED0000ACED0000094B426837
:100A5000C31A1B11013310B513714368064C19609A
:100A600001225A71227812B9044809F029FE0123A3
:100A7000237010BDACED0000E2080020DC3C00203B
:100A800070B5114BBFF35B8F53E8005F6A1C43E8FE
:100A900000210029F8D1BFF35B8F2DB90B4C0C4E10
:100AA000361B3611B54200DB70BD237B43B1236892
:100AB0005B6903B19847042200212046FFF7C6FF77
:100AC00001351034EEE700BF78010020ACED0000E6
:100AD000CCED0000164B984237B5044602D3154BB7
:100AE000984220D314480022002301A909F084F978
:100AF0000546D8B90122019BBFF35B8F53E8001F65
:100B000043E800200028F9D1BFF35B8F019821460C
:100B10001F2204300BF026FE019C7E2384F8233034
:100B200084F824500434204603B030BD034CFAE767
:100B300040EA0000D00F010084010020BEF6000052
:100B400048B1054B984205D3A03398422CBF0020F2
:100B50000120704700207047082E00202DE9F04F3B
:100B60004C4B1B7885B0044603B960B34FF02003AB
:100B7000EFF3118683F31188BFF36F8F46480AF0B5
:100B800094FC054686F31188BFF36F8F78B1BFF3ED
:100B90005B8F424B53E8002F013A43E800210029C4
:100BA000F8D1BFF35B8F94B128460AF0ADFD24B9AC
:100BB0003B4B1B680BB1FFF705FF37480AF073FC8E
:100BC000041E18BF0124204605B0BDE8F08F354B48
:100BD0001B78CBB92B7ADB0716D40AF0A8FD804628
:100BE00028460AF06FFD014640460AF071FC2E4F80
:100BF0002E4BDFF8D4B0DB1BDB0803932C4BDB1B45
:100C000006464FEAD30A36B92A4E2B4FBF1B3F1177
:100C10004FF000083AE0B6FA86F1C1F11F094946E3
:100C200028460AF052FD254B9842014602D3244B38
:100C300098421AD30846FFF783FF0246A8B9214B12
:100C4000994212D06B8903989909B0EB931F4FEA30
:100C50008A1343F0010388BF57F83120ADF8003004
:100C60004946434658460AF08DFC012101FA09F134
:100C700026EA0106C7E773685B7923B13368294622
:100C80001B683046984708F101081036B845F2DB7A
:100C90008AE700BFE20800207C01002070010020EC
:100CA00074010020E308002014ED0000ACED00000A
:100CB0006CED0000ACED0000CCED000040EA00005F
:100CC000D00F0100BEF60000D8F60000294B73B526
:100CD0001B68418104469847274DE060BFF35B8F56
:100CE00055E8003F013345E80032002AF8D1BFF350
:100CF0005B8F4FF02003EFF3118683F31188BFF36E
:100D00006F8F1E4821460AF0C4FB86F31188BFF39B
:100D10006F8F1B4B1B7883B14FF02003EFF31184CF
:100D200083F31188BFF36F8F0020FFF717FF84F361
:100D30001188BFF36F8F02B070BD124A2B68126822
:100D4000002AF8D0012B0AD100220023CDE900238C
:100D50000D484FF40042002309F07CFFEBE70A2B1B
:100D6000E9D109480DF00AFD084802B0BDE870401D
:100D700009F0A6BC30390020700100207C01002061
:100D8000E30800201402002000000020DC3C0020CA
:100D900010B5FFF775FE09F08DFC0C4B186030B1F3
:100DA0000B4B1B68092B02DD0A4809F089FC094C32
:100DB0000020FFF7D3FE0028FAD14FF0FF324FF0AA
:100DC000FF33204609F0A2FCF2E700BF1402002026
:100DD00070010020DC3C0020F8B50E4F3D7875B95D
:100DE0000D4C0E4EFFF74CFE361B3611B54207DB9D
:100DF0000020FFF7B3FE0028FAD101233B70F8BDB5
:100E000063685B791BB1236820461B6998470135ED
:100E10001034EBE7E3080020ACED0000CCED00005F
:100E200007B504380190BFF35B8F50E8003F5A1EAE
:100E300040E800210029F8D1BFF35B8F012B03D1DB
:100E4000034801A909F00AF803B05DF804FB00BFEC
:100E5000840100202023024902481A460DF03CB9C3
:100E6000A82E00201802002037B50023094D019359
:100E70000120FFF773FE0446FFF7CAFD002200239E
:100E800001A9284608F0B8FF08B1002CF0D101985C
:100E900003B030BD1802002007B5002301930748B6
:100EA0000022002301A908F0A7FF10B1FFF7DCFF23
:100EB0000190019803B05DF804FB00BF1802002008
:100EC000F0B5037A457A85B02D090190D8071CD476
:100ED000DDB100242646019831460AF0F6FB0746AC
:100EE000FFF72EFE70B134B9019B294618690AF04C
:100EF000EFFA044648B124FA06F3D90702D538467A
:100F0000FFF78EFF0136AE42E5D3019B1A7A9207B6
:100F100004D55B69084C0393039B2BB9064801A9D0
:100F200008F09CFF05B0F0BD1D6803A9204608F03D
:100F300095FF0395F0E700BF180200200EB403B53B
:100F400003AB014653F8042B04480193FFF73EFB23
:100F5000002002B05DF804EB03B070477DBB0000D9
:100F60002DE9F04F85B011F0020490469DF83870DD
:100F700006461A4601F0010901F0080507D011F0F4
:100F8000440F37D13249FFF7D9FF01460C46B9F17A
:100F9000000F0AD02F4B304953F827202F4B3046F3
:100FA000002A08BF1A46FFF7C9FF3DB12C4B2D4957
:100FB00053F827203046FFF7C1FF0546B8F1000F70
:100FC00043D0012303FA07F7274B17F0100F274FE1
:100FD00018BF1F46BDF840109DF83C00FFF728FDE4
:100FE000394602463046FFF7A9FF2844204405B0A1
:100FF000BDE8F08F1E4B19680029C7D01D4B4FF478
:10100000616E1B68B2FBF3F34FF47A7CB3FBF1F42F
:10101000B4FBFEF20EFB124E01FB14340CFB04F485
:101020004FF03C0AB4FBF1FB01FB1B440CFB04F446
:10103000BEFBFAF3B4FBF1F1CDE901B10AFB13E118
:1010400000910D49FFF77AFF9FE7084FC2E700BF05
:1010500029F7000038EE0000280101001BF700000E
:101060004CEE00004EF7000025F7000020F70000CE
:10107000340200203802002032F7000038B50C4658
:10108000E107054603D5084A0849FFF757FFE2067E
:1010900008D4A30628464CBF05490649BDE8384098
:1010A000FFF74CBF38BD00BF1BF70000280101004F
:1010B00055F7000054F700002DE9F0471D46089B46
:1010C0001746DA0604460E4605D499064CBF2A494F
:1010D0002A49FFF733FFDFF8AC904FF00008A8452E
:1010E0002ADBDFF8A480DFF8A490DFF898A00025C1
:1010F000BD422FD2725D49462046FFF71FFF0135E2
:10110000102D20D11E49DFF87C80DFF88490204626
:10111000FFF714FF0025AF4228D9725DA2F120032A
:101120005F2B28BF2E2249462046FFF707FF0135D7
:10113000102D14D1BDE8F08749462046FFF7FEFE8A
:1011400008F10108CBE76A07D2D151462046FFF7E4
:10115000F5FECDE741462046FFF7F0FECFE76B07EF
:10116000D9D141462046FFF7E9FED4E74146204663
:10117000FFF7E4FEDBE700BF55F7000054F700007F
:1011800061F700005FF700005DF7000057F700000F
:1011900063F700002DE9F0478B7A13F00708174634
:1011A0008AB00A7A05460E4620D04989C3F3C203A5
:1011B0008909D243CDE900830291F36802F001026C
:1011C0003946FFF7CDFE8146347AE44314F001043A
:1011D0000ED0294630460AF067FBB8F1000F2BD03D
:1011E000424639462846FFF749FF25E0C146EBE76E
:1011F000B8F1000F26D12746EB68069306AA3B46B6
:10120000A96830460AF03CFB069A6B681A603AB14E
:10121000AB68134413F8014CA4F10A035C425C412F
:1012200028460AF09EFC069B1F44002BE4D11CB10B
:1012300013492846FFF782FE28460AF092FC0AB0BE
:10124000BDE8F08730460AF072FA0E490246284699
:10125000FFF774FE4FF0100A05AA234606A9304690
:10126000CDF814A00AF00CFB059A002AB8D04B4622
:10127000009706A92846FFF71FFF059B1C44EBE7D4
:1012800066F700002801010073B5D0E900435D68EE
:101290000F4A42F20F738B4228BF0B466846052166
:1012A00002F08EFA2B4606460A4920460B220AF027
:1012B000EEFA2B463246694620460AF0E8FA06491D
:1012C0002B461B2220460AF0E2FA02B070BD00BF96
:1012D000500C0100A4F7000088F70000084A10B580
:1012E0000123084C13600021A04204D801B113600F
:1012F000054B186010BD40085B000121F4E700BFFA
:101300003802002040420F003402002001480AF059
:1013100028BC00BF78EE00000148FFF7B5BF00BF52
:1013200078EE000008B5034808F09CFB024B5860BB
:1013300008BD00BFB0F700004402002010B5084609
:101340000C460AF0B2F9054821460F22FFF722FFAA
:101350002046BDE810400AF0D7B900BF78EE000083
:10136000014B01221A707047F508002008B50348A8
:101370000AF0F7FB024B01221A7008BDA0EE000034
:10138000F60800200148FFF77FBF00BFA0EE000075
:1013900010B508460C460AF088F9054821460F2288
:1013A000FFF7F8FE2046BDE810400AF0ADB900BFD7
:1013B000A0EE0000054B1B781BB141F288300DF008
:1013C000D8B8A420002109F055B900BFF6080020C4
:1013D0002DE9F84FDFF89090DFF890B007460E4601
:1013E0000424CA4699F8003033B94FF0FF324FF069
:1013F000FF33584608F05CFD32463946002000F0C5
:1014000043FE9AF80030804613B9584608F0C8FDEC
:10141000144DB8F1000F18D001232B709AF800304A
:1014200033B93046BDE8F88F5CB92C704FF0FF340B
:10143000002000F075FE0028F3D02B78002BF3D1AC
:10144000EFE7013CFFF7B6FFF2E72B7813B1013C61
:1014500004D12C702B78002BC4D1E2E7FFF7AAFF50
:10146000F8E700BFF5080020F60800201C3D00202A
:101470002DE9F34101A9064614461D460AF0EDFB8D
:101480004A490246074630460BF0A0F98046A0B90B
:10149000474E142231462846A047011E69DA454AC4
:1014A000454B4648D21AD208920142F001020AF096
:1014B0003CF8002002B0BDE8F08141493A46304690
:1014C0000BF084F9804678B93E4E14223146284606
:1014D000A047011E4DDA374A374B3B48D21AD20893
:1014E000920142F00102E2E738493A4630460BF0F9
:1014F0006DF9804678B9364E142231462846A04709
:10150000011E36DA2B4A2C4B3248D21AD2089201ED
:1015100042F00102CBE730493A4630460BF056F92B
:10152000804678B92D4E142231462846A047011E28
:101530001FDA204A204B2A48D21AD208920142F0E0
:101540000102B4E727493A4630460BF03FF980469E
:1015500090B9254E142231462846A047011E08DACC
:10156000144A154B2148D21AD208920142F00102C6
:101570009DE706F801809CE730461D493A460BF08E
:1015800025F90646002894D11A4F142239462846D8
:10159000A047011E08DA074A074B1748D21AD2089B
:1015A000920142F0010282E77E5482E7E7F50000F3
:1015B0007D3B00202CED000014ED0000D8F700006A
:1015C000C6F50000923B00200BF8000002F6000078
:1015D000A73B002037F800003AF60000533B0020FC
:1015E0006BF8000054F60000683B0020A3F80000F0
:1015F00020F60000BC3B0020DBF80000104B2DE97A
:10160000F0411C6805460E461746ACB14FF0FF325C
:101610004FF0FF330B4808F04BFC63683246D3F8B9
:10162000088029463B462046C0470446054808F046
:10163000B7FC2046BDE8F0816FF00104F9E700BF78
:101640006C020020083D002030B585B0002305461F
:10165000CDE9023301904FF0FF330E484FF0FF32D7
:1016600008F026FC0C4B1C68002C38BF00243CB151
:10167000636820461B6801A998472468002CF6D1AE
:10168000284600F089F80446024808F089FC204604
:1016900005B030BD083D0020640200201FB5CDE933
:1016A000010103924FF0FF330C484FF0FF3208F076
:1016B000FFFB0B4B1C68002C38BF00243CB1636857
:1016C00020461B6801A998472468002CF6D10348DE
:1016D00008F066FC002004B010BD00BF083D0020EB
:1016E00064020020024B0022C3E90022704700BFC1
:1016F00064020020024B0022C3E90022FFF7F2BF80
:10170000700200202DE9F34107460E4609B100237F
:101710000B601E4CDFF87C800025444508D31C4B31
:101720001C680CB1143CC4B9284602B0BDE8F08175
:10173000216801AA38460AF06DFA60B125B90EB1E8
:10174000019B3360254606E02968206800220AF0E4
:1017500061FA0028F3D11434DFE7216801AA384682
:101760000AF058FA60B125B90EB1019B33602546E5
:1017700006E02968206800220AF04CFA0028F3D11C
:1017800014F1140FD0D06469CBE700BFB0EC0000B7
:101790007002002014ED0000F8B51A4C1A4F0646EE
:1017A0000025BC4206D3194B1C680CB1143C9CB9F3
:1017B0002846F8BD1EB9E3684BB91434F1E7206838
:1017C000002231460AF026FA0028F4D1F5E79847BE
:1017D000002D08BF0546F0E736B9E36863B914F198
:1017E000140FE5D06469E0E72068002231460AF072
:1017F00011FA0028F1D1F2E79847002D08BF0546FD
:10180000EDE700BFB0EC000014ED00007002002016
:1018100010B5064C23783BB9FFF76CFF0AF043FA8A
:1018200008B90123237010BD0020FCE7F708002051
:1018300030B585B00D4601A91446FFF763FF48B1E6
:10184000CDE90254054A8568019802AB2146A847B4
:1018500005B030BD6FF01500FAE700BF87BC00008F
:1018600010B50748074C08F0FDF8074B18602046F4
:1018700001F0A0FF2046FEF7A3FE002010BD00BF30
:10188000B0F700008D180000780200200A2838B553
:10189000074D044604D1286843680D215B689847CA
:1018A00028684368E1B25B689847204638BD00BFAE
:1018B00078020020F8B5124EB3680C2404FB003403
:1018C0000123054663724FF02003EFF3118183F388
:1018D0001188BFF36F8F23682BB160681A6822608C
:1018E000834208BF626081F31188BFF36F8F03B931
:1018F000F8BDD3E9017229463046B847E3E700BF97
:10190000103C0020154B07B51A6882B14FF0804299
:10191000D2F80423D1070AD500221A601B6800936D
:10192000009B0F4B9B68587A08B9FFF7C3FF0D4B1C
:101930001A6882B14FF08042D2F8042392070AD588
:1019400000221A601B680193019B012003B05DF81F
:1019500004EBFFF7AFBF03B05DF804FB00010040EC
:10196000103C002004010040024B00229A829A6140
:10197000704700BF6439002008B5014605480CF0E7
:1019800083F8054B18684368DB6903B1984700206A
:1019900008BD00BF8C390020940200200246064892
:1019A0000B46C17E042903D1417E007F03F092BF24
:1019B000032003F053BF00BF643900200249083000
:1019C0008A7E1C310CF099B86439002008B50748AC
:1019D00008F048F8064B186020B1064803F0D8F923
:1019E000002008BD6FF01500FBE700BFB0F7000056
:1019F00094020020D8EF00002DE9F843234D244B3A
:101A0000244EDFF89C80ED1AED083746224C237EE9
:101A1000CBB12368BBB94FF0FF314FF0FF30FFF778
:101A2000BDFF20600830B4F814900CF09BF881459D
:101A300028D9A901194841F0010109F069FDA38ADB
:101A4000E382FFF791FF30680AF0F4F94FF0FF32BC
:101A50004FF0FF3340460BF0F9FF044638680AF0B8
:101A6000E9F9204603F094F808F0B6FD38680AF06A
:101A7000E6F90022002340460BF0E8FF0446002868
:101A8000ECD1C3E72068FFF799FFDCE734ED0000F5
:101A900014ED0000940200206439002047F9000092
:101AA000683900202DE9F0438C4B8D4EDFF86082C1
:101AB0008C4DF61A8BB0F6084746D8F800004368FC
:101AC0005B6C43B1984730B1D8F8000043681B6C99
:101AD0000BB1984710B90BB0BDE8F083D8F80000FF
:101AE00043685B6A2BB3984718B36B685BB97E4851
:101AF000002200230BF0AAFF686020B9D8F800008C
:101B00000AF093F915E02B78002B46D16B681B7D0A
:101B10003BB3022B27D138682B7043685B69002BDD
:101B200036D1B101714841F0020109F0F1FC002306
:101B30002B70386843685B6B002BBED09847002839
:101B4000BBD06B4CE28A2146002A3AD0212A386861
:101B500028BF212201A90AF062F9E38A1B1AE38255
:101B6000ABE70123D7E7B101624841F0010109F079
:101B7000CFFC002368682B7007F000F95A48002258
:101B800000230BF063FF68600028D2D13868B7E704
:101B90000122294698470128C3D1386843685B6908
:101BA0006BB169688A898968984701466868083016
:101BB0000BF0BCFF6B689B89002BDAD0B9E71946A4
:101BC000F4E794F81890B9F1000F65D023686BBB67
:101BD00000200021FFF7E2FE2060B0B9637EB20171
:101BE00053B1217F444842F0020209F09EFCA38ACF
:101BF000E382FFF7B9FE60E7404842F0020109F0D6
:101C000087FC38680AF01BF957E70830B4F81490DD
:101C10000BF0A8FF814506D9B101394841F0010117
:101C200009F076FCE3E72068FFF7C8FE2368A28A84
:101C300099899B68386819440AF0F1F88146206850
:101C4000494608300BF053FFA38AA3EB090189B280
:101C5000A18200297FF431AFE27E042A09D1207FDE
:101C60001A2806D82749012383400B4214BF0121BB
:101C700000210023042A206823600CBF01230323D2
:101C80000375FFF771FE11B103F02CF815E701465B
:101C90001D480BF0F9FE10E7E37E022B73D0042BF6
:101CA00038D03868012204F11B010AF0B8F8012885
:101CB00008D0B101154841F0020109F029FC84F86F
:101CC0001B90FAE6E37E022B05D0042BF7D102230A
:101CD000A382A376F1E60423FAE700BF14ED000027
:101CE00034ED0000843900208C39002076F90000A2
:101CF0006439002062F900008EF90000A6F90000A6
:101D000047F9000000C0080468390020D1F900003C
:101D100094020020A28AA37E38689B1A1C311944C1
:101D20000AF07DF8A38A181AA37E80B2022BA08243
:101D300008D1012806D8237F3E2B01BF01300323A1
:101D4000A082A376A38A5BBBE369184A03F0FF1362
:101D5000934204BF01236376637FA27E02339B1A02
:101D6000A38201232376206800283FF4A6AE083022
:101D7000B4F814900BF0F6FE81453FF64DAF2068A5
:101D8000FFF71CFE99E6A28A3868A11A20310AF0F2
:101D900046F8A38A181A80B2A08208B9E38BDFE75D
:101DA000237E002B3FF489AEDDE700BF3E0002003A
:101DB00000B5054B8BB01868202201A90AF02FF856
:101DC00000200BB05DF804FB9402002010B5174C06
:101DD00088B020680AF033F820680AF026F82068F6
:101DE000FFF7E6FF00281DDB2268536823B19B6CD8
:101DF00013B10F4910469847002200230024CDE973
:101E000006236FF00703CDE90334CDE90144094B04
:101E100009490A48009440F6980208F0DFFC204681
:101E200008B010BD6FF00400FAE700BF9402002074
:101E3000A51A0000F91900003012002098020020B5
:101E4000821C084B22F07F42C3F84025D3F80425BA
:101E5000904200D17047D3F80405821C22F07F42E3
:101E6000F2E700BF00100140044B002282B01A606C
:101E70001B680193019B02B0704700BF40110140F5
:101E800008B5FFF7F1FF074B074AD3F84005136881
:101E9000C01A20F07F4003441360BDE8084008F0FA
:101EA00045BE00BF001001400C03002038B51448A7
:101EB00007F0D8FD00B34368124D1B6801210024D0
:101EC0009847C5F80845FFF7CFFF0F4B4FF4003296
:101ED000C3F880214FF48033C5F804332246012132
:101EE000112000F053FB112000F040FB074A0123B2
:101EF000136020462B6038BD4FF0FF30FBE700BF7A
:101F000027F900000010014000E100E00810014046
:101F100070B5284B284C1968D4F80425274D521A5F
:101F2000B0F1FF3F08BF284622F07F4312022FD4B2
:101F3000013820EAE070A842A8BF284601334FF4D8
:101F400080361844C4F80863A84294BF0D184D1990
:101F5000D4F80405D4F84015FFF786FF091A21F0DC
:101F60007F4120F07F430129C4F84035C4F8446321
:101F700004D10F200CF0FDFAFFF776FFD4F804052A
:101F80002B1A23F07F43012B04D1FFF759FF0BE0FD
:101F90000020D3E725F07F43C4F84035D4F804058A
:101FA0002D1A023D2B02F0D44FF48033C4F80433D1
:101FB00070BD00BF0C03002000100140FFFF7F0038
:101FC0004FF02002EFF3118382F31188BFF36F8F7C
:101FD000064AD2F80405064A1268801A20F07F40AB
:101FE00083F31188BFF36F8F704700BF001001406B
:101FF0000C0300204FF02003EFF3118283F31188CC
:10200000BFF36F8F0649074B0868D3F8043582F396
:102010001188BFF36F8F1B1A23F07F43184470475A
:102020000C0300200010014010B5114C114AA261B0
:102030000323C4E90433104BE36122664FF4806349
:102040000E4A0F492362626600231022E01DA3623C
:102050006362E3622367E3666367A2660AF078FB64
:10206000084920460AF074FB2023A37110BD00BF6D
:102070001003002008FA000008090020F8080020DA
:1020800011FA000015FA00002DE9F84F234F4FF028
:10209000180B14460BFB00720646936A556AAB4256
:1020A000884634D8D2F820A0AAEB050909F1FF32FE
:1020B000944211D84FF0180906FB09933B4422467D
:1020C0005868414628440AF0A0FB09FB06762C44D8
:1020D00074620120BDE8F88F13449C421BD800FBBA
:1020E0000BBBBB444A46DBF804002C4428440AF0EE
:1020F0008CFBB4EB0A0406D0DBF80400224608EBA4
:1021000009010AF082FB182000FB0676E0E7013B9C
:102110005B1BA342CED20020DCE700BF10030020EF
:10212000034B182202FB00339A6A586A801A7047E0
:1021300010030020F0B5264E07460C460FCE8DB09A
:1021400001AD0FC50FCE0FC596E8070085E8070063
:102150003846002F38D0002C38D0381F2146024690
:1021600010344B780D781B0443EA0563CD782B437C
:102170008D78043143EA05238C4242F8043FF0D1C4
:10218000144C04218A07036916D1C3F30742A55CE6
:102190001A0EA25C42EA0562C3F30725DBB2655D55
:1021A000E35C42EA054242EA03220CAD21F003035C
:1021B0002B4453F82C3C534050F8042F013153402A
:1021C0002C290361DED101200DB0F0BD2046FBE7D4
:1021D000E4ED00001CFA00002DE9F043154689B03B
:1021E0000646002858D0002959D0002A59D010237B
:1021F0000A466846194609F030FE294668462A4CC8
:1022000009F043FE05F11007A146A035E8466A46ED
:1022100010231178013B615C02F8011BF9D168467B
:1022200009F078FE694604A809F0ADFE01A905A8E9
:1022300009F0A9FE02A906A809F0A5FE03A907A8AE
:1022400009F0A1FE102319460DEB0302684609F0C0
:1022500004FE39466846103709F017FEAF42D5D163
:10226000102498F80030013C19F8033008F8013BBD
:10227000F7D1684609F04EFE2946684609F005FE8A
:10228000102319466A46304609F0E7FD68461022D9
:10229000214609F0EFFD012009B0BDE8F0830846B2
:1022A000FAE71046F8E700BF1CFA00002DE9F04FEE
:1022B0009DB0036803934368049383680593C368E0
:1022C0000693036907934369089383690993C36974
:1022D0000A939846DDE908CB059B0193DDE906E208
:1022E000049BDFF890A1039C029100930027029BBE
:1022F000019EDD590CAB2DBADD515AF8043B05EBBC
:1023000003094FEAF22585EAB21585EA72654D4464
:102310002BEA020302EA0C0983EA09032B44DDE9F4
:10232000001543444D404FEA743888EAB40825400C
:1023300001EA060985EA090588EAB4580437A84481
:10234000402F03EB0E054344B646D84640F081804B
:1023500047490B914FF0100A51460AF1010A1CAE91
:102360000AF00F0706EB870701F00F0957F8406CDA
:1023700002964FEAB64801F10E07093188EAF618CD
:1023800001F00F011CAE06EB890906EB810107F095
:102390000F0706EB870751F8401C59F8406C57F8B7
:1023A000407C3144029E4FEAF74E88EAD6088EEA16
:1023B000774E8EEA972E414471440B9E49F8401C9B
:1023C0004FEAF52905EA020889EAB5192CEA05075A
:1023D00056F804EB0B9687EA080789EA75694F44BB
:1023E000009E77443944594404EA060E84EA060BF9
:1023F0004FEA7337019E87EAB3070BEA030B0E44DB
:102400008BEA0E0B87EAB3575F44B046BAF1400F30
:10241000009E01963944E34623D1039E0E4404995D
:1024200006601944059B4160234400998360069B24
:102430000B44C360079B43440361089B2B444361E7
:10244000099B134483610A9B6344C3611DB0BDE8CB
:10245000F08F0099E346CDE9004194461C462A4698
:1024600045E7944600942A461C4645460B4673E7CA
:102470002CF00000ECEF000010B50446C8B170224B
:10248000002109F0F7FC0B4B0B4A0C490C48C4E93E
:1024900000230C4BC4E902130B4BC4E904030B4BA0
:1024A000A36103F17453A3F52303A3F69243E361FD
:1024B000012010BD85AE67BB67E6096A72F36E3C0A
:1024C0007F520E513AF54FA58C68059BABD9831FFF
:1024D000094A0A499368096819670949D8664B6827
:1024E00043F080534B60002383F31188BFF36F8F59
:1024F0009368186F704700BF1008002008F50000AF
:1025000000ED00E00F498A684FF030001044EFF30F
:10251000098C80E8F01F202080F31188BFF36F8FB3
:10252000094F4FF000664A6A8A603E60D06E002311
:10253000D36680F3118802F1300090E8F01F8CF32D
:10254000098870471008002004ED00E01EF0040F19
:102550000CBFEFF30880EFF30980816911F8021CCA
:102560000229FFD001B50AF072F801BD43B2002B79
:1025700008DB012200F01F0002FA00F05B09024AAA
:1025800042F82300704700BF00E100E043B2002B97
:10259000A8BF03F1604301F10101B8BF064B4FEA48
:1025A0004111ACBF03F5614300F00F00C9B2B4BFE5
:1025B000195483F80013704714ED00E0C0E91812B5
:1025C0000A44203A22F0070208491360009B536036
:1025D000019B9360029BD3604FF08073D36121F025
:1025E0000101002391610265C366704785AF000059
:1025F000F8B506460C4617461D4600F00DFB094B84
:102600003C4424F007049E60284684F30988002196
:1026100063B681F31188BFF36F8F0022002308F0A7
:10262000B1FC00BF10080020014910220A60704769
:1026300010ED00E072B6404080F31188BFF36F8F59
:10264000BFF34F8F30BF62B6BFF36F8F704700BFCD
:1026500073B506460C4601B3134B144D1448ED1ADE
:10266000ED08AD0145F00105ADF80050D1E90123B9
:10267000096808F087FFADF80050D4E90423E16849
:102680000C4808F07FFFE1690B482A4608F04DFF2F
:10269000A1690A482A4608F048FF2146304602B0A0
:1026A000BDE8704007F026BA14ED000084ED00008C
:1026B0001CFB00004BFB00007AFB000089FB0000C4
:1026C00030BFFFF7FDBF00BF0E4A08B50E4B22F02A
:1026D0007F029A60BFF34F8FBFF36F8FD3F88820CC
:1026E00022F47002C3F88820EFF3148323F004036C
:1026F00083F3148807F07AFA07F082FA00F05AFAA6
:1027000007F0BCFA0000000000ED00E001B572B671
:102710000B4A106A00281EBF002111620BF055FC05
:1027200062B6EFF30580A0F110004FEAC000054942
:10273000014409C99847BDE8014003490847000022
:102740001008002040EA0000992B00000AF031F93F
:10275000202080F3118808484FF40061401880F36E
:102760000988EFF314800221084380F31488BFF333
:102770006F8FFFF7A9FF000008220020EFF3088009
:10278000EFF30981724601B500F032F901BD00BFD7
:1027900070B5234B234C244D2448E41AE408A401CB
:1027A00044F00106314608F0B3FEAA6A930103D54E
:1027B0001F48314608F0ACFEAB6ADD0104D51D4868
:1027C00044F0010108F0A4FE174DAA6A100304D5D5
:1027D000194844F0010108F09BFEAB6A590304D587
:1027E000164844F0010108F093FE0F4DAA6A9203C7
:1027F00004D5134844F0010108F08AFEAB6ADB03FC
:1028000004D5104844F0010108F082FE064A936A9C
:102810006FEA03436FEA13439362002070BD00BF69
:1028200014ED000084ED000000ED00E0B7FB0000B7
:10283000CFFB0000E2FB0000FCFB00001AFC0000E4
:102840003FFC000059FC00002DE9F041274B284CCB
:10285000284DE41AE408A40144F0010807460E4696
:102860002548414608F054FEAA6AD10603D52348FC
:10287000414608F04DFEAB6A1A0704D5204844F0E3
:10288000010108F045FE1B4DAB6A9B0712D544F0D1
:1028900001081C48414608F03BFE696BAB6A18060C
:1028A00008D51948424608F040FE1FB1AB6A23F034
:1028B0008003AB620F4DAA6AD20704D5134844F0D7
:1028C000010108F025FEAB6A9B0604D5104844F0D0
:1028D000010108F01DFE074B9A6A9A6A002042F037
:1028E000FF029A623070BDE8F08100BF14ED000075
:1028F00084ED000000ED00E084FC00009AFC000084
:10290000CDFC0000E0FC0000F8FC00000EFD000023
:102910002DFD00002DE9F0412A4B2B4C2B4DE41AE4
:10292000E408A40144F0010807460E462848414641
:1029300008F0EEFDAA6AD10403D52648414608F006
:10294000E7FDAB6A1A0504D5234844F0010108F0FD
:10295000DFFD1E4DAB6A9B0512D544F001081F48F0
:10296000414608F0D5FDA96BAB6A180408D51C4890
:10297000424608F0DAFD1FB1AB6A23F40043AB62B4
:10298000124DAB6A590504D5164844F0010108F010
:10299000BFFDAB6ADA050DD5134844F0010108F01C
:1029A000B7FD0A4A936A002043F47F439362307074
:1029B000BDE8F081AB6A9B04F3D50C4844F00101FB
:1029C000EDE700BF14ED000084ED000000ED00E035
:1029D0005CFD000072FD0000CDFC000083FD0000E6
:1029E0009CFD0000B1FD0000CCFD00002DFD0000AD
:1029F0002DE9F041564B5E688AB00F46C6F30804D5
:102A0000002585F31188BFF36F8F02F07F43B3F188
:102A10007F4F0DD102F00C03082B0BD14D494E4BCB
:102A20004E48C91AC908890141F0010108F070FD3A
:102A30002F4603E0120701D40746012500238DF835
:102A40000730E31E092B6AD8DFE803F005585C3C29
:102A5000696969696960404B3E4E4148F61AF6085B
:102A6000B60146F00106314608F052FD384BDC6AEB
:102A70004FF0000814F002048DF8078005D03948A3
:102A8000314608F045FD00241FE0DB6A5B001CD5E1
:102A90003548314608F03CFD344B1B782BB10DF125
:102AA00007010120FFF7D0FE0EE0314B1B782BB160
:102AB0000DF107010120FFF72DFF05E02D4B1B88CD
:102AC0009BB213B1FFF764FE04469DF8073093B93B
:102AD0002022394602A809F098FE099B9DB3C3F352
:102AE000080222B96FEA53236FEA4323099302A92C
:102AF0002046FFF7ADFD0AB0BDE8F0810DF10701FA
:102B00000020CFE70DF107010020D4E71149124B57
:102B10001948C91AC908890141F00101B1E70E4AF3
:102B20000C4B164816499B1ADB0816F4F87F4FEA3F
:102B3000831318BF014643F001031248A4F11002A9
:102B400008F007FD9FE723F4FF7323F00103CDE7AF
:102B500000ED00E084ED000014ED0000E4FD000055
:102B60000FFE000026FE000047FE000028ED00E0FA
:102B700029ED00E02AED00E066FE0000B1FE000055
:102B80009CFE0000CAFE0000024A536943F0100395
:102B90005361704700ED00E0044B9968586A884221
:102BA00003D003494FF080520A607047100800209C
:102BB00004ED00E0044800232021C2180133302B2B
:102BC00082F80013F9D1704700E100E038B50446FF
:102BD0004FF02003EFF3118583F31188BFF36F8F5C
:102BE00007F0D2FB0A4B9B68A3420BD1094B5A68F2
:102BF000C2F3080212B92846FFF76AFC5A6842F08D
:102C000080525A602846BDE838400BF0ACBB00BF8C
:102C10001008002000ED00E01FB5084B0193084BA1
:102C20000293084B039301AB0093074A074B012122
:102C3000684600F0AFF805B05DF804FB0000002026
:102C40000000000000000B0600000020000004202F
:102C5000DFF8BCC0F8B506460F4610460021B94261
:102C60001BDA56F821E0DEF80440002C46D0ABB168
:102C7000651E2C4205D11F2C03D9DEF80020154219
:102C80000CD01F4A1F4B2048D21AD208920142F0A2
:102C9000010208F04AFC6FF01500F8BD202CC5B207
:102CA000DEF80020DEF8080016D9B4F1004F15D880
:102CB000013CB4FA84F4C4F11F046400072D44EA13
:102CC00000040DD90E4A0F4B1048D21AD2089201B7
:102CD00042F001022946DCE70824EFE73E24EDE755
:102CE00022F01F022A4342F0100244F00104CCF803
:102CF0000850681CCCF80C20CCF810400131AEE72D
:102D000074ED000014ED0000E1FE000004FF00007F
:102D100090ED00E0034B05225A60BFF34F8FBFF3E5
:102D20006F8F704790ED00E0BFF35F8F014B002283
:102D30005A60704790ED00E013490868082810B504
:102D40001ED8FFF7F1FF114C49680022904201F1B3
:102D50000C0105D10E4B1870FFF7DCFF002010BDF1
:102D6000A26051F80C3C23F01F03134343F01003FF
:102D7000E36051F8043C43F0010323610132E5E7CD
:102D80004FF0FF30EBE700BFECF0000090ED00E00B
:102D9000080D002010B5034C01232278FFF758FFDF
:102DA000207010BD080D002008B5084A00231278D5
:102DB000FFF74EFF10F1160F03D0054B0022072836
:102DC00000DD08BD98601A610130F8E7080D0020A9
:102DD00090ED00E02DE9F04FA1B01E4600230390D6
:102DE00089460293134613F8010B069358B1252820
:102DF00000F081804946039B9847013040F04A84A7
:102E00004FF0FF330293029821B0BDE8F08F2B2DD5
:102E100065D05CD8202D65D0232D66D0002DF2D052
:102E2000CDF81880DDF81880A44818F8015B294611
:102E300009F0ABFC0028EAD12A2D63D156F8043BF7
:102E40000793002BBFBF5B42079301230D93069BA3
:102E500098F8005003F102082E2D78D198F8003030
:102E60002A2B71D156F8044B08F1010818F8015BC0
:102E7000934829462F4609F088FC00286AD043462B
:102E8000682F13F8015B069307D1682D05D108F16F
:102E9000020398F8015006934827782D08D8572D3B
:102EA0005CD8252D00F0F28300F2A280002DAAD07C
:102EB000039B4946252098470130A1D0039B4946F2
:102EC0002846984701309BD0029B0233E4E32D2D26
:102ED0000ED0302D089B08BF01230893A0E70123E3
:102EE00009939DE701230C939AE74FF0010A97E7B6
:102EF00001230D9394E7002308930C9309930D93FA
:102F00009A468FE7A5F13003092B0790A4D80A222F
:102F1000DDF8188018F8015BA5F13003092B9BD868
:102F2000079B02FB0355A5F13003CDE90683EFE7CC
:102F300001FB0434303C9046424612F8013BA3F1B9
:102F400030000928F4D991E700240A21F4E74FF072
:102F5000FF348DE7CDF8188007469EE7A5F15803AA
:102F6000202BA5D801A252F823F000BFF1350000B4
:102F7000B12E0000B12E0000B12E0000B12E0000D5
:102F8000B12E0000B12E0000B12E0000B12E0000C5
:102F9000B12E0000B12E0000C53000009B310000B2
:102FA000FD2F0000FD2F0000FD2F0000B12E0000BE
:102FB0009B310000B12E0000B12E0000B12E0000A8
:102FC000B12E00007D350000F1350000A73500006E
:102FD000B12E0000B12E0000C9350000B12E000056
:102FE000F1350000B12E0000B12E0000F1350000D7
:102FF000A5F14503DBB2022B3FF65AAF073626F0A8
:1030000007031946F1E80223D80240EA5250D602DB
:1030100020F0004004960590DDE90467002A019144
:10302000C3F30A5173F10003CDE9146780F2E58020
:103030002D238DF864300DF1650740F2FF7399423E
:1030400040F0F680DDE904120A43A5F1410507F1DD
:10305000030340F0E280192D00F2D98049223A7032
:103060004E227A704622002419AEBA70FC709B1B67
:10307000A246A346099A002A40F07D820C9A002AB3
:1030800040F079829DF86480A8F12D02D2F1000809
:1030900048EB02080BEB0A0633441E1920AB4344ED
:1030A00013F81C3C303B092B00F2FE82089B002BDE
:1030B00000F0FD82079B19AF9B1B14E02AFF000064
:1030C00030FF000032464FF0000852F8043B0192F6
:1030D0008DF864300126444619AF04EB0803002440
:1030E0009B1BA246A34623EAE3739A190892079A08
:1030F0009919551A0D9A12B9002D00F3ED8207EBBC
:103100000802BA4240F0EA82013B80F0F582A6EB69
:103110000806BBF1000F10D0387807EB0608A0F1C5
:103120003003092BA8EB070640F2F182D846B8F12C
:10313000010880F0F582A6EB0B06BAF1000F16D05D
:1031400007EB060817F801BB039B4946584698470A
:1031500001303FF455AEBBF12E0FA8EB0706F1D1BD
:10316000D046B8F1000F00F3E482A6EB0A0694B152
:10317000387807EB0608A0F13003092BA8EB070607
:1031800040F2E2822E2800F0DF82A046B8F1000F64
:1031900000F3E382361B3E44F2E23568331D002D16
:1031A00001931CDA2D238DF8643069420DF1650618
:1031B00030460A2209F077FB099B064419A8361A03
:1031C000002B40F06C820C9B002B40F068824FEA91
:1031D000D578002C80DA0024A246A34666E7099B36
:1031E00023B12B238DF864302946DFE70C9B0BB10C
:1031F0002023F7E7294619AEDAE7099B0BB12B2309
:1032000017E70C9B0BB1202313E719AF15E76922D1
:103210003A706E227A70662225E7192D99BF4E22E8
:1032200041216E22612194BF3A703A7079701AE799
:10323000049B05980B430E93CB1703430F93DDE9D3
:103240000E23462D08BF6625134300F00781002991
:1032500000F09F80159B43F00043A1F2FE381593C8
:10326000002618F1020FC0F2A880B8F1000F00F399
:10327000D48014A808F1010809F039FBB8F1040F53
:10328000F7D1002C05F0DF03B8BF0624472B40F030
:10329000EE80F11C02DBB44280F2E380023DEDB22D
:1032A000002C00F0EA80013CBAF1000F40F0E5800C
:1032B000002CD4BF4FF000084FF00108662D40F0FD
:1032C000DE8014EB060B4FF0660500F1DB80BBF1EE
:1032D000100FA8BF4FF0100B1023139300224FF0D4
:1032E0000063CDE91623BBF1010B80F0CE80149B67
:1032F000169A17999B18159A41EB0202CDE91432E0
:1033000002F07043109300231193DDE9102313435F
:1033100006D014A809F0FDFA14A809F0E8FA01365D
:10332000662D40F0CF80002E40F3B680139B002B1B
:1033300007DD13A914A809F015FB013E07F8010BDE
:10334000F4D1B3463B460026BAF1000F01D1002C60
:1033500015DD2E2203F8012B002E00F0AE80002C8C
:1033600040F3AD80C6F1000AA245A8BFA246A4EB77
:103370000A04002C03DD139A002A00F39480B8F1AC
:10338000000F40F0B480002219AE1A709B1B71E64A
:103390000139049BDB180493059B5B410593DDE930
:1033A0000423002A73F10003F2DADDE90423CDE9F6
:1033B00014234FE714A809F09AFADDE9142C00232E
:1033C000CDF828C00B93DDE90A01002908BFB0F150
:1033D000333F08F10108EDD20520A2FB002300FBDA
:1033E0000C33CDE91423013E4FF0000E00214FF0C5
:1033F000000C6FF0004B8C4508BF9B4506D2BEF118
:10340000000F3FF42EAFCDE914232AE792185B4159
:1034100008F1FF384FF0010EE8E714A809F079FA37
:10342000DDE9141008F1FF3801364FF0000E0023DB
:103430004FF0000C6FF0004B9C4508BF834506D24F
:10344000BEF1000F3FF411AFCDE914100DE749189C
:10345000404108F1FF384FF0010EE8E70026B04682
:1034600007E7A41BBAF1000F04D1662520E74FF04F
:10347000000823E74FF0000823E74FF0000804F1AD
:10348000010B24E74FF0000B26E716A809F041FADC
:1034900016A809F02CFA26E73B46302203F8012B48
:1034A0004FF0000B50E713A914A80A9309F05AFA39
:1034B0000A9B013C03F8010B5BE7B24659E74FF06A
:1034C000000A5CE713A914A809F04CFA30283870F8
:1034D00018BF06F1FF36BAF1000F37D1002C35DCEA
:1034E0007B1CB8F1000F43D04FF0000BDA461946B1
:1034F00013F8012D302AFAD02E2A18BF0B460024CB
:1035000005F0DF02452A7FF43EAF002E1946BABF10
:1035100076422D222B22632E01F8025B5A7008DDC1
:10352000642096FBF0F202F13005D91C9D7000FB7F
:1035300012660A200B4696FBF0F200FB126602F1BF
:103540003005303603F8025B4E701CE72E22BB1CA0
:103550007A70002CC5DD139A002AC2DD13A914A8C5
:103560000A9309F0FFF90A9B013C03F8010BF0E70D
:10357000C346C246C4E74FF001088BE53246682FC8
:1035800052F8043B019206D06C2F09D0482F07D186
:10359000029A1A7001E0029A1A80019E069A21E4AA
:1035A000029A1A60F9E747F63003ADF86430334603
:1035B000102253F8041B01930DF1660009F073F912
:1035C0004FF00208861C04E63346002C53F8047BB7
:1035D0000193B8BF6FF000440026B44203D12646E1
:1035E0000024A04679E5BB5D002B5BD00136F4E7F3
:1035F000331D6F2D3168019319D1BAF1000F08D036
:1036000030238DF8643079B98DF86510884601262D
:10361000DFE519AD2846082209F045F919AEAD1BC2
:103620002E184FF00008D4E50DF16505F2E7752D71
:1036300005D10A2219A809F036F90646F1E7BAF1D0
:10364000000F11D047F63003ADF864300DF1660776
:103650001022384609F027F9582D07D019AEBF1BA4
:103660003E184FEA4A08B4E519AFF1E719AA12F873
:10367000013BA3F16101192903D8203B02F8013C69
:10368000F5E712F8013C002BF1D1E7E7494628465F
:10369000FFF7B1BB029B0133CDE901637DE74FF03A
:1036A000010896E51C469CE719AF00231DE5089B21
:1036B00019AF1AE509934946039B079220209847C2
:1036C0000130079A099B3FF49BAB013AF2D2029971
:1036D00029440291154612E52A46F6E7099317F8A0
:1036E000010B039B0792494698470130079A099BB3
:1036F0007FF407ADFFF784BB07934946039B302057
:1037000098470130079B7FF4FFACFFF779BB039B21
:103710004946984701303FF473AB17F8010FFEE4B8
:10372000039B49463020984701307FF400ADFFF7F6
:1037300067BB039B494630209847013008F1FF38AA
:103740007FF40FADFFF75CBB039B49469847013000
:103750003FF456AB17F8010F0DE5039B49463020A7
:103760009847013008F1FF387FF410ADFFF748BBF0
:1037700017F8010B039B4946984701303FF440ABD3
:10378000F31B002BF4DC029B089A002D13440293D8
:103790007FF703AF2C4606E0039B4946202098475D
:1037A00001303FF42DAB013CF6D2029B2B44029337
:1037B000F3E600BF014B1860704700BF9C39002042
:1037C0000CB41FB509B90DF10300CDE9020107AB37
:1037D000069A0648019302A9FFF7FCFA029B002211
:1037E0001A7005B05DF804EB02B0704799C900008B
:1037F0004FF02003EFF3118283F31188BFF36F8F33
:1038000006490123C1F840354FF08041C1F87835B1
:1038100082F31188BFF36F8F0020704700E00140F2
:1038200020B1034B800143F001031847704700BFEC
:1038300020EE00000E4B402970B528BF40210D4CF2
:1038400046181D46B04203F1020304D1002305F8D7
:103850001130074870BD02781209A25C03F8022CEF
:1038600010F8012B02F00F02A25C03F8012CE9E72B
:10387000090D002047FF000010B50D4B0D4C0E4800
:10388000E41AE408A40144F0030107F041FE0B49E7
:103890000B48CA79C2EBC202FDF7B0FE014630B157
:1038A00044F001020748BDE8104007F03EBE10BDDD
:1038B00014ED000054ED000058FF000020380020F7
:1038C00062FF000068FF0000F7B516461F46044679
:1038D00060B92549254B2648C91AC908890141F014
:1038E000010107F015FE6FF001041CE001A908F0CA
:1038F000B4F920490246204608F068FF0446002833
:10390000F1D1BFF35B8F1C4D2B68BFF35B8F5B075F
:103910000CD51549154B1948C91AC908890141F038
:10392000020107F0F5FD204603B0F0BD943D0722EB
:1039300029463846B047062810D80C4B0A4910488B
:10394000C91AC908890141F0010107F0E1FD072208
:103950002146284608F084FFEC71E4E70723B0FB1A
:10396000F3F0E871DFE700BF54ED000014ED000054
:1039700083FF000065FF0000B4380020A4FF0000B2
:10398000C8FF00002DE9F04188B09C79DDF838804F
:103990005D791E79DF7893F802C093F801E01B7817
:1039A000B8F1000F0ED0CDE90638CDE904CE1346AC
:1039B000CDE90267CDE90045084A07F0D6FA08B01C
:1039C000BDE8F081CDE905E3CDE9037C1346CDE9FF
:1039D0000156034A009407F0C8FAF0E7EDFF000033
:1039E000110001000949BFF35B8F51E8003F43F02C
:1039F000010241E800200028F7D1BFF35B8FDB070D
:103A000003D4034808390AF0E7BB7047A8390020FF
:103A10004C08002038B51A4CE3799BB901F0B4FC8E
:103A2000E3797BB909F0C1F8044658B11549164B42
:103A30001648C91AC908890141F0010107F068FD5B
:103A4000204638BD124DBFF35B8F2B68BFF35B8FF1
:103A50009B0701D401F0B0F9BFF35B8F55E8004F2D
:103A600024F4004345E80032002AF7D1BFF35B8F0E
:103A700014F40044E4D0FFF7B5FF0024E0E700BFF2
:103A80002038002054ED000014ED00003200010049
:103A9000B438002010B5FDF7BBFE044650B1064A0D
:103AA000064BD21AD2089201014642F001020448A4
:103AB00007F03BFD204610BD54ED000014ED000062
:103AC00056000100F0B40278012A04460B4616D0D5
:103AD000022A2CD08AB9194A0D4602F11007106843
:103AE00051682E4603C60832BA423546F7D11278DD
:103AF000327062885A73120A9A73F0BC70470F4A88
:103B00000D4602F11007106851682E4603C60832B0
:103B1000BA423546F7D11278327062685A73C2F3EE
:103B20000721120CDA73120A99731A74E5E7014639
:103B3000F0BC1122184608F068BE00BF8A000100E0
:103B40000549064A83680648521AD2089201197834
:103B500042F0020207F0E9BC14ED000044ED000061
:103B60009B000100F8B50A4F06460025FB79ECB230
:103B7000A34202D86FF0010408E0C4EBC401394449
:103B8000304608F0A7FF01350028EFD12046F8BDE8
:103B900020380020436837B50446580508D4226908
:103BA0000AB1D90704D5164D2078EB79834202D8A3
:103BB000002003B030BDC0EBC0000023694628449C
:103BC0000093CDF8033008F085FF0028F0D063683B
:103BD000DA0706D495F83820082A02D8A2689F2A66
:103BE000E6D9DB0601D4236943B9D4E902239A421A
:103BF000DED81F2ADCD9B3F5804FD9D80120D8E709
:103C000020380020836810B51C88204602F0B2FAE4
:103C100060B9084A084B0948D21AD20892012146D5
:103C200042F00102BDE8104007F07FBCBDE8104043
:103C300009F071B844ED000014ED0000C30001006C
:103C400073B58568B5F80160304602F093FA044612
:103C500060B91F4A1F4B2048D21AD208920142F085
:103C60000102314607F061FC02B070BD2B78BBB990
:103C70002A79EB7843EA0223A0F88630AA796B7997
:103C800043EA0223A0F88C30EB792A7A43EA022334
:103C9000A0F88E3001F0C2FF204609F03CF8E3E7BF
:103CA0001A2BF9D1C378012BF6D14FF4806104307F
:103CB00008F001FF4305EFD4D4F88830009369463B
:103CC000D4F890300193204602F0C6FDE4E700BF2F
:103CD00044ED000014ED0000C300010013B50C4CCE
:103CE0000146042294F8370002F0A0FA70B9094B9B
:103CF00018689A8800909B79ADF8042094F83700F2
:103D00008DF806300322694602F090FA02B010BD29
:103D10002038002018EE000073B502EBC3030546FF
:103D200008461178A9421AD008329A42F9D18689F8
:103D3000164B174C80683146E41AFFF77BFDFCF701
:103D4000C9FEE408A40144F002040346ADF80040B3
:103D500010483246294607F015FC02B070BD818933
:103D600053788B420DD9094A094B0B489B1ADB0843
:103D70009B0143F001032A4602B0BDE8704007F002
:103D8000E8BB536802B0BDE87040184714ED00006E
:103D900044ED000009010100E700010010B5012118
:103DA0000446083009F0CAFE2146034A0078BDE8FF
:103DB00010400723FFF7B0BF0CF100002DE9F043DE
:103DC000074685B09079344E8846144604F028FFA3
:103DD000864216D0314B324DA0790097ED1AED088E
:103DE000019004F01DFFAD0145F00205CDE902068A
:103DF0002B462C480422694607F0E0FB05B0BDE8DD
:103E0000F083204604F012FF274D4FF00C0909FB08
:103E100000535B88BB4211D0204B214E2046F61A3E
:103E200004F004FFF60809FB0050B60146F0020654
:103E300042881E483346394607F08BFB204604F083
:103E4000F5FE0C2606FB005043686BB1B8F1000F7D
:103E50000AD1204604F0EAFE06FB00504368D3E98D
:103E600000011A7A08F048FE204604F0DFFE0C2616
:103E700006FB00508368002BC0D0204604F0D6FE1D
:103E8000704305F80080204604F0D0FE06FB005584
:103E9000A86806F015FCB1E7E03D002014ED000035
:103EA00044ED00002B010100B80300206001010077
:103EB0002DE9F74F464B474DD0F80880DFF820A199
:103EC000ED1A0026ED08B14698F800309E4202DB5C
:103ED00003B0BDE8F08F08EB8603B3F80110B3F828
:103EE00003704FF02003EFF3118B83F31188BFF3BE
:103EF0006F8F0846019102F03DF90199044658B9C7
:103F00008BF31188BFF36F8FAA01334842F001028F
:103F100007F00BFB0136D7E78BF31188BFF36F8FE8
:103F200000F1280B57B34FF02003EFF3118283F316
:103F30001188BFF36F8FE3696BB1013BE36182F3DB
:103F40001188BFF36F8F204601F064FE013F06F039
:103F5000B7FBBFB2E6E763692BB1A169186860617E
:103F60008B4208BFA06182F31188BFF36F8F4BB9FA
:103F7000A9011A4841F0010107F0CAFA204608F0E9
:103F8000CAFEC7E74FF02002EFF3118182F31188D8
:103F9000BFF36F8FDA68E261C3F80090626AC3F81A
:103FA0000C908AB9C4E9083381F31188BFF36F8F8D
:103FB000012104F1300008F07EFDC307C3D4594647
:103FC00050460AF009F9BEE713606362ECE700BFF0
:103FD00014ED000044ED000093010100AF01010069
:103FE0004C080020F0B5284B85B005460F460178F7
:103FF00003F12C0008F056FD10F0200F1A4608D0EF
:1040000003F12C0008F04EFD000602D51B7E8B420A
:1040100031D12E46694616F80B3B82F837303046D0
:1040200000230093CDF8033008F054FD04462878AF
:1040300064B1314602F0D4F80446F8B92878314624
:1040400001F08AFF0546E0B104210EE06FF0FF03A6
:10405000029302A94FF6FF73ADF80C308DF80E30C5
:1040600001F07AFF054660B1032101F0B3FF3D6026
:10407000204605B0F0BD6FF02204F9E76FF015049B
:10408000F6E76FF00B04F3E72038002038B5042181
:104090000446083009F052FD4578017840882246F0
:1040A000FFF78CFE25B10348BDE8384006F008BB99
:1040B00038BD00BFE838002038B503210446083079
:1040C00009F03CFDA36805781978B0F80100224694
:1040D000FFF774FE25B10348BDE8384006F0F0BA9A
:1040E00038BD00BFE83800202DE9F84F4FF0FF320F
:1040F0004FF0FF3305461648DFF858800E4609F0AA
:10410000A0FC044600F1080B00210027584609F0E6
:10411000B7FC2775204604F089FD4FF00C0A0AFB16
:1041200000804580204604F081FD0AFB0080876006
:10413000204604F07BFD0AFB0080032147605846BF
:1041400009F0D5FC867005802046BDE8F88F00BFD9
:10415000E03D0020B80300202DE9F041074686B07D
:1041600015460C4621B9FFF7BFFF0446002856D07C
:104170000122002168460AF0E6F9204604F056FDC7
:10418000284E0C2303FB0060C0F808D0204609F03D
:1041900088FC2548214609F077FC4FF0FF324FF0AC
:1041A000FF33684606F0B2FA804680B11F4A2049C4
:1041B00020484FF4B97306F0CBFE1F48414606F085
:1041C000C7FE404080F311884FF0030002DF204615
:1041D00004F02CFD0C234343F65CBEB1174A184B88
:1041E00018489B1ADB089B0143F00203324639460C
:1041F00007F0AFF9204604F0C1FD092E0CBF6FF0A7
:104200003C006FF0040006B0BDE8F08115B12C60F1
:104210003046F8E7204604F0B1FD2846F3E76FF09A
:104220003600F0E7B803002004390020C601010081
:10423000FA010100030201002002010014ED000058
:1042400044ED0000400201002DE9F74F0C4620210B
:1042500082461546FFF748FF064600285BD020211E
:10426000083009F044FC20220021814608F0F8FAC9
:1042700004EBC50309F1010B00930025D4F800807D
:104280000023626893420DD3009B08349C42F5D111
:1042900000223146504689F8005003B0BDE8F04F87
:1042A000FFF75ABF98F8012098F800C0A81C8118A1
:1042B0001F2919D9BCF1090FC5F11D0200D18AB916
:1042C000164B17491748C91AC908890141F001015D
:1042D00007F01EF9304604F051FD6FF0150003B0F1
:1042E000BDE8F08F4FF0080CD7B2791C0BF8051021
:1042F000691CC9B25BFA80F00BF801C0D8F8041051
:104300000193023708F081FA019B3D44EDB201337D
:1043100008F10808B5E76FF03600E0E714ED00009B
:1043200044ED00005C0201002DE9F04186B0CDE9CA
:10433000020115461E460122002302A942F208008E
:10434000CDE904339DF830709DF83480FFF77CFF91
:104350000446F8B9CDE90256B8F1000F0ED035BBCE
:10436000154D284608F01FFA09238DF80030012367
:104370008DF801000195CDF810D00593029B13B97B
:10438000049B03B937B1022202A942F20900FFF7E8
:104390005BFF0446204606B0BDE8F08115F83230D8
:1043A000083B012B05D901329642F7D1D8E70246E6
:1043B000FAE76FF01504EDE77502010070B5154ED0
:1043C000062206F13101054608F00FFA0446E0B175
:1043D000062142F20500FFF787FE0446B8B1062227
:1043E0002946083009F089FB2146002242F20500E7
:1043F000FFF7B2FE044640B90622294606F1310015
:1044000008F003FA012386F83030204670BD6FF0C3
:104410003604FAE720380020F7B5044611F0010011
:10442000154615D01C4EC4EBC403E700F35C012B0A
:1044300005D03C1B0020335D2B7003B0F0BD07207E
:1044400010FB04303044FFF7B9FF0028F1D0F4E747
:104450004B0710D5104EC4EBC403E700F35C012BEF
:1044600005D1072010FB04303044FFF7A7FF3C1BA9
:10447000335D2B70E1E70621684601F0D9FA40B9B7
:104480009DF80530684603F03F038DF80530FFF7CF
:1044900095FF0123EDE700BF2038002030B5012152
:1044A00085B0054642F20A00FFF71EFE0446E8B159
:1044B0000830CDB1012109F029FB0E4B01932046B4
:1044C000052302938DF80C5004F0B0FB0A4B0C222C
:1044D00002FB003001AB43600022214642F20A0099
:1044E000FFF73AFE05B030BD2946E4E76FF036002D
:1044F000F8E700BF4C380020B803002030B5174D56
:10450000C0EBC00085B005440C46A9B1002302A948
:1045100020460293CDF80B3008F0DCFA60B121465A
:10452000284608F0C5FA0E4808F0BCFA830701D502
:10453000FFF758FA05B030BD684608F00EFB684634
:10454000FFF710FB0028F7DA6946284608F0B0FAB2
:10455000002CE8D029462046E3E700BF20380020A1
:10456000B4380020024BD3F8F4301B69184700BF61
:104570002038002038B505460C4619B9FFF7B4FDC0
:104580000446F0B140F635439D4214D12046FFF772
:10459000E9FF054668B10C4B0C4AD21AD2089201C9
:1045A000014642F001020A4806F0BFFF204604F02F
:1045B000E5FB284638BD0748214609F065FA002585
:1045C000F7E76FF03605F4E714ED000044ED000066
:1045D0008402010004390020F8B5C68A04468079B7
:1045E00004F01EFB214609F0FCFD2B4B93F85230E2
:1045F0009B0650D5607D01F091FF054660B9274BC1
:10460000274A617D2748D21AD2089201BDE8F840B6
:1046100042F0020206F089BF837A063B012B0ED9D5
:104620001E4B1F492048C91AC908890141F00201DF
:1046300006F06EFF2846BDE8F84008F06CBB08F0B5
:104640006AFB052140F63540FFF74EFD044658B998
:10465000124B13491548C91AC9088901BDE8F84029
:1046600041F0010106F054BF00F10807012138466E
:1046700009F03DFA012505700421384609F037FAA2
:10468000002306808570C370214640F63540BDE8A2
:10469000F840FFF76FBFF8BD2038002014ED000090
:1046A00044ED0000A6020100CF020100FB02010060
:1046B0002DE9F341837A062B04461ED1051D2846B9
:1046C00008F0F0F986041BD4E37823B14D4B93F83E
:1046D0009830180714D5022142F21600FFF704FDA6
:1046E000064668B10221083009F001FA23880380E8
:1046F000314642F21600FFF73DFF02B0BDE8F081FF
:10470000284608F0CFF910F4805FDFF8F880C0F396
:10471000003720D198F89930D9071CD5072142F2EB
:104720003200FFF7E1FC0646A8B10721083009F086
:10473000DEF92388038002238770C37003714771F9
:104740008771314642F23200FFF714FF802128467C
:1047500008F0B1F9D1E798F898309A0610D501AA77
:10476000002142F22F00FFF7F7FCD0B12649274B7A
:104770002748C91AC908890141F0010106F0C8FE9D
:10478000E378012BB9D1284608F08CF9C305B4D4DD
:104790004FF42032002304F150011E4806F0D2F8F5
:1047A000ABE701988368B3F80180B3F8037004F0B5
:1047B000E5FA062142F22200FFF796FC064640B9D0
:1047C0001149124B1448C91AC908890141F0010165
:1047D000D4E70621083009F08AF923880380A0F87D
:1047E00002808780314642F22200FFF7C3FE002894
:1047F000C6D00549054B0948C91AC908890141F0C5
:104800000101BBE72038002044ED000014ED00005A
:104810001E0301004C0800203E0301006A03010052
:1048200038B58368B3F80150284601F0A3FC04466C
:1048300060B9114B114A1248D21AD2089201294686
:1048400042F00102BDE8384006F06FBE051D6FF072
:104850008001284608F041F9030607D54FF480513E
:10486000284608F028F92046FFF722FF2046BDE839
:10487000384008F050BA00BF14ED000044ED0000CD
:10488000C300010070B58568B5F80160304601F0DD
:1048900071FC044660B9104A104B1148D21AD20874
:1048A0009201314642F00102BDE8704006F03DBE83
:1048B0002B7823B90822E91C943007F0A6FF4FF4A7
:1048C0000051201D08F0F7F82046FFF7F1FE2046C2
:1048D000BDE8704008F01FBA44ED000014ED000080
:1048E000C300010070B506460D4642F221000321C7
:1048F000FFF7FAFB044658B90C490D4B0D48C91A8D
:10490000C9088901BDE8704041F0010106F000BE10
:104910000321083009F0EBF885700680214642F249
:104920002100BDE87040FFF725BE00BF44ED000048
:1049300014ED000094030100F7B58368D9789A78E4
:104940001F8842EA0122ADF8002059791A7942EA1B
:104950000122ADF802209A79D97942EA0122ADF814
:1049600004201A7A5B7ABCB242EA03232046ADF8EF
:10497000063001F0FFFB064680B9204B204A214853
:10498000D21AD2089201214642F0010206F0CDFD72
:1049900002212046FFF7A6FF03B0F0BD694601F0F3
:1049A00071F938B91E212046FFF79CFF304608F008
:1049B000B2F9F1E70E2142F22000FFF795FB054620
:1049C0000028F3D00E21083009F091F80E22044699
:1049D000002107F045FFBDF800306380BDF80230CC
:1049E000A380BDF80430E380BDF806302780238122
:1049F000294642F22000FFF7BDFDD7E714ED000085
:104A000044ED0000C30001002DE9F84F514D524B19
:104A1000DFF84C91DFF874A1ED1AED08D9F80C30ED
:104A20004E486FF31033C9F80C3001F059FA471CA7
:104A30004B484FF0FF324FF0FF33394606F058F93C
:104A400060B14849484841F29843524606F080FA1E
:104A5000404080F311884FF0030002DF434EDFF83F
:104A6000008106F1C80B17B905F0B6FDD6E7D8F8F6
:104A70000C10C1F30431012959D9042963D198F8E4
:104A80000C30002B57D13A480022002308F0DEFFFB
:104A9000044660B93749344841F23A43524606F079
:104AA00057FA404080F311884FF0030002DF4FF0C7
:104AB000FF334FF0FF32584605F028FED6F8E030BD
:104AC00063B1A9012C4841F0010106F021FDD6F89F
:104AD000E00004F053F90023C6F8E030204608F067
:104AE000E0FFC6F8E0002046FFF73CFD0146F0B1CC
:104AF000AA01224842F0010206F017FD204805F005
:104B0000DFFD204604F092F81E4B0C2202FB003021
:104B10001F2140882246FFF751F9D6F8E00004F043
:104B20002DF900232046C6F8E03004F027F908F1FB
:104B30001408013F97E7012BF9D1D8F81000343859
:104B400001F078FCF3E7AA010F4842F0020206F0F8
:104B5000ECFCECE744ED000014ED0000C03900204F
:104B6000AC390020FA0101000302010020380020C6
:104B700004390020690E0100AE0301008402010027
:104B8000E8380020B8030020C9030100C601010075
:104B900070B5017D012904464BD003297BD183895F
:104BA000032B0CD8444A4549454840F2E64306F0F9
:104BB000CFF9404080F311884FF0030002DF042159
:104BC00004F1080008F0BAFFA18942880688FF2393
:104BD000C6F30B008A42E08263750DD039483A4B28
:104BE0001B1ADB089B01394843F0010306F0B1FCB6
:104BF000204604F0C3F81AE001F0BCFA054658B9A3
:104C0000304B314AE18A3248D21AD208920142F03E
:104C1000010206F08AFCEBE701F074FC320B6075D0
:104C20002146284601F056F8284608F074F800207E
:104C300070BD8389012B0CD81F4A2049204841F2BE
:104C4000274306F085F9404080F311884FF00300B8
:104C500002DF022104F1080008F070FF02781A2A2E
:104C6000054611D8012393401A4A13420CD0124A28
:104C70001949134841F22B4306F06AF9404080F38A
:104C800011884FF0030002DF144A287803232146DD
:104C9000FFF742F8ACE70B4B0B4A1148D21AD20887
:104CA000920142F0010206F040FC204604F066F852
:104CB0006FF01500BCE700BFC6010100EA03010068
:104CC0000302010014ED000044ED000003040100A4
:104CD0002704010000C008044904010094F1000009
:104CE0006704010038B5037D012B04460CD0214A2E
:104CF0002149224841F6B20306F02AF9404080F3E8
:104D000011884FF0030002DFA389012B0CD8194A48
:104D10001B491A4841F6B30306F01AF9404080F3E4
:104D200011884FF0030002DF022104F1080008F0AF
:104D300005FF02781A2A054604D801239340114A38
:104D400013420CD10B4A10490C4841F6B60306F049
:104D5000FFF8404080F311884FF0030002DF0B4A58
:104D6000287804232146FEF7D7FF204604F006F8F2
:104D7000002038BDC60101007B04010003020100D0
:104D8000EA03010000C008044A040100ACF100007D
:104D9000084A0346D2F8F40030B9D96839B1196924
:104DA00029B1C2F8F43070476FF0440070476FF0DB
:104DB00015007047203800200148022107F07BBE13
:104DC000B43800202DE9F341674DD5F8F4309968E7
:104DD00011F0010120D101AA40F60340FFF7BCF910
:104DE0000446002840F0BC80019B9B681B7883B977
:104DF00005F19403184607F055FEBFF35B8F00F0F2
:104E0000050053E8002F43E800010029F9D1BFF362
:104E10005B8F019803F0B2FF01AA002141F2030069
:104E2000FFF79AF90446002840F09A80019B4F480A
:104E300099680822013107F0E8FC019803F09EFF11
:104E4000214601AA41F20100FFF786F90446002835
:104E500040F08680019883685A7885F83820D978A0
:104E60009A7842EA01226A871A7985F83920197AF4
:104E7000DA7942EA0122AA875A799B7942EA032326
:104E8000EB8703F07BFF214601AA41F20200FFF706
:104E900063F90446002863D1019B35489968402294
:104EA000013107F0B2FC019803F068FF00F088FDC3
:104EB0000446002854D195F852309E061AD42D4944
:104EC0002D4B2E48C91AC908890141F0020106F08C
:104ED0001FFB95F844305C0654D4274B25492848DD
:104EE000C91AC908890141F0010106F011FB6FF0F0
:104EF000120435E0072140F63340FFF7F5F8074686
:104F000010B96FF036042BE00721083008F0EFFDF0
:104F100021460646072207F0A3FC1B233370062315
:104F2000747034712246F370394640F63340FFF70F
:104F300013F90446A0B9012140F63140FFF7D4F837
:104F400006460028DDD00121083008F0DFFD2246AA
:104F5000314640F63140FFF7FFF804460028B8D04C
:104F6000204602B0BDE8F0812038002060380020E3
:104F70006838002044ED000014ED00009E0401009C
:104F8000CC04010001AA002142F20300FFF7E4F87B
:104F900004460028E4D1019B8F489968082201311A
:104FA00007F033FC019803F0E9FE214601AA42F222
:104FB0000200FFF7D1F804460028D1D1019B9B687D
:104FC000B3F80120A5F8A82091B221B1DA7883487E
:104FD000114609F0B8FA019803F0D0FE95F8446044
:104FE00016F0200600F0A88095F86430180711D557
:104FF00001AA002142F21C00FFF7AEF80446002887
:10500000AED10198836853F8012F5B68C5E9282366
:1050100003F0B4FE95F89830990600F1A8800821B5
:1050200042F20100FFF760F8044600283FF469AF40
:105030000821084408F05BFD95F8982012F0020F53
:1050400014BF2F230F23920695F8992048BF43F0F1
:10505000400312F0090F18BF43F4006300220370ED
:10506000C3F3072343708270C27002714271827170
:10507000C271214642F20100FFF76EF80446002893
:105080007FF46EAF95F844309B061ED4B5F8A81097
:10509000D9B901AA41F20500FFF75EF804460028DD
:1050A0007FF45EAFB5F8A83063B9019B9B685A786E
:1050B000997842EA0122A5F8A8209A884748114623
:1050C00009F041FA019803F059FE082140F6014029
:1050D000FFF70AF8044600283FF413AF08210844FC
:1050E00008F005FD1023037088234370022300227B
:1050F000C37020238270027142718271C371214694
:1051000040F60140FFF728F8044600287FF428AF56
:1051100001F016FA044600287FF422AFEB79002B49
:1051200052D12F4B2F493048C91AC908890141F083
:10513000030106F0EDF913E7022140F66D40FEF79A
:10514000D3FF044600283FF4DCAE0221083008F00B
:10515000CEFC0123037046702146324640F66D4076
:10516000FEF7FAFF044600283FF43EAFF8E601AA36
:10517000002142F22F00FEF7EFFF044600287FF4E3
:10518000EFAE01988368B3F80180B3F8037003F0C1
:10519000F5FD042142F22400FEF7A6FF0646002892
:1051A0003FF4AFAE0421083008F0A1FC2246A0F87D
:1051B00000804780314642F22400FEF7CDFF0446CE
:1051C00000283FF42CAFCBE60421084807F073FC1D
:1051D000FFF7F2FDC4E600BFB8380020CC3800204D
:1051E00014ED000044ED0000F0040100B43800208C
:1051F00010B5FFF7E7FD034B1B6813B1BDE8104086
:10520000184710BDD003002070B5304DD5F8F430EC
:1052100088B0064673B92E4B2E492F48C91AC908C3
:10522000890141F0010106F073F96FF01204204684
:1052300008B070BD012105F1940007F03CFCC207E5
:1052400041D4FEF727FC04460028F0D1234B1E6012
:1052500000220023CDE906236FF00803CDE9020305
:10526000CDE9000004901E4B1E491F484FF4007208
:1052700005F0B4FA1D491C4809F07DF9D5F8F43061
:10528000DB689847044658B1114B124AD21AD2082B
:105290009201014642F00102154806F046F9C6E7C0
:1052A00026B908B0BDE87040FFF78CBD012105F1BB
:1052B000900007F000FCC307B9D40E4805F188013F
:1052C00008F08AFFB3E76FF04404B0E7203800200D
:1052D00014ED000044ED00001D050100D003002086
:1052E000094A0000C81A0020D40300203605010036
:1052F0003C0501004C080020004870477502010081
:1053000037B50C46054618B944B36FF0150422E0D2
:10531000002369460093CDF8033007F0DBFB00283B
:10532000F2D02B78012B04D1AB7903F0C003C02B52
:105330000AD0114B11491248C91AC908890141F014
:10534000010106F0E5F8E0E72846FEF70BFC00282F
:10535000DADB6FF04404204603B030BD094BDC7942
:10536000012C06D0621C29462046DA71FFF7C6F8E8
:10537000F1E76FF00B04EEE714ED000044ED0000E0
:10538000580501002038002070B586B001AA002120
:1053900041F20900FEF7E0FE1F4E044668B11F49C6
:1053A0001F4B2048C91AC908890141F0020106F0C3
:1053B000AFF80023F37106B070BD019B9D680490A7
:1053C0000135ADF81400062204A9284607F00DFAAD
:1053D00018B9019803F0D2FCEBE74FF0FF33062237
:1053E00002A928460293ADF80C3007F0FEF9002818
:1053F000EFD0294606220DF1110007F006FA0198B8
:105400008DF8104003F0BAFC012304A92046F37183
:10541000FFF774F8CFE700BF2038002044ED00000C
:1054200014ED0000860501002DE9F047774C066970
:105430008AB005464FF0000A04F194001F468846E2
:105440009146CDF80CA007F02DFB830740F1D180E9
:105450002846FEF79FFB002800F0CE800F22514621
:1054600006A807F0FDF9AB68ADF81830EB68ADF8A9
:105470001A3004F12C0007238DF825308DF826A072
:1054800007F010FB800600F1BA80227E2B789A424A
:1054900005D06FF4805104F1940007F01EFB2878CA
:1054A000207684F8370069680DF11D02FEF7B4FF1D
:1054B000044600286BD1002E48D02969544807F0D3
:1054C000F7FA6B68D90749D5002E44D013F0100FB6
:1054D00014BF0423012329698DF81C300DF11E002F
:1054E00007F0E6FA0F2142F20600FEF7FDFD044642
:1054F000002800F087800F2206A9083008F0FDFA86
:105500002146002242F20600FEF726FE044600284D
:105510003DD166B36B68DB073DD40120FEF7BEFFCB
:10552000044600283FD03B4B3B493C48C91AC908B8
:10553000890141F0010105F0EBFF039838B3002128
:1055400000F048FD039807F0E6FB20E0049604A96C
:10555000CDF81360B2E78DF81C60C3E70FB91A07E6
:1055600003D502238DF81C30BCE70323FAE76B68F0
:10557000C3F3C00203F00103019200933A46129B69
:1055800049464046FEF7D0FE04460028C2D02046D9
:105590000AB0BDE8F087224803A9FEF723FD0446C0
:1055A0000028BAD0F3E7039808B107F0B4FBF6B9C6
:1055B0006A6882F00202C2F340021A48092107F029
:1055C0009BFA6A681748C2F3C002062107F094FAF2
:1055D0006A68144802F00102072107F08DFA6A6830
:1055E0001048C2F38002082107F086FACFE70022B4
:1055F000E3E76FF00A04CAE76FF01504C7E76FF03E
:105600004404C4E76FF03604C1E700BF203800202F
:105610004338002014ED000044ED0000A405010013
:10562000383800204C38002013B5114807F03AFAFA
:1056300081051AD50E4807F035FA820615D40C48B4
:1056400007F030FA030610D50A4801A9FEF7CAFC94
:10565000044650B90120FEF721FF18B101982146F8
:1056600000F0B8FC019807F056FB02B010BD00BF77
:105670004C38002038380020F8B58668357835BBBE
:10568000B6F80170384600F075FD044670B9104A4E
:10569000104B1148D21AD208920142F00102394649
:1056A00005F043FFBDE8F840FFF7BEBFF378437253
:1056B000294600F08FFCA3782580012B204603D0DB
:1056C000BDE8F84007F027BB07F025FBEAE7F8BD87
:1056D00044ED000014ED0000BF050100F0B50578B1
:1056E00085B004465DB33C2D1DD16FF020015448B8
:1056F00007F0F3F90020FEF7F1FA044658B95149D2
:10570000514B5248C91AC908890141F0010105F0FD
:10571000FFFE05B0F0BD4572002100F05BFC2046A5
:1057200007F0F9FAF5E7484B464A4948D21AD20839
:10573000920142F00202294605F0F7FEE9E70379FB
:10574000B0F80170023B051D012BBEB2294602A82C
:1057500030D807F0ADF99DF808300622023B04F17D
:1057600011010DF101008DF8083007F04EF801230A
:105770008DF80030E378012B0CD102A8FEF7AEFAC9
:10578000E378012B054604D12D486FF0200107F086
:10579000A4F9B5B92C4B2B4A2E48D21AD208920143
:1057A000314642F0010205F0C0FE0721304607F005
:1057B000E2F9AEE707F07CF92946684607F078F988
:1057C000D8E7284602A920F8707B07F071F9227EFD
:1057D000E37D43EA0223A5F88630A27E637E43EA96
:1057E0000223A5F88C30E37E227F43EA0223A5F84A
:1057F0008E30E378EB700024012B6C7216D1694671
:1058000005F1770007F054F9297A134EC1EBC10175
:10581000314405F17E0007F04BF9D6F8A41022467A
:1058200001F04003134301D0FFF7FEFE0621284696
:1058300000F0D0FB2846FEF73BFF284670E700BF8C
:105840004C38002044ED000014ED0000E505010097
:10585000010601001A06010020380020012838B591
:1058600005460CBF0648074808F0EBF8044620B18F
:105870000021083008F004F92575204638BD00BF26
:10588000003E0020403D002070B502460B464FF020
:105890002001EFF3118581F31188BFF36F8F0C485E
:1058A0000021D0F8E040C0F8E01085F31188BFF384
:1058B0006F8F24B9BDE870400120FFF7CFBF0123EF
:1058C00004F108002375A18108F0DAF8204670BDC4
:1058D0002038002070B504460F2C0D46104619469E
:1058E00005D80D2C12D9BDE87040FFF7CDBF132CA1
:1058F0000CD10B4808F0A5F8044628B10021083067
:1059000008F0BEF801232375204670BD02460B4601
:105910000DB10448EEE7BDE870400120FFF79EBFDF
:10592000203E0020A03D00202DE9304800258CB00D
:1059300002AA002142F21800FEF70EFC044698BBB2
:10594000029B996804AB03EBC5000822013106F005
:105950005CFF0135029803F011FA042DE8D108F03C
:10596000D6FE4FF47A75A0FB05BC05FB01CC4FEACF
:10597000DB3242EA4C424FEADC33CDE90223082312
:1059800000930B486B44202204A906F0FCFD58B993
:10599000084B09490948C91AC908890141F00101A0
:1059A00005F0B6FD6FF0040420460CB0BDE8308869
:1059B0003000002014ED000024ED00004B06010033
:1059C00013B5164B93F96330002B23DA01AA00219B
:1059D00042F21800FEF7C0FBB8B9019B1048996865
:1059E0000822013106F0AFFD0446019803F0C6F924
:1059F0006CB90C4B0C490D48C91AC908890141F012
:105A0000010105F085FD6FF0040002B010BDFFF745
:105A10008BFFFAE76FF02200F7E700BF2038002085
:105A20003000002014ED000024ED000062060100AB
:105A300038B50A4A04460D4606F0BEFD431C07D1A0
:105A4000FFF772FF48B9054A2946204606F0B4FD23
:105A5000012814BF6FF00400002038BD3000002082
:105A60000023C0E901330146C360014808F0B4BB1C
:105A7000303D002038B5094B1D680446617A2DB9C8
:105A800051B92046BDE8384002F09ABF2B680BB1EF
:105A9000204698472D69F1E738BD00BF4804002033
:105AA00070B5044600F1340600220023304607F0AA
:105AB000CDFF054658B9204607F0C0F804F1500163
:105AC0000748BDE870400022002304F03BBF68692E
:105AD00008B1FFF7C5FF284603F050F9E4E700BF1F
