:10000000181C00207D190000C7890000AD190000F0
:10001000AD190000AD190000AD190000000000008E
:10002000000000000000000000000000ED170000CC
:10003000AD19000000000000A5170000B581000008
:100040003D1900003D1900003D1900003D19000058
:100050003D1900003D1900003D1900003D19000048
:100060003D1900003D1900003D1900003D19000038
:100070003D1900003D1900003D1900003D19000028
:100080003D1900003D1900003D1900003D19000018
:100090003D1900003D1900003D1900003D19000008
:1000A0003D1900003D1900003D1900003D190000F8
:1000B0003D1900003D1900003D1900003D190000E8
:1000C0003D1900003D1900003D1900003D190000D8
:1000D0003D1900003D1900003D1900003D190000C8
:1000E0003D1900003D1900003D1900003D190000B8
:1000F0003D1900003D1900003D1900003D190000A8
:1001000053B94AB9002908BF00281CBF4FF0FF317E
:100110004FF0FF3000F06EB9ADF1080C6DE904CE80
:1001200000F006F8DDF804E0DDE9022304B07047D2
:100130002DE9F047089D0E4604468C46002B40F002
:1001400081808A42174645D9B2FA82F24AB1C2F199
:10015000200106FA02F320FA01F1974041EA030C6C
:1001600094404FEA174E230CBCFBFEF6B9B20EFBCF
:1001700016CC43EA0C4306FB01F0984209D9FB1860
:1001800006F1FF3C80F01581984240F21281023E58
:100190003B441B1AA4B2B3FBFEF00EFB103344EA3F
:1001A000034400FB01F1A14209D93C1900F1FF33DE
:1001B00080F00181A14240F2FE8002383C44641A82
:1001C00040EA064000211DB1D4400023C5E90043A8
:1001D000BDE8F08702B9FFDEB2FA82F2002A4FD101
:1001E000CB1B4FEA174E1FFA87F80121B3FBFEFC29
:1001F000260C0EFB1C3346EA034608FB0CF3B34205
:1002000007D9BE190CF1FF3002D2B34200F2EB80E5
:100210008446F61AA3B2B6FBFEF00EFB106643EA64
:10022000064408FB00F8A04507D93C1900F1FF334C
:1002300002D2A04500F2D2801846A4EB080440EA9E
:100240000C40C0E78B4208D9002D00F0AF800021A0
:10025000C5E900060846BDE8F087B3FA83F1002936
:1002600049D1B34202D3824200F2BB80841A66EBCA
:10027000030301209C46002DAAD0C5E9004CA7E746
:10028000C2F120039740D8409140DE404FEA174E1C
:1002900008434FEA104CB6FBFEF11FFA87F80EFB3D
:1002A00011664CEA064601FB08F3B34204FA02F475
:1002B00009D9BE1901F1FF3C80F08E80B34240F2B3
:1002C0008B8002393E44F31A86B2B3FBFEF00EFB7C
:1002D000103346EA034600FB08F3B34207D9BE19C0
:1002E00000F1FF3C74D2B34272D902383E44F31A93
:1002F00040EA01417AE7C1F1200703FA01F422FA4A
:1003000007F31C4320FA07F906FA01F34FEA144CED
:10031000FE4049EA03094FEA1943B6FBFCFE1FFA07
:1003200084F80CFB1E6643EA06460EFB08FAB2454B
:1003300002FA01F200FA01F308D9A6190EF1FF3012
:1003400048D2B24546D9AEF1020E2644A6EB0A06C3
:100350001FFA89F9B6FBFCF00CFB106649EA064669
:1003600000FB08F8B04507D9A61900F1FF3C2DD2D3
:10037000B0452BD90238264440EA0E40A6EB0806C9
:10038000A0FB02894E45C446CE4618D315D075B39E
:10039000B3EB0C0266EB0E0606FA07F722FA01F33E
:1003A000CE401F43C5E90076002111E729462846C3
:1003B0000EE76646EDE6184601E74345E7D2B8EB9F
:1003C000020C69EB04040138A646E0E76046D3E777
:1003D00060468CE78646B9E7614674E702383C44DC
:1003E0002BE7084647E7ACF1020C3E4411E72946EB
:1003F000EEE600BF704700BF014807F003BB00BF37
:100400006CBE000011B1034807F0FCBA024807F0C7
:10041000F9BA00BF8ABE0000AABE000070B5202352
:100420008CB00024CDE90443284B0693012104AB92
:1004300003A8039301F078FC254807F0E3FA20466F
:1004400002F088FD064628B10146224807F0DAFA94
:100450000CB070BD07F08DFD1F492048204D0D22C6
:1004600000F0F6FB1F492048142200F0F1FB1F4961
:100470001F480E2200F0ECFB1E491F48102200F01E
:10048000E7FB1E491E48102200F0E2FB1D491E48F2
:10049000102200F0DDFB1D4807F0B4FA1C4803F001
:1004A000DDF90FCD07AC0FC42B6823601949009606
:1004B0003346022207A808F0F8FD014608B11648A5
:1004C000C4E7164807F09EFAC2E700BF00000B160B
:1004D000B5BE0000DEBE0000FEBE00000BBF000087
:1004E000C0B7000018BF00002CBF000039BF0000DB
:1004F00047BF000055BF000065BF00006FBF000090
:100500007FBF000089BF000099BF0000A3BF0000AB
:10051000C82F002028B80000BABF0000E0BF0000CC
:100520000B6801330B60014B1B681847DC2F002060
:100530002DE9F04F85B09B460E9CDFF89090012C82
:10054000B8BF0124012B0CBF3023202315460646DB
:100550008A46029301274FF00A080022B5FBF9F3FF
:1005600001930AB9A9451FD8019B514603F13000F8
:10057000B04701370122019B08F1FF38B8F1010FA4
:1005800009FB13554FF00A03B9FBF3F9E6D15146C5
:1005900005F13000B047BBF1030F02D1E41B002C82
:1005A0000EDC05B0BDE8F08F4445E4DBBBF1020F83
:1005B000E1D8029803925146B0470137039ADAE72F
:1005C00051462020B047013CE9E700BF00CA9A3BF2
:1005D000014B1860704700BFDC2F00202DE9F04F61
:1005E0008DB01C460027531E05468B4603934FF0E3
:1005F000FF39B846002605E06EB9252800F0718164
:100600005946A847039B13F8010F03930028F3D121
:100610000DB0BDE8F08F7A280AD8622810D83028AB
:1006200054D045D8252800F05A812D2800F05F814C
:1006300059462520A847039B18785946A847D9E76B
:10064000A0F16303172BF3D801A252F823F000BFE7
:10065000D70800001B07000031060000310600002B
:1006600031060000FD0600001B07000031060000F7
:1006700031060000FD0600003106000031060000D2
:1006800031060000BD070000310600003106000001
:10069000A7080000310600008B07000031060000AB
:1006A00031060000B906000031060000FD0600001A
:1006B00039281AD95828BBD1039B1B78702B40F0DE
:1006C000888054F8043B0693002290E0B9F1000FB3
:1006D0000EDAB8F1000F00F00D81A0F13009B8F189
:1006E000000F08BF4FF002088CE7B9F1000FF4DBF0
:1006F0000A2303FB0909A9F13009F0E7682803D1AF
:10070000682F06D148277DE76C2802D16C2F00F0B6
:10071000F480002F8CD1074674E77A2F02D154F869
:10072000046B21E06C2FFAD04C2FF8D1073424F061
:100730000704F4E80223CDE90423049B13F10041EC
:10074000059B089143F100010991DDE9082300218F
:100750004FF0FF30994208BF904204D259462846D4
:1007600007F02FF946E7049E002E05DA59462D20A2
:10077000A847764209F1FF39CDF80090434632464A
:1007800059462846FFF7D4FE34E77A2F02D154F8B1
:10079000042B0FE06C2FFAD04C2FF8D1073424F043
:1007A0000704F4E8022300214FF0FF30994208BF0C
:1007B0009042D3D3CDF800904346E1E7594630202C
:1007C000A84759467820A8474FF008094FF001087C
:1007D00072E76C2F3FF475AF4C2F7FF472AFE31DBF
:1007E00023F007031C4654F8082B06925A68002190
:1007F0001023049107914FF0400AAAF1040A0699C8
:10080000CAF1200EAAF1200C21FA0AF002FA0EFE1B
:1008100040EA0E0022FA0CFC40EA0C0010F00F0037
:1008200007D1079911B9BAF1000F25D14FF0300C5B
:1008300005E009288CBF4FF0570C4FF0300C604496
:10084000594640B20A920793A847049B0A9A01337B
:100850000493079BBAF1000F23D1B8F1030F7FF483
:10086000C9AE049BC3EB4906002E7FF7C3AE5946C1
:100870002020A847013EF7E7591E99450A9107DB5A
:10088000B8F1010F06D10B9259463020A8470B9AB8
:100890000A9BB2E7B8F1020FFAD10B925946202019
:1008A000F4E70796A9E754F8046BB24653461AF8E2
:1008B000010B68B9B8F1030F21D19E1BA9EB060605
:1008C000002E7FF797AE59462020A847013EF7E754
:1008D0005946A847EAE754F8040B5946AEE659468C
:1008E000ACE63746B0464FF0FF3901268AE64FF0B6
:1008F000030887E64FF0010884E64C2782E60646A7
:1009000080E600BF07B50B4600210246019103486F
:1009100001A9FFF763FE03B05DF804FB21050000A9
:1009200030B585B0CDE901010446002505480395A1
:1009300001A9FFF753FEDDE902309842B8BF255404
:1009400005B030BDDF7900002DE9F34101A906466D
:1009500014461D4607F037FB244902460746304639
:1009600008F0CBF8804660B9214E14223146284663
:10097000A047031E01DB06F80380002002B0BDE89B
:10098000F0811C493A46304608F0B7F8804608B96D
:10099000194EEAE719493A46304608F0AEF8804663
:1009A00008B9174EE1E717493A46304608F0A5F86E
:1009B000804608B9144ED8E714493A46304608F044
:1009C0009CF8804608B9124ECFE7304611493A46A6
:1009D00008F093F806460028CFD10F4F142239466D
:1009E0002846A047031EA8BFFE54C6E733BF000039
:1009F0002932002012BF00003E3200204EBF00000E
:100A00005332002086BF0000FF310020A0BF00004D
:100A1000143200206CBF000068320020104B2DE91A
:100A2000F0411C6805460E461746ACB14FF0FF3248
:100A30004FF0FF330B4806F009F863683246D3F8ED
:100A4000088029463B462046C0470446054806F034
:100A500075F82046BDE8F0816FF00104F9E700BFAA
:100A6000480100209033002030B585B000230546B2
:100A7000CDE9023301904FF0FF330E484FF0FF32C3
:100A800005F0E4FF0C4B1C68002C38BF00243CB17F
:100A9000636820461B6801A998472468002CF6D19A
:100AA000284600F089F80446024806F047F8204638
:100AB00005B030BD90330020400100201FB5CDE9C6
:100AC000010103924FF0FF330C484FF0FF3205F065
:100AD000BDFF0B4B1C68002C38BF00243CB1636881
:100AE00020461B6801A998472468002CF6D10348CA
:100AF00006F024F8002004B010BD00BF90330020A1
:100B000040010020024B0022C3E90022704700BFD1
:100B100040010020024B0022C3E90022FFF7F2BF90
:100B20004C0100202DE9F34107460E4609B1002390
:100B30000B601E4CDFF87C800025444508D31C4B1D
:100B40001C680CB1143CC4B9284602B0BDE8F08161
:100B5000216801AA384607F013FA60B125B90EB131
:100B6000019B3360254606E029682068002207F0D3
:100B700007FA0028F3D11434DFE7216801AA3846C8
:100B800007F0FEF960B125B90EB1019B336025462F
:100B900006E029682068002207F0F2F90028F3D166
:100BA00014F1140FD0D06469CBE700BF58B7000030
:100BB0004C010020BCB70000F8B51A4C1A4F06468D
:100BC0000025BC4206D3194B1C680CB1143C9CB9DF
:100BD0002846F8BD1EB9E3684BB91434F1E7206824
:100BE0000022314607F0CCF90028F4D1F5E7984708
:100BF000002D08BF0546F0E736B9E36863B914F184
:100C0000140FE5D06469E0E720680022314607F060
:100C1000B7F90028F1D1F2E79847002D08BF054643
:100C2000EDE700BF58B70000BCB700004C01002042
:100C300010B5064C23783BB9FFF76CFF07F0E9F9D4
:100C400008B90123237010BD0020FCE7BE07002077
:100C500030B585B00D4601A91446FFF763FF48B1D2
:100C6000CDE90254054A8568019802AB2146A847A0
:100C700005B030BD6FF01500FAE700BFF37F00004C
:100C800010B50748074C05F037FD074B18602046A4
:100C900001F060F82046FFF79BFC002010BD00BF6C
:100CA00009C00000AD0C0000540100200A2838B52E
:100CB000074D044604D1286843680D215B689847B6
:100CC00028684368E1B25B689847204638BD00BF9A
:100CD00054010020F8B5124EB3680C2404FB003414
:100CE0000123054663724FF02003EFF3118183F374
:100CF0001188BFF36F8F23682BB160681A68226078
:100D0000834208BF626081F31188BFF36F8F03B91C
:100D1000F8BDD3E9017229463046B847E3E700BF82
:100D2000BC320020154B07B51A6882B14FF08042E3
:100D3000D2F80423D1070AD500221A601B68009359
:100D4000009B0F4B9B68587A08B9FFF7C3FF0D4B08
:100D50001A6882B14FF08042D2F8042392070AD574
:100D600000221A601B680193019B012003B05DF80B
:100D700004EBFFF7AFBF03B05DF804FB00010040D8
:100D8000BC32002004010040024B00229A829A618A
:100D9000704700BF1030002008B50146054809F033
:100DA00024FC054B18684368DB6903B198470020B1
:100DB00008BD00BF38300020700100200246064800
:100DC0000B46C17E042903D1417E007F02F07CBB2B
:100DD000032002F03DBB00BF103000200249083064
:100DE0008A7E1C3109F03ABC1030002008B5074853
:100DF00005F082FC064B186020B1064801F09AFE0F
:100E0000002008BD6FF01500FBE700BF09C000001F
:100E10007001002050B900002DE9F0411E4D1F4F18
:100E20002E461F4C237E9BB123688BB94FF0FF31B8
:100E30004FF0FF30FFF7C2FF20600830B4F8148095
:100E400009F041FC804522D9A38AE382FFF79CFF89
:100E5000286807F0A5F94FF0FF324FF0FF3338460E
:100E600009F0A5FB0446306807F09AF9204601F026
:100E70008BFD06F07FF9306807F097F90022002318
:100E8000384609F094FB04460028ECD1C9E72068F5
:100E9000FFF7A4FFDCE700BF700100201430002042
:100EA000103000202DE9F041914F924D8AB03E461E
:100EB000386843685B6C3BB1984728B13868436831
:100EC0001B6C0BB1984710B90AB0BDE8F0813868C7
:100ED00043685B6AEBB19847D8B16B6853B98648F1
:100EE0000022002309F063FB686018B9386807F036
:100EF00052F90EE02B78002B2AD16B681B7D03B3CF
:100F0000022B36D130682B7043685B69DBB9002354
:100F10002B70306843685B6B002BC9D09847002862
:100F2000C6D0764CE28A2146002A33D0212A306886
:100F300028BF212201A907F028F9E38A1B1AE382BE
:100F4000B6E70123DEE70122294698470128DED1D2
:100F5000306843685B69DBB169688A89896898474A
:100F600001466868083009F092FB6B689B89002B8A
:100F7000CFD1002368682B7004F04AFD5E48002240
:100F8000002309F014FB68600028C2D13068AEE786
:100F90001946E6E794F81880B8F1000F52D023689C
:100FA000D3B900200021FFF709FF206050B9637E0C
:100FB00023B1A38AE382FFF7E7FE79E7306807F001
:100FC000F4F875E70830B4F8148009F07CFB80452C
:100FD000EFD82068FFF702FF2368A28A99899B68EF
:100FE0003068194407F0D1F880462068414608303F
:100FF00009F02EFBA38AA3EB080189B2A182002984
:101000007FF456AFE27E042A09D1207F1A2806D841
:101010003B49012383400B4214BF012100210023DF
:10102000042A206823600CBF012303230375FFF704
:10103000ABFE11B101F028FD3AE70146314809F055
:10104000D4FA35E7E37E022B60D0042B15D030684C
:10105000012204F11B0107F098F8012802D084F85E
:101060001B8025E7E37E022B05D0042BF7D102235A
:10107000A382A3761CE70423FAE7A28AA37E306842
:101080009B1A1C31194407F080F8A38A181AA37E12
:1010900080B2022BA08208D1012806D8237F3E2BE4
:1010A00001BF01300323A082A376A38A002B3AD18B
:1010B000E369154A03F0FF13934204BF01236376EB
:1010C000637FA27E02339B1AA382012323762068CA
:1010D00000283FF4EDAE0830B4F8148009F0F3FABC
:1010E00080453FF666AF2068FFF778FEE0E600BF78
:1010F00070010020303000203830002010300020F7
:1011000000C00804143000203E000200A28A3068AB
:10111000A11A203107F039F8A38A181A80B2A082E8
:1011200008B9E38BD0E7237E002B3FF4C1AECEE7B6
:1011300000B5054B8BB01868202201A907F025F8EF
:1011400000200BB05DF804FB7001002010B5174CB7
:1011500088B0206807F029F8206807F01CF820689C
:10116000FFF7E6FF00281DDB2268536823B19B6C64
:1011700013B10F4910469847002200230024CDE9FF
:1011800006236FF00703CDE90334CDE90144094B91
:1011900009490A48009440F6980206F0EDF8204606
:1011A00008B010BD6FF00400FAE700BF7001002026
:1011B000A50E0000190E0000800D00207401002013
:1011C000821C084B22F07F42C3F84025D3F8042547
:1011D000904200D17047D3F80405821C22F07F4270
:1011E000F2E700BF00100140044B002282B01A60F9
:1011F0001B680193019B02B0704700BF4011014082
:1012000008B5FFF7F1FF074B074AD3F8400513680D
:10121000C01A20F07F4003441360BDE8084006F088
:1012200053BA00BF00100140E801002038B514484F
:1012300005F062FA00B34368124D1B6801210024D7
:101240009847C5F80845FFF7CFFF0F4B4FF4003222
:10125000C3F880214FF48033C5F8043322460121BE
:10126000112000F0E3FA112000F0D0FA074A012320
:10127000136020462B6038BD4FF0FF30FBE700BF06
:1012800010C000000010014000E100E00810014023
:1012900070B5284B284C1968D4F80425274D521AEC
:1012A000B0F1FF3F08BF284622F07F4312022FD43F
:1012B000013820EAE070A842A8BF284601334FF465
:1012C00080361844C4F80863A84294BF0D184D191D
:1012D000D4F80405D4F84015FFF786FF091A21F069
:1012E0007F4120F07F430129C4F84035C4F84463AE
:1012F00004D10F2009F0C8FEFFF776FFD4F80405EB
:101300002B1A23F07F43012B04D1FFF759FF0BE089
:101310000020D3E725F07F43C4F84035D4F8040516
:101320002D1A023D2B02F0D44FF48033C4F804335D
:1013300070BD00BFE801002000100140FFFF7F00EA
:101340004FF02002EFF3118382F31188BFF36F8F08
:10135000064AD2F80405064A1268801A20F07F4037
:1013600083F31188BFF36F8F704700BF00100140F7
:10137000E801002010B5114C114AA2610323C4E911
:101380000433104BE36122664FF480630E4A0F4929
:101390002362626600231022E01DA3626362E3629F
:1013A0002367E3666367A26607F08AFB0849204665
:1013B00007F086FB2023A37110BD00BFEC010020C5
:1013C00024C00000CF070020BF0700202DC0000070
:1013D00031C00000F0B5264E07460C460FCE8DB04A
:1013E00001AD0FC50FCE0FC596E8070085E80700D1
:1013F0003846002F38D0002C38D0381F21460246FE
:1014000010344B780D781B0443EA0563CD782B43E9
:101410008D78043143EA05238C4242F8043FF0D131
:10142000144C04218A07036916D1C3F30742A55C53
:101430001A0EA25C42EA0562C3F30725DBB2655DC2
:10144000E35C42EA054242EA03220CAD21F00303C9
:101450002B4453F82C3C534050F8042F0131534097
:101460002C290361DED101200DB0F0BD2046FBE741
:10147000D4B7000038C000002DE9F043154689B00C
:101480000646002858D0002959D0002A59D01023E8
:101490000A466846194606F096FE294668462A4CD2
:1014A00006F0A9FE05F11007A146A035E8466A46F8
:1014B00010231178013B615C02F8011BF9D16846E9
:1014C00006F0DEFE694604A806F013FF01A905A890
:1014D00006F00FFF02A906A806F00BFF03A907A854
:1014E00006F007FF102319460DEB0302684606F0CD
:1014F0006AFE39466846103706F07DFEAF42D5D108
:10150000102498F80030013C19F8033008F8013B2A
:10151000F7D1684606F0B4FE2946684606F06BFE31
:10152000102319466A46304606F04DFE68461022E2
:10153000214606F055FE012009B0BDE8F0830846BB
:10154000FAE71046F8E700BF38C000002DE9F04F79
:101550009DB0036803934368049383680593C3684D
:101560000693036907934369089383690993C369E1
:101570000A939846DDE908CB059B0193DDE906E275
:10158000049BDFF890A1039C029100930027029B2B
:10159000019EDD590CAB2DBADD515AF8043B05EB29
:1015A00003094FEAF22585EAB21585EA72654D44D2
:1015B0002BEA020302EA0C0983EA09032B44DDE962
:1015C000001543444D404FEA743888EAB40825407A
:1015D00001EA060985EA090588EAB4580437A844EF
:1015E000402F03EB0E054344B646D84640F08180B9
:1015F00047490B914FF0100A51460AF1010A1CAEFF
:101600000AF00F0706EB870701F00F0957F8406C47
:1016100002964FEAB64801F10E07093188EAF6183A
:1016200001F00F011CAE06EB890906EB810107F002
:101630000F0706EB870751F8401C59F8406C57F824
:10164000407C3144029E4FEAF74E88EAD6088EEA83
:10165000774E8EEA972E414471440B9E49F8401C08
:101660004FEAF52905EA020889EAB5192CEA0507C7
:1016700056F804EB0B9687EA080789EA75694F4428
:10168000009E77443944594404EA060E84EA060B66
:101690004FEA7337019E87EAB3070BEA030B0E4448
:1016A0008BEA0E0B87EAB3575F44B046BAF1400F9E
:1016B000009E01963944E34623D1039E0E440499CB
:1016C00006601944059B4160234400998360069B92
:1016D0000B44C360079B43440361089B2B44436155
:1016E000099B134483610A9B6344C3611DB0BDE839
:1016F000F08F0099E346CDE9004194461C462A4606
:1017000045E7944600942A461C4645460B4673E737
:10171000A4B9000064B9000010B50446C8B1702235
:10172000002106F05DFD0B4B0B4A0C490C48C4E947
:1017300000230C4BC4E902130B4BC4E904030B4B0D
:10174000A36103F17453A3F52303A3F69243E3616A
:10175000012010BD85AE67BB67E6096A72F36E3C77
:101760007F520E513AF54FA58C68059BABD9831F6C
:10177000094A0A499368096819670949D8664B6894
:1017800043F080534B60002383F31188BFF36F8FC6
:101790009368186F704700BFEC06002060BE000021
:1017A00000ED00E00F498A684FF030001044EFF37D
:1017B000098C80E8F01F202080F31188BFF36F8F21
:1017C000094F4FF000664A6A8A603E60D06E00237F
:1017D000D36680F3118802F1300090E8F01F8CF39B
:1017E00009887047EC06002004ED00E01EF0040FAD
:1017F0000CBFEFF30880EFF30980816911F8021C38
:101800000229FFD001B507F0DAF801BD43B2002B81
:1018100008DB012200F01F0002FA00F05B09024A17
:1018200042F82300704700BF00E100E043B2002B04
:10183000A8BF03F1604301F10101B8BF064B4FEAB5
:101840004111ACBF03F5614300F00F00C9B2B4BF52
:10185000195483F80013704714ED00E0C0E9181222
:101860000A44203A22F0070208491360009B5360A3
:10187000019B9360029BD3604FF08073D36121F092
:101880000101002391610265C3667047397A000047
:10189000F8B506460C4617461D4600F099F9094B67
:1018A0003C4424F007049E60284684F30988002104
:1018B00063B681F31188BFF36F8F0022002306F017
:1018C000BBF800BFEC060020014910220A607047F7
:1018D00010ED00E072B6404080F31188BFF36F8FC7
:1018E000BFF34F8F30BF62B6BFF36F8F704700BF3B
:1018F00030BFFFF7FDBF00BF0E4A08B50E4B22F008
:101900007F029A60BFF34F8FBFF36F8FD3F88820A9
:1019100022F47002C3F88820EFF3148323F0040349
:1019200083F3148804F032FF04F03AFF00F01EF94C
:1019300004F074FF0000000000ED00E001B572B695
:101940000B4A106A00281EBF0021116209F00CF931
:1019500062B6EFF30580A0F110004FEAC000054920
:10196000014409C99847BDE8014003490847000000
:10197000EC060020F4B40000511B000007F02DF924
:10198000202080F3118808484FF40061401880F34C
:101990000988EFF314800221084380F31488BFF311
:1019A0006F8FFFF7A9FF0000581D0020EFF308809C
:1019B000EFF30981724601B500F04EF801BD00BF9A
:1019C0000C4B9A6A9A6A9A6A920708D55A6B9A6A75
:1019D000120604D518B19A6A22F080029A62054B69
:1019E0009A6A9A6A9A6A9A6A002042F0FF029A6298
:1019F0000870704700ED00E00D4B9A6A9A6A9A6A87
:101A0000920508D59A6B9A6A120404D518B19A6A9D
:101A100022F400429A62064B9A6A9A6AD20558BF2B
:101A20009A6A9A6A002042F47F429A62087070476C
:101A300000ED00E0074B9A6A9A6A9A6A9A6A9A6A73
:101A40009A6A9A6A6FEA02426FEA12429A62002028
:101A5000704700BF00ED00E070B5364B5B688AB0A0
:101A60000E46C3F30803002585F31188BFF36F8F7B
:101A700002F07F41B1F17F4F11D102F00C01082932
:101A80000DD0110701D4064601250022033B8DF835
:101A90000720032B47D8DFE803F0043E423B2E46E5
:101AA000F3E7244BDA6A92073DD4DC6A14F08044F1
:101AB00008D028331B78EBB10DF107010120FFF7A7
:101AC0007FFF04469DF8073093B92022314602A8D3
:101AD00007F032F8099B45B3C3F3080222B96FEA55
:101AE00053236FEA4323099302A9204606F065FFBA
:101AF0000AB070BD104B1B782BB10DF1070101200E
:101B0000FFF77AFFDDE70D4B188884B2002CD9D09F
:101B1000FFF790FFD5E70DF107010020CFE70DF1AA
:101B200007010020ECE70024CCE723F4FF7323F047
:101B30000103D8E700ED00E029ED00E02AED00E028
:101B4000024A536943F010035361704700ED00E00F
:101B5000044B9968586A884203D003494FF0805279
:101B60000A607047EC06002004ED00E00448002302
:101B70002021C2180133302B82F80013F9D17047AD
:101B800000E100E038B504464FF02003EFF3118583
:101B900083F31188BFF36F8F05F0C4F90A4B9B687C
:101BA000A3420BD1094B5A68C2F3080212B9284666
:101BB000FFF7DEFD5A6842F080525A602846BDE8C1
:101BC000384009F05BB900BFEC06002000ED00E0F2
:101BD0001FB5084B0193084B0293084B039301ABCD
:101BE0000093074A074B0121684600F093F805B0BF
:101BF0005DF804FB000000200000000000000B0660
:101C00000000002000000420DFF884C0F0B5064684
:101C1000002710468F4200DBF0BD56F827E0DEF8C3
:101C2000044094B343B1651E2C4219D11F2C17D91F
:101C3000DEF80020154213D1202CC2B2DEF800508D
:101C4000DEF808000FD9B4F1004F0ED8013CB4FA09
:101C500084F4C4F11F046400072A44EA000406D98E
:101C60006FF01500D8E70824F6E73E24F4E725F0E6
:101C70001F05154345F0100544F00104CCF8082079
:101C8000501CCCF80C50CCF810400137C2E700BF14
:101C900090ED00E0034B05225A60BFF34F8FBFF376
:101CA0006F8F704790ED00E0BFF35F8F014B002214
:101CB0005A60704790ED00E013490868082810B595
:101CC0001ED8FFF7F1FF114C49680022904201F144
:101CD0000C0105D10E4B1870FFF7DCFF002010BD82
:101CE000A26051F80C3C23F01F03134343F0100390
:101CF000E36051F8043C43F0010323610132E5E75E
:101D00004FF0FF30EBE700BF64BA000090ED00E059
:101D1000CF0B002010B5034C01232278FFF774FF8E
:101D2000207010BDCF0B002008B5084A00231278A0
:101D3000FFF76AFF10F1160F03D0054B00220728AA
:101D400000DD08BD98601A610130F8E7CF0B002074
:101D500090ED00E0014B1860704700BF4830002054
:101D60004FF02003EFF3118283F31188BFF36F8FDD
:101D700006490123C1F840354FF08041C1F878355C
:101D800082F31188BFF36F8F0020704700E001409D
:101D900020B1034B800143F001031847704700BF97
:101DA00020B8000003490448CA79C2EBC202FEF71A
:101DB00035BE00BFD02E002047C10000F7B5164643
:101DC0001F46044620B96FF00104204603B0F0BD61
:101DD00001A906F0F8F811490246204606F08DFEEA
:101DE00004460028EFD1BFF35B8F0D4D2B68BFF386
:101DF0005B8F5B07E9D4943D072229463846B047FC
:101E0000062806D807222146284606F0C0FEEC71B7
:101E1000DBE70723B0FBF3F0E871D6E74AC1000027
:101E2000642F00202DE9F04188B09C79DDF83880DE
:101E30005D791E79DF7893F802C093F801E01B7892
:101E4000B8F1000F0ED0CDE90638CDE904CE134627
:101E5000CDE90267CDE90045084A05F0E0FD08B08C
:101E6000BDE8F081CDE905E3CDE9037C1346CDE97A
:101E70000156034A009405F0D2FDF0E74DC1000081
:101E800071C100000949BFF35B8F51E8003F43F087
:101E9000010241E800200028F7D1BFF35B8FDB0788
:101EA00003D40348083908F04BBF70475430002072
:101EB0002807002010B5154CE379E3B1BFF35B8F21
:101EC000134C2368BFF35B8F9B0701D400F046FEE1
:101ED000BFF35B8F54E8000F20F4004344E8003266
:101EE000002AF7D1BFF35B8F10F400400CD0FFF74E
:101EF000C9FF002008E001F0BFF8E379002BDDD135
:101F000007F0CDF80028D9D010BD00BFD02E00209A
:101F1000642F0020F0B40278012A04460B4616D044
:101F2000022A2CD08AB9194A0D4602F1100710680E
:101F300051682E4603C60832BA423546F7D11278A8
:101F4000327062885A73120A9A73F0BC70470F4A53
:101F50000D4602F11007106851682E4603C608327C
:101F6000BA423546F7D11278327062685A73C2F3BA
:101F70000721120CDA73120A99731A74E5E7014605
:101F8000F0BC1122184606F0D7BD00BF95C1000075
:101F9000F8B50A4F06460025FB79ECB2A34202D8F9
:101FA0006FF0010408E0C4EBC4013944304606F088
:101FB000BBFE01350028EFD12046F8BDD02E002011
:101FC000436837B50446580508D422690AB1D907D1
:101FD00004D5164D2078EB79834202D8002003B057
:101FE00030BDC0EBC0000023694628440093CDF803
:101FF000033006F099FE0028F0D06368DA0706D4B3
:1020000095F83820082A02D8A2689F2AE6D9DB066C
:1020100001D4236943B9D4E902239A42DED81F2AA6
:10202000DCD9B3F5804FD9D80120D8E7D02E0020D5
:1020300010B501210446083008F031FB2146034A5F
:102040000078BDE81040072306F041BE84BA0000C6
:1020500013B50C4C0146042294F8370001F09CFDA6
:1020600070B9094B18689A8800909B79ADF80420E4
:1020700094F837008DF806300322694601F08CFD94
:1020800002B010BDD02E002008B800002DE9F047A6
:1020900000258768DFF8E890A8463B789D4201DB81
:1020A000BDE8F08707EB8503B3F80100B3F80360E0
:1020B0004FF02003EFF3118A83F31188BFF36F8F82
:1020C00001F034FD044628B98AF31188BFF36F8FFD
:1020D0000135E2E78AF31188BFF36F8F00F1280A18
:1020E00026B34FF02003EFF3118283F31188BFF37F
:1020F0006F8FE3696BB1013BE36182F31188BFF33A
:102100006F8F204601F052FB013E05F0A7F8B6B2F2
:10211000E6E763692BB1A169186860618B4208BF6B
:10212000A06182F31188BFF36F8F1BB9204607F0BF
:10213000DFF8CDE74FF02002EFF3118182F3118831
:10214000BFF36F8FDA68E261C3F80080626AC3F898
:102150000C808AB9C4E9083381F31188BFF36F8F0B
:10216000012104F1300006F0D0FDC307C9D4514667
:10217000484608F0E5FDC4E713606362ECE700BF82
:1021800028070020F8B5064688790C4603F092FB34
:10219000194B83422ED1204603F092FB204603F0D8
:1021A0008FFB164D0C2707FB00535B685BB156B9DC
:1021B000204603F085FB07FB00504368D3E900018C
:1021C0001A7A06F0CEFD204603F07AFB0C2707FBB7
:1021D0000050836873B1204603F072FB78432E549D
:1021E000204603F06DFB07FB0055A868BDE8F840EA
:1021F00005F034B8F8BD00BF683400209402002018
:1022000038B503210446083008F049FAA368057878
:1022100018782146FFF7B6FF25B10348BDE83840DE
:1022200005F01CB838BD00BF982F0020F0B5284B32
:1022300085B005460F46017803F12C0006F05CFDE1
:1022400010F0200F1A4608D003F12C0006F054FDC0
:10225000000602D51B7E8B4231D12E46694616F808
:102260000B3B82F83730304600230093CDF8033023
:1022700006F05AFD0446287864B1314607F02FF87D
:102280000446F8B92878314601F070FB0546E0B104
:1022900004210EE06FF0FF03029302A94FF6FF73D3
:1022A000ADF80C308DF80E3001F060FB054660B1E2
:1022B000032101F099FB3D60204605B0F0BD6FF0B1
:1022C0002204F9E76FF01504F6E76FF00B04F3E76B
:1022D000D02E002038B504210446083008F0DFF97C
:1022E000457800782146FFF74DFF25B10248BDE84B
:1022F000384004F0B3BF38BD982F00202DE9F84FC7
:102300004FF0FF324FF0FF3305461648DFF8588094
:102310000E4608F047F9044600F1080B002100279B
:10232000584608F05EF92775204603F0C9FA4FF0C9
:102330000C0A0AFB00804580204603F0C1FA0AFB24
:1023400000808760204603F0BBFA0AFB008003216F
:102350004760584608F07CF9867005802046BDE845
:10236000F88F00BF6834002094020020F0B51546B5
:1023700087B00C4621B9FFF7C1FF0446002849D0B9
:1023800001220021684608F069FE204603F098FA11
:10239000224E0C2303FB0060C0F808D0204608F052
:1023A00031F91F48214608F020F94FF0FF324FF075
:1023B000FF33684604F078FF074680B1194A1A498E
:1023C0001A484FF4B97305F01DFB1948394605F05A
:1023D00019FB404080F311884FF0030002DF2046D4
:1023E00003F06EFA0C234343F65C56B1204603F02B
:1023F0000FFB092E0CBF6FF03C006FF0040007B01C
:10240000F0BD15B12C603046F9E7204603F000FB23
:102410002846F4E76FF03600F1E700BF9402002091
:10242000B42F0020A6C10000DAC10000E3C1000003
:1024300000C200002DE9F04186B0CDE90201154649
:102440001E460122002302A942F20800CDE904330E
:102450009DF830709DF8348006F0CFFC0446F8B942
:10246000CDE90256B8F1000F0ED035BB154D284608
:1024700006F030FB09238DF8003001238DF80100B0
:102480000195CDF810D00593029B13B9049B03B9B5
:1024900037B1022202A942F2090006F0AEFC04465E
:1024A000204606B0BDE8F08115F83230083B012B1C
:1024B00005D901329642F7D1D8E70246FAE76FF024
:1024C0001504EDE720C2000070B5154E062206F196
:1024D0003101054606F020FB0446E0B1062142F238
:1024E0000500FFF70BFF0446B8B106222946083065
:1024F00008F0B4F82146002242F20500FFF736FF4B
:10250000044640B90622294606F1310006F014FBC4
:10251000012386F83030204670BD6FF03604FAE7AC
:10252000D02E0020F7B5044611F00100154615D055
:102530001C4EC4EBC403E700F35C012B05D03C1B2D
:102540000020335D2B7003B0F0BD072010FB04307A
:102550003044FFF7B9FF0028F1D0F4E74B0710D55E
:10256000104EC4EBC403E700F35C012B05D1072038
:1025700010FB04303044FFF7A7FF3C1B335D2B708A
:10258000E1E70621684601F02FF840B99DF80530D3
:10259000684603F03F038DF80530FFF795FF0123F0
:1025A000EDE700BFD02E002030B5012185B00546F3
:1025B00042F20A00FFF7A2FE0446E8B10830CDB1AE
:1025C000012108F054F80E4B019320460523029395
:1025D0008DF80C5003F074F90A4B0C2202FB00300A
:1025E00001AB43600022214642F20A00FFF7BEFE23
:1025F00005B030BD2946E4E76FF03600F8E700BFCC
:10260000FC2E00209402002030B5174DC0EBC00016
:1026100085B005440C46A9B1002302A920460293C7
:10262000CDF80B3006F080FB60B12146284606F05D
:1026300069FB0E4806F060FB830701D5FFF722FC1B
:1026400005B030BD684606F058FC6846FFF7A0FCB0
:102650000028F7DA6946284606F054FB002CE8D03B
:1026600029462046E3E700BFD02E0020642F00203B
:10267000024BD3F8F4301B69184700BFD02E00205E
:1026800038B505460C4619B9FFF738FE044698B12F
:1026900040F635439D4209D12046FFF7E9FF054644
:1026A00010B1204603F0B4F9284638BD044821464D
:1026B00007F09BFF0025F7E76FF03605F4E700BF52
:1026C000B42F0020F8B5C58A0446807903F0F2F8EB
:1026D000214608F03AFB194B93F852309B062BD554
:1026E000607D01F0BFFB38B3837A063B012B03D931
:1026F000BDE8F84006F0FCBD06F0FAFD052140F605
:102700003540FFF7FBFD0446B0B100F10807012199
:10271000384607F09DFF012606700421384607F071
:1027200097FF002305808670C370214640F6354030
:10273000BDE8F840FFF7A4BFF8BD00BFD02E0020D1
:102740002DE9F341837A062B04461ED1061D30463F
:1027500006F0D2FA85041BD4E37823B13E4B93F8FC
:102760009830180714D5022142F21600FFF7C6FD73
:10277000054668B10221083007F06AFF238803800C
:10278000294642F21600FFF77BFF02B0BDE8F08158
:10279000304606F0B1FA10F4805FDFF8BC80C0F379
:1027A000003720D198F89930D9071CD5072142F27B
:1027B0003200FFF7A3FD0546A8B10721083007F056
:1027C00047FF2388038002238770C370037147711A
:1027D0008771294642F23200FFF752FF80213046CE
:1027E00006F093FAD1E798F898309A0623D501AA13
:1027F000002142F22F00FFF7B9FDE0B9019883688C
:10280000B3F80180B3F8037003F002F9062142F235
:102810002200FFF773FD054668B10621083007F076
:1028200017FF23880380A0F802808780294642F2A0
:102830002200FFF725FFE378012BA6D1304606F0F2
:102840005BFAC305A1D44FF42032002304F15001F8
:10285000024804F045FE98E7D02E0020280700200B
:102860002DE9F84FDFF80481DFF814A1D8F80C3017
:102870003D486FF31033C8F80C3001F03BF8451CAD
:102880003A484FF0FF324FF0FF33294604F08AFFF9
:1028900060B13749374841F29843524605F0B2F8E3
:1028A000404080F311884FF0030002DFDFF8D4903E
:1028B0002E4EA9F1E407A9F11C0B15B904F05AFC3E
:1028C000D4E7F368C3F30433042B42D1337B002BEA
:1028D00042D100220023484607F069FE044660B951
:1028E0002549244841F23A43524605F08BF84040CE
:1028F00080F311884FF0030002DF4FF0FF324FF0FA
:10290000FF33584604F0D0FCD7F8E00020B103F0C4
:102910007FF80023C7F8E030204607F073FEC7F8C1
:10292000E0002046FFF7A4FE98B1144804F096FC9E
:10293000204602F0C5FF21461F20FFF723FCD7F8F1
:10294000E00003F065F800232046C7F8E03003F00C
:102950005FF81436013DB0E7012BFAD13069343805
:1029600001F00CFAF5E700BF6C3000205830002071
:10297000DAC10000E3C100002FC20000982F002040
:10298000A6C10000B42F002070B5037D012B0446C2
:1029900036D0032B66D18389032B0CD8344A3549B2
:1029A000354840F2E64305F02DF8404080F31188A9
:1029B0004FF0030002DF042104F1080007F06FFE6E
:1029C000FF22438806886275A289C6F30B009A42EB
:1029D000E08203D0204603F01BF80FE001F0A6F8D8
:1029E00005460028F6D001F031FA320B6075214619
:1029F000284606F009FC284606F07AFC002070BD47
:102A00008389012B0CD81A4A1A491B4841F22743E3
:102A100004F0F8FF404080F311884FF0030002DF1C
:102A2000022104F1080007F03AFE02781A2A05464E
:102A300011D801239340114A13420CD00C4A10497B
:102A40000D4841F22B4304F0DDFF404080F3118834
:102A50004FF0030002DF0B4A28780323214606F0DB
:102A600036F9B7E702F0D4FF6FF01500C7E700BFF3
:102A7000A6C1000033C20000E3C1000000C008048A
:102A80004CC200000CBB000038B5037D012B04468E
:102A90000CD0214A2149224841F6B20304F0B2FF8A
:102AA000404080F311884FF0030002DFA389012B1F
:102AB0000CD8194A1B491A4841F6B30304F0A2FF87
:102AC000404080F311884FF0030002DF022104F13F
:102AD000080007F0E4FD02781A2A054604D801230D
:102AE0009340114A13420CD10B4A10490C4841F64D
:102AF000B60304F087FF404080F311884FF00300D5
:102B000002DF0B4A28780423214606F0E0F820462D
:102B100002F07EFF002038BDA6C100006AC200009E
:102B2000E3C1000033C2000000C008044DC2000031
:102B300024BB0000084A0346D2F8F40030B9D96833
:102B400039B1196929B1C2F8F43070476FF0440007
:102B500070476FF015007047D02E00200148022109
:102B600006F0D3B8642F00202DE9F3415D4DD5F870
:102B7000F430996811F0010120D101AA40F6034018
:102B8000FFF7F4FB0446002840F0A780019B9B68F8
:102B90001B7883B905F19403184606F0ADF8BFF32E
:102BA0005B8F00F0050053E8002F43E80001002987
:102BB000F9D1BFF35B8F019802F02AFF01AA00212F
:102BC00041F20300FFF7D2FB0446002840F0858065
:102BD000019B454899680822013105F0ADFF019835
:102BE00002F016FF214601AA41F20100FFF7BEFBE9
:102BF0000446002871D1019883685A7885F83820F6
:102C0000D9789A7842EA01226A871A7985F83920B8
:102C1000197ADA7942EA0122AA875A799B7942EA3B
:102C20000323EB8702F0F4FE214601AA41F20200E1
:102C3000FFF79CFB044600284FD1019B2B48996865
:102C40004022013105F078FF019802F0E1FE00F02A
:102C5000A3FC0446002840D195F852309E0606D4C5
:102C600095F844305C0643D46FF0120435E0072138
:102C700040F63340FFF742FB074610B96FF03604C9
:102C80002BE00721083007F0E3FC21460646072227
:102C900005F07DFF1B2333700623747034712246C8
:102CA000F370394640F63340FFF760FB0446A0B9A5
:102CB000012140F63140FFF721FB06460028DDD018
:102CC0000121083007F0D3FC2246314640F631405E
:102CD000FFF74CFB04460028C2D0204602B0BDE8F6
:102CE000F08100BFD02E0020102F0020182F0020D0
:102CF00001AA002142F20300FFF738FB0446002836
:102D0000EBD1019B8A4899680822013105F014FF34
:102D1000019802F07DFE214601AA42F20200FFF76F
:102D200025FB04460028D8D1019B9B68B3F80120FD
:102D3000A5F8A82091B221B1DA787E48114608F0B2
:102D40008DF9019802F064FE95F8446016F02006B3
:102D500000F0A58095F86430180711D501AA00216C
:102D600042F21C00FFF702FB04460028B5D101988F
:102D7000836853F8012F5B68C5E9282302F048FEF9
:102D800095F89830990600F1A580082142F20100DB
:102D9000FFF7B4FA044600283FF470AF0821084456
:102DA00007F056FC95F8982012F0020F14BF2F235D
:102DB0000F23920695F8992048BF43F0400312F084
:102DC000090F18BF43F4006300220370C3F3072305
:102DD00043708270C270027142718271C271214669
:102DE00042F20100FFF7C2FA044600287FF475AFF3
:102DF00095F844309B061ED4B5F8A810D9B901AA9D
:102E000041F20500FFF7B2FA044600287FF465AFEF
:102E1000B5F8A83063B9019B9B685A78997842EA63
:102E20000122A5F8A8209A884248114608F016F910
:102E3000019802F0EDFD082140F60140FFF75EFA2F
:102E4000044600283FF41AAF0821084407F000FCAC
:102E5000102303708823437002230022C3702023B1
:102E60008270027142718271C371214640F6014045
:102E7000FFF77CFA044600287FF42FAF01F004F836
:102E8000044600287FF429AFEB79002B3FF425AFEF
:102E90000421294805F039FFFFF760FE1DE70221F4
:102EA00040F66D40FFF72AFA044600283FF4E6AEEC
:102EB0000221083007F0CCFB012303704670214645
:102EC000324640F66D40FFF751FA044600283FF4C1
:102ED00041AF02E701AA002142F22F00FFF746FAB4
:102EE000044600287FF4F9AE01988368B3F80180A6
:102EF000B3F8037002F08CFD042142F22400FFF7C6
:102F0000FDF9064600283FF4B9AE0421083007F069
:102F10009FFB2246A0F800804780314642F2240001
:102F2000FFF724FA044600283FF42FAFD5E600BF90
:102F3000682F00207C2F0020642F002010B5FFF7A1
:102F400013FE034B1B6813B1BDE81040184710BDBA
:102F5000AC02002070B5254DD5F8F43088B0064697
:102F6000002B3DD0012105F1940005F0CEFEC207F3
:102F700039D405F058FE044678BB1D4B1E60002274
:102F80000023CDE906236FF00803CDE90203CDE964
:102F900000000490174B184918484FF4007204F0D1
:102FA000EBF91749154808F071F8D5F8F430DB68EB
:102FB0009847044688B926B908B0BDE87040FFF7C5
:102FC000D3BD012105F1900005F09FFEC30704D495
:102FD0000C4805F1880107F0B3FE204608B070BD2B
:102FE0006FF01204F9E76FF04404F6E7D02E0020EA
:102FF000AC0200206128000018160020B00200205A
:103000008DC20000280700200048704720C2000041
:1030100037B50C46054618B9ECB16FF0150417E04A
:10302000002369460093CDF8033005F07DFE0028AB
:10303000F2D02B78012BF0D1AB7903F0C003C02B79
:10304000EBD12846FEF7A4FF0028E5DB6FF044042F
:10305000204603B030BD074BDC79012C06D0621C42
:1030600029462046DA71FFF7CFFAF1E76FF00B043B
:10307000EEE700BFD02E002070B586B001AA002177
:1030800041F20900FFF772F91A4E044618B1002305
:10309000F37106B070BD019B9D6804900135ADF8D9
:1030A0001400062204A9284605F036FD18B9019837
:1030B00002F0AEFCEBE7104B186802909B88ADF86D
:1030C0000C30062202A9284605F026FD0028EED085
:1030D000294606220DF1110005F02EFD01988DF80C
:1030E000104002F095FC012304A92046F371FFF77C
:1030F0008BFACEE7D02E00200FB800002DE9F04764
:10310000714C06698AB005464FF0000A04F194003C
:103110001F4688469146CDF80CA005F0EDFD8307CB
:1031200040F1C5802846FEF74BFF002800F0C28022
:103130000F22514606A805F02AFDAB68ADF81830FD
:10314000EB68ADF81A3004F12C0007238DF8253018
:103150008DF826A005F0D0FD800600F1AE80227E1D
:103160002B789A4205D06FF4805104F1940005F059
:10317000E9FD2878207684F8370069680DF11D0292
:10318000FFF7D0F90446002860D1002E3DD0296910
:103190004E4805F0B7FD6B68D9073ED5002E39D0F3
:1031A00013F0100F14BF0423012329698DF81C307C
:1031B0000DF11E0005F0A6FD0F2142F20600FFF7FB
:1031C0009DF8044600287BD00F2206A9083007F09E
:1031D00045FA2146002242F20600FFF7C7F80446EE
:1031E000002833D116B36B68DB0733D40120FFF717
:1031F000DBF904460398002C34D038B3002100F0EA
:10320000F3FB039806F074F820E0049604A9CDF8C7
:103210001360BDE78DF81C60CEE70FB91A0703D520
:1032200002238DF81C30C7E70323FAE76B68C3F36A
:10323000C00203F00103019200933A46129B4946F3
:103240004046FFF7F7F804460028CCD020460AB0E5
:10325000BDE8F0871E4803A9FEF7E8FF04460028F2
:10326000C4D0F3E708B106F043F8F6B96A6882F013
:103270000202C2F340021748092105F072FD6A6894
:103280001448C2F3C002062105F06BFD6A681148BC
:1032900002F00102072105F064FD6A680D48C2F3DF
:1032A0008002082105F05DFDD0E70022E3E76FF022
:1032B0000A04CBE76FF01504C8E76FF04404C5E7D4
:1032C0006FF03604C2E700BFD02E0020F32E00209E
:1032D000E82E0020FC2E002013B5114805F00CFD4F
:1032E00081051AD50E4805F007FD820615D40C4855
:1032F00005F002FD030610D50A4801A9FEF796FF66
:10330000044650B90120FFF74FF918B10198214642
:1033100000F06AFB019805F0EBFF02B010BD00BFA2
:10332000FC2E0020E82E0020F0B5057885B004467C
:103330009DB13C2D40D16FF02001434805F002FDC6
:103340000020FEF785FE0446B0B34572002100F070
:103350004BFB204605F0CCFF2EE00379B0F801606E
:10336000023B051D012BB7B2294602A826D805F05D
:10337000C9FC9DF808300622023B04F111010DF151
:1033800001008DF8083005F0D7FB01238DF80030DF
:10339000E378012B0CD102A8FEF75AFEE378012B4B
:1033A000054604D128486FF0200105F0CBFC65B933
:1033B0000721384605F0AFFD05B0F0BD05F0A2FCD1
:1033C0002946684605F09EFCE2E7284602A920F857
:1033D000706B05F097FC227EE37D43EA0223A5F89B
:1033E0008630A27E637E43EA0223A5F88C30E37E1A
:1033F000227F43EA0223A5F88E30E378EB700024A5
:10340000012B6C7216D1694605F1770005F07AFC44
:10341000297A0E4EC1EBC101314405F17E0005F061
:1034200071FCD6F8A410224601F04003134301D0EA
:10343000FFF752FF0621284600F0D6FA2846FFF78C
:103440007FF9284686E700BFFC2E0020D02E002002
:10345000012838B505460CBF0648074807F0A2F812
:10346000044620B10021083007F0BBF8257520463E
:1034700038BD00BF88340020C833002070B5024634
:103480000B464FF02001EFF3118581F31188BFF354
:103490006F8F0C480021D0F8E040C0F8E01085F3B1
:1034A0001188BFF36F8F24B9BDE870400120FFF78A
:1034B000CFBF012304F108002375A18107F091F823
:1034C000204670BDD02E002070B504460F2C0D464E
:1034D0001046194605D80D2C12D9BDE87040FFF7EB
:1034E000CDBF132C0CD10B4807F05CF8044628B173
:1034F0000021083007F075F801232375204670BDC0
:1035000002460B460DB10448EEE7BDE870400120CD
:10351000FFF79EBFA8340020283400202DE9304852
:1035200000258CB002AA002142F21800FEF71EFF0F
:10353000044650BB029B996804AB03EBC50008220C
:10354000013105F0F9FA0135029802F061FA042D13
:10355000E8D107F065FE4FF47A75A0FB05BC05FBCA
:1035600001CC4FEADB3242EA4C424FEADC33CDE990
:1035700002230823009307486B44202204A905F086
:10358000B8F9002808BF6FF0040420460CB0BDE86D
:10359000308800BF0000002013B5114B93F9633051
:1035A000002B16DA01AA002142F21800FEF7DEFE17
:1035B00068B9019B0B4899680822013105F079F937
:1035C0000446019802F024FA34B1FFF7A7FF02B0D5
:1035D00010BD6FF02200FAE76FF00400F7E700BFBC
:1035E000D02E00200000002038B50A4A04460D46BF
:1035F00005F098F9431C07D1FFF790FF48B9054A39
:103600002946204605F08EF9012814BF6FF004000A
:10361000002038BD000000200023C0E9013301462E
:10362000C360014807F08CBBB833002038B5094BA4
:103630001D680446617A2DB951B92046BDE838406D
:1036400002F044B82B680BB1204698472D69F1E78A
:1036500038BD00BF2403002070B5044600F13406D5
:1036600000220023304606F0A2FF054658B9204646
:1036700005F07DFD04F150010748BDE870400022CF
:10368000002303F02DBF686908B1FFF7C5FF284686
:1036900002F0BEF9E4E700BF280700202DE9F84357
:1036A0004D6904460E4691461F464FF0FF333E4893
:1036B0004FF0FF3203F0F8FDA37A062B43D104212B
:1036C00006F1080006F0DBFF2288B38942EA0932DE
:1036D000043B028043804FF02003EFF3118283F319
:1036E0001188BFF36F8F002D3FD000232B60A3699B
:1036F000002B37D1C4E9055582F31188BFF36F8FD2
:10370000022333753046FEF7B3FF002849D04FF04F
:103710002003EFF3118183F31188BFF36F8F002D26
:1037200039D06369002253B19D4231D12B684ABB25
:10373000A2696361954200D1A36100232B6081F3EC
:103740001188BFF36F8F184803F088FD15B1284624
:10375000FFF762FF1FB1304602F05AF900273846E2
:10376000BDE8F8831D60A561C6E7A36933B103F125
:103770000C08DB680133C8F80030BDE7E36904F1E9
:103780001C08F7E71360A3699D4208BFA261D4E754
:103790001A461B68C7E7D8F80030013BC8F800306C
:1037A000CDE70127DBE700BF7C2F002000487047F2
:1037B0007C2F0020031D70B50446184605F0D1FC8F
:1037C000820519D5B4F88620B4F88810914213D830
:1037D000B4F88A1091420FD3D4E9231291420BD14D
:1037E000BFF35B8F53E8002F22F4007243E80021FF
:1037F0000029F7D1BFF35B8F074B1D6805B970BD7A
:10380000EE683EB1B4F88E30B4F88C20B4F886106F
:103810002046B0472D69F1E724030020F8B507469C
:1038200008460D4605F049FB044610B90024204621
:10383000F8BD094B1E68002EF9D0B3680BB9366984
:10384000F9E72946384698470028EFD0284605F082
:1038500034FB0028F3D1E9E724030020024B1A6867
:1038600002611860704700BF240300202DE9F04179
:103870009846837A062B06460D46174605D008461D
:1038800002F0C6F86FF0380015E062B303F0E0FC18
:10389000164B8342164807BF002200234FF0FF3229
:1038A0004FF0FF3307F07BFA044630B9284602F0A8
:1038B000AFF86FF03600BDE8F081B37A062B06D082
:1038C000284602F0A5F82046FFF7A6FEDAE7002317
:1038D000C0E90178C360686106F13400294606F04A
:1038E00084FE0020E7E74A61F6E700BF38070020C2
:1038F000B83300201A4B10B5002201219A6004460B
:1039000007F0B9FD174B03F14C0005F02AFC1946EE
:1039100008B9012010BD9A7A9AB9BFF35B8F1A1DBE
:1039200052E8000F20F0400C42E800CEBEF1000F3C
:10393000F6D1BFF35B8F420603D51846FFF78CFE26
:10394000E7E78B7A062BE4D1074B04F11400002241
:10395000042107F090FD012384F820300220D9E7EC
:1039600094300020580300208C0300202DE9F04102
:10397000194C04F14C08074640460E4605F0F1FB91
:10398000054610B10020BDE8F0810146A022204686
:1039900005F0FDF8114904F1500007F0E0FB104B71
:1039A000A562C4E90B350125BFF35B8F58E8003FE2
:1039B00048E80052002AF9D1BFF35B8F0722314655
:1039C00004F17000277205F0B7F8064BA570C4F833
:1039D00088302046D7E700BF58030020413C000054
:1039E000FF9100001800280070B5857A8D420446CA
:1039F00000F09780817215B94C3005F0D0FBA37AA6
:103A0000CBB1062B40F08D80A378042B00F0898089
:103A100004F1340007F08CF90021424803F022FF42
:103A200000232046C4E9113300F05CFA2046BDE8CB
:103A30007040FFF7FBBDA378042B05D104F14C00C7
:103A4000BDE8704005F09EBB013D062D69D801A37D
:103A500053F825F0153B00003D3A00003D3A0000C8
:103A6000153B0000153B0000713A0000713A000060
:103A70002D4D00264FF02003EFF3118283F31188C0
:103A8000BFF36F8FE3694BB1013BE36182F31188B0
:103A9000BFF36F8F284603F0E1FBEBE7606928B1C5
:103AA000A16903686361884208BFA36182F311883A
:103AB000BFF36F8F88B14FF02002EFF3118382F3D1
:103AC0001188BFF36F8FC268E261C66083F311880B
:103AD000BFF36F8FFFF7A0FDDCE7204605F06CFB1E
:103AE000A378012B03D104F1500007F040FBBFF392
:103AF0005B8F043454E8003F43F0400344E8003255
:103B0000002AF7D1BFF35B8F0648BDE87040002163
:103B100003F0A8BE637A002B90D02046FFF786FD05
:103B20008CE770BD943000207C2F002010B50B4C2A
:103B3000034604F14C0005F014FB58B1A27A063A92
:103B4000012A08D822889A4205D104F14C0005F0D8
:103B500026FB204610BD0020FCE700BF58030020D4
:103B600010B50C4C034604F14C000A4605F0F9FA76
:103B700008B9002010BDA1780129FAD119462046C4
:103B800005F08DFB0028F4D004F14C0005F007FB94
:103B90002046EFE75803002070B5104C054604F1AD
:103BA0004C00164605F0DDFA08B9002070BDA37878
:103BB000012BFAD151B9A37AB342F6D1237AAB42A1
:103BC000F3D1074805F0EBFA0448EFE70A46204630
:103BD000294605F064FB0028EDD1E6E758030020F4
:103BE000A403002038B5044608460D4605F065F9E3
:103BF00008B3124B93F89830990707D4E37873B160
:103C000029462046BDE8384000F0C6B994F8943003
:103C10009A07F3D5201D05F0A4FA4305EED42946F2
:103C2000204605F068FB28B9AB88A4F89030EB88F3
:103C3000A4F8923038BD6FF01500FBE7D02E0020BD
:103C400073B510F8463C0446A0F15006A3B93046BF
:103C500005F0D4FB204B1D6835B9201F05F092FA02
:103C6000FFF73AFB02B070BD6B681BB114F8471C3C
:103C7000304698472D69EFE710F84E3C012BF1D103
:103C8000BFF35B8FA0F14C0555E8003F23F40072B1
:103C900045E800210029F7D1BFF35B8F9B0514D5C0
:103CA000A36B0093236C019369463046FFF79AFF9C
:103CB000BFF35B8F55E8003F43F4807345E8003263
:103CC000002AF7D1BFF35B8FCCE7044A1068516834
:103CD0006B4603C3E8E700BF2403002000B80000E0
:103CE00038B50D460649002808BF084606F05AFCBC
:103CF000044618B1291D083006F073FC204638BD73
:103D0000E833002001460148FFF7EABF48340020AD
:103D10002DE9F04106464FF0FF334FF0FF3200200F
:103D20000C46FFF7EFFF3378062B05464FF00006F1
:103D300005D001F06DFE35462846BDE8F0814661AC
:103D400000F108070C4E3846B6F8A88006F0BBFC18
:103D500080450CD2B6F8A86054F8081F32463846A1
:103D600006F07CFC3146204606F091FCE4E738463C
:103D700006F0A9FC86B2EFE7D02E0020F8B5837AD2
:103D8000054693B9BFF35B8F031D53E8002F22F064
:103D9000400143E80014002CF7D1BFF35B8F5306BA
:103DA00003D5BDE8F840FFF757BC0022002305F11A
:103DB000340006F0FCFB044660B9204A2049214843
:103DC00040F20C6303F01EFE404080F311884FF078
:103DD000030002DF1C4FA189B7F8A820914207D841
:103DE00000231A4621462846FFF758FC40B1F8BD8B
:103DF00005F10A0621463046FFF78AFF014620B941
:103E00002046BDE8F84001F003BE01230022284609
:103E1000FFF744FC0028F3D0A289B7F8A8309A42F3
:103E200002D800230122DDE721463046FFF770FF6C
:103E300001460028E4D001231A46E8E793C20000B7
:103E40002FC20000E3C10000D02E0020034BC01A97
:103E5000034B40115843C0B2704700BF58030020C5
:103E6000CDCCCCCC08B508B1002008BD044805F085
:103E700078F90028F8D0024805F091F90148F4E7F4
:103E8000A40300205803002010B50B490B4806F08E
:103E900057FF0B49094806F053FF0A49074806F047
:103EA0004FFF05F0BDFE06F07AFB044608B905F0A9
:103EB0003EFB204610BD00BF28030020B833002081
:103EC0003803002048030020044B186818B9044A3E
:103ED0005A600B6070476FF00B007047F8030020CA
:103EE00074BB00002DE9F743284E294FDFF8A4806A
:103EF0000446BE4202D303B0BDE8F083736801A953
:103F00002046984700283CDB019D3388AB86A5F806
:103F10004030414605F11000D6F8089007F01FF92F
:103F2000BFF35B8F05F13003002253E8001F43E825
:103F300000200028F9D1BFF35B8FAA60A26C05F1C5
:103F4000080302BBC4E9113301982C604368C5F82B
:103F50000C901B6803B19847019BBFF35B8F303314
:103F600053E8002F42F0010243E800210029F7D175
:103F7000BFF35B8F019843689B6913B100F1300177
:103F800098470C36B5E71360A364DDE71CB7000063
:103F900040B70000E593000073B5154B1A78013265
:103FA00012F0FF0208BF01221A7005460C460822D3
:103FB0001978122005F0C8F90646B0B10821084466
:103FC00006F046FB2288028062884280A2888280B6
:103FD000E288C28000240094234632460521284608
:103FE00005F025FA204602B070BD6FF00B00FAE72D
:103FF000D00B002007B50438019001A9024802F057
:10400000FBFC03B05DF804FB44330020F0B585B041
:104010000E6805460C4600274FF4205300688DF8C3
:10402000087002A9ADF80A3004F0FFFDA0B142F615
:10403000010328688DF80C7003A9ADF80E3004F068
:10404000F4FD48B1236923B12A8A5988914200D2EC
:104050005A80012005B0F0BD6168286804F0E5FDD4
:1040600010B100232361F4E7E368A0681A783AB13D
:10407000B6F8463081895B1A934201DA0020E9E7FD
:104080000421083006F0E4FA2B8A20610380438083
:10409000074B0093A268019400232946304605F09F
:1040A000C8FA0028EADB2069003818BF0120D1E7F0
:1040B000099900002DE9F341D1F8008006460C462D
:1040C00000684968D8F8045004F0AFFD074600289E
:1040D0003ED128461522314606F0ECF905462075FA
:1040E00048B1E3681B7823B90025284602B0BDE833
:1040F000F0812775F8E7A06806F088FA02210830F9
:1041000006F0A6FA338A20610380124B0093A2685E
:1041100001942B463146404605F08BFA002807DA19
:1041200010F1FF0F26BF4042C0B20E202075DCE721
:104130002369002BD8D0A06805F015FAB8F84650CE
:10414000E3682D1A1878854294BF00250125CCE735
:104150000125CAE78395000073B58B680E461D786C
:10416000044611464AB9284605F01DFA0138C0B286
:1041700004289CBF0F4B53F82010C4F8D410D22D44
:104180000CD123683146186806F006FA054628B1B6
:10419000304601F03DFC284602B070BD54F8040BD7
:1041A0000094054B00683246042105F040F90546AD
:1041B000F1E700BF94BB000077950000D0F898307D
:1041C0003BB100F19C014FF470220248002303F040
:1041D00087B9704728070020F7B5002307460E4629
:1041E0001F480022694602F0D5FB044620B16FF05B
:1041F0000B04204603B0F0BD01462422009804F0D1
:10420000C6FC009D1748AC60C5E90074C5E90744C9
:104210000022002301A9019402F0BCFB04460028FF
:10422000E5D10146DC22019804F0B1FC01980E4B67
:10423000836003221146BC3006F010FF019BBFF3E0
:104240005B8F943353E8002F43E800410029F9D1F4
:10425000BFF35B8F019B43F8045B3360C9E700BF8A
:104260002833002044330020A430002038B5042136
:104270000446006805F021F950F8045CEB691BB9AD
:1042800005F10C0006F054FDEA69C4F8D4202A6A4E
:1042900004F1D403EB6102B92B62BFF35B8FD4F856
:1042A00090300749BFF35B8F1B075EBF1723A4F84D
:1042B0004230E38604F19800BDE8384006F04FBF75
:1042C000AD9C0000F0B5044687B001F108000D4632
:1042D00006F0EDF92368AF68AD890646002118683D
:1042E00006F00BF928B336B318220021684604F013
:1042F0004EFC2368114A1B68009300238DF8083098
:10430000ADF8123001238DF8143031466B4630463B
:104310000397ADF8105005F081F99DF814302BB9D2
:10432000019919B1064A2046FFF716FF002007B091
:10433000F0BD1220FBE70120F9E700BF9D9A0000C5
:10434000019600002DE9F04188461746012104221C
:1043500005461E4605F001FC044678B104210830EC
:1043600006F076F980F80080C670A0F8017021464A
:104370002846034ABDE8F041FFF7EEBEBDE8F081F4
:10438000019600008B892DE9F04104460D46002B73
:1043900059D00121061F05F1080006F080F92E4AC8
:1043A000017807460023944612F8330088421AD158
:1043B000D90002EBC30393F80280B8F1010F20D0BB
:1043C000B8F1050F2DD1BFF35B8F903454E8002F67
:1043D00042F0020344E800300028F7D1BFF35B8FBE
:1043E00012F0020F1CE001330D2BDDD1084605F061
:1043F000DAF840B339B3062300223046FFF7A2FFB4
:1044000021E09034BFF35B8F54E8003F43F001029A
:1044100044E800200028F7D1BFF35B8F13F0010FB1
:1044200011D10CEB0103A9895A7891420ED35B6834
:10443000294630469847B8F1010F034603D110B121
:1044400039780029D8D10020BDE8F081B8F1010FFA
:10445000F9D10423F4E700BFA8BB00002DE9F04325
:10446000044687B001F108000D4606F020F92368E4
:10447000D5F80890AD8906460121186806F03DF888
:10448000002840D0002E40D018220021684604F0B9
:104490007EFB00221321204605F05FFB019080B3D4
:1044A00023681B4A1B68009301238DF814304FF0DA
:1044B000120800276B4631463046ADF810508DF893
:1044C0000880ADF81270CDF80C9005F0A7F89DF8B3
:1044D000145075B1019801F09BFA9DF814303246E2
:1044E00041462046FFF72EFF3D46284607B0BDE86F
:1044F000F08301990029F8D0064A2046FFF72CFEE8
:10450000F3E70E25F1E71225EFE70125EDE700BF00
:104510009D9A0000019600002DE9F0410C7B043CBF
:10452000E4B2022C05468CB0084601D0102C6FD1A5
:104530000421083006F0B3F80DF108080688478812
:10454000011D2246404604F09AFB002862D0002E4E
:104550003AD00024002F36D0BE4235D84FF4205335
:1045600001A940468DF80440ADF8063004F05DFB2B
:10457000002834D16C681422002107A804F007FB3E
:1045800001221121204605F00DFB0990002841D0A1
:1045900001210830CDE9075806F05AF84FF000081D
:1045A0000A9007AB80F800801B4ACDF82C80394672
:1045B000304605F033F80A9B1C781CBB099801F0C3
:1045C00027FA0A2318E03E460123324610212846E6
:1045D000FFF7B8FE002420460CB0BDE8F08142F69B
:1045E000010307A940468DF81C40ADF81E3004F0C9
:1045F0001CFB0028BED01023324610212846FFF7AE
:10460000A1FEE8E7054A09992846FFF7A5FDE1E77D
:104610000424E0E70E24DEE70D40000001960000D0
:104620002DE9F043466887B0142204460D4601A8E0
:10463000002104F0ACFA00220F21304605F0B2FA56
:10464000039060B3DFF86090019405F108074FF024
:104650000108AB89012B05D8124A03992046FFF7C0
:104660007BFD18E0384606F022F801AB4A460146C9
:1046700006468DF8148004F0D1FF9DF81430002B0D
:10468000E7D0039801F0C4F99DF8143032460E21AA
:104690002046FFF757FE002007B0BDE8F0830E204C
:1046A000FAE700BF01960000F99A00002DE9F041F9
:1046B000D0F8048086B005460F46404601211446D6
:1046C0001E4605F01AFF90B39EB31422002101A8E4
:1046D00004F05DFA00222146404605F063FA03909B
:1046E00048B3BDF83030ADF8083001238DF81430F0
:1046F000124A019501AB3146304604F08FFF9DF818
:10470000144074B1039801F083F99DF814303246D7
:1047100039462846FFF716FE0024204606B0BDE8BD
:10472000F081074A03992846FFF716FDF5E71224A2
:10473000F3E70124F1E70E24EFE700BFF99A000048
:10474000019600002DE9F0410C7B043CE4B2022C00
:1047500005468CB0084601D0102C50D104210830F9
:1047600005F09DFF0DF1040806884788011D2246CB
:10477000404604F084FA88B19EB18FB1B74210D39D
:1047800018226C6800210DEB020004F000FA0122EF
:104790000921204605F006FA089068B90E2407E0C2
:1047A0003E460123324608212846FFF7CBFD002470
:1047B00020460CB0BDE8F08101210830CDE9065853
:1047C00005F046FF4FF000080A2309900D4A80F8D3
:1047D000008039468DF82C30304606AB04F01EFFC1
:1047E0009DF82C402CB1089801F012F99DF82C305E
:1047F000D8E7054A08992846FFF7AEFCD8E7042415
:10480000D6E700BFB5400000019600002DE9F04753
:10481000884686B00546062108F1080005F03FFFEE
:10482000078817B3B0F80290B9F1000F1CD04F45BC
:104830001BD88388ADF8023000244FF4205301A91F
:104840006846D8F808A08DF800408DF80440ADF80F
:10485000063004F0EAF9064690B10A233A460621EA
:104860002846FFF76FFD07E04F4601233A46062131
:104870002846FFF767FD0024204606B0BDE8F08714
:1048800098F80C40D5F804800146142201A804F0E1
:104890007EF932460721404605F084F90290E0B1E6
:1048A0000A238DF815300E4A8DF8144001AB4946A5
:1048B0003846CDE9036A019504F0B0FE9DF8154035
:1048C0002CB1029801F0A4F89DF81530CEE7054A06
:1048D00002992846FFF740FCCEE70E24CCE700BF44
:1048E0004997000001960000F0B58B681E8885B0DE
:1048F00005469EB15C8884B1B4420FD3476810224C
:104900000021684604F043F900220521384605F0ED
:1049100049F9019058B90E2007E026460123324696
:1049200004212846FFF70EFD002005B0F0BD21460A
:10493000094A00956B46304604F070FE029C24B98B
:10494000019801F065F80A23E9E7044A019928462D
:10495000FFF702FCE8E700BF6F9800000196000037
:10496000F8B5036805461868BFF35B8FD5F8943037
:10497000BFF35B8FC3F3C0041B071AD48B681B887B
:10498000162B18D90222032105F00CF90646A0B116
:104990000221083005F05CFE172707704470084AB2
:1049A00031462846FFF7D8FB6F87A5F846702046AA
:1049B000F8BD0620FCE70420FAE70E20F8E700BF68
:1049C0000196000013B502460B46084801A90024D1
:1049D000019401F0DFFF014630B90198182204F07C
:1049E000D6F8019802B010BD2046FBE760330020E6
:1049F00007B5019001A9034801F0FEFF03B05DF87F
:104A000004FB00BF603300202DE9F04F044685B061
:104A10009C30884691469A4606F0A9FBD4F89850F7
:104A200000262DB1294B9D421FD1C4F89860354610
:104A300026687168002931D0B2680B6873609142B2
:104A400000D1B360F3694BB1B3F1D80006D01F6851
:104A500007B1D83FD0F89830D3B167BB73680B600B
:104A6000B3687160D3B9B16018E0286920B100F073
:104A7000CFFFD4F898301E61D4F89800002645681E
:104A80004660D0F814B005F0CDF8C4F89860CFE7D0
:104A9000039104F06FFF00280399DEDB3DB120682D
:104AA000CDF800B000684B4642465146A84700206A
:104AB00005B0BDE8F08F17F1D80303D0D7F8D83090
:104AC00003B1D83B38461F46C4E700BF8804002026
:104AD0007FB5039003980C300022002306F05FF9A5
:104AE00048B9039A5568106045B9114803A901F007
:104AF00083FF04B070BD00F08BFFEBE72C68002C47
:104B000038BF00246E6836B16B69009300231A46E3
:104B10000E211846B047284605F084F8002CE4D052
:104B20002368002B38BF002325461C46EAE700BF58
:104B300028330020F0B50F490F4F044601254FF0F0
:104B4000140CA1F10803BB4211D251F8046C0022ED
:104B500006E051F8083C0CFB02339C4208D00132BD
:104B6000AB18964298B2F4D108310546E9E7002027
:104B7000F0BD00BF48B7000058B7000010B50449A9
:104B8000144618461022A04700EAE07010BD00BF8E
:104B9000E10B002070B505468CB015F8012B0446DA
:104BA0009AB102AE0421304602F096FE00962B46E2
:104BB00003A8074A2421FDF735F9042204F108016E
:104BC00003A8FBF72BFF0CB070BD0092EFE700BF0E
:104BD000DBC2000070B503898CB004460BB9438971
:104BE000BBB1254615F8010B294604F05CFA80B1EB
:104BF0002278AAB102AE0421304602F06DFE009682
:104C000003A8084A2B462421FDF70CF903A803F05A
:104C1000B3F90C220021204603F0B9FF0CB070BD9F
:104C20000092EDE7DBC2000038B5084D2B685BB1A0
:104C30000020FFF717F92946044605F05AF92046E7
:104C4000BDE8384004F054BB38BD00BF100500205B
:104C500038B582680B4B9A4205460C4610D10A794A
:104C6000C068096805F075F950B1D4F8C830298AD0
:104C700004EB83020133118101895181C4F8C830EA
:104C8000012038BD3FA1000073B5224A0C4681685F
:104C90009142034602D0012002B070BDA268C668EE
:104CA0004AB922792168304605F053F90028F2D03C
:104CB00005F002F9EFE7E0680028EDD012881B8AC2
:104CC0009A420AD0E7D2E068A36801380433E06072
:104CD0000038A36018BF0120DEE722792168304642
:104CE00005F037F9054680B900900246CDF803007B
:104CF0006946304605F02DF905460028E3D02168C5
:104D0000013005F0D6F823792B70A3685B882B81DE
:104D1000D9E700BF3FA1000010B5074C2278034639
:104D20009A42084604D10722611C03F0F5FE08B13F
:104D3000002010BD2046FCE7A004002010B5064C62
:104D40002378834204D10722601C03F0E5FE08B1FA
:104D5000002010BD2046FCE7B20700208268204BEF
:104D60009A422DE9F04106460D4602D1C468638996
:104D7000C3B90120BDE8F08105F17008287A4146E9
:104D800004F091F948B9174B9C4202D1284605F02E
:104D900021F9204605F090F819E04146384605F023
:104DA00088F814E0238993B12746284617F8011B99
:104DB0003A4604F074FA0028DED120783946FEF72E
:104DC000CFFE20B1857A04F093FA062DD1D0E368A6
:104DD00000216181002BCCD030469847C9E700BF45
:104DE0003FA100000031002037B50D4D044668B9E1
:104DF00000900722CDF803006946681C03F08CFE82
:104E0000002808BF2C46204603B030BD2A4612F8C1
:104E1000011B04F044FA002814BF2C460024F2E7DA
:104E2000A004002010B50C4C6FF0020104F1380012
:104E300005F050F8BFF35B8FA36BBFF35B8FDB070D
:104E400007D506484FF4A472002304F1180102F0BC
:104E500047FB002010BD00BFD00400202807002021
:104E600038B5124D04466FF0020105F1380005F027
:104E700031F8BFF35B8FAB6BBFF35B8FDA0706D5FF
:104E80000B480022002305F1180102F029FB2046FF
:104E9000FFF7AAFF40B1037ADB0705D5BDE838402C
:104EA00000210C3005F09DB938BD00BFD0040020B2
:104EB000280700202DE9F047804689461446FFF771
:104EC00093FF002865D0037A5B0762D54046FEF762
:104ED000BDFF424E074656F8200070B9A289232133
:104EE0000432404604F05EFE46F8270000284BD10D
:104EF0006FF00B052846BDE8F087083005F0E3FBAE
:104F0000A3890433984209D356F827302269596996
:104F1000914203D19A6963699A420BD039B206EB88
:104F20008101404604F0E5FF051EE3DB56F827301B
:104F3000002BD3D056F827000421083005F088FB59
:104F4000A18941800546A0F8009056F82700083056
:104F500005F07EFBA168A289281D03F0EDFDBFF3DB
:104F60005B8F1F4951E8005F45F0010341E80032C3
:104F7000002AF7D1BFF35B8F15F001052CD119483A
:104F8000083905F0DDFEB5E7236943616369836194
:104F9000D0E7A2891B210232404604F003FE0546F9
:104FA0000028A5D000F108070221384605F050FB83
:104FB0000646A18926F8029B384605F049FBA289DE
:104FC000A168304603F0B8FDD4E9042329464046E1
:104FD000BDE8F04704F07CBE00258BE710050020FB
:104FE000FC3000202807002013B5BDF810100B4C32
:104FF000104608294FF42812CDE900420BD8C1F120
:1050000008049C42A8BF1C462246694403F094FD54
:10501000204602B010BD6FF00604F9E71800280022
:105020002DE9F0471546128A894602321D210746AE
:1050300004F0B8FD064608B300F108080221404616
:1050400005F006FB0446298A24F8029B404605F039
:10505000FFFA2A8AE968204603F06EFDAB6833B98F
:10506000314638461A46BDE8F04704F031BE4FF4E9
:1050700070200021FFF7A6FC044610B96FF00B0565
:105080000EE0094B436000234561066183600146E1
:10509000384604F070FE054610B12046FFF7A8FC24
:1050A0002846BDE8F08700BFF39D0000F7B52C4B04
:1050B00082689A4206460D462ED1C768294B9F4208
:1050C0001AD1294C002307226946601C0093CDF8B1
:1050D000033003F021FD78B12146062211F8010BBF
:1050E000FEF75AFDD8B9AB682146DA6811F8010B12
:1050F0005388128804F03CFF3A89AB889A420BD15E
:10510000394611F8010BFEF72BFD044620B1837AD6
:10511000062B07D004F0ECF8012003B0F0BD04F03A
:10512000E7F8E9E77B6923B13146984708B920469B
:10513000F0E7318AAB88AA680139022B89B2204690
:105140000BD1FFF76DFF0646204604F0D1F8002E84
:105150004FF00000E1DB2860DEE7FFF7ABFEF2E78F
:105160003FA1000000310020B207002010B51D4B08
:10517000BFF35B8F012253E8001F002903D143E8EE
:1051800000200028F7D1BFF35B8F24D1164A1749BE
:105190001388174C0020A1421ED300B1138015497B
:1051A000154805F0DCFF0023134914484FF4A4729E
:1051B00002F096F91249134805F0D1FFBFF35B8F57
:1051C000114B53E8002F42F0020243E8002100296E
:1051D000F7D1BFF35B8F10BD486803449BB2083121
:1051E0000120D8E70C050020B007002040B70000E0
:1051F00058B70000AFA40000B0040020280700202A
:10520000B5550000E80400200805002008B580B16D
:105210004168094B99420CD1C3689B881BB9038A2A
:105220001BB101339BB2184608BDFFF783FC431C3A
:10523000F8E70023F7E700BF37A400002DE9F04F9F
:1052400089B09846BDF8485001914FF6FF73002D84
:1052500008BF1D46264B1B888342064617463CD393
:10526000DFF894A001244FF0140B224BAAF108029E
:105270009A4232D25AF8042C2244B24234D294B226
:105280000AF1080AF1E70399384603F0CEFCC0B1F1
:10529000013409F10109A4B25AF8042C4A45EFD9A6
:1052A0005AF8081C14220BFB091103A803F044FC54
:1052B000019BADF81C409C420FD8B442E8D3002FAC
:1052C000E1D1B8F1000F0BD1013DADB21499139BA0
:1052D00003A898470DB10028DAD109B0BDE8F08FD6
:1052E000069A9045D4D1EFE74FF00009D4E700BF0C
:1052F000B007002058B7000048B7000030B5C9B06B
:10530000002304461CAA694604A8CDE90033CDE970
:10531000023303F061F8E8B14FF6FF7101200E4A45
:1053200004AB05F0B9F80D4804A903F0ECF888B116
:105330000A4B082203F11001187811F8015D03F8F7
:10534000015B013A0870F7D124B1044904481022E6
:10535000FBF764FB49B030BD039E0000D10B002079
:10536000C3C2000008B5274805F001FF08B9FFF7E0
:10537000C5FF25492548102203F0CEFB48B9244833
:1053800005F0F5FE23486FF0010104F0A3FD0020B5
:1053900008BD214BBFF35B8F03F1380252E8001FB9
:1053A00041F0010042E8000CBCF1000FF6D1BFF360
:1053B0005B8FCA0715D4194A5A61BFF35B8F9B6B89
:1053C000BFF35B8F9B0706D4114915484FF4A472B5
:1053D000002302F085F80C4912481022FBF71EFB4F
:1053E000D5E79A8AD98A012A4FF6FF7205D89142E9
:1053F000F1D04FF6FF72DA82DFE701209142988206
:10540000DBD0F6E7B0040020D10B0020E10B002038
:10541000E804002008050020D00400200100FFFF60
:1054200028070020C3C200002DE9F041B8B00F46A4
:10543000154620493E986A461E4602F0A1FD002806
:1054400035D0009C01A9204602F0BDFD5CB3019857
:1054500008BB0DF108088DF814004146204603F002
:10546000BEFB0446F8B9CDF81080CFB108AFC0221A
:1054700039463046A847002817DB80080697079072
:105480000D4A04AB4FF6FF71012005F005F82046E8
:1054900038B0BDE8F0810A22002103F09BFAD8E77A
:1054A000CDE90600ECE76FF015000446EFE76FF07A
:1054B0001504ECE7CBC20000894C0000F0B53A4B74
:1054C000BFF35B8F1B68BFF35B8F9A078BB00546FA
:1054D0000E4663D54868059015B1AB7A062B60D1AE
:1054E000048A3CB9FFF726FB044618B96FF00100A7
:1054F0000BB0F0BD3268B2B105A902912B49019100
:1055000001210023009120464FF6FF710593FFF71C
:1055100095FE05980028E9D0048A24B9FFF70AFB14
:1055200004460028E2D0059B07AF186800238DF8D9
:105530001C30394642F60303ADF81E3003F075FB0C
:1055400050B90598C3689B799B0602D46FF015008B
:10555000CEE7FFF75BFE04462DB1324621462846D2
:10556000FFF75EFDC4E76FF0380307930223ADF841
:10557000203042F60213ADF81A300D4B019301238F
:105580000093204602972B4606AA4FF6FF71099614
:105590008DF81850FFF752FE0798A9E76FF00A0040
:1055A000A6E76FF03800A3E7642F00204D9F0000AE
:1055B000AD50000073B500F12005044650F8043CDE
:1055C0000193A0F118066FF00101284604F082FC57
:1055D0000D4B44F8143C0D4B44F8103C01AB00203B
:1055E00044F80C3C042324F8040C24F8020C24F89E
:1055F000083C3146FFF762FF18B90121284604F044
:10560000F0FD02B070BD00BF38BC0000614E00006C
:105610008268294B9A4273B50D68044649D1C66821
:105620003389002B45D03246284612F8011B03F07F
:1056300036FE00283DD02A222146284604F03AFFB3
:10564000032836D03146204604F0C9FB1B4B9E424E
:105650002FD1287A05F17001FFF770FB044640B3A3
:105660000289438953EA020123D02846ADF8042079
:10567000ADF80630FEF7EAFB1149124A142303FB8A
:10568000001304265A60104A9A6001AADA601E824A
:1056900003B203EB830301EB83012846FFF70EFF00
:1056A0003246002104F1080003F071FA2046FFF7AA
:1056B00071FA012002B070BD3FA10000003100204E
:1056C0001405002038BC00009FA2000030B58FB048
:1056D00000F17005044603900123007A8DF8103024
:1056E000294603F0E0FC90B1227ACAB102AC042151
:1056F000204602F0F1F800940A4A242105A82B461E
:10570000FCF790FB05AA08491046FBF7D7F9074AB2
:1057100003AB4FF6FF71012004F0BEFE0FB030BDA9
:105720000092E9E7CEC200002954000011560000A3
:10573000F8B504461048BDF8186015461F4605F038
:1057400016FD10B90120FFF7D9FD0121204604F014
:10575000D4FE102E0CD8C6F110040849BC42A8BFD4
:105760003C4622463144284603F0E6F92046F8BD7F
:105770006FF00604FAE700BFB0040020D10B002050
:1057800070B5C0B0002304460D460D918DF8380069
:105790003F93114A0DAB4FF6FF71012004F07CFEE0
:1057A000ACB103AE22460421304602F095F80096D3
:1057B0000A4A2B46242104A8FCF734FB3F9A42B145
:1057C00092000FA904A8FBF729F940B070BD00941E
:1057D000EEE71146F6E700BF514C0000CEC20000D4
:1057E000F0B504468DB003464FF6FF710120284AFC
:1057F00004F1700604F050FE207A314603F053FCA9
:1058000038B33146207AFFF7BBFF2046FFF7ECFAAA
:10581000054668B3227A083562B302AF04213846E0
:1058200002F05AF8009733461A4A242103A8FCF7DD
:10583000F9FA237A01273BB900230093154A33462E
:10584000242103A8FCF7EEFA3A46294603A8FBF701
:10585000E5F82046FFF7C8FA054638B1207A314608
:1058600003F021FC40B9284604F053FB0DB0F0BD15
:105870000746E1E70127DFE73146681C04F019FB22
:105880006FF0020105F10C0004F024FBEEE700BF0D
:105890005D4D0000D5C20000044B186818B9044AD9
:1058A0005A600B6070476FF00B00704728050020AE
:1058B0003CBD0000014B03EB40107047C833002093
:1058C0008279044B03EB4213DB69C01A024BC01010
:1058D00058437047C8330020ABAAAAAA10B5094B99
:1058E000827903EB42130A689B695C6823689A42D9
:1058F00094BF0A600B60FFF7E3FFD4E9002302FBCB
:10590000003010BDC83300202DE9F3470546019152
:105910001046194616461F4605F084FC8046894607
:105920004FF02003EFF3118A83F31188BFF36F8FD9
:105930006B8A002B4FD02A8A9A423AD90022002340
:10594000284605F02CFA0446002832D08AF3118844
:10595000BFF36F8F019B002B4DD056EA070310D089
:105960007B1C08BFB6F1FF3F0BD001F001FFB8EB85
:10597000000669EB0107002E77F10003BCBF00268B
:105980000027A379DFF8848008EB431332469B6934
:105990001B6801A91D6820463B46A84705462061B3
:1059A00050BBA079214608EB401005F0CEF92C46FB
:1059B0001DE0688A431E6B828AF31188BFF36F8FE4
:1059C0002C8A241AE869182303FB04040F482D1AB3
:1059D0006D11A571BEE78AF31188BFF36F8F324650
:1059E0003B46284605F0DBF904460028B2D12046A4
:1059F00002B0BDE8F0872361002301222360A2806A
:105A0000A381019A2369E281A360F0E7C8330020F3
:105A1000F8B5154D0446002604B9F8BD237927686A
:105A2000013BDBB22371002BF7D1216959B16379B6
:105A30009B0707D4A37905EB431320469B691B689A
:105A40009B6898472661A079A66005EB4013266005
:105A50005B691BB1204698473C46DDE7214605EBD4
:105A6000401005F072F9F7E7C833002008B5094B7C
:105A70001A786AB90121197006200521FBF7D6FEB4
:105A80000620FBF7C3FE044B4FF00042C3F804238B
:105A9000002008BDF10B00200060004003682E4884
:105AA000F0B59E682D4B1340834245D00DD8062B90
:105AB00015D005D89BB1022B40D06FF015003AE00D
:105AC000B3F5801FF9D1012309E02548834237D07F
:105AD000B3F5A00F36D0B3F5800FEED10223D00678
