:020000040800F2
:1000000000000320390D0008890D0008370C000896
:10001000890D0008890D0008890D00080000000006
:10002000000000000000000000000000890D000832
:10003000890D000800000000890D000873340008D5
:10004000890D0008890D0008890D0008890D000838
:10005000890D0008890D00085D4700086747000802
:10006000714700087B47000885470008890D000894
:10007000890D0008890D0008890D0008890D000808
:10008000890D0008890D0008890D0008890D0008F8
:10009000890D0008890D0008890D00088F470008A8
:1000A00029380008793700083D380008890D000814
:1000B00095370008A9370008BD3700081539000832
:1000C000253900083539000845390008890D000830
:1000D000890D0008D13F0008E93F000801400008F1
:1000E000A5470008A9350008890D00085138000807
:1000F0000D38000865380008890D0008890D0008D2
:10010000890D0008890D0008D1370008890D000805
:100110001940000831400008E5370008F9370008A9
:10012000890D0008890D0008890D0008890D000857
:10013000890D0008890D0008890D0008890D000847
:10014000890D0008890D0008890D0008890D000837
:10015000890D0008890D0008890D00084940000834
:100160005539000865390008890D0008890D000817
:10017000890D0008890D0008890D000800000000A5
:10018000890D0008890D00086140000879400008C9
:10019000890D0008890D0008890D0008890D0008E7
:0C01A000890D0008890D0008890D000879
:1001AC0010B5054C237833B9044B13B10448AFF3A5
:1001BC0000800123237010BD04010020000000000A
:1001CC00F45900080C4B43B10C480D4910B5AFF372
:1001DC0000800C48036823B910BD0A48036833B982
:1001EC007047094B002BF7D0BDE810401847064B61
:1001FC00002BF5D0184700BF00000000F459000890
:10020C00080100200401002000000000034613F840
:10021C00012B002AFBD1181A01387047000000008E
:10022C000000000001F0FF01102A2BDB10F0070F7B
:10023C0008D010F8013B013A8B422DD010F0070F7B
:10024C0042B3F6D1F0B441EA012141EA014122F076
:10025C0007047FF000070023F0E80256083C85EA0B
:10026C00010586EA010685FA47F5A3FA87F586FAB1
:10027C0047F6A5FA87F68EB9EED1F0BC01F0FF0176
:10028C0002F0070232B110F8013B013A83EA010394
:10029C0013B1F8D10020704701387047002D06BF0C
:1002AC0035460338073815F0010F07D1013015F426
:1002BC00807F02BF013015F4C03F0130F0BC013823
:1002CC00704700BF53B94AB9002908BF00281CBFAA
:1002DC004FF0FF314FF0FF3000F07AB9ADF1080C60
:1002EC006DE904CE00F006F8DDF804E0DDE9022348
:1002FC0004B070472DE9F0478C460D460446089E25
:10030C00002B51D18A4217466DD9B2FA82FEBEF14A
:10031C00000F0BD0CEF1200C01FA0EF520FA0CFCDC
:10032C0002FA0EF74CEA050C00FA0EF44FEA174AE3
:10033C00250CBCFBFAF81FFA87F90AFB18CC45EA26
:10034C000C4508FB09F3AB420AD9ED1908F1FF3251
:10035C0080F02381AB4240F22081A8F102083D4499
:10036C00ED1AA4B2B5FBFAF00AFB105544EA0544A9
:10037C0000FB09F9A14509D9E41900F1FF3380F01C
:10038C000A81A14540F2078102383C44A4EB0904E0
:10039C0040EA08400021002E61D024FA0EF400231C
:1003AC0034607360BDE8F0878B4207D9002E54D0BF
:1003BC00002186E821000846BDE8F087B3FA83F1F6
:1003CC00002940F08E80AB4202D3824200F2FA80C8
:1003DC00841A65EB03050120AC46002E3FD086E85D
:1003EC001010BDE8F08712B90127B7FBF2F7B7FA86
:1003FC0087FEBEF1000F34D1EB1B3A0C1FFA87FCC1
:10040C000121B3FBF2F8250C02FB183345EA034536
:10041C000CFB08F3AB4207D9ED1908F1FF3002D2FF
:10042C00AB4200F2D1808046ED1AA3B2B5FBF2F0DC
:10043C0002FB105543EA05440CFB00FCA44507D90C
:10044C00E41900F1FF3302D2A44500F2B88018463B
:10045C00A4EB0C0440EA08409DE731463046BDE869
:10046C00F087CEF1200405FA0EF307FA0EF720FA06
:10047C0004F83A0C25FA04F448EA0308B4FBF2F148
:10048C004FEA184502FB11441FFA87FC45EA044564
:10049C0001FB0CF3AB4200FA0EF409D9ED1901F192
:1004AC00FF3080F08A80AB4240F2878002393D44B5
:1004BC00EB1A1FFA88F5B3FBF2F002FB103345EA96
:1004CC00034500FB0CF3AB4207D9ED1900F1FF38E3
:1004DC006FD2AB426DD902383D44EB1A40EA014170
:1004EC008FE7C1F1200722FA07F88B4005FA01F4D7
:1004FC0048EA030320FA07FE4FEA134CFD404EEA8C
:10050C00040EB5FBFCF94FEA1E440CFB19551FFAFF
:10051C0083F844EA054509FB08F4AC4202FA01F2FF
:10052C0000FA01FA08D9ED1809F1FF3043D2AC42B8
:10053C0041D9A9F102091D442D1B1FFA8EFEB5FBF2
:10054C00FCF00CFB10554EEA054400FB08F8A045E6
:10055C0007D9E41800F1FF3529D2A04527D9023874
:10056C001C4440EA0940A4EB0804A0FB02894C455A
:10057C00C6464D4615D312D056B1BAEB0E0364EBFA
:10058C00050404FA07F7CB401F43CC403760746076
:10059C000021BDE8F0871846F8E69046E0E6C24533
:1005AC00EAD2B8EB020E69EB03050138E4E7284602
:1005BC00D7E7404691E78146BEE7014678E7023827
:1005CC003C4445E7084608E7A8F102083D442BE700
:1005DC00704700BF10B504464379022B28D0032B7B
:1005EC0029D0012B02D0154B036001E0134B0360A3
:1005FC000622206803F0C0FEA079012806DD012147
:10060C0003F07EFD0021A07903F0D0FD2068036883
:10061C00DB6898470028F9DA002384F8493084F81D
:10062C004A30A4F85430A4F85230A4F8503010BD1D
:10063C00024B0360DCE7014B0360D9E73403002075
:10064C000171032A00DD0022427183714FF47A7329
:10065C00A0F85630704710B50446FFF7F1FF20465E
:10066C0010BD0000012800D0704708B54FF6FF738D
:10067C00994200D008BD0023032201210148FFF755
:10068C00EAFFF7E72001002070B5044680790128C5
:10069C0002DD002103F08AFD002384F849306379E0
:1006AC00032B21DD0026B4F850300133A4F8503070
:1006BC00E6B994F9490070BD0126206803689B686F
:1006CC0098470028EFD094F8495020680368DB68FD
:1006DC0098472544687294F849300133DBB284F8AA
:1006EC0049303F2BE8DCE8E70026E6E7B4F8543065
:1006FC000133A4F854306FF0020070BD08B50068E7
:10070C0003685B68984708BD30B400254FF6FF734B
:10071C000FE00132D2B2082A09DC03F001045B08B5
:10072C00002CF6D083F4204383F00103F1E701356C
:10073C00EDB28D4204DA4219527A53400122EAE7B3
:10074C001A0242EA132398B230BC704738B50446FB
:10075C0090F849502946FFF7D7FFC0F307226319D9
:10076C005A720135EDB263195872013584F849504B
:10077C00A079012802DD012103F018FD6379032B18
:10078C001DDDA079012802DD002103F00FFD637946
:10079C00032B05DC20680368DB6898470028F9DA2E
:1007AC00002384F8493003F025FDB4F85630184482
:1007BC00E065B4F852300133A4F8523038BD21460C
:1007CC0051F8090B03685B6894F849209847D8E7FF
:1007DC0038B50023072B07D8334AD15C827A914273
:1007EC0013D00133DBB2F5E7002383B10446837ADF
:1007FC00013B0F2B4ED8DFE803F011113C3C2531A7
:10080C004D4D4D4D4D4D4D4D113C0123EDE7B0F887
:10081C0054300133A0F85430012038BD017BC07A2C
:10082C0003F006FFC0F30F15A17B607B03F000FF04
:10083C00C0F30F100544EDB294F860309D422BDDEF
:10084C00022038BD017BC07A03F0F2FEC0F3071022
:10085C0094F86030984221DD022038BD017BC07ACB
:10086C0003F0E6FEC0B294F86030984218DD022026
:10087C0038BD017BC07A03F0DBFE0546A17B607BB3
:10088C0003F0D6FE2844C0B294F86030984209DDDB
:10089C00022038BD002038BD002038BD002038BDF6
:1008AC00002038BD002038BD0C5A0008837A02792C
:1008BC00427283F080038372C172032380F8493043
:1008CC007047F8B504460E46017BC07A03F0B0FEC3
:1008DC000546A17B607B03F0ABFEC0F3C7038646E5
:1008EC0010F0070001D00133DBB2E372032384F86C
:1008FC004930002211460CE094F84930012707FAE0
:10090C0002FC23445F7A27EA0C075F721AE001317C
:10091C0089B28E4521DD4B199BB2C3F3071703F047
:10092C000F0336F8177047FA03F313F0010FE3D0F7
:10093C0094F84930012707FA02FC23445F7A47EA0E
:10094C000C075F720132D2B2072AE0DD94F849300D
:10095C00013384F849300022D9E720B194F84930AA
:10096C00013384F8493094F849500235EDB22046F1
:10097C00FFF7ECFE68B2F8BDF8B504460D46017BF6
:10098C00C07A03F055FEC6B2A17B607B03F050FE2B
:10099C00C0B24300E372032384F849303246331863
:1009AC009A4214DA94F8493035F81210090AE7180B
:1009BC0079720133DBB284F8493015F81270E11802
:1009CC004F72013384F849300132D2B2E7E794F820
:1009DC0049500235EDB22046FFF7B8FE68B2F8BDBB
:1009EC0038B504460D46017BC07A03F021FEC0F3F6
:1009FC00071200F00F00637BFF2B0FD00123834005
:100A0C0035F8120020EA030025F81200062384F8BA
:100A1C0049302046FFF79AFE082038BD012303FA1F
:100A2C0000F035F81230184325F81200EEE770B5D7
:100A3C0004460D46017BC07A03F0FAFDC6B2A17BD9
:100A4C00607B03F0F5FD25F81600062384F8493089
:100A5C002046FFF77BFE082070BDF8B505460C4616
:100A6C00017BC07A03F0E4FD0646A97B687B03F0AA
:100A7C00DFFD002211464FF0070E0AE001279F40D0
:100A8C0034F81C3023EA070324F81C3018E0013139
:100A9C0089B281421EDA8B199BB2C3F3071C03F097
:100AAC000F0305EB0E077F7A174117F0010FE5D006
:100ABC00012707FA03F334F81C703B4324F81C306D
:100ACC000132D2B2072AE2DD0EF1010E5FFA8EFE80
:100ADC000022DCE7062385F849302846FFF736FE6E
:100AEC000820F8BD2DE9F04105468846077B867B3A
:100AFC00002444738673062380F84930B4420FDA1D
:100B0C00630007332B44221D05EB4202517A587ABD
:100B1C0003F08EFD3B1928F813000134E4B2EDE725
:100B2C0095F849400234E4B22846FFF70FFE60B254
:100B3C00BDE8F0812DE9F04104460E461746C1642C
:100B4C0080F860204379032B05DD002D69D0072D3B
:100B5C0007DC002566E0006803689B689847C5B20F
:100B6C00F3E72046FFF790FD05462072627A237961
:100B7C009A4201D0002555E02046FFF729FEB0F13E
:100B8C0000080EDDB8F1FF0F06D041462046FFF7F6
:100B9C008DFE2046FFF7DAFD84F808804FFA88F5C1
:100BAC0040E003F027FBB4F856300344E365002320
:100BBC002372A37A013B0F2B34D8DFE803F008082B
:100BCC000F0F161D3333333333333333242B3A4661
:100BDC0031462046FFF775FE054623E03A4631467E
:100BEC002046FFF7C9FE05461CE03A463146204632
:100BFC00FFF7F6FE054615E03A4631462046FFF76C
:100C0C0016FF05460EE03A4631462046FFF725FF13
:100C1C00054607E03A4631462046FFF763FF054696
:100C2C0000E000252846BDE8F08100BE70470000BA
:100C3C0010B5064C4FF496412046FFF7CBFC03222F
:100C4C0003492046FFF75AFD10BD00BF20010020CC
:100C5C00145A000808B5102202490348FFF76AFF2E
:100C6C0008BD00BF040000202001002008B54FF68D
:100C7C00FF710120FFF7F6FC08BD000030B595B000
:100C8C0000240194264B1A6C42F080521A641B6C9F
:100C9C0003F080530193019B0294224B1A6842F497
:100CAC0040421A601B6803F440430293029B0123E9
:100CBC0003934FF4A0230493022509954FF480036A
:100CCC000A9308230B934FF4A8730C930D950723E9
:100CDC000E9303A801F09AF901F058F90F230F9322
:100CEC00109511944FF4A05312934FF48053139317
:100CFC0005210FA801F0C0FB01F06AFC0A4BA3FB15
:100D0C000030800900F0E4F8042000F007F92246D6
:100D1C0021464FF0FF3000F09BF815B030BD00BFFE
:100D2C000038024000700040D34D6210DFF834D020
:100D3C00002103E00C4B5B58435004310B480C4B27
:100D4C0042189A42F6D30B4A02E0002342F8043BC5
:100D5C00094B9A42F9D302F029FC03F08BFD03F006
:100D6C0073FC70470000032038600008000000206E
:100D7C00040100200401002074060020FEE708B5E1
:100D8C0002F09DFB08BD704710B504460E4B187859
:100D9C004FF47A73B3FBF0F30C4A1068B0FBF3F02A
:100DAC0000F096F868B90F2C01D9012010BD002273
:100DBC0021464FF0FF3000F04BF8054B1C60002033
:100DCC0010BD012010BD00BF240000202C0000200D
:100DDC002800002008B50B4B1A6842F400721A6008
:100DEC001A6842F480621A601A6842F480721A60BF
:100DFC00032000F01BF80F20FFF7C6FFFFF7C3FF1F
:100E0C00002008BD003C0240034A1168034B1B78CC
:100E1C000B441360704700BF6C06002024000020B8
:100E2C00014B1868704700BF6C060020074AD36856
:100E3C0023F4E0631B041B0C000200F4E060184375
:100E4C0040F0BF6040F40030D060704700ED00E02F
:100E5C0030B4164BDB68C3F30223C3F10704042C34
:100E6C0028BF04241D1D062D17D9033B012505FAA7
:100E7C0004F4013C2140994005FA03F3013B134073
:100E8C00194300280BDB0901C9B200F1604000F5E1
:100E9C00614080F8001330BC70470023E6E700F097
:100EAC000F000901C9B2024B1954F4E700ED00E040
:100EBC0014ED00E0002808DB420900F01F000123BC
:100ECC0003FA00F0014B43F82200704700E100E008
:100EDC000138B0F1807F0AD2064B5860F021064AE7
:100EEC0082F823100020986007221A6070470120B6
:100EFC00704700BF10E000E000ED00E0002809DBC7
:100F0C00430900F01F00012202FA00F06033024A8C
:100F1C0042F82300704700BF00E100E0042805D030
:100F2C00054A136823F0040313607047024A1368E0
:100F3C0043F004031360704710E000E0704708B5FD
:100F4C00FFF7FCFF08BD50B110B504460223037136
:100F5C0002F032FA002020612071607110BD012076
:100F6C00704710B404682368012202FA01F123EAE5
:100F7C00010323600271002010BC704790F83530DB
:100F8C00DBB2022B03D0802343650120704705237D
:100F9C0080F835300268136823F0010313600020D9
:100FAC0070470000F0B583B000244BE04FEAD40E3C
:100FBC000EF1080E50F82E2004F00706B6000F278D
:100FCC00B74022EA07020F6907FA06F6324340F8E7
:100FDC002E2046E0092600E0002606FA0EF63243E3
:100FEC000233644E46F82320634B1A68EB4302EA43
:100FFC0003064F6817F4803F01D045EA02065E4AAB
:10100C001660526803EA02064F6817F4003F01D0DD
:10101C0045EA0206584A5660926803EA02064F688F
:10102C0017F4801F01D045EA0206534A9660D26835
:10103C0013404E6816F4001F01D045EA02034E4AD5
:10104C00D36001340F2C00F292800123A3400A6874
:10105C0003EA0205AB42F4D14A68022AA6D0122A4E
:10106C00A4D006684FEA440E032202FA0EF2D243D1
:10107C0016404F6807F0030707FA0EF73E43066069
:10108C004E68771E012F03D9112E01D0122E0FD1CD
:10109C0086681640CF6807FA0EF73E4386604668AE
:1010AC0026EA03034E68C6F30016A640334343609A
:1010BC00C3681A408B6803FA0EF31A43C2604B687C
:1010CC0013F0805FBDD0002301932C4B5A6C42F47B
:1010DC0080425A645B6C03F480430193019BA30828
:1010EC009E1C244A52F8262004F003064FEA860E72
:1010FC000F2606FA0EF622EA0602214FB8423FF4FA
:10110C006BAF204EB04222D006F58066B04220D0A4
:10111C0006F58066B0421ED006F58066B0421CD043
:10112C0006F58066B0421AD006F58066B04218D03B
:10113C0006F58066B04216D006F58066B04214D033
:10114C0006F58066B0423FF445AF0A2645E7012616
:10115C0043E7022641E703263FE704263DE7052641
:10116C003BE7062639E7072637E7082635E703B0BD
:10117C00F0BD00BF00380140003C01400038024087
:10118C00000002400004024012B90904816170475A
:10119C008161704708B5054B5B69034200D108BDFE
:1011AC00024B586103F00CFBF9E700BF003C014017
:1011BC0090F83E30DBB2402B13D00369B3F5804F6F
:1011CC001ED0036D002B2DD0036D012B33D1026883
:1011DC00436CC3F3C81303F0060343F0F10313612C
:1011EC0029E0036D2BB90268436C03F0FE03136115
:1011FC0021E00268436C43F00103DBB213611AE097
:10120C0090F83D30DBB2212B06D00268436C43F0E2
:10121C000103DBB213610EE00268436C03F0FE03C2
:10122C00136108E00268436CC3F3C81303F00603B0
:10123C0043F0F0031361002070470268436CDBB28B
:10124C0013610020704710B48BB090F83E30DAB2C6
:10125C00C16A046B90F83D30DBB2222B0BD000231B
:10126C00099303685A6909929B690993099B0020A9
:10127C000BB010BC7047036D0BB9402A17D0036D2F
:10128C001BB90369B3F5404F19D0438D9BB2002BAA
:10129C0025D1029303685A6902929A690292029AC2
:1012AC001A6842F400721A6000230365DFE70093AA
:1012BC0003685A6900929B690093009BD7E700234F
:1012CC00019303685A6901929A690192019A1A680A
:1012DC0042F480721A60036D01330365C7E7438DD6
:1012EC009BB2012B1AD0438D9BB2022B6BD00268A0
:1012FC00136843F48063136003685A6812F4006F38
:10130C0003D05A6842F480525A6000230893036851
:10131C005A6908929B690893089BC5E711F5803FB1
:10132C0016D004293DD008293BD0122C39D0C36AE1
:10133C00022B30D00268136823F4806313600023FF
:10134C00059303685A6905929B690593059BABE766
:10135C000268136823F48063136003685A6812F4FC
:10136C00006F0CD01A6822F480621A600023039379
:10137C0003685A6903929B690393039B94E70022C9
:10138C0004925A6904929A690492049A1A6842F473
:10139C0000721A6088E70268136843F48063136074
:1013AC00CDE70268136823F480631360002306936F
:1013BC0003685A6906929A690692069A1A6842F468
:1013CC0000721A6070E7C36A022B1BD002681368A4
:1013DC0023F4806313600268136843F400631360A2
:1013EC0003685A6812F4006F03D05A6842F48052B2
:1013FC005A600023079303685A6907929B69079305
:10140C00079B51E70268136843F480631360E7E7B6
:10141C00438D9BB253B10268436A591C41621B78DD
:10142C001361438D9BB2013B9BB2438500207047F7
:10143C00438D9BB253B1436A5A1C426202681269D3
:10144C001A70438D9BB2013B9BB2438500207047C1
:10145C0030B482B090F83D40E4B2282C03D0022086
:10146C0002B030BC7047002932D0002A32D090F83C
:10147C003C40012C30D0012480F83C4004682568A5
:10148C0015F0010F03D1256845F0010525600568AD
:10149C002C6824F400642C60292480F83D4020241E
:1014AC0080F83E400024046441624285C362438D4F
:1014BC000385019403685A6901929A690192019A11
:1014CC0080F83C405A6842F4E0625A602046C7E714
:1014DC000120C5E70120C3E70220C1E730B482B088
:1014EC0090F83D40E4B2282C03D0022002B030BC6E
:1014FC007047002932D0002A32D090F83C40012CA1
:10150C0030D0012480F83C400468256815F0010FA8
:10151C0003D1256845F00105256005682C6824F485
:10152C0000642C602A2480F83D40202480F83E4042
:10153C000024046441624285C362438D0385019497
:10154C0003685A6901929A690192019A80F83C40A9
:10155C005A6842F4E0625A602046C7E70120C5E7AA
:10156C000120C3E70220C1E790F83D30DBB2202B0D
:10157C0001D002207047282380F83D3003681A6898
:10158C0012F0010F03D11A6842F001021A600268CE
:10159C00136843F4806313600268536843F4407328
:1015AC0053600020704770477047704790F83D308B
:1015BC00DAB2438D9BB2FBB110B50168436A5C1C77
:1015CC0044621B780B61438D9BB2013B9BB24385FC
:1015DC00438D9BB20BB9292A01D0002010BD0268A3
:1015EC00536823F48063536021230363282380F81A
:1015FC003D30FFF7DAFFF0E700207047704708B581
:10160C0090F83D30DAB2438D9BB27BB1436A591CE2
:10161C004162016809691970438D9BB2013B9BB211
:10162C004385438D9BB20BB92A2A01D0002008BDFB
:10163C000268536823F480635360222303632823D6
:10164C0080F83D30FFF7DAFFF0E708B503689A69D8
:10165C0012F0040F09D000219B6913F0800F06D003
:10166C00028B02F005F9002008BD0121F4E7828904
:10167C00F7E7000008B590F83D30DBB2C26A042AE7
:10168C0009D0082A07D0212B21D003686FF480627F
:10169C005A61002008BD282BF5D11A4BC362026891
:1016AC00536823F4E063536003686FF480625A61FB
:1016BC000268136823F48063136000230363202201
:1016CC0080F83D2080F83E3002F0FAF8E1E70D4B4F
:1016DC00C36221230363202380F83D30002380F86C
:1016EC003E300268536823F4E063536003686FF480
:1016FC0080625A610268136823F480631360FFF7F9
:10170C0054FFC6E70000FFFF704710B590F83D305E
:10171C00DBB290F83E20D2B2C46A018D09B9212BFC
:10172C0005D0212B3CD0402A38D0002010BD042CF1
:10173C0004D0082C02D014F5803F19D102685368EC
:10174C0023F4E06353600268136843F4007313607E
:10175C0000230363202380F83D3090F83E30DBB249
:10176C00402B15D0002380F83E30FFF71CFFDCE740
:10177C000268536823F4E06353601123036300236E
:10178C0080F83E30202380F83D30FFF70CFFCCE78B
:10179C00002380F83E30FFF7B7FFC6E7222BC4D1F9
:1017AC00438D9BB283B190F83E30DBB2402B11D00D
:1017BC000268436A591C41621B781361438D9BB2CA
:1017CC00013B9BB24385B0E70268536823F4806306
:1017DC005360AAE7036D9BB9C36C012B08D0026858
:1017EC00836CC3F307231361036D013303659CE71B
:1017FC000268836CDBB21361036D0233036594E7FB
:10180C00036D012B18D0036D022B8ED190F83D3057
:10181C00DBB2222B18D090F83D30DBB2212B84D1D7
:10182C000268436A591C41621B781361438D9BB259
:10183C00013B9BB2438578E70268836CDBB2136192
:10184C00036D0133036570E70268136843F480731A
:10185C0013606AE708B5C26A90F83D30DBB2212B01
:10186C0001D0002008BD438D9BB203BB042A04D0D9
:10187C00082A02D012F5803F25D10268536823F460
:10188C00E06353600268136843F400731360002331
:10189C000363202380F83D3090F83E30DBB2402BC0
:1018AC0021D0002380F83E30FFF77DFED9E7026897
:1018BC00436A591C41621B781361438D9BB2013BF7
:1018CC009BB24385CDE70268536823F4E063536011
:1018DC0011230363002380F83E30202380F83D3031
:1018EC00FFF761FEBDE7002380F83E30FFF70CFFE9
:1018FC00B7E7704708B590F83D30DBB2222B01D02A
:10190C00002008BD438D9BB2032B14D9436A5A1C8B
:10191C004262026812691A70438D9BB2013B9BB202
:10192C004385438D9BB2032BEAD10268536823F4A1
:10193C0080635360E4E7012BE2D80268136823F458
:10194C00806313600268536823F4E0635360436A56
:10195C005A1C4262026812691A70438D9BB2013B99
:10196C009BB24385202380F83D300023036390F81D
:10197C003E30DBB2402B05D0002380F83E30FFF721
:10198C0013FEBDE7002380F83E30FFF7B2FFB7E748
:10199C0008B5C26A438D9BB2042B14D0438D9BB205
:1019AC00032B21D0438D9BB2022B33D0436A5A1C9C
:1019BC004262026812691A70438D9BB2013B9BB262
:1019CC004385002008BD0268536823F4806353608C
:1019DC00436A5A1C4262026812691A70438D9BB2A8
:1019EC00013B9BB24385ECE70268536823F48063A8
:1019FC0053600268136823F480631360436A5A1CB3
:101A0C004262026812691A70438D9BB2013B9BB211
:101A1C004385D6E7013A012A2FD90268136843F4AB
:101A2C0000731360436A5A1C4262026812691A708E
:101A3C00438D9BB2013B9BB24385436A5A1C426265
:101A4C00026812691A70438D9BB2013B9BB24385AD
:101A5C000268536823F440735360202380F83D30B0
:101A6C000023036390F83E30DBB2402B10D00023F0
:101A7C0080F83E30FFF798FDA3E70268136823F463
:101A8C00806313600268136843F480731360C9E7C2
:101A9C00002380F83E30FFF72CFF92E770470000E0
:101AAC0010B5044690F83D30293B012B37D990F8FE
:101ABC003D30DBB2602B07D003685B6813F4006F1A
:101ACC0002D1202380F83D300023236384F83E307C
:101ADC002268136823F40063136023685A6812F4B5
:101AEC00006F3FD05A6822F400625A60626B92F821
:101AFC003530DBB2012B18D03A4B1365606BFFF716
:101B0C003DFA00283FD02268136823F001031360CC
:101B1C00202384F83D30606B036D984733E000233D
:101B2C000363282380F83D30D2E7A36B2D4A1A6556
:101B3C00A06BFFF723FA30B323685A6912F0400FF9
:101B4C0004D0626A511C61621B69137022681368AD
:101B5C0023F001031360202384F83D30A06B036D48
:101B6C00984710E094F83D20D2B2602A11D05A69FF
:101B7C0012F0400F04D0626A511C61621B69137031
:101B8C00204601F0B5FE94F83D30DBB2282B17D07F
:101B9C0010BD202284F83D20002222645A6912F0E4
:101BAC00400F04D0626A511C61621B691370226879
:101BBC00136823F0010313602046FFF76FFFE2E781
:101BCC00236C13F0040FE3D0074BE3620023236371
:101BDC00202284F83D2084F83E30204601F070FE2F
:101BEC00D6E700BF391F00080000FFFF10B582B018
:101BFC0090F83D30DBB201684A6822F4E0624A603A
:101C0C0000220192026851690191116841F00101B1
:101C1C001160019A01680A6822F480620A60016806
:101C2C004A6812F4006F0ED090F83D20D2B2222AEE
:101C3C0044D090F83D20D2B22A2A3FD0426B126891
:101C4C00526892B24285428D92B202B34A6912F046
:101C5C00040F09D0426A541C446209691170428D08
:101C6C0092B2013A92B242850268516911F0400F6A
:101C7C0009D0416A4C1C446212690A70428D92B2BE
:101C8C00013A92B24285026C42F004020264026C88
:101C9C00D2B9282B1BD02A2B19D0292B17D0026B89
:101CAC00222A01D0222B1DD100230363202280F88D
:101CBC003D2080F83E30FFF7A1FC13E0826B1268E8
:101CCC00526892B24285BEE7FFF7EAFE0AE0074B84
:101CDC00C36200230363202280F83D2080F83E304D
:101CEC0001F0EEFD002002B010BD00BF0000FFFFB0
:101CFC00F8B5054603689F695C695E6890F83E30EC
:101D0C00DBB2102B25D0402B23D04C4B234013B1EE
:101D1C0016F4007F6ED14A4B234013B116F4007FAA
:101D2C006BD1484B3B40002B6FD0474B234033B11A
:101D3C0016F4806F03D0454B2340002B61D0434BEE
:101D4C00234053B316F4007F27D02846FFF760FBDF
:101D5C00F8BD14F0011F02D016F4007F1ED13C4BCD
:101D6C00234013B116F4007F1CD1344B234013B124
:101D7C0016F4007F1AD1334B3B401BB3324B23403C
:101D8C002BB116F4806F02D0304B234093B12F4B04
:101D9C00234013B116F4007F10D1F8BD2846FFF78D
:101DAC0007FAE8E72846FFF748FAE4E72846FFF782
:101DBC004AFAE0E72846FFF7A8FCF8BD2846FFF7EB
:101DCC0049FDF8BD234B23402BB116F4806F02D094
:101DDC001E4B234053B11D4B2340002BDDD016F47A
:101DEC00007FDAD02846FFF7D3FDF8BD2846FFF771
:101DFC0081FDF8BDFFF729FCF8BD2846FFF7F6FE7C
:101E0C00F8BD2846FFF7D2FBF8BD124B23402BB18F
:101E1C0016F4806F02D00D4B234053B10B4B234073
:101E2C00002BBAD016F4007FB7D02846FFF700FB82
:101E3C00B3E72846FFF7E3FBF8BD00BF0200010043
:101E4C0010000100040010008000010004000100DB
:101E5C00080001004000010070B5044603685D698C
:101E6C005E68314A154209D016F4807F06D0026CA8
:101E7C0042F0010202646FF480725A6115F4813FE2
:101E8C000AD016F4807F07D0236C43F0020323643E
:101E9C0023686FF400725A6115F4823F1AD016F45D
:101EAC00807F17D094F83E30DBB2628D91B294F8FB
:101EBC003D20D2B2206B202B1DD0236C43F00403A9
:101ECC00236494F83E30DBB2102B22D023686FF4DD
:101EDC0080625A6115F4843F0AD016F4807F07D0D3
:101EEC00236C43F00803236423686FF400625A6187
:101EFC00236CA3B970BD0029DFD1212A05D0292A72
:101F0C0003D0282AD9D12128D7D12046FFF7B2FBFC
:101F1C00E0E72268136843F400731360D6E72046A9
:101F2C00FFF7BEFDE6E700BF0001010008B5806BBE
:101F3C000268136823F48063136000234385426BAB
:101F4C001365826B136590F83D30DBB2602B0DD0BE
:101F5C00202380F83D30002380F83E30026813685F
:101F6C0023F00103136001F0C3FC08BD202380F8AB
:101F7C003D30002380F83E3003640268136823F080
:101F8C0001031360FFF78AFD08BD000010B582B095
:101F9C0000230193194B1A6C42F080521A641B6C8B
:101FAC0003F080530193019B0122154B1A60FEF73D
:101FBC0037FF0446134B5B6813F4803F08D1FEF7E0
:101FCC002FFF001BB0F57A7FF4D9032002B010BDAF
:101FDC0001220D4B1A60FEF723FF0446094B5B6888
:101FEC0013F4003F07D1FEF71BFF001BB0F57A7FFF
:101FFC00F4D90320EAE70020E8E700BF00380240EC
:10200C0040000E420070004044000E42002800F0D8
:10201C00BB8170B582B00446036813F0010F3BD04E
:10202C00A74B9B6803F00C03042B2CD0A44B9B6890
:10203C0003F00C03082B21D06368B3F5803F4FD01D
:10204C00B3F5A02F52D09E4B1A6822F480321A603E
:10205C001A6822F480221A606368002B50D0FEF7B5
:10206C00DFFE0546964B1B6813F4003F14D1FEF7B8
:10207C00D7FE401B6428F5D903208AE1904B5B689E
:10208C0013F4800FD8D08E4B1B6813F4003F03D091
:10209C006368002B00F07A81236813F0020F55D08F
:1020AC00874B9B6813F00C0F3ED0854B9B6803F05D
:1020BC000C03082B33D0E368002B68D00122814B32
:1020CC001A60FEF7ADFE05467D4B1B6813F0020F40
:1020DC0054D1FEF7A5FE401B0228F5D9032058E188
:1020EC00774A136843F480331360B5E7744B1A686E
:1020FC0042F480221A601A6842F480321A60ABE70C
:10210C00FEF78EFE05466E4B1B6813F4003FC3D0E2
:10211C00FEF786FE401B6428F5D9032039E1684B95
:10212C005B6813F4800FC6D1654B1B6813F0020F6C
:10213C0004D0E368012B01D001202AE1604A136826
:10214C0023F0F803216943EAC1031360236813F0F9
:10215C00080F40D0636963B301225B4B1A60FEF732
:10216C005FFE0546564B5B6F13F0020F33D1FEF743
:10217C0057FE401B0228F5D903200AE1504A136888
:10218C0023F0F803216943EAC1031360DEE7002260
:10219C004C4B1A60FEF744FE0546494B1B6813F086
:1021AC00020FD3D0FEF73CFE401B0228F5D90320CA
:1021BC00EFE00022444B1A60FEF732FE0546404B1E
:1021CC005B6F13F0020F06D0FEF72AFE401B0228AD
:1021DC00F5D90320DDE0236813F0040F79D0384BD8
:1021EC001B6C13F0805F33D100230193344B1A6CBA
:1021FC0042F080521A641B6C03F080530193019BD4
:10220C000125324B1B6813F4807F23D0A368012B6C
:10221C0034D0052B38D02A4B1A6F22F001021A67E2
:10222C001A6F22F004021A67A368002B36D0FEF74F
:10223C00F7FD0646224B1B6F13F0020F48D1FEF739
:10224C00EFFD801B41F288339842F3D90320A0E0C4
:10225C000025D6E71D4A136843F480731360FEF71C
:10226C00DFFD0646194B1B6813F4807FCED1FEF7B9
:10227C00D7FD801B0228F5D903208AE0104A136F82
:10228C0043F001031367CFE70D4B1A6F42F00402C2
:10229C001A671A6F42F001021A67C5E7FEF7C0FD14
:1022AC000646074B1B6F13F0020F11D0FEF7B8FD5B
:1022BC00801B41F288339842F3D9032069E000BFB8
:1022CC000038024000004742800E47420070004038
:1022DC00E5B9A369002B5BD0304A926802F00C027E
:1022EC00082A58D0022B17D000222D4B1A60FEF76B
:1022FC0097FD0446294B1B6813F0007F42D0FEF774
:10230C008FFD001B0228F5D9032042E0234A136CF1
:10231C0023F080531364DCE70022214B1A60FEF794
:10232C007FFD05461D4B1B6813F0007F06D0FEF7A2
:10233C0077FD401B0228F5D903202AE0E369226AC5
:10234C001343626A43EA8213A26A5208013A43EACF
:10235C000243E26A43EA0263104A53600122104BC3
:10236C001A60FEF75DFD04460C4B1B6813F0007FF2
:10237C0006D1FEF755FD001B0228F5D9032008E015
:10238C00002006E0002004E001207047012000E05E
:10239C00002002B070BD0120FBE700BF00380240F6
:1023AC0060004742F8B5314B9B6803F00C03042BDB
:1023BC0059D0082B01D02E48F8BD2C4B5A6802F08E
:1023CC003F025B6813F4800F2AD0284B5B68C3F381
:1023DC0088131E4600275C010025E41A65EB0705EF
:1023EC00A90141EA9461A001001B61EB0501CB003E
:1023FC0043EA5073C400A01943EB07014B0243EAB4
:10240C00D0534402204619460023FDF75BFF174BBF
:10241C005B68C3F3014301335B00B0FBF3F0F8BD21
:10242C00124B5B68C3F388131E4600275C01002522
:10243C00E41A65EB0705A90141EA9461A001001BB0
:10244C0061EB0501CB0043EA5073C400A01943EBC8
:10245C0007018B0243EA905384022046194600235D
:10246C00FDF730FFD3E70348F8BD00BF003802404A
:10247C000024F40000127A00002800F09D8070B552
:10248C0004464F4B1B6803F00F038B4209D2CBB2AF
:10249C004B4A1370136803F00F03994201D00120CB
:1024AC0070BD236813F0020F17D013F0040F04D083
:1024BC00444A936843F4E0539360236813F0080F85
:1024CC0004D0404A936843F4604393603D4A936858
:1024DC0023F0F003A068034393600D46236813F0C8
:1024EC00010F32D06368012B21D09A1E012A25D905
:1024FC00344A126812F0020F60D032498A6822F016
:10250C00030213438B60FEF78BFC06462D4B9B6836
:10251C0003F00C036268B3EB820F16D0FEF780FC5D
:10252C00801B41F288339842F0D9032070BD254AB4
:10253C00126812F4003FE0D1012070BD214A1268EC
:10254C0012F0007FD9D1012070BD1D4B1B6803F028
:10255C000F039D4209D2EAB2194B1A701B6803F0A3
:10256C000F039D4201D0012070BD236813F0040FAE
:10257C0006D0144A936823F4E053E1680B4393604C
:10258C00236813F0080F07D00E4A936823F46043B6
:10259C00216943EAC1039360FFF704FF094B9B6871
:1025AC00C3F30313084AD35CD840084B18600F20C0
:1025BC00FEF7EAFB002070BD01207047012070BDC2
:1025CC00003C024000380240FC5D00082C0000205A
:1025DC00014B1868704700BF2C00002008B5FFF7AE
:1025EC00F7FF044B9B68C3F38223034AD35CD840A8
:1025FC0008BD00BF003802400C5E000808B5FFF7AC
:10260C00E7FF044B9B68C3F34233034AD35CD840C7
:10261C0008BD00BF003802400C5E000810B504462F
:10262C000368DA6812F4807F03D09B6813F4805F30
:10263C000FD12368DA6812F4007F03D09B6813F47F
:10264C00005F0FD14FF400320B4B5A6101236377BB
:10265C0010BD00F097FF2268D368DBB263F4C0733F
:10266C00D360E6E7204600F009F82268D368DBB2B5
:10267C0063F42073D360E5E7003C0140704710B56C
:10268C000446022380F839300368196A41F21112AA
:10269C00114208D1196A40F24442114203D11A681E
:1026AC0022F001021A60204600F0A8FE002084F8F7
:1026BC00390084F8380010BD70477047704710B56A
:1026CC00044603681A6912F0020F11D0DA6812F08E
:1026DC00020F0DD06FF002021A610123037603681A
:1026EC009B6913F0030F70D0FFF7E6FF00232376EE
:1026FC0023681A6912F0040F12D0DA6812F0040F72
:10270C000ED06FF004021A610223237623689B69B2
:10271C0013F4407F5FD02046FFF7CEFF00232376D3
:10272C0023681A6912F0080F12D0DA6812F0080F39
:10273C000ED06FF008021A61042323762368DB693C
:10274C0013F0030F4ED02046FFF7B6FF002323767D
:10275C0023681A6912F0100F12D0DA6812F0100FF9
:10276C000ED06FF010021A61082323762368DB6900
:10277C0013F4407F3DD02046FFF79EFF00232376C5
:10278C0023681A6912F0010F03D0DA6812F0010FF6
:10279C0036D123681A6912F0800F03D0DA6812F070
:1027AC00800F34D123681A6912F0400F03D0DA6815
:1027BC0012F0400F32D123681A6912F0200F03D0A7
:1027CC00DA6812F0200F30D110BD00F0BBFF2046AC
:1027DC00FFF773FF8AE7204600F0B4FF2046FFF7AF
:1027EC006CFF9BE7204600F0ADFF2046FFF765FF2E
:1027FC00ACE7204600F0A6FF2046FFF75EFFBDE7E2
:10280C006FF001021A61204600F0A9FFC1E76FF0DA
:10281C0080021A61204600F08AF8C3E76FF040028C
:10282C001A612046FFF74AFFC5E76FF020021A61D4
:10283C00204600F07BF8C7E710B4012303FA01F43B
:10284C00036A23EA04030362036A8A4013430362A4
:10285C0010BC704710B5044600220068FFF7ECFF6F
:10286C002368174A934229D002F58062934223D001
:10287C0000226AB1196A41F21112114208D1196A87
:10288C0040F24442114203D15A6C22F400425A6481
:10289C002368196A41F21112114208D1196A40F2E7
:1028AC004442114203D11A6822F001021A6001233A
:1028BC0084F83930002010BD0122DAE70122D8E774
:1028CC000000014010B4042303FA01F4036A23EA64
:1028DC0004030362036A8A401343036210BC70470B
:1028EC0010B5044600220068FFF7ECFF2368196A54
:1028FC0041F21112114208D1196A40F244421142BC
:10290C0003D15A6C22F400425A642368196A41F2CA
:10291C001112114208D1196A40F24442114203D1FA
:10292C001A6822F001021A60002010BD704770472F
:10293C000268D36823F49073D3600268536923F060
:10294C0001035361202380F83A30704790F83930F6
:10295C00DBB2212B01D0022070478368B3F5805F76
:10296C0017D00268036A591C01621B785360C38C30
:10297C009BB2013B9BB2C384DBB90268D36823F0E2
:10298C008003D3600268D36843F04003D360002017
:10299C007047036A02681B88C3F30803536003691A
:1029AC001BB9036A02330362E1E7036A0133036272
:1029BC00DDE70020704700002DE9F047044602686F
:1029CC00136923F44053C1680B4313610168CB684E
:1029DC0023F4164323F00C038268006902436069F8
:1029EC000243E06902431343CB602268536923F42A
:1029FC004073A1690B435361E369B3F5004F62D097
:102A0C00D4F80080BB4B984500F01B8103F5806324
:102A1C00984500F01681FFF7E1FD00EB800000EB1C
:102A2C0080006568AD00B0FBF5F5B34FA7FB05352D
:102A3C006D092E01FFF7D2FD00EB800000EB80004A
:102A4C006568AD00B0FBF5FAFFF7C8FD00EB800040
:102A5C0000EB80006568AD00B0FBF5F5A7FB053514
:102A6C006D094FF0640909FB15A52D013235A7FB43
:102A7C0005356D0905F0F0053544FFF7AFFD00EBAA
:102A8C00800000EB80006668B600B0FBF6F6FFF73E
:102A9C00A5FD00EB800000EB800063689B00B0FBA1
:102AAC00F3F0A7FB0030400909FB10694FEA091944
:102ABC0009F13209A7FB0937C7F343172F44C8F8AC
:102ACC000870BDE8F087D4F8008003F1804303F56B
:102ADC00104398455CD003F58063984558D0FFF7B8
:102AEC007DFD00EB800000EB800065686D00B0FBA5
:102AFC00F5F5814FA7FB05356D092E01FFF76EFD2E
:102B0C0000EB800000EB800065686D00B0FBF5FA0F
:102B1C00FFF764FD00EB800000EB800065686D0042
:102B2C00B0FBF5F5A7FB05356D094FF0640909FB02
:102B3C0015A5ED003235A7FB05356D096D0005F4C3
:102B4C00F8753544FFF74AFD00EB800000EB800080
:102B5C0066687600B0FBF6F6FFF740FD00EB8000F0
:102B6C0000EB800063685B00B0FBF3F3A7FB03236F
:102B7C005B0909FB13694FEAC90909F13209A7FB83
:102B8C000937C7F342172F44C8F80870BDE8F0871F
:102B9C00FFF734FD00EB800000EB800065686D00F2
:102BAC00B0FBF5F5544FA7FB05356D092E01FFF76A
:102BBC0025FD00EB800000EB800065686D00B0FB2C
:102BCC00F5FAFFF71BFD00EB800000EB8000656859
:102BDC006D00B0FBF5F5A7FB05356D094FF06409E9
:102BEC0009FB15A5ED003235A7FB05356D096D0008
:102BFC0005F4F8753544FFF701FD00EB800000EBA0
:102C0C00800066687600B0FBF6F6FFF7F7FC00EB89
:102C1C00800000EB800063685B00B0FBF3F3A7FB64
:102C2C0003235B0909FB13694FEAC90909F132094E
:102C3C00A7FB0937C7F342172F44C8F80870BDE843
:102C4C00F087FFF7DBFC00EB800000EB8000656891
:102C5C00AD00B0FBF5F5284FA7FB05356D092E012E
:102C6C00FFF7CCFC00EB800000EB80006568AD004A
:102C7C00B0FBF5FAFFF7C2FC00EB800000EB800024
:102C8C006568AD00B0FBF5F5A7FB05356D094FF098
:102C9C00640909FB15A52D013235A7FB05356D0916
:102CAC0005F0F0053544FFF7A9FC00EB800000EBC4
:102CBC0080006668B600B0FBF6F6FFF79FFC00EBF1
:102CCC00800000EB800063689B00B0FBF3F3A7FB74
:102CDC0003235B0909FB13694FEA091909F132094E
:102CEC00A7FB0937C7F343172F44C8F80870BDE892
:102CFC00F08700BF001001401F85EB512DE9F0411A
:102D0C0005460F4616469846069C2B681B6837EA04
:102D1C0003030CBF01230023B3421ED1B4F1FF3FC8
:102D2C00F3D02CB1FEF77CF8A0EB08008442ECD277
:102D3C002A68D36823F4D073D3602A68536923F0CC
:102D4C0001035361202385F8393085F83A3000238C
:102D5C0085F838300320BDE8F0810020BDE8F08113
:102D6C00704758B310B5044690F839300BB3242390
:102D7C0084F839302268D36823F40053D36020469A
:102D8C00FFF71AFE2268136923F49043136122683B
:102D9C00536923F02A0353612268D36843F4005328
:102DAC00D3600020E063202384F8393084F83A3073
:102DBC0010BD80F83830FFF7D3FFD8E701207047FB
:102DCC002DE9F04182B01E4690F83930DBB2202B51
:102DDC0004D00223184602B0BDE8F08104460D462B
:102DEC009046002955D0002A55D090F83830012B48
:102DFC0001D10223EEE7012380F838300023C363AE
:102E0C00212380F83930FEF70BF80746A4F824800C
:102E1C00A4F8268010E000963B4600228021204634
:102E2C00FFF76CFF002838D122682B88C3F3080306
:102E3C0053602369CBB90235E38C9BB2BBB1E38CF5
:102E4C009BB2013B9BB2E384A368B3F5805FE2D0F5
:102E5C0000963B46002280212046FFF74FFFF0B939
:102E6C0023682A785A600135E6E70135E4E70096D5
:102E7C003B46002240212046FFF740FF034608B1A5
:102E8C000323A7E7202284F83920002284F8382075
:102E9C00A0E701239EE701239CE703239AE7032382
:102EAC0098E790F83930DBB2202B01D00220704724
:102EBC00A9B1B2B190F83830012B14D001628284E0
:102ECC00C2840023C363212280F8392080F8383073
:102EDC000168CA6842F08002CA6018467047012037
:102EEC007047012070470220704790F83A30DBB2EF
:102EFC00202B01D002207047D1B1DAB190F83830D4
:102F0C00012B19D081628285C2850023C3632222E2
:102F1C0080F83A2080F8383001684A6942F00102A2
:102F2C004A610168CA6842F49072CA6018467047D8
:102F3C0001207047012070470220704708B50168D6
:102F4C00CB6823F04003CB60202380F8393000F0AD
:102F5C00F3FF002008BD08B590F83A30DBB2222B05
:102F6C0001D0022008BD8368B3F5805F0FD00369E0
:102F7C000BBB836A5A1C8262026852681A70C38D3A
:102F8C009BB2013B9BB2C385F3B1002008BD826AA2
:102F9C00036943B903685B68C3F308031380836A4E
:102FAC0002338362EBE703685B68DBB21380836AEE
:102FBC0001338362E3E7826A531C836203685B68B4
:102FCC0003F07F031370DAE70268D36823F490737D
:102FDC00D3600268536923F001035361202380F806
:102FEC003A3000F097FF002008BD000010B50446F1
:102FFC0002681368D168526913F00F0005D113F001
:10300C00200F02D011F0200F53D1002867D012F0FE
:10301C00010202D111F4907F61D013F0010F06D0A0
:10302C0011F4807F03D0E06B40F00100E06313F0FB
:10303C00040F04D01AB1E06B40F00200E06313F00F
:10304C00020F04D01AB1E06B40F00400E06313F0FF
:10305C00080F04D01AB1E26B42F00802E263E26B93
:10306C00002A48D013F0200F02D011F0200F24D1E9
:10307C0023685B6903F04003E26B12F0080F00D188
:10308C003BB32046FFF754FC23685A6912F0400FFB
:10309C001BD05A6922F040025A61636B8BB11A4AF9
:1030AC001A65606BFDF76AFF28B3606B036D984778
:1030BC0010BD2046FFF74FFF10BD2046FFF74BFF1A
:1030CC00D6E7204600F05EFF10BD204600F05AFF08
:1030DC0010BD204600F056FF0023E36310BD13F033
:1030EC00800F02D011F0800F06D113F0400F02D0E8
:1030FC0011F0400F04D110BD2046FFF727FC10BD86
:10310C002046FFF71BFFF6E71931000808B5806B66
:10311C000023C385C38400F035FF08BD90F8393017
:10312C0090F83A0018437047C0F3031351F823305A
:10313C0000F00F0023FA00F000F00100704710B40B
:10314C00C0F3031451F8243000F00F00012202FAEE
:10315C0000F0034341F8243010BC704710B4C0F3A6
:10316C00031451F8243000F00F00012202FA00F091
:10317C0023EA000341F8243010BC70470A281BD8FE
:10318C00DFE800F0061C080A0C0E101214161800CA
:10319C000B4870470B4870470B4870470B487047FB
:1031AC000B4870470B4870470B4870470B487047EB
:1031BC000B4870470B487047002070470A4870470F
:1031CC000000024000080240000C024000100240C7
:1031DC000014024000180240001C02400020024073
:1031EC000024024000280240000402408CB00A284F
:1031FC0000F2A380DFE800F0061523313F4D5B6938
:10320C0077859300002301934D4B1A6B42F001021A
:10321C001A631B6B03F001030193019B49480CB02B
:10322C00704700230293464B1A6B42F002021A635A
:10323C001B6B03F002030293029B4348EFE700234E
:10324C0003933F4B1A6B42F004021A631B6B03F09F
:10325C0004030393039B3D48E1E700230493384B9D
:10326C001A6B42F008021A631B6B03F008030493F9
:10327C00049B3748D3E700230593314B1A6B42F07C
:10328C0010021A631B6B03F010030593059B314866
:10329C00C5E7002306932A4B1A6B42F020021A63EF
:1032AC001B6B03F020030693069B2B48B7E7002308
:1032BC000793234B1A6B42F040021A631B6B03F00B
:1032CC0040030793079B2548A9E7002308931C4B51
:1032DC001A6B42F080021A631B6B03F08003089395
:1032EC00089B1F489BE700230993154B1A6B42F46C
:1032FC0080721A631B6B03F480730993099B194842
:10330C008DE700230A930E4B1A6B42F400721A637A
:10331C001B6B03F400730A930A9B13487FE700238B
:10332C000B93074B1A6B42F480621A631B6B03F40A
:10333C0080630B930B9B0D4871E700206FE700BF78
:10334C000038024000000240000402400008024025
:10335C00000C024000100240001402400018024011
:10336C00001C0240002002400024024000280240C1
:10337C0008B5054900F0E1F8C0F3C430022801D0CB
:10338C00002008BD102008BD185A000808B50949CE
:10339C0000F0D3F8C0F3C430032805D0042805D0BE
:1033AC00022805D0002008BD082008BD0C2008BD4F
:1033BC00042008BD3C5A0008024A136C23F0005349
:1033CC00136470470038024010B586B004460A49B1
:1033DC0000F088F8019030B12046FFF7C9FF014694
:1033EC0018B1102801D006B010BD01A8FDF7B9FD29
:1033FC0001A8FDF7A8FDF6E7185A000808B500F07B
:10340C00F5F808BD30B591B00546134900F06AF8DF
:10341C000190D0B12846FFF7B9FF044638B1042813
:10342C0005D0082803D00C2801D018280DD10A4942
:10343C00284600F082F810F4801F08D0214601A81D
:10344C00FFF74EFA01A8FFF71AF911B030BD21466B
:10345C0001A8FFF7FFF9F5E73C5A000808B5FDF79E
:10346C00DFFC08BD704708B5FDF7CEFCFDF767FD26
:10347C00FFF7F8FF08BD70B586B004460E4615463A
:10348C00C0F30310FFF7B2FE04F00F040123A340B6
:10349C009BB20193022304930296039501A9FDF7B5
:1034AC0081FD06B070BD08B522B9002289B2FDF7C6
:1034BC006BFE08BD012289B2FDF766FE08BD08B59A
:1034CC00FDF788FCFDF7DAFB08BDB1F90030B3F16C
:1034DC00FF3F05D0834201D00C31F6E748687047B6
:1034EC0000207047B0F1FF3F03D008B5FFF7EDFFA8
:1034FC0008BD002070474B6833B1834201D00C31BA
:10350C00F9E7B1F9000070474FF0FF30704718B180
:10351C0008B5FFF7F0FF08BD4FF0FF307047B1F969
:10352C000030B3F1FF3F05D0834201D00C31F6E7F8
:10353C00886870474FF0FF307047B0F1FF3F02D101
:10354C004FF0FF30704708B5FFF7E9FF08BDB0F149
:10355C00FF3F08D0B1F90030B3F1FF3F05D09842DE
:10356C0005D00C31F6E70020704700207047012091
:10357C007047884205D008B111B9704708467047AA
:10358C000020704708B5034B1B6813B1024A106842
:10359C00984708BD84010020A801002008B5024806
:1035AC00FFF73CF808BD00BF880100200C4B1A68DF
:1035BC0042F001021A60002199601A6822F08472AC
:1035CC0022F480321A60074A5A601A6822F4802268
:1035DC001A60D9604FF00062034B9A60704700BFCD
:1035EC00003802401030002400ED00E00268464B29
:1035FC009A4234D00368B3F1804F36D00268434B03
:10360C009A4238D00268424B9A423AD00268414BF7
:10361C009A423CD00268404B9A423ED002683F4BE3
:10362C009A4240D002683E4B9A4242D002683D4BCF
:10363C009A4244D002683C4B9A4246D002683B4BBB
:10364C009A4248D002683A4B9A424AD00268394BA7
:10365C009A424CD00268384B9A424ED07047374A47
:10366C00536C23F001035364C4E7344A136C23F006
:10367C0001031364C2E7314A136C23F00203136491
:10368C00C0E72E4A136C23F004031364BEE72B4AE5
:10369C00136C23F008031364BCE7284A136C23F063
:1036AC0010031364BAE7254A136C23F02003136448
:1036BC00B8E7224A536C23F002035364B6E71F4A5F
:1036CC00536C23F480335364B4E71C4A536C23F4D7
:1036DC0000335364B2E7194A536C23F480235364C8
:1036EC00B0E7164A136C23F040031364AEE7134A99
:1036FC00136C23F080031364ACE7104A136C23F4AF
:10370C0080731364AAE700BF00000140000400406E
:10371C0000080040000C0040001000400014004065
:10372C0000040140004001400044014000480140B9
:10373C0000180040001C00400020004000380240EF
:10374C000438704710B50446FFF7FAFF836C13B1C9
:10375C00227E012A00D010BD00219847FBE708B556
:10376C00FFF7EEFF436C03B1984708BD08B5054B56
:10377C00186808B1FEF7A3FF024B586A08B1FEF7B0
:10378C009EFF08BDAC01002008B5034B586808B17A
:10379C00FEF795FF08BD00BFAC01002008B5034B38
:1037AC00986808B1FEF78BFF08BD00BFAC01002084
:1037BC0008B5034BD86808B1FEF781FF08BD00BF00
:1037CC00AC01002008B5034B186908B1FEF777FF70
:1037DC0008BD00BFAC01002008B5034B586908B107
:1037EC00FEF76DFF08BD00BFAC01002008B5034B10
:1037FC00986908B1FEF763FF08BD00BFAC0100205B
:10380C0008B5054BD86908B1FEF759FF024B186B88
:10381C0008B1FEF754FF08BDAC01002008B5034BFE
:10382C00186A08B1FEF74BFF08BD00BFAC010020C1
:10383C0008B5034B986A08B1FEF741FF08BD00BFFD
:10384C00AC01002008B5034BD86A08B1FEF737FF6E
:10385C0008BD00BFAC01002008B5034B586B08B184
:10386C00FEF72DFF08BD00BFAC01002004387047E7
:10387C00F8B505460F461646FFF7F8FFEB689E4273
:10388C0000D0F8BD044687B9002380F8883080F852
:10389C005E30436E03B19847082394F8882004F1F6
:1038AC0068012846FDF7D4FDF8BD012380F85E3091
:1038BC000823202200F168012846FDF70FFEE0E7FF
:1038CC0010B50446FFF7D2FF036E1BB190F85E20D3
:1038DC00012A03D02046FDF747FE10BD90F82C10AE
:1038EC00C1F1200111F0FF01F4D068309847F1E7E5
:1038FC0010B50446FFF7BAFF90F85F3003B110BD66
:10390C002046FDF731FEFAE708B5024B1868FEF7C2
:10391C00EFF908BD0402002008B5024B1868FEF749
:10392C009BFA08BD0402002008B5024B5868FEF74C
:10393C00DFF908BD0402002008B5024B5868FEF7F9
:10394C008BFA08BD0402002008B5024B9868FEF7FC
:10395C00CFF908BD0402002008B5024B9868FEF7A9
:10396C007BFA08BD04020020002800F0A381F0B50A
:10397C008FB00446051DB449B0F95800FFF7B2FDED
:10398C000646B249B4F95A00FFF7ACFD01460028CF
:10399C0000F08E80002E00F08B803046FFF7E9FDA2
:1039AC002060002800F08880A94B984200F08880A5
:1039BC00A84B984200F09F80A74B984200F0B7802C
:1039CC00A64B984200F0CF80A54B984200F0E780C0
:1039DC00A44B984200F0FF80A34B984200F0178153
:1039EC00A24B984200F04A81B4F95A00C0F303107C
:1039FC00FFF7FCFB07469549B4F95A00FFF79DFD0C
:103A0C00B4F85A3003F00F03012606FA03F39BB205
:103A1C000993C3081B0103F0100300F007021343C2
:103A2C000A93C0F301130B93C0F306200D900323EC
:103A3C000C9309A93846FDF7B5FAB4F95800C0F350
:103A4C000310FFF7D3FB07467F49B4F95800FFF783
:103A5C0074FDB4F8583003F00F039E40B6B20996CB
:103A6C00C3081B0103F0100300F0070213430A9371
:103A7C00C0F301100B9009A93846FDF793FA94F89E
:103A8C0044207B4B43F8225023686360A36CA360F3
:103A9C00E36CE360236D2361636D63610C23A361AD
:103AAC000023E36123622846FFF75BF90FB0F0BDFA
:103ABC00704801F08BFAF9E76F4801F087FAF5E7E7
:103ACC0003F594335A6A42F010025A625A6A22F091
:103ADC0010025A62002101915A6C42F010025A6491
:103AEC005B6C03F010030193019B84F844102523B5
:103AFC0084F85C3078E703F5FA331A6A42F4003242
:103B0C001A621A6A22F400321A62002202921A6CA9
:103B1C0042F400321A641B6C03F400330293029BD0
:103B2C00012384F84430262384F85C305CE703F5E9
:103B3C00F8331A6A42F480221A621A6A22F480223A
:103B4C001A62002203921A6C42F480221A641B6CD3
:103B5C0003F480230393039B022384F8443027232C
:103B6C0084F85C3040E703F5F6331A6A42F400221D
:103B7C001A621A6A22F400221A62002204921A6C47
:103B8C0042F400221A641B6C03F400230493049B7C
:103B9C00032384F84430342384F85C3024E703F5A1
:103BAC00F4331A6A42F480121A621A6A22F48012EE
:103BBC001A62002205921A6C42F480121A641B6C71
:103BCC0003F480130593059B042384F844303523B8
:103BDC0084F85C3008E703F592335A6A42F020020D
:103BEC005A625A6A22F020025A62002206925A6CD9
:103BFC0042F020025A645B6C03F020030693069B90
:103C0C00052384F84430472384F85C30ECE603F554
:103C1C00E0331A6A42F080421A621A6A22F0804239
:103C2C001A62002207921A6C42F080421A641B6CD2
:103C3C0003F080430793079B062384F844305223F8
:103C4C0084F85C30D0E600BFA05C0008105C000873
:103C5C00001001400044004000480040004C00406F
:103C6C00005000400014014000780040007C0040EF
:103C7C00B0020020145E0008445E000803F5DE3339
:103C8C001A6A42F000421A621A6A22F000421A6260
:103C9C00002208921A6C42F000421A641B6C03F06A
:103CAC0000430893089B072384F84430532384F87B
:103CBC005C3099E6704700BF10B50F4BB3F99A40D2
:103CCC000E492046FFF70EFCA8B10C492046FFF721
:103CDC0009FC0B49FFF71BFC0A4BA3F85A00A3F88D
:103CEC0058404FF416529A6400225A65DA641A65E9
:103CFC001846FFF739FE10BD3C5D0008A05C0008BB
:103D0C00105C0008300000202DE9F04107460E46FB
:103D1C00FDF786F88046264BB3F99A50254928467C
:103D2C00FFF7E0FB00283FD0002401E00134E4B2AF
:103D3C00092C0ED8204B53F82430002BF6D01D49FB
:103D4C002846FFF7CFFB1C4B53F824301B688342EB
:103D5C00ECD1092C07D9194B93F84430092B16D800
:103D6C00164B93F844404FF47A73B2B23946124D65
:103D7C0055F82400FFF724F898B1FDF751F8A0EBA3
:103D8C000800B0F57A7FEED30020BDE8F081FFF794
:103D9C0093FF0A4B93F84430092BE1D90020BDE87E
:103DAC00F0813046BDE8F0810020BDE8F08100BF15
:103DBC003C5D0008A05C0008B00200203000002030
:103DCC0008B590F84420064B53F82200FFF7A6F9EB
:103DDC0000F02200222814BF0020012008BD00BFE3
:103DEC00B002002008B590F84420064B53F822008E
:103DFC00FFF794F900F02100212814BF00200120C6
:103E0C0008BD00BFB0020020A0B138B504460D4675
:103E1C00FFF7D6FF88B994F845302B7094F844001E
:103E2C00012204F14501064B53F82000FFF75DF821
:103E3C00002038BD4FF0FF3070474FF0FF3038BDD9
:103E4C00B002002018B338B504460D46FFF7B8FF92
:103E5C0000B138BD94F844300D4A42F823500D4A55
:103E6C0042F823400122002194F95C00FCF7F0FF9A
:103E7C0094F95C00FDF71EF894F84400012204F15B
:103E8C004501054B53F82000FFF72FF8E1E7704789
:103E9C001002002038020020B002002008B310B538
:103EAC00044690F844300F4A42F823100E4A42F868
:103EBC0023000222002190F95C00FCF7C9FF94F961
:103ECC005C00FCF7F7FF94F84400A36EB4F86E1096
:103EDC00012213FA81F1054B53F82000FEF7E1FFA4
:103EEC0010BD70476002002088020020B002002044
:103EFC00024658B10020092807D8054B53F820304A
:103F0C009A4204D00130C0B2F5E770470A207047DE
:103F1C00B002002008B5FFF7EBFF092800D908BD57
:103F2C00034B53F82030034A52F820009847F6E729
:103F3C00100200203802002010B5FFF7D9FF0E4BFD
:103F4C0053F82040092800D910BD0C4B53F82030F1
:103F5C0020469847B0F1FF3FF6D094F84400A36E8A
:103F6C00B4F86E10012213FA81F1054B53F82000BE
:103F7C00FEF797FFE8E700BF8802002060020020F0
:103F8C00B002002082B003681A6812F0010F0ED143
:103F9C001A6812F0020F0FD11A6812F0040F0ED12A
:103FAC001A6812F0080F04D05B68019301E05B689B
:103FBC000193019B02B070475B680193F9E75B6862
:103FCC000193F6E708B52520FCF798FF024B18681B
:103FDC00FFF70CF808BD00BFB002002008B5262082
:103FEC00FCF78CFF024B5868FFF700F808BD00BFC8
:103FFC00B002002008B52720FCF780FF024B986820
:10400C0008B1FEF7F3FF08BDB002002008B534205C
:10401C00FCF774FF024BD868FEF7E8FF08BD00BF41
:10402C00B002002008B53520FCF768FF024B186978
:10403C00FEF7DCFF08BD00BFB002002008B547202A
:10404C00FCF75CFF024B5869FEF7D0FF08BD00BFC0
:10405C00B002002008B55220FCF750FF024B9869C3
:10406C00FEF7C4FF08BD00BFB002002008B5532006
:10407C00FCF744FF024BD869FEF7B8FF08BD00BF40
:10408C00B002002003460B4A126842B1094A10687C
:10409C0003446A46934206D8064A136070470649A1
:1040AC00044A1160F2E70C22044B1A604FF0FF3007
:1040BC00704700BFD8020020780600207006002050
:1040CC004FF0FF3070474FF400534B6000207047A7
:1040DC0001207047002070470020704708B5084643
:1040EC001146FFF711FE08BDFEE700001622024B39
:1040FC001A604FF0FF3070477006002001207047A7
:10410C0038B55F2811D8244B33F91040B4F1FF3F78
:10411C002ED00D4621492046FFF706F840B9032D55
:10412C0022D8DFE805F01C32262C4FF0FF34EDE7E7
:10413C001B492046FFF70BFA38B12046FFF744F92C
:10414C0016492046FFF70AF8E9E716492046FFF71B
:10415C00FEF90028F4D02046FFF754F9F0E70022CE
:10416C0011462046FFF787F90F492046FEF7E7FF77
:10417C0038BD012200212046FFF77DF9F4E7022229
:10418C0000212046FFF777F9EEE7002201212046B7
:10419C00FFF771F9E8E700BF3C5D0008DC02002086
:1041AC00185A00083C5A00080803002038B55F284C
:1041BC000CD80E4B33F91040B4F1FF3F05D00D462F
:1041CC000B492046FEF7B0FF18B938BD4FF0FF344D
:1041DC00F2E7C4F30310FEF7D1FF04F00F04012142
:1041EC00A1402A4689B2FFF75EF9EEE73C5D000874
:1041FC000803002008B5FFF731F908BDB0F86E30A0
:10420C009BB201335A4203F07F0302F07F0258BF86
:10421C0053429BB2A0F86E30B0F86C20B0F86E3000
:10422C009BB29A4201D0002070474FF0FF3070478C
:10423C00B0F838319BB24033B0F83A01181A00F09C
:10424C003F007047B0F838319BB2B0F83A21934236
:10425C0003D0D0F83431985C70474FF0FF30704782
:10426C00B0F8382192B2B0F83A319A4209D0D0F86D
:10427C003421D25C013303F03F03A0F83A311046ED
:10428C0070474FF0FF307047037C33B1B0F84021DA
:10429C00B0F842319BB29A42F8D1704710B582B057
:1042AC0004460DF10701FFF7AFFD98B9B4F864307F
:1042BC009BB2013303F03F03B4F86620934209D05C
:1042CC00216EB4F8642092B29DF8070088549BB21A
:1042DC00A4F8643002B010BD70B501230374B0F8BB
:1042EC004051EC18634204F07F0403F07F0358BF85
:1042FC005C42E6B2B0F842319BB2E2B29342F9D0E2
:10430C00D0F83C315955A0F8406100F1D404204656
:10431C00FFF768FD08B1012070BD02492046FFF788
:10432C00BDFDF8E70942000808B5084B33B1084851
:10433C00FFF77EFF20B1012323B908BD0023FBE763
:10434C000023F9E7AFF30080F7E700BF000000009F
:10435C003403002000F11103C0F834310023A0F81D
:10436C003831A0F83A3100F15102C0F83C21A0F8E4
:10437C004031A0F84231704710B5C0F81C1180F8DC
:10438C00442102F00703042B21D0062B1DD0022B55
:10439C0001D0002300E0062302F03001302918D0B0
:1043AC0012F0200F1BD04FF48061C0F8281101339C
:1043BC0012F0080F17D04FF40052C0F82421082B2C
:1043CC0015D0092B21D0002314E00823E4E70723A0
:1043DC00E2E74FF4C061C0F828110133E8E700218F
:1043EC00C0F82811E4E70022C0F82421E7E70022F6
:1043FC00C0F8202173B100F1D4042046FFF7B4FAC1
:10440C0008492046FFF71EFD10BD4FF48052C0F83E
:10441C002021EFE7044B054A40F22B11044800F031
:10442C00EBF900BFA9420008645E0008F05E0008CA
:10443C00705E00085F2905D8044B33F91130A0F8E1
:10444C002E3170474FF0FF33F9E700BF3C5D000899
:10445C005F2905D8044B33F91130A0F82C31704783
:10446C004FF0FF33F9E700BF3C5D000838B5044658
:10447C00002343604FF47A7383600F4B03600F4B40
:10448C00984211D00D460E492846FFF740F8A4F883
:10449C002E010C492846FFF73AF8A4F82C012046C7
:1044AC00FFF758FF204638BD4C21FFF7C3FF4D21C5
:1044BC002046FFF7CDFFF2E7D85E0008340300205A
:1044CC00105C0008A05C0008012800D0704708B5FB
:1044DC004FF6FF73994200D008BD02490248FFF71E
:1044EC00C5FFF9E7004800403403002008B54FF63B
:1044FC00FF710120FFF7E8FF08BDF8B507460E462F
:10450C0000242546022C0DDC3B190A221979304671
:10451C0000F08AF805442E21304600F048F8054496
:10452C000134EFE70A22F979304600F07DF828448F
:10453C00F8BD000030B4054D056001714271837106
:10454C009DF80830C37130BC704700BF2C5F000869
:10455C00012800D070474FF6FF739942FAD100B58D
:10456C0083B0002100910B460A460348FFF7E2FF97
:10457C0003B05DF804FB00BF7C04002008B54FF6C7
:10458C00FF710120FFF7E4FF08BDF8B505460024D4
:10459C00561E52B12B681B684F1C09782846984749
:1045AC0018B1013432463946F2E72046F8BD08B559
:1045BC0003681B68984708BD30B58BB005460023CF
:1045CC008DF82430012A01DD09AC06E00A22FBE754
:1045DC003731C9B2217019466BB1B1FBF2F3C9B2D4
:1045EC0013FB02F0C0B2091AC9B2013C0929EFDC75
:1045FC003031C9B2EEE754B12046FBF707FE2B6809
:10460C005B6802462146284698470BB030BD002017
:10461C00FBE708B51AB1D2B2FFF7CEFF08BD0368AD
:10462C001B68C9B2984708BD08B5FFF7F2FF08BD73
:10463C0041EA00207047704708B50320FCF7F6FBF1
:10464C00FCF79DFB08BD000008B5FFF7F4FFFCF775
:10465C00EFFAFCF7FFFA034B002BFAD0FFF764FEDE
:10466C00F7E700BF354300080023012803D04008BA
:10467C000133DBB2F9E718467047000010B5074C60
:10468C00074B9C4208D0143CE368002BF8D0201D4B
:10469C00032201469847F3E710BD00BFC405002074
:1046AC0084040020012800D0704708B54FF6FF7332
:1046BC00994200D008BD234B06221A700020D86006
:1046CC0007221A751862082283F8282058630922D9
:1046DC0083F83C2098640A2283F85020D86517226E
:1046EC0083F86420186783F87820C3F8840083F873
:1046FC008C20C3F8980083F8A020C3F8AC0083F892
:10470C00B420C3F8C000282283F8C820C3F8D40012
:10471C0083F8DC20C3F8E80083F8F020C3F8FC0031
:10472C0083F80421C3F8100183F81821C3F824017D
:10473C0083F82C21C3F83801034A044900F057F8D8
:10474C00B8E700BF84040020000000208946000860
:10475C0008B50120FCF71EFD08BD08B50220FCF7CA
:10476C0019FD08BD08B50420FCF714FD08BD08B5FB
:10477C000820FCF70FFD08BD08B51020FCF70AFD5A
:10478C0008BD10B52024B4F5007F04D8A0B2FCF706
:10479C0001FD6400F7E710BD10B54FF48064B4F56B
:1047AC00004F04D8A0B2FCF7F5FC6400F7E710BD8D
:1047BC0008B5836813B1C368984708BD00F0C8FFFB
:1047CC0008B5FFF751FF00EB800083000348184445
:1047DC00043083680BB1FFF7EBFF08BD84040020A5
:1047EC0008B54FF6FF710120FFF75CFF08BD0B46C3
:1047FC000146184600F01EB81FB51C46094B1B6835
:10480C000546D86852B1084B02928DE80A00224640
:10481C002B46064900F01CF800F0C0FC044B1A466D
:10482C00F2E700BFA0000020305F00083D5F0008E9
:10483C006B5F000810B5054C13462CB10A460146B7
:10484C000220AFF3008010BD204610BD0000000018
:10485C000EB403B5014603AB054853F8042B0068AE
:10486C00019300F007F902B05DF804EB03B0704758
:10487C00A000002070B50D4E0D4CA41BA4100025FB
:10488C00A54209D10B4E0C4C01F0AEF8A41BA410A0
:10489C000025A54205D170BD56F825309847013545
:1048AC00EEE756F8253098470135F2E70C60000822
:1048BC000C6000080C6000083460000802440346D9
:1048CC00934200D1704703F8011BF9E738B5054650
:1048DC00002945D051F8043C0C1F002BB8BFE4183C
:1048EC0000F044FE1F4A1368104633B9636014602D
:1048FC002846BDE8384000F03ABEA3420CD92168E6
:10490C006218934204BF1A685B68636004BF521854
:10491C0022600460ECE713465A680AB1A242FAD945
:10492C0019685818A0420BD12068014458188242CB
:10493C001960DDD1106852685A6001441960D7E7DC
:10494C0002D90C232B60D3E7206821188A4204BFBC
:10495C0011685268626004BF091821605C60C7E787
:10496C0038BD00BFC405002070B5CD1C25F0030573
:10497C0008350C2D38BF0C25002D064601DBA9424D
:10498C0003D90C233360002070BD00F0EFFD234AE7
:10499C001468214691B9224C23681BB9304600F0AB
:1049AC002DFB20602946304600F028FB431C26D105
:1049BC000C233360304600F0DAFDE4E70B685B1B38
:1049CC001AD40B2B0FD90B60CD50CC18304600F0FD
:1049DC00CEFD04F10B00231D20F00700C31A1BD0E1
:1049EC005A42E25070BD8C420DBF63684B686360E5
:1049FC00136018BF0C46E9E70C464968CAE7C41CAB
:104A0C0024F00304A04205D0211A304600F0F6FA37
:104A1C000130CDD02560D9E770BD00BFC4050020A2
:104A2C00C80500209368013B002B10B4936008DA92
:104A3C009469A34202DBCBB20A2B02D110BC00F06A
:104A4C00EDBA1368581C10601970C8B210BC7047CE
:104A5C00F8B506460F461446D518AC4201D10020D5
:104A6C0007E03A4614F8011B3046FFF7DBFF431C06
:104A7C00F3D1F8BD2DE9F04F9DB00C4617460393CA
:104A8C00064618B183690BB900F082FC7C4B9C4242
:104A9C0057D17468A38918075DD52369002B5AD0A8
:104AAC000023099320238DF8293030238DF82A30E8
:104ABC004FF0010BB846454615F8013B002B55D17C
:104ACC00B8EB070A0BD053463A4621463046FFF75F
:104ADC00BFFF013000F0C480099B5344099398F840
:104AEC000030002B00F0BC8000234FF0FF32049309
:104AFC000793059206938DF853301A930522297863
:104B0C006048FBF78FFB05F10108049B002831D1AD
:104B1C00D90644BF20228DF853201A0744BF2B22FC
:104B2C008DF853202A782A2A2CD0079A00210A20A3
:104B3C00A846013598F80030303B092B6DD971B37C
:104B4C0026E0514B9C4201D1B468A3E74F4B9C42E9
:104B5C0008BFF4689EE72146304600F0B1FA002801
:104B6C009ED04FF0FF301DB0BDE8F08F252BA7D0A5
:104B7C00A846A0E7434A801A0BFA00F018430490A9
:104B8C004546BBE7039A111D12680391002A01DB0D
:104B9C00079204E0524243F002030792049398F800
:104BAC0000302E2B10D198F801302A2B08F101017E
:104BBC0037D1039B1A1D1B680392002BB8BF4FF013
:104BCC00FF3308F102080593314D98F800100322C9
:104BDC002846FBF727FB40B14023401B03FA00F0AB
:104BEC00049B0343049308F1010898F8001029482A
:104BFC008DF82810062208F10107FBF713FB00289B
:104C0C0034D0254B03BB039B073323F00703083336
:104C1C000393099B4B4409934CE700FB023201219F
:104C2C0086E70023059318460A258846013198F833
:104C3C000020303A092A03D9002BC5D00590C3E7D0
:104C4C0005FB00200123F0E703AB00932246134B36
:104C5C0004A93046AFF30080B0F1FF3F8146D8D1B4
:104C6C00A3895B063FF57DAF09987CE703AB009306
:104C7C0022460A4B04A9304600F088F8ECE700BF46
:104C8C00C45F0008705F0008E45F0008A45F0008C0
:104C9C00765F00087A5F0008000000005D4A00089B
:104CAC002DE9F04791461F468A680B69DDF8208094
:104CBC009342B8BF1346C9F8003091F8432006461A
:104CCC000C4612B10133C9F800302368990642BF73
:104CDC00D9F800300233C9F80030256815F0060504
:104CEC0007D104F1190AE368D9F800209B1A9D42F8
:104CFC0029DB94F843302268003318BF0123920655
:104D0C002ED404F1430239463046C047013021D03D
:104D1C002368E568D9F8002003F00603042B08BFCC
:104D2C00AD1AA36822690CBF25EAE57500259342EC
:104D3C00C4BF9B1AED184FF000091A344D451BD116
:104D4C000020BDE8F0870123524639463046C04763
:104D5C00013003D14FF0FF30BDE8F0870135C2E7D9
:104D6C00E1185A1C302081F84300224494F8451075
:104D7C0082F843100233C4E70123224639463046F9
:104D8C00C0470130E6D009F10109D7E72DE9F0431E
:104D9C0017460A7E85B06E2A984606460C460C9B32
:104DAC0001F1430E00F0BC801AD8632A2ED00AD829
:104DBC00002A00F0C880582A00F08A8004F14205CD
:104DCC0084F842202AE0642A01D0692AF6D12168AD
:104DDC001A6811F0800F23D0111D1960136827E099
:104DEC00732A00F0B48008D86F2A2AD0702AE5D133
:104DFC000A6842F020020A6003E0752A21D0782A62
:104E0C00DCD1782284F845206E4964E01A6801F1FF
:104E1C004205111D1960136884F842300123A3E088
:104E2C0011F0400F02F104011960D7D0B2F9003033
:104E3C00002B03DA2D225B4284F8432062490A22BC
:104E4C0017E02068196810F0800F03D0081D186057
:104E5C000B6806E010F0400F01F104001860F7D069
:104E6C000B8859496F2A14BF0A220822002084F8A3
:104E7C0043006568A560002DC0F29C80206820F07E
:104E8C0004002060002B3FD1002D40F0958075462A
:104E9C00082A0BD12368DA0708D5236962689A427D
:104EAC00DEBF302305F8013C05F1FF35AEEB050301
:104EBC002361CDF800803B4603AA21463046FFF71C
:104ECC00EFFE013055D14FF0FF3005B0BDE8F08357
:104EDC0081F845203C492268186812F0800F00F1D7
:104EEC0004051D6001D0036802E05506FBD503885C
:104EFC00D00744BF42F0200222601BB9226822F086
:104F0C00200222601022B1E77546B3FBF2F002FBDF
:104F1C001033CB5C05F8013D03460028F5D1B7E70B
:104F2C0008681A68496910F0800F04D0101D1860C9
:104F3C001368196007E010F0400F02F104001860CC
:104F4C001368F6D01980002323617546B1E71A68FF
:104F5C00111D19601568626800212846FBF762F97B
:104F6C0008B1401B606063682361002384F8433000
:104F7C009FE723692A4639463046C0470130A2D004
:104F8C0023689B0707D5002504F11909E368039AE8
:104F9C009B1A9D4205DBE068039B9842B8BF1846FC
:104FAC0093E701234A4639463046C04701308AD040
:104FBC000135EBE7002BA7D10B7884F8423004F1D4
:104FCC00420565E7925F0008815F00080FB40A4B49
:104FDC0013B51C6824B1A36913B9204600F0D8F9A5
:104FEC0005AB049AA16801932046FFF743FD02B07C
:104FFC00BDE8104004B07047A000002038B5064C46
:10500C000023054608462360FFF73CF8431C02D1F9
:10501C00236803B12B6038BD70060020F8B50E462E
:10502C001446054618B183690BB900F0B1F9214B50
:10503C009C422AD16C68A369A360A3891A072ED558
:10504C00236963B323692068C01A6369F6B2984276
:10505C00374604DB2146284600F030F928BBA3680C
:10506C00013BA36023685A1C22601E7063690130E7
:10507C00984204D0A389DB0719D50A2E17D12146F3
:10508C00284600F01BF990B10FE00B4B9C4201D16C
:10509C00AC68D0E7094B9C4208BFEC68CBE72146D3
:1050AC00284600F00DF80028CCD04FF0FF373846DA
:1050BC00F8BD00BFC45F0008E45F0008A45F0008EF
:1050CC00324B70B51D6806460C4625B1AB6913B959
:1050DC00284600F05DF92E4B9C420FD16C68B4F958
:1050EC000C309AB215072CD4D00611D40922326098
:1050FC0043F04003A3814FF0FF3070BD254B9C4221
:10510C0001D1AC68EBE7244B9C4208BFEC68E6E7A6
:10511C00510712D5616B41B104F14403994202D09D
:10512C003046FFF7D3FB00236363A38923F02403EA
:10513C00A3810023636023692360A38943F00803E0
:10514C00A38123694BB9A38903F42073B3F5007FC2
:10515C0003D02146304600F0C9F9A28912F00103B0
:10516C000CD00023A36063695B42A361236953B92C
:10517C00B4F90C3013F08000BAD170BD920758BF4F
:10518C006369A360F2E70020F7E700BFA0000020EE
:10519C00C45F0008E45F0008A45F000808B506209F
:1051AC0000F00EFA0120FEF79FFF00008A892DE91E
:1051BC00F041054610070C465AD44B68002B05DC11
:1051CC000B6C002B02DC0020BDE8F081E66A002E9F
:1051DC00F9D0002312F480522F682B6033D0606D0D
:1051EC00A3895A0705D56368C01A636B0BB1236C8E
:1051FC00C01A00230246E66A216A2846B047431CBF
:10520C00A38906D129681D294BD82B4ACA40D60739
:10521C0047D500226260D9042269226004D5421C61
:10522C0001D12B6803B96065616B2F600029CAD06E
:10523C0004F14403994202D02846FFF747FB0020B3
:10524C006063BDE8F081216A01232846B047411C08
:10525C00C6D12B68002BC3D01D2B01D0162B01D12E
:10526C002F60B0E7A38943F04003A381BDE8F08130
:10527C000F69002FA7D093070E6808BF4B690F600A
:10528C0018BF0023A6EB07088B60B8F1000F9ADD5E
:10529C0043463A46216AA66A2846B047002807DCEE
:1052AC00A38943F04003A3814FF0FF30BDE8F081A8
:1052BC000744A8EB0008E8E70100402038B50B696B
:1052CC0005460C46DBB118B183690BB900F060F8E8
:1052DC000C4B9C4209D16C68B4F90C307BB1214663
:1052EC002846BDE83840FFF761BF074B9C4201D10F
:1052FC00AC68F1E7054B9C4208BFEC68ECE700207A
:10530C0038BD00BFC45F0008E45F0008A45F00085C
:10531C00014900F0A9B800BFC9520008002310B51C
:10532C00044603604360836081814366C2810361EC
:10533C0043618361194608225C30FFF7BFFA054BC5
:10534C006362054BA362054BE362054B2462236346
:10535C0010BD00BF05560008275600085F56000810
:10536C008356000870B54A1E682555430E4605F154
:10537C007401FFF7F9FA044640B1002180E84200BD
:10538C000C30A06005F16802FFF798FA204670BD5A
:10539C00836910B5044633BB8364C3640365124B45
:1053AC00124A1B688262984204BF0123836100F099
:1053BC001FF86060204600F01BF8A060204600F04B
:1053CC0017F80022E06004216068FFF7A7FF0122B4
:1053DC000921A068FFF7A2FF02221221E068FFF763
:1053EC009DFF0123A36110BD6C5F00081D530008D5
:1053FC00F8B51C4B1E68B369074613B93046FFF766
:10540C00C7FF4836B4687368013B03D5336833B1C2
:10541C003668F7E7B4F90C506DB16834F4E7042141
:10542C003846FFF79FFF30600028F1D10C233B601A
:10543C0004462046F8BD4FF6FF73E3810123A38198
:10544C0065662560A560656025616561A5610822BA
:10545C00294604F15C00FFF731FA6563A563A56486
:10546C00E564E6E76C5F00082DE9F8438046894661
:10547C0000F14804002614B93046BDE8F883A5684D
:10548C006768013F01D52468F5E7AB89012B07D983
:10549C00B5F90E30013303D029464046C8470643C0
:1054AC006835EEE770B50E46B1F90E10002990B0D4
:1054BC0014461D4607DA00232B60B3891A0610D454
:1054CC004FF480630EE001AA00F0FCF80028F2DB38
:1054DC00029A02F47042A2F500535A425A412A60D1
:1054EC00EEE740230020236010B070BD8B8973B5AC
:1054FC009D0706460C4607D504F14703236023613C
:10550C000123636102B070BD01AB6A46FFF7CAFFAD
:10551C00009905463046FFF727FA48B9B4F90C3024
:10552C009A05EFD423F0030343F00203A381E3E7CE
:10553C000D4BB362A389206043F08003A381009BD1
:10554C006361019B20615BB1B4F90E10304600F031
:10555C00CBF828B1A38923F0030343F00103A38103
:10556C00A3891D43A581CDE71D53000870477047E3
:10557C001F2938B504460D4604D9162303604FF095
:10558C00FF3038BD426C12B152F821304BB9204675
:10559C0000F030F82A4601462046BDE8384000F0BD
:1055AC0017B8012B0AD0591C03D116230360012014
:1055BC0038BD002442F8254028469847002038BDC5
:1055CC00024B01461868FFF7D3BF00BFA0000020B4
:1055DC0038B5074C00230546084611462360FEF7F4
:1055EC0085FD431C02D1236803B12B6038BD00BF7D
:1055FC0070060020FEF782BD10B50C46B1F90E10F6
:10560C0000F094F80028ABBF636DA3891B1823F43A
:10561C008053ACBF6365A38110BD2DE9F0411F46DB
:10562C008B89DB0505460C46164605D50223002260
:10563C00B1F90E1000F068F8A389B4F90E1023F438
:10564C008053A38132463B462846BDE8F04100F02A
:10565C0017B810B50C46B1F90E1000F055F8431CF4
:10566C00A38915BF606523F4805343F48053A38151
:10567C0018BFA38110BDB1F90E1000F013B80000D3
:10568C0038B5074C054608461146002222601A46DA
:10569C00FEF724FD431C02D1236803B12B6038BDF7
:1056AC007006002038B5064C0023054608462360DA
:1056BC00FEF706FD431C02D1236803B12B6038BDF5
:1056CC007006002038B5074C0023054608461146E5
:1056DC002360FEF7F8FC431C02D1236803B12B6056
:1056EC0038BD00BF7006002038B5064C00230546B7
:1056FC0008462360FEF7ECFC431C02D1236803B17F
:10570C002B6038BD7006002038B5074C054608469E
:10571C001146002222601A46FEF7DCFC431C02D123
:10572C00236803B12B6038BD7006002038B5074CD8
:10573C00054608461146002222601A46FEF7CCFCAC
:10574C00431C02D1236803B12B6038BD70060020C6
:10575C0008B5FFF723FD0000244B1A68D0075CBF87
:10576C0001221A60224B1A68D1075CBF01221A6011
:10577C00204B1A68D2075CBF01221A601E4B1A68B4
:10578C00D0075CBF01221A601C4B1A68D1075CBFA2
:10579C0001221A601A4B1A68D2075CBF01221A60E8
:1057AC00184B1A68D0075CBF01221A60164B1A6896
:1057BC00D1075CBF01221A60144B1A68D2075CBF78
:1057CC0001221A60124B1A68D0075CBF01221A60C2
:1057DC00104B1A68D1075CBF01221A600E4B1A6875
:1057EC00D2075CBF01221A60704700BFF805002089
:1057FC00F4050020F0050020EC050020E805002051
:10580C00E4050020E0050020DC050020D805002080
:10581C00D4050020D0050020CC050020244B1A68AC
:10582C00D0075CBF01221A60224B1A68D1075CBFFB
:10583C0001221A60204B1A68D2075CBF01221A6041
:10584C001E4B1A68D0075CBF01221A601C4B1A68E9
:10585C00D1075CBF01221A601A4B1A68D2075CBFD1
:10586C0001221A60184B1A68D0075CBF01221A601B
:10587C00164B1A68D1075CBF01221A60144B1A68C8
:10588C00D2075CBF01221A60124B1A68D0075CBFAA
:10589C0001221A60104B1A68D1075CBF01221A60F2
:1058AC000E4B1A68D2075CBF01221A60704700BF0A
:1058BC002806002024060020200600201C060020BC
:1058CC001806002014060020100600200C060020EC
:1058DC00080600200406002000060020FC0500201D
:1058EC00184B1A68D1075CBF01221A60164B1A6854
:1058FC00D2075CBF01221A60144B1A68D0075CBF38
:10590C0001221A60124B1A68D1075CBF01221A607F
:10591C00104B1A68D2075CBF01221A600E4B1A6832
:10592C00D0075CBF01221A600C4B1A68D1075CBF10
:10593C0001221A600A4B1A68D2075CBF01221A6056
:10594C00704700BF48060020440600204006002097
:10595C003C060020380600203406002030060020CB
:10596C002C060020184B1A68D1075CBF01221A6064
:10597C00164B1A68D2075CBF01221A60144B1A68C6
:10598C00D0075CBF01221A60124B1A68D1075CBFAA
:10599C0001221A60104B1A68D2075CBF01221A60F0
:1059AC000E4B1A68D0075CBF01221A600C4B1A68A8
:1059BC00D1075CBF01221A600A4B1A68D2075CBF80
:1059CC0001221A60704700BF6806002064060020A0
:1059DC00600600205C0600205806002054060020BB
:1059EC00500600204C060020F8B500BFF8BC08BCDF
:1059FC009E467047F8B500BFF8BC08BC9E46704781
:105A0C000102030405060F10504C43000400000073
:105A1C00007400400380000005000000007400408A
:105A2C0003000100FFFF0000000000000000000068
:105A3C000000000000000040128100000300000084
:105A4C00000C00401202020005000000000401409E
:105A5C0012831000060000000004004012820000B7
:105A6C000700000000200040128900000800000020
:105A7C0000000140128100000F00000000000040F7
:105A8C00128100001100000000040140128311007B
:105A9C00130000000000004012010100140000007F
:105AAC0000040040128200001500000000040040B9
:105ABC0012020100160000000008004012820000D3
:105ACC0018000000000800401282010019000000BC
